{
  "contractName": "Token",
  "abi": [
    {
      "inputs": [
        {
          "internalType": "uint16",
          "name": "_supply",
          "type": "uint16"
        },
        {
          "internalType": "uint256",
          "name": "_start",
          "type": "uint256"
        }
      ],
      "stateMutability": "nonpayable",
      "type": "constructor"
    },
    {
      "anonymous": false,
      "inputs": [
        {
          "indexed": true,
          "internalType": "address",
          "name": "_nominator",
          "type": "address"
        },
        {
          "indexed": true,
          "internalType": "address",
          "name": "_writer",
          "type": "address"
        },
        {
          "indexed": false,
          "internalType": "string",
          "name": "_url",
          "type": "string"
        }
      ],
      "name": "Nominate",
      "type": "event"
    },
    {
      "anonymous": false,
      "inputs": [
        {
          "indexed": true,
          "internalType": "address",
          "name": "_from",
          "type": "address"
        },
        {
          "indexed": true,
          "internalType": "address",
          "name": "_to",
          "type": "address"
        },
        {
          "indexed": false,
          "internalType": "uint16",
          "name": "_value",
          "type": "uint16"
        }
      ],
      "name": "Transfer_Goverance",
      "type": "event"
    },
    {
      "anonymous": false,
      "inputs": [
        {
          "indexed": true,
          "internalType": "address",
          "name": "_from",
          "type": "address"
        },
        {
          "indexed": true,
          "internalType": "address",
          "name": "_to",
          "type": "address"
        },
        {
          "indexed": false,
          "internalType": "uint16",
          "name": "_value",
          "type": "uint16"
        }
      ],
      "name": "Transfer_Reward",
      "type": "event"
    },
    {
      "anonymous": false,
      "inputs": [
        {
          "indexed": true,
          "internalType": "address",
          "name": "_voter",
          "type": "address"
        },
        {
          "indexed": false,
          "internalType": "string",
          "name": "_url",
          "type": "string"
        },
        {
          "indexed": false,
          "internalType": "uint16",
          "name": "_value",
          "type": "uint16"
        }
      ],
      "name": "Vote",
      "type": "event"
    },
    {
      "anonymous": false,
      "inputs": [
        {
          "indexed": true,
          "internalType": "address",
          "name": "_writer",
          "type": "address"
        },
        {
          "indexed": false,
          "internalType": "string",
          "name": "_url",
          "type": "string"
        }
      ],
      "name": "Winner",
      "type": "event"
    },
    {
      "inputs": [
        {
          "internalType": "address",
          "name": "",
          "type": "address"
        }
      ],
      "name": "goveranceBalance",
      "outputs": [
        {
          "internalType": "uint16",
          "name": "",
          "type": "uint16"
        }
      ],
      "stateMutability": "view",
      "type": "function"
    },
    {
      "inputs": [],
      "name": "goveranceSupply",
      "outputs": [
        {
          "internalType": "uint16",
          "name": "",
          "type": "uint16"
        }
      ],
      "stateMutability": "view",
      "type": "function"
    },
    {
      "inputs": [],
      "name": "name",
      "outputs": [
        {
          "internalType": "string",
          "name": "",
          "type": "string"
        }
      ],
      "stateMutability": "view",
      "type": "function"
    },
    {
      "inputs": [
        {
          "internalType": "uint256",
          "name": "",
          "type": "uint256"
        }
      ],
      "name": "nominees",
      "outputs": [
        {
          "internalType": "address",
          "name": "writer",
          "type": "address"
        },
        {
          "internalType": "string",
          "name": "url",
          "type": "string"
        }
      ],
      "stateMutability": "view",
      "type": "function"
    },
    {
      "inputs": [],
      "name": "owner",
      "outputs": [
        {
          "internalType": "address",
          "name": "",
          "type": "address"
        }
      ],
      "stateMutability": "view",
      "type": "function"
    },
    {
      "inputs": [
        {
          "internalType": "address",
          "name": "",
          "type": "address"
        }
      ],
      "name": "rewardBalance",
      "outputs": [
        {
          "internalType": "uint16",
          "name": "",
          "type": "uint16"
        }
      ],
      "stateMutability": "view",
      "type": "function"
    },
    {
      "inputs": [],
      "name": "rewardSupply",
      "outputs": [
        {
          "internalType": "uint16",
          "name": "",
          "type": "uint16"
        }
      ],
      "stateMutability": "view",
      "type": "function"
    },
    {
      "inputs": [],
      "name": "seconds_for_nominations",
      "outputs": [
        {
          "internalType": "uint256",
          "name": "",
          "type": "uint256"
        }
      ],
      "stateMutability": "view",
      "type": "function"
    },
    {
      "inputs": [],
      "name": "seconds_for_voting",
      "outputs": [
        {
          "internalType": "uint256",
          "name": "",
          "type": "uint256"
        }
      ],
      "stateMutability": "view",
      "type": "function"
    },
    {
      "inputs": [],
      "name": "startTime",
      "outputs": [
        {
          "internalType": "uint256",
          "name": "",
          "type": "uint256"
        }
      ],
      "stateMutability": "view",
      "type": "function"
    },
    {
      "inputs": [
        {
          "internalType": "uint256",
          "name": "",
          "type": "uint256"
        }
      ],
      "name": "voteCounts",
      "outputs": [
        {
          "internalType": "uint16",
          "name": "",
          "type": "uint16"
        }
      ],
      "stateMutability": "view",
      "type": "function"
    },
    {
      "inputs": [
        {
          "internalType": "uint256",
          "name": "",
          "type": "uint256"
        }
      ],
      "name": "winners",
      "outputs": [
        {
          "internalType": "address",
          "name": "writer",
          "type": "address"
        },
        {
          "internalType": "string",
          "name": "url",
          "type": "string"
        }
      ],
      "stateMutability": "view",
      "type": "function"
    },
    {
      "inputs": [
        {
          "internalType": "uint256",
          "name": "_time",
          "type": "uint256"
        }
      ],
      "name": "setStartTime",
      "outputs": [
        {
          "internalType": "bool",
          "name": "",
          "type": "bool"
        }
      ],
      "stateMutability": "nonpayable",
      "type": "function"
    },
    {
      "inputs": [
        {
          "internalType": "uint256",
          "name": "_index",
          "type": "uint256"
        }
      ],
      "name": "nomineesWriter",
      "outputs": [
        {
          "internalType": "address",
          "name": "",
          "type": "address"
        }
      ],
      "stateMutability": "view",
      "type": "function"
    },
    {
      "inputs": [
        {
          "internalType": "uint256",
          "name": "_index",
          "type": "uint256"
        }
      ],
      "name": "nomineesUrl",
      "outputs": [
        {
          "internalType": "string",
          "name": "",
          "type": "string"
        }
      ],
      "stateMutability": "view",
      "type": "function"
    },
    {
      "inputs": [],
      "name": "nomineesLength",
      "outputs": [
        {
          "internalType": "uint256",
          "name": "",
          "type": "uint256"
        }
      ],
      "stateMutability": "view",
      "type": "function"
    },
    {
      "inputs": [
        {
          "internalType": "uint256",
          "name": "_index",
          "type": "uint256"
        }
      ],
      "name": "winnersWriter",
      "outputs": [
        {
          "internalType": "address",
          "name": "",
          "type": "address"
        }
      ],
      "stateMutability": "view",
      "type": "function"
    },
    {
      "inputs": [
        {
          "internalType": "uint256",
          "name": "_index",
          "type": "uint256"
        }
      ],
      "name": "winnersUrl",
      "outputs": [
        {
          "internalType": "string",
          "name": "",
          "type": "string"
        }
      ],
      "stateMutability": "view",
      "type": "function"
    },
    {
      "inputs": [],
      "name": "winnersLength",
      "outputs": [
        {
          "internalType": "uint256",
          "name": "",
          "type": "uint256"
        }
      ],
      "stateMutability": "view",
      "type": "function"
    },
    {
      "inputs": [],
      "name": "votingEnds",
      "outputs": [
        {
          "internalType": "uint256",
          "name": "",
          "type": "uint256"
        }
      ],
      "stateMutability": "view",
      "type": "function"
    },
    {
      "inputs": [
        {
          "internalType": "address",
          "name": "_voter",
          "type": "address"
        }
      ],
      "name": "votesRemaining",
      "outputs": [
        {
          "internalType": "uint16",
          "name": "",
          "type": "uint16"
        }
      ],
      "stateMutability": "view",
      "type": "function"
    },
    {
      "inputs": [
        {
          "internalType": "address",
          "name": "_writer",
          "type": "address"
        },
        {
          "internalType": "string",
          "name": "_url",
          "type": "string"
        }
      ],
      "name": "submitNomination",
      "outputs": [
        {
          "internalType": "bool",
          "name": "",
          "type": "bool"
        }
      ],
      "stateMutability": "nonpayable",
      "type": "function"
    },
    {
      "inputs": [
        {
          "internalType": "uint256",
          "name": "_index",
          "type": "uint256"
        },
        {
          "internalType": "uint16",
          "name": "_value",
          "type": "uint16"
        }
      ],
      "name": "castVotes",
      "outputs": [
        {
          "internalType": "bool",
          "name": "",
          "type": "bool"
        }
      ],
      "stateMutability": "nonpayable",
      "type": "function"
    },
    {
      "inputs": [
        {
          "internalType": "address",
          "name": "_to",
          "type": "address"
        },
        {
          "internalType": "uint16",
          "name": "_value",
          "type": "uint16"
        }
      ],
      "name": "transferGoverance",
      "outputs": [
        {
          "internalType": "bool",
          "name": "",
          "type": "bool"
        }
      ],
      "stateMutability": "nonpayable",
      "type": "function"
    },
    {
      "inputs": [
        {
          "internalType": "address",
          "name": "_to",
          "type": "address"
        },
        {
          "internalType": "uint16",
          "name": "_value",
          "type": "uint16"
        }
      ],
      "name": "transferReward",
      "outputs": [
        {
          "internalType": "bool",
          "name": "",
          "type": "bool"
        }
      ],
      "stateMutability": "nonpayable",
      "type": "function"
    },
    {
      "inputs": [],
      "name": "updateWinner",
      "outputs": [
        {
          "internalType": "bool",
          "name": "",
          "type": "bool"
        }
      ],
      "stateMutability": "nonpayable",
      "type": "function"
    }
  ],
  "bytecode": "0x60806040523480156200001157600080fd5b5060405162002b4138038062002b4183398181016040528101906200003791906200019b565b33600160006101000a81548173ffffffffffffffffffffffffffffffffffffffff021916908373ffffffffffffffffffffffffffffffffffffffff16021790555081600360006101000a81548161ffff021916908361ffff16021790555081600260003373ffffffffffffffffffffffffffffffffffffffff1673ffffffffffffffffffffffffffffffffffffffff16815260200190815260200160002060006101000a81548161ffff021916908361ffff160217905550806000819055506000600560006101000a81548161ffff021916908361ffff1602179055505050620001e2565b600080fd5b600061ffff82169050919050565b6200013a8162000121565b81146200014657600080fd5b50565b6000815190506200015a816200012f565b92915050565b6000819050919050565b620001758162000160565b81146200018157600080fd5b50565b60008151905062000195816200016a565b92915050565b60008060408385031215620001b557620001b46200011c565b5b6000620001c58582860162000149565b9250506020620001d88582860162000184565b9150509250929050565b61294f80620001f26000396000f3fe608060405234801561001057600080fd5b506004361061018e5760003560e01c80637b5ea02b116100de578063a2fb117511610097578063d1fe8b8f11610071578063d1fe8b8f14610512578063d20e6df414610542578063df7b637b14610560578063eec6b91e1461057e5761018e565b8063a2fb117514610493578063aebd9dd4146104c4578063c7230357146104e25761018e565b80637b5ea02b146103855780637c9f512a146103b557806384ecc4db146103e5578063885515da146104155780638da5cb5b1461044557806394be82ba146104635761018e565b80633c3a220d1161014b578063527834a711610125578063527834a7146102e957806367b40cf7146103195780636b0c341b1461034957806378e97925146103675761018e565b80633c3a220d146102595780633e0a322d146102895780633e286cca146102b95761018e565b806306fdde03146101935780631ab6a181146101b1578063280ee4ee146101cf5780632c3c2fd2146101ed5780633376def81461021d5780633b52f2be1461023b575b600080fd5b61019b6105af565b6040516101a89190611f31565b60405180910390f35b6101b96105e8565b6040516101c69190611f6c565b60405180910390f35b6101d76105ef565b6040516101e49190611f6c565b60405180910390f35b61020760048036038101906102029190611fbd565b610615565b604051610214919061202b565b60405180910390f35b610225610664565b6040516102329190612061565b60405180910390f35b610243610a17565b6040516102509190611f6c565b60405180910390f35b610273600480360381019061026e9190611fbd565b610a24565b6040516102809190612099565b60405180910390f35b6102a3600480360381019061029e9190611fbd565b610a5c565b6040516102b09190612061565b60405180910390f35b6102d360048036038101906102ce919061210c565b610ac8565b6040516102e09190612061565b60405180910390f35b61030360048036038101906102fe919061210c565b610c78565b6040516103109190612061565b60405180910390f35b610333600480360381019061032e919061214c565b610e28565b6040516103409190612099565b60405180910390f35b610351610e49565b60405161035e9190612099565b60405180910390f35b61036f610e5d565b60405161037c9190611f6c565b60405180910390f35b61039f600480360381019061039a9190612179565b610e63565b6040516103ac9190612061565b60405180910390f35b6103cf60048036038101906103ca9190611fbd565b611169565b6040516103dc9190611f31565b60405180910390f35b6103ff60048036038101906103fa919061221e565b611220565b60405161040c9190612061565b60405180910390f35b61042f600480360381019061042a919061214c565b611666565b60405161043c9190612099565b60405180910390f35b61044d61176d565b60405161045a919061202b565b60405180910390f35b61047d6004803603810190610478919061214c565b611793565b60405161048a9190612099565b60405180910390f35b6104ad60048036038101906104a89190611fbd565b6117b4565b6040516104bb92919061227e565b60405180910390f35b6104cc611890565b6040516104d99190611f6c565b60405180910390f35b6104fc60048036038101906104f79190611fbd565b61189d565b604051610509919061202b565b60405180910390f35b61052c60048036038101906105279190611fbd565b6118ec565b6040516105399190611f31565b60405180910390f35b61054a6119a3565b6040516105579190612099565b60405180910390f35b6105686119b7565b6040516105759190611f6c565b60405180910390f35b61059860048036038101906105939190611fbd565b6119be565b6040516105a692919061227e565b60405180910390f35b6040518060400160405280600b81526020017f42656c6c696e67636f696e00000000000000000000000000000000000000000081525081565b6202a30081565b6000620697806202a30060005461060691906122dd565b61061091906122dd565b905090565b60006007828154811061062b5761062a612333565b5b906000526020600020906002020160000160009054906101000a900473ffffffffffffffffffffffffffffffffffffffff169050919050565b6000620697806202a30060005461067b91906122dd565b61068591906122dd565b421115610a0f57600060078054905011156109fe57600080600190505b60078054905081101561074457600c82815481106106c3576106c2612333565b5b90600052602060002090601091828204019190066002029054906101000a900461ffff1661ffff16600c82815481106106ff576106fe612333565b5b90600052602060002090601091828204019190066002029054906101000a900461ffff1661ffff161115610731578091505b808061073c90612362565b9150506106a2565b5060006007828154811061075b5761075a612333565b5b90600052602060002090600202016040518060400160405290816000820160009054906101000a900473ffffffffffffffffffffffffffffffffffffffff1673ffffffffffffffffffffffffffffffffffffffff1673ffffffffffffffffffffffffffffffffffffffff1681526020016001820180546107da906123da565b80601f0160208091040260200160405190810160405280929190818152602001828054610806906123da565b80156108535780601f1061082857610100808354040283529160200191610853565b820191906000526020600020905b81548152906001019060200180831161083657829003601f168201915b5050505050815250509050600681908060018154018082558091505060019003906000526020600020906002020160009091909190915060008201518160000160006101000a81548173ffffffffffffffffffffffffffffffffffffffff021916908373ffffffffffffffffffffffffffffffffffffffff16021790555060208201518160010190805190602001906108ed929190611cfa565b505050600160046000836000015173ffffffffffffffffffffffffffffffffffffffff1673ffffffffffffffffffffffffffffffffffffffff16815260200190815260200160002060008282829054906101000a900461ffff16610951919061240c565b92506101000a81548161ffff021916908361ffff1602179055506001600560008282829054906101000a900461ffff1661098b919061240c565b92506101000a81548161ffff021916908361ffff160217905550806000015173ffffffffffffffffffffffffffffffffffffffff167f45edd59c4f5dea5f690cd524f1a6ea9cba17b09235c1bfaa2cea0d80bac5daba82602001516040516109f39190611f31565b60405180910390a250505b610a06611a9a565b60019050610a14565b600090505b90565b6000600680549050905090565b600c8181548110610a3457600080fd5b9060005260206000209060109182820401919006600202915054906101000a900461ffff1681565b6000600160009054906101000a900473ffffffffffffffffffffffffffffffffffffffff1673ffffffffffffffffffffffffffffffffffffffff163373ffffffffffffffffffffffffffffffffffffffff1614610ab857600080fd5b8160008190555060019050919050565b60008161ffff16610ad833611666565b61ffff161015610b1d576040517f08c379a0000000000000000000000000000000000000000000000000000000008152600401610b1490612490565b60405180910390fd5b81600460003373ffffffffffffffffffffffffffffffffffffffff1673ffffffffffffffffffffffffffffffffffffffff16815260200190815260200160002060008282829054906101000a900461ffff16610b7991906124b0565b92506101000a81548161ffff021916908361ffff16021790555081600460008573ffffffffffffffffffffffffffffffffffffffff1673ffffffffffffffffffffffffffffffffffffffff16815260200190815260200160002060008282829054906101000a900461ffff16610bef919061240c565b92506101000a81548161ffff021916908361ffff1602179055508273ffffffffffffffffffffffffffffffffffffffff163373ffffffffffffffffffffffffffffffffffffffff167fae13b1b9025e718165e591dfa0112bd25bfc4707360823943febf4a50e79e0fd84604051610c669190612099565b60405180910390a36001905092915050565b60008161ffff16610c8833611666565b61ffff161015610ccd576040517f08c379a0000000000000000000000000000000000000000000000000000000008152600401610cc490612490565b60405180910390fd5b81600260003373ffffffffffffffffffffffffffffffffffffffff1673ffffffffffffffffffffffffffffffffffffffff16815260200190815260200160002060008282829054906101000a900461ffff16610d2991906124b0565b92506101000a81548161ffff021916908361ffff16021790555081600260008573ffffffffffffffffffffffffffffffffffffffff1673ffffffffffffffffffffffffffffffffffffffff16815260200190815260200160002060008282829054906101000a900461ffff16610d9f919061240c565b92506101000a81548161ffff021916908361ffff1602179055508273ffffffffffffffffffffffffffffffffffffffff163373ffffffffffffffffffffffffffffffffffffffff167f77a6867a906a43f071dd51ecb754a9611814ec6659608ac73700ef7d7f42e1b984604051610e169190612099565b60405180910390a36001905092915050565b60046020528060005260406000206000915054906101000a900461ffff1681565b600560009054906101000a900461ffff1681565b60005481565b60008161ffff16610e7333611666565b61ffff161015610eb8576040517f08c379a0000000000000000000000000000000000000000000000000000000008152600401610eaf90612490565b60405180910390fd5b6007805490508310610eff576040517f08c379a0000000000000000000000000000000000000000000000000000000008152600401610ef690612530565b60405180910390fd5b6202a300600054610f1091906122dd565b4211610f51576040517f08c379a0000000000000000000000000000000000000000000000000000000008152600401610f489061259c565b60405180910390fd5b620697806202a300600054610f6691906122dd565b610f7091906122dd565b421115610fb2576040517f08c379a0000000000000000000000000000000000000000000000000000000008152600401610fa990612608565b60405180910390fd5b81600b60003373ffffffffffffffffffffffffffffffffffffffff1673ffffffffffffffffffffffffffffffffffffffff16815260200190815260200160002060008282829054906101000a900461ffff1661100e919061240c565b92506101000a81548161ffff021916908361ffff16021790555081600c848154811061103d5761103c612333565b5b90600052602060002090601091828204019190066002028282829054906101000a900461ffff1661106e919061240c565b92506101000a81548161ffff021916908361ffff160217905550600a339080600181540180825580915050600190039060005260206000200160009091909190916101000a81548173ffffffffffffffffffffffffffffffffffffffff021916908373ffffffffffffffffffffffffffffffffffffffff1602179055503373ffffffffffffffffffffffffffffffffffffffff167f1a5088a3ca5c105d23f497c6b2068517c63f032c4b02f658fcb02808fce9a5116007858154811061113757611136612333565b5b9060005260206000209060020201600101846040516111579291906126bd565b60405180910390a26001905092915050565b60606006828154811061117f5761117e612333565b5b9060005260206000209060020201600101805461119b906123da565b80601f01602080910402602001604051908101604052809291908181526020018280546111c7906123da565b80156112145780601f106111e957610100808354040283529160200191611214565b820191906000526020600020905b8154815290600101906020018083116111f757829003601f168201915b50505050509050919050565b6000600260003373ffffffffffffffffffffffffffffffffffffffff1673ffffffffffffffffffffffffffffffffffffffff16815260200190815260200160002060009054906101000a900461ffff1661ffff16600960003373ffffffffffffffffffffffffffffffffffffffff1673ffffffffffffffffffffffffffffffffffffffff16815260200190815260200160002060009054906101000a900461ffff1661ffff1610611306576040517f08c379a00000000000000000000000000000000000000000000000000000000081526004016112fd90612739565b60405180910390fd5b600054421161134a576040517f08c379a00000000000000000000000000000000000000000000000000000000081526004016113419061259c565b60405180910390fd5b6202a30060005461135b91906122dd565b42111561139d576040517f08c379a000000000000000000000000000000000000000000000000000000000815260040161139490612608565b60405180910390fd5b6113a78383611c61565b156113e7576040517f08c379a00000000000000000000000000000000000000000000000000000000081526004016113de906127a5565b60405180910390fd5b6001600960003373ffffffffffffffffffffffffffffffffffffffff1673ffffffffffffffffffffffffffffffffffffffff16815260200190815260200160002060008282829054906101000a900461ffff16611444919061240c565b92506101000a81548161ffff021916908361ffff160217905550600760405180604001604052808673ffffffffffffffffffffffffffffffffffffffff16815260200185858080601f016020809104026020016040519081016040528093929190818152602001838380828437600081840152601f19601f82011690508083019250505050505050815250908060018154018082558091505060019003906000526020600020906002020160009091909190915060008201518160000160006101000a81548173ffffffffffffffffffffffffffffffffffffffff021916908373ffffffffffffffffffffffffffffffffffffffff160217905550602082015181600101908051906020019061155b929190611cfa565b5050506008339080600181540180825580915050600190039060005260206000200160009091909190916101000a81548173ffffffffffffffffffffffffffffffffffffffff021916908373ffffffffffffffffffffffffffffffffffffffff160217905550600c6001816001815401808255809150500390600052602060002090601091828204019190066002029054906101000a9050508373ffffffffffffffffffffffffffffffffffffffff163373ffffffffffffffffffffffffffffffffffffffff167f86b9bd97bdb1aa709e139f61f71cef4092d6d19d5f94dc1ecdc98402bdc09a258585604051611653929190612801565b60405180910390a3600190509392505050565b6000600b60008373ffffffffffffffffffffffffffffffffffffffff1673ffffffffffffffffffffffffffffffffffffffff16815260200190815260200160002060009054906101000a900461ffff16600460008473ffffffffffffffffffffffffffffffffffffffff1673ffffffffffffffffffffffffffffffffffffffff16815260200190815260200160002060009054906101000a900461ffff16600260008573ffffffffffffffffffffffffffffffffffffffff1673ffffffffffffffffffffffffffffffffffffffff16815260200190815260200160002060009054906101000a900461ffff1661175c919061240c565b61176691906124b0565b9050919050565b600160009054906101000a900473ffffffffffffffffffffffffffffffffffffffff1681565b60026020528060005260406000206000915054906101000a900461ffff1681565b600681815481106117c457600080fd5b90600052602060002090600202016000915090508060000160009054906101000a900473ffffffffffffffffffffffffffffffffffffffff169080600101805461180d906123da565b80601f0160208091040260200160405190810160405280929190818152602001828054611839906123da565b80156118865780601f1061185b57610100808354040283529160200191611886565b820191906000526020600020905b81548152906001019060200180831161186957829003601f168201915b5050505050905082565b6000600780549050905090565b6000600682815481106118b3576118b2612333565b5b906000526020600020906002020160000160009054906101000a900473ffffffffffffffffffffffffffffffffffffffff169050919050565b60606007828154811061190257611901612333565b5b9060005260206000209060020201600101805461191e906123da565b80601f016020809104026020016040519081016040528092919081815260200182805461194a906123da565b80156119975780601f1061196c57610100808354040283529160200191611997565b820191906000526020600020905b81548152906001019060200180831161197a57829003601f168201915b50505050509050919050565b600360009054906101000a900461ffff1681565b6206978081565b600781815481106119ce57600080fd5b90600052602060002090600202016000915090508060000160009054906101000a900473ffffffffffffffffffffffffffffffffffffffff1690806001018054611a17906123da565b80601f0160208091040260200160405190810160405280929190818152602001828054611a43906123da565b8015611a905780601f10611a6557610100808354040283529160200191611a90565b820191906000526020600020905b815481529060010190602001808311611a7357829003601f168201915b5050505050905082565b60076000611aa89190611d80565b60005b600880549050811015611b59576009600060088381548110611ad057611acf612333565b5b9060005260206000200160009054906101000a900473ffffffffffffffffffffffffffffffffffffffff1673ffffffffffffffffffffffffffffffffffffffff1673ffffffffffffffffffffffffffffffffffffffff16815260200190815260200160002060006101000a81549061ffff02191690558080611b5190612362565b915050611aab565b5060086000611b689190611da4565b60005b600a80549050811015611c1957600b6000600a8381548110611b9057611b8f612333565b5b9060005260206000200160009054906101000a900473ffffffffffffffffffffffffffffffffffffffff1673ffffffffffffffffffffffffffffffffffffffff1673ffffffffffffffffffffffffffffffffffffffff16815260200190815260200160002060006101000a81549061ffff02191690558080611c1190612362565b915050611b6b565b50600a6000611c289190611da4565b600c6000611c369190611dc5565b620697806202a300611c4891906122dd565b600080828254611c5891906122dd565b92505081905550565b6000808383604051611c74929190612855565b6040518091039020905060005b600780549050811015611ced5760078181548110611ca257611ca1612333565b5b9060005260206000209060020201600101604051611cc09190612902565b6040518091039020821415611cda57600192505050611cf4565b8080611ce590612362565b915050611c81565b5060009150505b92915050565b828054611d06906123da565b90600052602060002090601f016020900481019282611d285760008555611d6f565b82601f10611d4157805160ff1916838001178555611d6f565b82800160010185558215611d6f579182015b82811115611d6e578251825591602001919060010190611d53565b5b509050611d7c9190611ded565b5090565b5080546000825560020290600052602060002090810190611da19190611e0a565b50565b5080546000825590600052602060002090810190611dc29190611ded565b50565b50805460008255600f016010900490600052602060002090810190611dea9190611ded565b50565b5b80821115611e06576000816000905550600101611dee565b5090565b5b80821115611e5457600080820160006101000a81549073ffffffffffffffffffffffffffffffffffffffff0219169055600182016000611e4b9190611e58565b50600201611e0b565b5090565b508054611e64906123da565b6000825580601f10611e765750611e95565b601f016020900490600052602060002090810190611e949190611ded565b5b50565b600081519050919050565b600082825260208201905092915050565b60005b83811015611ed2578082015181840152602081019050611eb7565b83811115611ee1576000848401525b50505050565b6000601f19601f8301169050919050565b6000611f0382611e98565b611f0d8185611ea3565b9350611f1d818560208601611eb4565b611f2681611ee7565b840191505092915050565b60006020820190508181036000830152611f4b8184611ef8565b905092915050565b6000819050919050565b611f6681611f53565b82525050565b6000602082019050611f816000830184611f5d565b92915050565b600080fd5b600080fd5b611f9a81611f53565b8114611fa557600080fd5b50565b600081359050611fb781611f91565b92915050565b600060208284031215611fd357611fd2611f87565b5b6000611fe184828501611fa8565b91505092915050565b600073ffffffffffffffffffffffffffffffffffffffff82169050919050565b600061201582611fea565b9050919050565b6120258161200a565b82525050565b6000602082019050612040600083018461201c565b92915050565b60008115159050919050565b61205b81612046565b82525050565b60006020820190506120766000830184612052565b92915050565b600061ffff82169050919050565b6120938161207c565b82525050565b60006020820190506120ae600083018461208a565b92915050565b6120bd8161200a565b81146120c857600080fd5b50565b6000813590506120da816120b4565b92915050565b6120e98161207c565b81146120f457600080fd5b50565b600081359050612106816120e0565b92915050565b6000806040838503121561212357612122611f87565b5b6000612131858286016120cb565b9250506020612142858286016120f7565b9150509250929050565b60006020828403121561216257612161611f87565b5b6000612170848285016120cb565b91505092915050565b600080604083850312156121905761218f611f87565b5b600061219e85828601611fa8565b92505060206121af858286016120f7565b9150509250929050565b600080fd5b600080fd5b600080fd5b60008083601f8401126121de576121dd6121b9565b5b8235905067ffffffffffffffff8111156121fb576121fa6121be565b5b602083019150836001820283011115612217576122166121c3565b5b9250929050565b60008060006040848603121561223757612236611f87565b5b6000612245868287016120cb565b935050602084013567ffffffffffffffff81111561226657612265611f8c565b5b612272868287016121c8565b92509250509250925092565b6000604082019050612293600083018561201c565b81810360208301526122a58184611ef8565b90509392505050565b7f4e487b7100000000000000000000000000000000000000000000000000000000600052601160045260246000fd5b60006122e882611f53565b91506122f383611f53565b9250827fffffffffffffffffffffffffffffffffffffffffffffffffffffffffffffffff03821115612328576123276122ae565b5b828201905092915050565b7f4e487b7100000000000000000000000000000000000000000000000000000000600052603260045260246000fd5b600061236d82611f53565b91507fffffffffffffffffffffffffffffffffffffffffffffffffffffffffffffffff8214156123a05761239f6122ae565b5b600182019050919050565b7f4e487b7100000000000000000000000000000000000000000000000000000000600052602260045260246000fd5b600060028204905060018216806123f257607f821691505b60208210811415612406576124056123ab565b5b50919050565b60006124178261207c565b91506124228361207c565b92508261ffff03821115612439576124386122ae565b5b828201905092915050565b7f746f6f206665772072656d61696e696e67000000000000000000000000000000600082015250565b600061247a601183611ea3565b915061248582612444565b602082019050919050565b600060208201905081810360008301526124a98161246d565b9050919050565b60006124bb8261207c565b91506124c68361207c565b9250828210156124d9576124d86122ae565b5b828203905092915050565b7f696e76616c6964206e6f6d696e65650000000000000000000000000000000000600082015250565b600061251a600f83611ea3565b9150612525826124e4565b602082019050919050565b600060208201905081810360008301526125498161250d565b9050919050565b7f746f6f206561726c790000000000000000000000000000000000000000000000600082015250565b6000612586600983611ea3565b915061259182612550565b602082019050919050565b600060208201905081810360008301526125b581612579565b9050919050565b7f746f6f206c617465000000000000000000000000000000000000000000000000600082015250565b60006125f2600883611ea3565b91506125fd826125bc565b602082019050919050565b60006020820190508181036000830152612621816125e5565b9050919050565b60008190508160005260206000209050919050565b6000815461264a816123da565b6126548186611ea3565b9450600182166000811461266f5760018114612681576126b4565b60ff19831686526020860193506126b4565b61268a85612628565b60005b838110156126ac5781548189015260018201915060208101905061268d565b808801955050505b50505092915050565b600060408201905081810360008301526126d7818561263d565b90506126e6602083018461208a565b9392505050565b7f746f6f206d616e79206e6f6d696e6174696f6e73000000000000000000000000600082015250565b6000612723601483611ea3565b915061272e826126ed565b602082019050919050565b6000602082019050818103600083015261275281612716565b9050919050565b7f616c7265616479206e6f6d696e61746500000000000000000000000000000000600082015250565b600061278f601083611ea3565b915061279a82612759565b602082019050919050565b600060208201905081810360008301526127be81612782565b9050919050565b82818337600083830152505050565b60006127e08385611ea3565b93506127ed8385846127c5565b6127f683611ee7565b840190509392505050565b6000602082019050818103600083015261281c8184866127d4565b90509392505050565b600081905092915050565b600061283c8385612825565b93506128498385846127c5565b82840190509392505050565b6000612862828486612830565b91508190509392505050565b60008190508160005260206000209050919050565b60008154612890816123da565b61289a8186612825565b945060018216600081146128b557600181146128c6576128f9565b60ff198316865281860193506128f9565b6128cf8561286e565b60005b838110156128f1578154818901526001820191506020810190506128d2565b838801955050505b50505092915050565b600061290e8284612883565b91508190509291505056fea2646970667358221220e920d47a45850942c3d0e9673d1508f38113639a4b4fa0a7098e621a051525d464736f6c634300080b0033",
  "immutableReferences": {},
  "source": "pragma solidity >=0.4.22 <0.9.0;\n\ncontract Token {\n\n    struct Article {\n        address writer;\n        string url;\n    }\n\n    string public constant name = \"Bellingcoin\";\n    uint public constant seconds_for_nominations = 172800;\n    uint public constant seconds_for_voting = 432000;\n    uint public startTime;\n    address public owner;\n\n    mapping(address => uint16) public goveranceBalance;\n    uint16 public goveranceSupply;\n\n    mapping(address => uint16) public rewardBalance;\n    uint16 public rewardSupply;\n\n    Article[] public winners;\n\n    Article[] public nominees;\n    // number of nominations made by each address\n    address[] nominators;\n    mapping(address => uint16) nominationsMade;\n    // number of votes cast by each address\n    address[] voters;\n    mapping(address => uint16) votesCast;\n    // cumulative votes for each nominee\n    uint16[] public voteCounts;\n\n    constructor(uint16 _supply, uint _start) public {\n        owner = msg.sender;\n        goveranceSupply = _supply;\n        goveranceBalance[msg.sender] = _supply;\n        startTime = _start;\n        rewardSupply = 0;\n    }\n\n    event Nominate(address indexed _nominator, address indexed _writer, string _url);\n    event Vote(address indexed _voter, string _url, uint16 _value);\n    event Transfer_Goverance(address indexed _from, address indexed _to, uint16 _value);\n    event Transfer_Reward(address indexed _from, address indexed _to, uint16 _value);\n    event Winner(address indexed _writer, string _url);\n\n    function setStartTime(uint _time) public returns (bool) {\n        require(msg.sender == owner);\n        startTime = _time;\n        return true;\n    }\n\n    function nomineesWriter(uint _index) public view returns (address) {\n        return nominees[_index].writer;\n    }\n\n    function nomineesUrl(uint _index) public view returns (string memory) {\n        return nominees[_index].url;\n    }\n\n    function nomineesLength() public view returns (uint) {\n        return nominees.length;\n    }\n\n    function winnersWriter(uint _index) public view returns (address) {\n        return winners[_index].writer;\n    }\n\n    function winnersUrl(uint _index) public view returns (string memory) {\n        return winners[_index].url;\n    }\n\n    function winnersLength() public view returns (uint) {\n        return winners.length;\n    }\n\n    function votingEnds() public view returns (uint) {\n        return startTime + seconds_for_nominations + seconds_for_voting;\n    }\n\n    function votesRemaining(address _voter) public view returns (uint16) {\n        return goveranceBalance[_voter] + rewardBalance[_voter] - votesCast[_voter];\n    }\n\n    function submitNomination(address _writer, string calldata _url) public returns (bool) {\n        require(nominationsMade[msg.sender] < goveranceBalance[msg.sender], \"too many nominations\");\n        require(block.timestamp > startTime, \"too early\");\n        require(block.timestamp <= startTime + seconds_for_nominations, \"too late\");\n        require(!alreadyNominated(_url), \"already nominate\");\n\n        nominationsMade[msg.sender] += 1;\n        nominees.push(Article(_writer, _url));\n        nominators.push(msg.sender);\n        voteCounts.push();\n\n        emit Nominate(msg.sender, _writer, _url);\n        return true;\n    }\n\n    function castVotes(uint _index, uint16 _value) public returns (bool) {\n        require(votesRemaining(msg.sender) >= _value, \"too few remaining\");\n        require(_index < nominees.length, \"invalid nominee\");\n        require(block.timestamp > startTime + seconds_for_nominations, \"too early\");\n        require(block.timestamp <= startTime + seconds_for_nominations + seconds_for_voting, \"too late\");\n\n        votesCast[msg.sender] += _value;\n        voteCounts[_index] += _value;\n        voters.push(msg.sender);\n\n        emit Vote(msg.sender, nominees[_index].url, _value);\n        return true;\n    }\n\n    function transferGoverance(address _to, uint16 _value) public returns (bool) {\n        require(votesRemaining(msg.sender) >= _value, \"too few remaining\");\n\n        goveranceBalance[msg.sender] -= _value;\n        goveranceBalance[_to] += _value;\n\n        emit Transfer_Goverance(msg.sender, _to, _value);\n        return true;\n    }\n\n    function transferReward(address _to, uint16 _value) public returns (bool) {\n        require(votesRemaining(msg.sender) >= _value, \"too few remaining\");\n\n        rewardBalance[msg.sender] -= _value;\n        rewardBalance[_to] += _value;\n\n        emit Transfer_Reward(msg.sender, _to, _value);\n        return true;\n    }\n\n    function updateWinner() public returns (bool) {\n        if (block.timestamp > startTime + seconds_for_nominations + seconds_for_voting) {\n            if (nominees.length > 0) {\n                uint index = 0;\n                for (uint i = 1; i < nominees.length; i++) {\n                    if (voteCounts[i] > voteCounts[index]) {\n                        index = i;\n                    }\n                }\n                Article memory winner = nominees[index];\n\n                winners.push(winner);\n                rewardBalance[winner.writer] += 1;\n                rewardSupply += 1;\n                emit Winner(winner.writer, winner.url); \n            }\n           \n            resetVoting();\n            return true;\n        }\n        return false;\n    }\n\n    function resetVoting() private {\n        delete nominees;\n\n        for (uint i = 0; i < nominators.length; i++) {\n            delete nominationsMade[nominators[i]];\n        }\n        delete nominators;\n\n        for (uint i = 0; i < voters.length; i++) {\n            delete votesCast[voters[i]];\n        }\n        delete voters;\n\n        delete voteCounts;\n\n        startTime += seconds_for_nominations + seconds_for_voting;\n    }\n\n    function alreadyNominated(string calldata _url) private view returns (bool) {\n        bytes32 hashVal = keccak256(bytes(_url));\n        for (uint i = 0; i < nominees.length; i++) {\n            if (hashVal == keccak256(bytes(nominees[i].url))) {\n                return true;\n            }\n        }\n        return false;\n    }\n    \n}\n",
  "sourcePath": "/Users/edwardtian/Documents/Code/react/contracts/bellingcoin.sol",
  "compiler": {
    "name": "solc",
    "version": "0.8.11+commit.d7f03943.Emscripten.clang"
  },
  "schemaVersion": "3.4.7",
  "updatedAt": "2022-04-28T19:52:21.371Z",
  "devdoc": {
    "kind": "dev",
    "methods": {},
    "version": 1
  },
  "userdoc": {
    "kind": "user",
    "methods": {},
    "version": 1
  }
}