{
  "contractName": "GovToken",
  "abi": [
    {
      "inputs": [
        {
          "internalType": "address",
          "name": "_origin",
          "type": "address"
        },
        {
          "internalType": "uint256",
          "name": "_supply",
          "type": "uint256"
        }
      ],
      "stateMutability": "nonpayable",
      "type": "constructor"
    },
    {
      "anonymous": false,
      "inputs": [
        {
          "indexed": true,
          "internalType": "address",
          "name": "owner",
          "type": "address"
        },
        {
          "indexed": true,
          "internalType": "address",
          "name": "spender",
          "type": "address"
        },
        {
          "indexed": false,
          "internalType": "uint256",
          "name": "value",
          "type": "uint256"
        }
      ],
      "name": "Approval",
      "type": "event"
    },
    {
      "anonymous": false,
      "inputs": [
        {
          "indexed": true,
          "internalType": "address",
          "name": "from",
          "type": "address"
        },
        {
          "indexed": true,
          "internalType": "address",
          "name": "to",
          "type": "address"
        },
        {
          "indexed": false,
          "internalType": "uint256",
          "name": "value",
          "type": "uint256"
        }
      ],
      "name": "Transfer",
      "type": "event"
    },
    {
      "inputs": [
        {
          "internalType": "address",
          "name": "owner",
          "type": "address"
        },
        {
          "internalType": "address",
          "name": "spender",
          "type": "address"
        }
      ],
      "name": "allowance",
      "outputs": [
        {
          "internalType": "uint256",
          "name": "",
          "type": "uint256"
        }
      ],
      "stateMutability": "view",
      "type": "function"
    },
    {
      "inputs": [
        {
          "internalType": "address",
          "name": "spender",
          "type": "address"
        },
        {
          "internalType": "uint256",
          "name": "amount",
          "type": "uint256"
        }
      ],
      "name": "approve",
      "outputs": [
        {
          "internalType": "bool",
          "name": "",
          "type": "bool"
        }
      ],
      "stateMutability": "nonpayable",
      "type": "function"
    },
    {
      "inputs": [
        {
          "internalType": "address",
          "name": "account",
          "type": "address"
        }
      ],
      "name": "balanceOf",
      "outputs": [
        {
          "internalType": "uint256",
          "name": "",
          "type": "uint256"
        }
      ],
      "stateMutability": "view",
      "type": "function"
    },
    {
      "inputs": [
        {
          "internalType": "address",
          "name": "spender",
          "type": "address"
        },
        {
          "internalType": "uint256",
          "name": "subtractedValue",
          "type": "uint256"
        }
      ],
      "name": "decreaseAllowance",
      "outputs": [
        {
          "internalType": "bool",
          "name": "",
          "type": "bool"
        }
      ],
      "stateMutability": "nonpayable",
      "type": "function"
    },
    {
      "inputs": [
        {
          "internalType": "address",
          "name": "spender",
          "type": "address"
        },
        {
          "internalType": "uint256",
          "name": "addedValue",
          "type": "uint256"
        }
      ],
      "name": "increaseAllowance",
      "outputs": [
        {
          "internalType": "bool",
          "name": "",
          "type": "bool"
        }
      ],
      "stateMutability": "nonpayable",
      "type": "function"
    },
    {
      "inputs": [],
      "name": "name",
      "outputs": [
        {
          "internalType": "string",
          "name": "",
          "type": "string"
        }
      ],
      "stateMutability": "view",
      "type": "function"
    },
    {
      "inputs": [],
      "name": "symbol",
      "outputs": [
        {
          "internalType": "string",
          "name": "",
          "type": "string"
        }
      ],
      "stateMutability": "view",
      "type": "function"
    },
    {
      "inputs": [],
      "name": "totalSupply",
      "outputs": [
        {
          "internalType": "uint256",
          "name": "",
          "type": "uint256"
        }
      ],
      "stateMutability": "view",
      "type": "function"
    },
    {
      "inputs": [
        {
          "internalType": "address",
          "name": "to",
          "type": "address"
        },
        {
          "internalType": "uint256",
          "name": "amount",
          "type": "uint256"
        }
      ],
      "name": "transfer",
      "outputs": [
        {
          "internalType": "bool",
          "name": "",
          "type": "bool"
        }
      ],
      "stateMutability": "nonpayable",
      "type": "function"
    },
    {
      "inputs": [
        {
          "internalType": "address",
          "name": "from",
          "type": "address"
        },
        {
          "internalType": "address",
          "name": "to",
          "type": "address"
        },
        {
          "internalType": "uint256",
          "name": "amount",
          "type": "uint256"
        }
      ],
      "name": "transferFrom",
      "outputs": [
        {
          "internalType": "bool",
          "name": "",
          "type": "bool"
        }
      ],
      "stateMutability": "nonpayable",
      "type": "function"
    },
    {
      "inputs": [],
      "name": "voting",
      "outputs": [
        {
          "internalType": "contract OSIVoting",
          "name": "",
          "type": "address"
        }
      ],
      "stateMutability": "view",
      "type": "function"
    },
    {
      "inputs": [],
      "name": "decimals",
      "outputs": [
        {
          "internalType": "uint8",
          "name": "",
          "type": "uint8"
        }
      ],
      "stateMutability": "view",
      "type": "function"
    }
  ],
  "bytecode": "0x60806040523480156200001157600080fd5b5060405162000eaf38038062000eaf833981016040819052620000349162000373565b604080518082018252600d81527f4f534920476f766572616e63650000000000000000000000000000000000000060208083019182528351808501909452600784527f4f53495f474f5600000000000000000000000000000000000000000000000000908401528151919291620000ae91600391620002cd565b508051620000c4906004906020840190620002cd565b505050620000e28282620000fc640100000000026401000000009004565b505060058054600160a060020a0319163317905562000445565b600160a060020a03821662000171576040517f08c379a000000000000000000000000000000000000000000000000000000000815260206004820152601f60248201527f45524332303a206d696e7420746f20746865207a65726f206164647265737300604482015260640160405180910390fd5b62000188600083836401000000006200022c810204565b80600260008282546200019c9190620003af565b9091555050600160a060020a03821660009081526020819052604081208054839290620001cb908490620003af565b9091555050604051818152600160a060020a038316906000907fddf252ad1be2c89b69c2b068fc378daa952ba7f163c4a11628f55a4df523b3ef9060200160405180910390a3620002286000838364010000000062000231810204565b5050565b505050565b600160a060020a038316156200022c576005546040517f7fbe6207000000000000000000000000000000000000000000000000000000008152336004820152600160a060020a0384811660248301526044820184905290911690637fbe620790606401600060405180830381600087803b158015620002af57600080fd5b505af1158015620002c4573d6000803e3d6000fd5b50505050505050565b828054620002db90620003ef565b90600052602060002090601f016020900481019282620002ff57600085556200034a565b82601f106200031a57805160ff19168380011785556200034a565b828001600101855582156200034a579182015b828111156200034a5782518255916020019190600101906200032d565b50620003589291506200035c565b5090565b5b808211156200035857600081556001016200035d565b600080604083850312156200038757600080fd5b8251600160a060020a03811681146200039f57600080fd5b6020939093015192949293505050565b60008219821115620003ea577f4e487b7100000000000000000000000000000000000000000000000000000000600052601160045260246000fd5b500190565b6002810460018216806200040457607f821691505b602082108114156200043f577f4e487b7100000000000000000000000000000000000000000000000000000000600052602260045260246000fd5b50919050565b610a5a80620004556000396000f3fe608060405234801561001057600080fd5b50600436106100d1576000357c01000000000000000000000000000000000000000000000000000000009004806370a082311161008e57806370a082311461015e57806395d89b4114610187578063a457c2d71461018f578063a9059cbb146101a2578063dd62ed3e146101b5578063fce1ccca146101c857600080fd5b806306fdde03146100d6578063095ea7b3146100f457806318160ddd1461011757806323b872dd14610129578063313ce5671461013c578063395093511461014b575b600080fd5b6100de6101f3565b6040516100eb9190610865565b60405180910390f35b6101076101023660046108d6565b610285565b60405190151581526020016100eb565b6002545b6040519081526020016100eb565b610107610137366004610900565b61029d565b604051600081526020016100eb565b6101076101593660046108d6565b6102c1565b61011b61016c36600461093c565b600160a060020a031660009081526020819052604090205490565b6100de6102e3565b61010761019d3660046108d6565b6102f2565b6101076101b03660046108d6565b61038d565b61011b6101c336600461095e565b61039b565b6005546101db90600160a060020a031681565b604051600160a060020a0390911681526020016100eb565b60606003805461020290610991565b80601f016020809104026020016040519081016040528092919081815260200182805461022e90610991565b801561027b5780601f106102505761010080835404028352916020019161027b565b820191906000526020600020905b81548152906001019060200180831161025e57829003601f168201915b5050505050905090565b6000336102938185856103c6565b5060019392505050565b6000336102ab858285610524565b6102b68585856105a1565b506001949350505050565b6000336102938185856102d4838361039b565b6102de91906109e5565b6103c6565b60606004805461020290610991565b60003381610300828661039b565b9050838110156103805760405160e560020a62461bcd02815260206004820152602560248201527f45524332303a2064656372656173656420616c6c6f77616e63652062656c6f7760448201527f207a65726f00000000000000000000000000000000000000000000000000000060648201526084015b60405180910390fd5b6102b682868684036103c6565b6000336102938185856105a1565b600160a060020a03918216600090815260016020908152604080832093909416825291909152205490565b600160a060020a0383166104445760405160e560020a62461bcd028152602060048201526024808201527f45524332303a20617070726f76652066726f6d20746865207a65726f2061646460448201527f72657373000000000000000000000000000000000000000000000000000000006064820152608401610377565b600160a060020a0382166104c35760405160e560020a62461bcd02815260206004820152602260248201527f45524332303a20617070726f766520746f20746865207a65726f20616464726560448201527f73730000000000000000000000000000000000000000000000000000000000006064820152608401610377565b600160a060020a0383811660008181526001602090815260408083209487168084529482529182902085905590518481527f8c5be1e5ebec7d5bd14f71427d1e84f3dd0314c0f7b2291e5b200ac8c7c3b925910160405180910390a3505050565b6000610530848461039b565b9050600019811461059b578181101561058e5760405160e560020a62461bcd02815260206004820152601d60248201527f45524332303a20696e73756666696369656e7420616c6c6f77616e63650000006044820152606401610377565b61059b84848484036103c6565b50505050565b600160a060020a0383166106205760405160e560020a62461bcd02815260206004820152602560248201527f45524332303a207472616e736665722066726f6d20746865207a65726f20616460448201527f64726573730000000000000000000000000000000000000000000000000000006064820152608401610377565b600160a060020a03821661069f5760405160e560020a62461bcd02815260206004820152602360248201527f45524332303a207472616e7366657220746f20746865207a65726f206164647260448201527f65737300000000000000000000000000000000000000000000000000000000006064820152608401610377565b600160a060020a038316600090815260208190526040902054818110156107315760405160e560020a62461bcd02815260206004820152602660248201527f45524332303a207472616e7366657220616d6f756e742065786365656473206260448201527f616c616e636500000000000000000000000000000000000000000000000000006064820152608401610377565b600160a060020a038085166000908152602081905260408082208585039055918516815290812080548492906107689084906109e5565b9250508190555082600160a060020a031684600160a060020a03167fddf252ad1be2c89b69c2b068fc378daa952ba7f163c4a11628f55a4df523b3ef846040516107b491815260200190565b60405180910390a361059b8484846107cc565b505050565b600160a060020a038316156107c7576005546040517f7fbe6207000000000000000000000000000000000000000000000000000000008152336004820152600160a060020a0384811660248301526044820184905290911690637fbe620790606401600060405180830381600087803b15801561084857600080fd5b505af115801561085c573d6000803e3d6000fd5b50505050505050565b600060208083528351808285015260005b8181101561089257858101830151858201604001528201610876565b818111156108a4576000604083870101525b50601f01601f1916929092016040019392505050565b8035600160a060020a03811681146108d157600080fd5b919050565b600080604083850312156108e957600080fd5b6108f2836108ba565b946020939093013593505050565b60008060006060848603121561091557600080fd5b61091e846108ba565b925061092c602085016108ba565b9150604084013590509250925092565b60006020828403121561094e57600080fd5b610957826108ba565b9392505050565b6000806040838503121561097157600080fd5b61097a836108ba565b9150610988602084016108ba565b90509250929050565b6002810460018216806109a557607f821691505b602082108114156109df577f4e487b7100000000000000000000000000000000000000000000000000000000600052602260045260246000fd5b50919050565b60008219821115610a1f577f4e487b7100000000000000000000000000000000000000000000000000000000600052601160045260246000fd5b50019056fea26469706673582212203b2d207b600277aa5536d1249e59123abaaf03220bc1bda7e50d26c0a3a4bbf364736f6c634300080b0033",
  "immutableReferences": {},
  "source": "// contracts/GovToken.sol\n// SPDX-License-Identifier: MIT\npragma solidity ^0.8.0;\n\nimport \"./OSIVoting.sol\";\nimport \"@openzeppelin/contracts/token/ERC20/ERC20.sol\";\n\ncontract GovToken is ERC20 {\n\n    OSIVoting public voting;\n\n    constructor(address _origin, uint256 _supply) ERC20(\"OSI Goverance\", \"OSI_GOV\") {\n        _mint(_origin, _supply);\n        voting = OSIVoting(msg.sender);\n    }\n\n    function _afterTokenTransfer(address _from, address _to, uint256 _amount) internal virtual override {\n        // avoids during initial minting\n        if (_from != address(0))\n            voting.goveranceTransfer(msg.sender, _to, _amount);\n    } \n\n    function decimals() public view virtual override returns (uint8) {\n        return 0;\n    }\n}\n",
  "sourcePath": "/Users/edwardtian/Documents/Code/react/contracts/GovToken.sol",
  "compiler": {
    "name": "solc",
    "version": "0.8.11+commit.d7f03943.Emscripten.clang"
  },
  "schemaVersion": "3.4.7",
  "updatedAt": "2022-05-03T22:40:33.492Z",
  "devdoc": {
    "kind": "dev",
    "methods": {
      "allowance(address,address)": {
        "details": "See {IERC20-allowance}."
      },
      "approve(address,uint256)": {
        "details": "See {IERC20-approve}. NOTE: If `amount` is the maximum `uint256`, the allowance is not updated on `transferFrom`. This is semantically equivalent to an infinite approval. Requirements: - `spender` cannot be the zero address."
      },
      "balanceOf(address)": {
        "details": "See {IERC20-balanceOf}."
      },
      "decimals()": {
        "details": "Returns the number of decimals used to get its user representation. For example, if `decimals` equals `2`, a balance of `505` tokens should be displayed to a user as `5.05` (`505 / 10 ** 2`). Tokens usually opt for a value of 18, imitating the relationship between Ether and Wei. This is the value {ERC20} uses, unless this function is overridden; NOTE: This information is only used for _display_ purposes: it in no way affects any of the arithmetic of the contract, including {IERC20-balanceOf} and {IERC20-transfer}."
      },
      "decreaseAllowance(address,uint256)": {
        "details": "Atomically decreases the allowance granted to `spender` by the caller. This is an alternative to {approve} that can be used as a mitigation for problems described in {IERC20-approve}. Emits an {Approval} event indicating the updated allowance. Requirements: - `spender` cannot be the zero address. - `spender` must have allowance for the caller of at least `subtractedValue`."
      },
      "increaseAllowance(address,uint256)": {
        "details": "Atomically increases the allowance granted to `spender` by the caller. This is an alternative to {approve} that can be used as a mitigation for problems described in {IERC20-approve}. Emits an {Approval} event indicating the updated allowance. Requirements: - `spender` cannot be the zero address."
      },
      "name()": {
        "details": "Returns the name of the token."
      },
      "symbol()": {
        "details": "Returns the symbol of the token, usually a shorter version of the name."
      },
      "totalSupply()": {
        "details": "See {IERC20-totalSupply}."
      },
      "transfer(address,uint256)": {
        "details": "See {IERC20-transfer}. Requirements: - `to` cannot be the zero address. - the caller must have a balance of at least `amount`."
      },
      "transferFrom(address,address,uint256)": {
        "details": "See {IERC20-transferFrom}. Emits an {Approval} event indicating the updated allowance. This is not required by the EIP. See the note at the beginning of {ERC20}. NOTE: Does not update the allowance if the current allowance is the maximum `uint256`. Requirements: - `from` and `to` cannot be the zero address. - `from` must have a balance of at least `amount`. - the caller must have allowance for ``from``'s tokens of at least `amount`."
      }
    },
    "version": 1
  },
  "userdoc": {
    "kind": "user",
    "methods": {},
    "version": 1
  }
}