{
  "contractName": "GovToken",
  "abi": [
    {
      "inputs": [
        {
          "internalType": "address",
          "name": "_origin",
          "type": "address"
        },
        {
          "internalType": "uint256",
          "name": "_supply",
          "type": "uint256"
        }
      ],
      "stateMutability": "nonpayable",
      "type": "constructor"
    },
    {
      "anonymous": false,
      "inputs": [
        {
          "indexed": true,
          "internalType": "address",
          "name": "owner",
          "type": "address"
        },
        {
          "indexed": true,
          "internalType": "address",
          "name": "spender",
          "type": "address"
        },
        {
          "indexed": false,
          "internalType": "uint256",
          "name": "value",
          "type": "uint256"
        }
      ],
      "name": "Approval",
      "type": "event"
    },
    {
      "anonymous": false,
      "inputs": [
        {
          "indexed": true,
          "internalType": "address",
          "name": "from",
          "type": "address"
        },
        {
          "indexed": true,
          "internalType": "address",
          "name": "to",
          "type": "address"
        },
        {
          "indexed": false,
          "internalType": "uint256",
          "name": "value",
          "type": "uint256"
        }
      ],
      "name": "Transfer",
      "type": "event"
    },
    {
      "inputs": [
        {
          "internalType": "address",
          "name": "owner",
          "type": "address"
        },
        {
          "internalType": "address",
          "name": "spender",
          "type": "address"
        }
      ],
      "name": "allowance",
      "outputs": [
        {
          "internalType": "uint256",
          "name": "",
          "type": "uint256"
        }
      ],
      "stateMutability": "view",
      "type": "function"
    },
    {
      "inputs": [
        {
          "internalType": "address",
          "name": "spender",
          "type": "address"
        },
        {
          "internalType": "uint256",
          "name": "amount",
          "type": "uint256"
        }
      ],
      "name": "approve",
      "outputs": [
        {
          "internalType": "bool",
          "name": "",
          "type": "bool"
        }
      ],
      "stateMutability": "nonpayable",
      "type": "function"
    },
    {
      "inputs": [
        {
          "internalType": "address",
          "name": "account",
          "type": "address"
        }
      ],
      "name": "balanceOf",
      "outputs": [
        {
          "internalType": "uint256",
          "name": "",
          "type": "uint256"
        }
      ],
      "stateMutability": "view",
      "type": "function"
    },
    {
      "inputs": [
        {
          "internalType": "address",
          "name": "spender",
          "type": "address"
        },
        {
          "internalType": "uint256",
          "name": "subtractedValue",
          "type": "uint256"
        }
      ],
      "name": "decreaseAllowance",
      "outputs": [
        {
          "internalType": "bool",
          "name": "",
          "type": "bool"
        }
      ],
      "stateMutability": "nonpayable",
      "type": "function"
    },
    {
      "inputs": [
        {
          "internalType": "address",
          "name": "spender",
          "type": "address"
        },
        {
          "internalType": "uint256",
          "name": "addedValue",
          "type": "uint256"
        }
      ],
      "name": "increaseAllowance",
      "outputs": [
        {
          "internalType": "bool",
          "name": "",
          "type": "bool"
        }
      ],
      "stateMutability": "nonpayable",
      "type": "function"
    },
    {
      "inputs": [],
      "name": "name",
      "outputs": [
        {
          "internalType": "string",
          "name": "",
          "type": "string"
        }
      ],
      "stateMutability": "view",
      "type": "function"
    },
    {
      "inputs": [],
      "name": "symbol",
      "outputs": [
        {
          "internalType": "string",
          "name": "",
          "type": "string"
        }
      ],
      "stateMutability": "view",
      "type": "function"
    },
    {
      "inputs": [],
      "name": "totalSupply",
      "outputs": [
        {
          "internalType": "uint256",
          "name": "",
          "type": "uint256"
        }
      ],
      "stateMutability": "view",
      "type": "function"
    },
    {
      "inputs": [
        {
          "internalType": "address",
          "name": "to",
          "type": "address"
        },
        {
          "internalType": "uint256",
          "name": "amount",
          "type": "uint256"
        }
      ],
      "name": "transfer",
      "outputs": [
        {
          "internalType": "bool",
          "name": "",
          "type": "bool"
        }
      ],
      "stateMutability": "nonpayable",
      "type": "function"
    },
    {
      "inputs": [
        {
          "internalType": "address",
          "name": "from",
          "type": "address"
        },
        {
          "internalType": "address",
          "name": "to",
          "type": "address"
        },
        {
          "internalType": "uint256",
          "name": "amount",
          "type": "uint256"
        }
      ],
      "name": "transferFrom",
      "outputs": [
        {
          "internalType": "bool",
          "name": "",
          "type": "bool"
        }
      ],
      "stateMutability": "nonpayable",
      "type": "function"
    },
    {
      "inputs": [],
      "name": "voting",
      "outputs": [
        {
          "internalType": "contract OSIVoting",
          "name": "",
          "type": "address"
        }
      ],
      "stateMutability": "view",
      "type": "function"
    },
    {
      "inputs": [],
      "name": "decimals",
      "outputs": [
        {
          "internalType": "uint8",
          "name": "",
          "type": "uint8"
        }
      ],
      "stateMutability": "view",
      "type": "function"
    }
  ],
  "bytecode": "0x60806040523480156200001157600080fd5b5060405162001bc538038062001bc583398181016040528101906200003791906200050c565b6040518060400160405280600d81526020017f4f534920476f766572616e6365000000000000000000000000000000000000008152506040518060400160405280600781526020017f4f53495f474f56000000000000000000000000000000000000000000000000008152508160039080519060200190620000bb929190620003b7565b508060049080519060200190620000d4929190620003b7565b505050620000f282826200013b640100000000026401000000009004565b33600560006101000a81548173ffffffffffffffffffffffffffffffffffffffff021916908373ffffffffffffffffffffffffffffffffffffffff160217905550505062000743565b600073ffffffffffffffffffffffffffffffffffffffff168273ffffffffffffffffffffffffffffffffffffffff161415620001ae576040517f08c379a0000000000000000000000000000000000000000000000000000000008152600401620001a590620005b4565b60405180910390fd5b620001cb60008383620002c6640100000000026401000000009004565b8060026000828254620001df919062000605565b92505081905550806000808473ffffffffffffffffffffffffffffffffffffffff1673ffffffffffffffffffffffffffffffffffffffff168152602001908152602001600020600082825462000236919062000605565b925050819055508173ffffffffffffffffffffffffffffffffffffffff16600073ffffffffffffffffffffffffffffffffffffffff167fddf252ad1be2c89b69c2b068fc378daa952ba7f163c4a11628f55a4df523b3ef836040516200029d919062000673565b60405180910390a3620002c260008383620002cb640100000000026401000000009004565b5050565b505050565b600073ffffffffffffffffffffffffffffffffffffffff168373ffffffffffffffffffffffffffffffffffffffff1614620003b257600560009054906101000a900473ffffffffffffffffffffffffffffffffffffffff1673ffffffffffffffffffffffffffffffffffffffff16637fbe62073384846040518463ffffffff167c01000000000000000000000000000000000000000000000000000000000281526004016200037d93929190620006a1565b600060405180830381600087803b1580156200039857600080fd5b505af1158015620003ad573d6000803e3d6000fd5b505050505b505050565b828054620003c5906200070d565b90600052602060002090601f016020900481019282620003e9576000855562000435565b82601f106200040457805160ff191683800117855562000435565b8280016001018555821562000435579182015b828111156200043457825182559160200191906001019062000417565b5b50905062000444919062000448565b5090565b5b808211156200046357600081600090555060010162000449565b5090565b600080fd5b600073ffffffffffffffffffffffffffffffffffffffff82169050919050565b600062000499826200046c565b9050919050565b620004ab816200048c565b8114620004b757600080fd5b50565b600081519050620004cb81620004a0565b92915050565b6000819050919050565b620004e681620004d1565b8114620004f257600080fd5b50565b6000815190506200050681620004db565b92915050565b6000806040838503121562000526576200052562000467565b5b60006200053685828601620004ba565b92505060206200054985828601620004f5565b9150509250929050565b600082825260208201905092915050565b7f45524332303a206d696e7420746f20746865207a65726f206164647265737300600082015250565b60006200059c601f8362000553565b9150620005a98262000564565b602082019050919050565b60006020820190508181036000830152620005cf816200058d565b9050919050565b7f4e487b7100000000000000000000000000000000000000000000000000000000600052601160045260246000fd5b60006200061282620004d1565b91506200061f83620004d1565b9250827fffffffffffffffffffffffffffffffffffffffffffffffffffffffffffffffff03821115620006575762000656620005d6565b5b828201905092915050565b6200066d81620004d1565b82525050565b60006020820190506200068a600083018462000662565b92915050565b6200069b816200048c565b82525050565b6000606082019050620006b8600083018662000690565b620006c7602083018562000690565b620006d6604083018462000662565b949350505050565b7f4e487b7100000000000000000000000000000000000000000000000000000000600052602260045260246000fd5b600060028204905060018216806200072657607f821691505b602082108114156200073d576200073c620006de565b5b50919050565b61147280620007536000396000f3fe608060405234801561001057600080fd5b50600436106100d1576000357c01000000000000000000000000000000000000000000000000000000009004806370a082311161008e57806370a08231146101c057806395d89b41146101f0578063a457c2d71461020e578063a9059cbb1461023e578063dd62ed3e1461026e578063fce1ccca1461029e576100d1565b806306fdde03146100d6578063095ea7b3146100f457806318160ddd1461012457806323b872dd14610142578063313ce567146101725780633950935114610190575b600080fd5b6100de6102bc565b6040516100eb9190610c6c565b60405180910390f35b61010e60048036038101906101099190610d27565b61034e565b60405161011b9190610d82565b60405180910390f35b61012c610371565b6040516101399190610dac565b60405180910390f35b61015c60048036038101906101579190610dc7565b61037b565b6040516101699190610d82565b60405180910390f35b61017a6103aa565b6040516101879190610e36565b60405180910390f35b6101aa60048036038101906101a59190610d27565b6103af565b6040516101b79190610d82565b60405180910390f35b6101da60048036038101906101d59190610e51565b6103e6565b6040516101e79190610dac565b60405180910390f35b6101f861042e565b6040516102059190610c6c565b60405180910390f35b61022860048036038101906102239190610d27565b6104c0565b6040516102359190610d82565b60405180910390f35b61025860048036038101906102539190610d27565b610537565b6040516102659190610d82565b60405180910390f35b61028860048036038101906102839190610e7e565b61055a565b6040516102959190610dac565b60405180910390f35b6102a66105e1565b6040516102b39190610f1d565b60405180910390f35b6060600380546102cb90610f67565b80601f01602080910402602001604051908101604052809291908181526020018280546102f790610f67565b80156103445780601f1061031957610100808354040283529160200191610344565b820191906000526020600020905b81548152906001019060200180831161032757829003601f168201915b5050505050905090565b600080610359610607565b905061036681858561060f565b600191505092915050565b6000600254905090565b600080610386610607565b90506103938582856107da565b61039e858585610866565b60019150509392505050565b600090565b6000806103ba610607565b90506103db8185856103cc858961055a565b6103d69190610fc8565b61060f565b600191505092915050565b60008060008373ffffffffffffffffffffffffffffffffffffffff1673ffffffffffffffffffffffffffffffffffffffff168152602001908152602001600020549050919050565b60606004805461043d90610f67565b80601f016020809104026020016040519081016040528092919081815260200182805461046990610f67565b80156104b65780601f1061048b576101008083540402835291602001916104b6565b820191906000526020600020905b81548152906001019060200180831161049957829003601f168201915b5050505050905090565b6000806104cb610607565b905060006104d9828661055a565b90508381101561051e576040517f08c379a000000000000000000000000000000000000000000000000000000000815260040161051590611090565b60405180910390fd5b61052b828686840361060f565b60019250505092915050565b600080610542610607565b905061054f818585610866565b600191505092915050565b6000600160008473ffffffffffffffffffffffffffffffffffffffff1673ffffffffffffffffffffffffffffffffffffffff16815260200190815260200160002060008373ffffffffffffffffffffffffffffffffffffffff1673ffffffffffffffffffffffffffffffffffffffff16815260200190815260200160002054905092915050565b600560009054906101000a900473ffffffffffffffffffffffffffffffffffffffff1681565b600033905090565b600073ffffffffffffffffffffffffffffffffffffffff168373ffffffffffffffffffffffffffffffffffffffff16141561067f576040517f08c379a000000000000000000000000000000000000000000000000000000000815260040161067690611122565b60405180910390fd5b600073ffffffffffffffffffffffffffffffffffffffff168273ffffffffffffffffffffffffffffffffffffffff1614156106ef576040517f08c379a00000000000000000000000000000000000000000000000000000000081526004016106e6906111b4565b60405180910390fd5b80600160008573ffffffffffffffffffffffffffffffffffffffff1673ffffffffffffffffffffffffffffffffffffffff16815260200190815260200160002060008473ffffffffffffffffffffffffffffffffffffffff1673ffffffffffffffffffffffffffffffffffffffff168152602001908152602001600020819055508173ffffffffffffffffffffffffffffffffffffffff168373ffffffffffffffffffffffffffffffffffffffff167f8c5be1e5ebec7d5bd14f71427d1e84f3dd0314c0f7b2291e5b200ac8c7c3b925836040516107cd9190610dac565b60405180910390a3505050565b60006107e6848461055a565b90507fffffffffffffffffffffffffffffffffffffffffffffffffffffffffffffffff81146108605781811015610852576040517f08c379a000000000000000000000000000000000000000000000000000000000815260040161084990611220565b60405180910390fd5b61085f848484840361060f565b5b50505050565b600073ffffffffffffffffffffffffffffffffffffffff168373ffffffffffffffffffffffffffffffffffffffff1614156108d6576040517f08c379a00000000000000000000000000000000000000000000000000000000081526004016108cd906112b2565b60405180910390fd5b600073ffffffffffffffffffffffffffffffffffffffff168273ffffffffffffffffffffffffffffffffffffffff161415610946576040517f08c379a000000000000000000000000000000000000000000000000000000000815260040161093d90611344565b60405180910390fd5b610951838383610ae7565b60008060008573ffffffffffffffffffffffffffffffffffffffff1673ffffffffffffffffffffffffffffffffffffffff168152602001908152602001600020549050818110156109d7576040517f08c379a00000000000000000000000000000000000000000000000000000000081526004016109ce906113d6565b60405180910390fd5b8181036000808673ffffffffffffffffffffffffffffffffffffffff1673ffffffffffffffffffffffffffffffffffffffff16815260200190815260200160002081905550816000808573ffffffffffffffffffffffffffffffffffffffff1673ffffffffffffffffffffffffffffffffffffffff1681526020019081526020016000206000828254610a6a9190610fc8565b925050819055508273ffffffffffffffffffffffffffffffffffffffff168473ffffffffffffffffffffffffffffffffffffffff167fddf252ad1be2c89b69c2b068fc378daa952ba7f163c4a11628f55a4df523b3ef84604051610ace9190610dac565b60405180910390a3610ae1848484610aec565b50505050565b505050565b600073ffffffffffffffffffffffffffffffffffffffff168373ffffffffffffffffffffffffffffffffffffffff1614610bce57600560009054906101000a900473ffffffffffffffffffffffffffffffffffffffff1673ffffffffffffffffffffffffffffffffffffffff16637fbe62073384846040518463ffffffff167c0100000000000000000000000000000000000000000000000000000000028152600401610b9b93929190611405565b600060405180830381600087803b158015610bb557600080fd5b505af1158015610bc9573d6000803e3d6000fd5b505050505b505050565b600081519050919050565b600082825260208201905092915050565b60005b83811015610c0d578082015181840152602081019050610bf2565b83811115610c1c576000848401525b50505050565b6000601f19601f8301169050919050565b6000610c3e82610bd3565b610c488185610bde565b9350610c58818560208601610bef565b610c6181610c22565b840191505092915050565b60006020820190508181036000830152610c868184610c33565b905092915050565b600080fd5b600073ffffffffffffffffffffffffffffffffffffffff82169050919050565b6000610cbe82610c93565b9050919050565b610cce81610cb3565b8114610cd957600080fd5b50565b600081359050610ceb81610cc5565b92915050565b6000819050919050565b610d0481610cf1565b8114610d0f57600080fd5b50565b600081359050610d2181610cfb565b92915050565b60008060408385031215610d3e57610d3d610c8e565b5b6000610d4c85828601610cdc565b9250506020610d5d85828601610d12565b9150509250929050565b60008115159050919050565b610d7c81610d67565b82525050565b6000602082019050610d976000830184610d73565b92915050565b610da681610cf1565b82525050565b6000602082019050610dc16000830184610d9d565b92915050565b600080600060608486031215610de057610ddf610c8e565b5b6000610dee86828701610cdc565b9350506020610dff86828701610cdc565b9250506040610e1086828701610d12565b9150509250925092565b600060ff82169050919050565b610e3081610e1a565b82525050565b6000602082019050610e4b6000830184610e27565b92915050565b600060208284031215610e6757610e66610c8e565b5b6000610e7584828501610cdc565b91505092915050565b60008060408385031215610e9557610e94610c8e565b5b6000610ea385828601610cdc565b9250506020610eb485828601610cdc565b9150509250929050565b6000819050919050565b6000610ee3610ede610ed984610c93565b610ebe565b610c93565b9050919050565b6000610ef582610ec8565b9050919050565b6000610f0782610eea565b9050919050565b610f1781610efc565b82525050565b6000602082019050610f326000830184610f0e565b92915050565b7f4e487b7100000000000000000000000000000000000000000000000000000000600052602260045260246000fd5b60006002820490506001821680610f7f57607f821691505b60208210811415610f9357610f92610f38565b5b50919050565b7f4e487b7100000000000000000000000000000000000000000000000000000000600052601160045260246000fd5b6000610fd382610cf1565b9150610fde83610cf1565b9250827fffffffffffffffffffffffffffffffffffffffffffffffffffffffffffffffff0382111561101357611012610f99565b5b828201905092915050565b7f45524332303a2064656372656173656420616c6c6f77616e63652062656c6f7760008201527f207a65726f000000000000000000000000000000000000000000000000000000602082015250565b600061107a602583610bde565b91506110858261101e565b604082019050919050565b600060208201905081810360008301526110a98161106d565b9050919050565b7f45524332303a20617070726f76652066726f6d20746865207a65726f2061646460008201527f7265737300000000000000000000000000000000000000000000000000000000602082015250565b600061110c602483610bde565b9150611117826110b0565b604082019050919050565b6000602082019050818103600083015261113b816110ff565b9050919050565b7f45524332303a20617070726f766520746f20746865207a65726f20616464726560008201527f7373000000000000000000000000000000000000000000000000000000000000602082015250565b600061119e602283610bde565b91506111a982611142565b604082019050919050565b600060208201905081810360008301526111cd81611191565b9050919050565b7f45524332303a20696e73756666696369656e7420616c6c6f77616e6365000000600082015250565b600061120a601d83610bde565b9150611215826111d4565b602082019050919050565b60006020820190508181036000830152611239816111fd565b9050919050565b7f45524332303a207472616e736665722066726f6d20746865207a65726f20616460008201527f6472657373000000000000000000000000000000000000000000000000000000602082015250565b600061129c602583610bde565b91506112a782611240565b604082019050919050565b600060208201905081810360008301526112cb8161128f565b9050919050565b7f45524332303a207472616e7366657220746f20746865207a65726f206164647260008201527f6573730000000000000000000000000000000000000000000000000000000000602082015250565b600061132e602383610bde565b9150611339826112d2565b604082019050919050565b6000602082019050818103600083015261135d81611321565b9050919050565b7f45524332303a207472616e7366657220616d6f756e742065786365656473206260008201527f616c616e63650000000000000000000000000000000000000000000000000000602082015250565b60006113c0602683610bde565b91506113cb82611364565b604082019050919050565b600060208201905081810360008301526113ef816113b3565b9050919050565b6113ff81610cb3565b82525050565b600060608201905061141a60008301866113f6565b61142760208301856113f6565b6114346040830184610d9d565b94935050505056fea264697066735822122019b299b0f952d36e0f642d033cab456432aac56fe1b1fb289f79b872ffbc61a064736f6c634300080b0033",
  "immutableReferences": {},
  "source": "// contracts/GovToken.sol\n// SPDX-License-Identifier: MIT\npragma solidity ^0.8.0;\n\nimport \"./OSIVoting.sol\";\nimport \"@openzeppelin/contracts/token/ERC20/ERC20.sol\";\n\ncontract GovToken is ERC20 {\n\n    OSIVoting public voting;\n\n    constructor(address _origin, uint256 _supply) ERC20(\"OSI Goverance\", \"OSI_GOV\") {\n        _mint(_origin, _supply);\n        voting = OSIVoting(msg.sender);\n    }\n\n    function _afterTokenTransfer(address _from, address _to, uint256 _amount) internal virtual override {\n        // avoids during initial minting\n        if (_from != address(0))\n            voting.goveranceTransfer(msg.sender, _to, _amount);\n    } \n\n    function decimals() public view virtual override returns (uint8) {\n        return 0;\n    }\n}\n",
  "sourcePath": "/home/liamdj/Desktop/OsinToken/contracts/GovToken.sol",
  "compiler": {
    "name": "solc",
    "version": "0.8.11+commit.d7f03943.Emscripten.clang"
  },
  "schemaVersion": "3.4.5",
  "updatedAt": "2022-05-03T04:25:50.932Z",
  "devdoc": {
    "kind": "dev",
    "methods": {
      "allowance(address,address)": {
        "details": "See {IERC20-allowance}."
      },
      "approve(address,uint256)": {
        "details": "See {IERC20-approve}. NOTE: If `amount` is the maximum `uint256`, the allowance is not updated on `transferFrom`. This is semantically equivalent to an infinite approval. Requirements: - `spender` cannot be the zero address."
      },
      "balanceOf(address)": {
        "details": "See {IERC20-balanceOf}."
      },
      "decimals()": {
        "details": "Returns the number of decimals used to get its user representation. For example, if `decimals` equals `2`, a balance of `505` tokens should be displayed to a user as `5.05` (`505 / 10 ** 2`). Tokens usually opt for a value of 18, imitating the relationship between Ether and Wei. This is the value {ERC20} uses, unless this function is overridden; NOTE: This information is only used for _display_ purposes: it in no way affects any of the arithmetic of the contract, including {IERC20-balanceOf} and {IERC20-transfer}."
      },
      "decreaseAllowance(address,uint256)": {
        "details": "Atomically decreases the allowance granted to `spender` by the caller. This is an alternative to {approve} that can be used as a mitigation for problems described in {IERC20-approve}. Emits an {Approval} event indicating the updated allowance. Requirements: - `spender` cannot be the zero address. - `spender` must have allowance for the caller of at least `subtractedValue`."
      },
      "increaseAllowance(address,uint256)": {
        "details": "Atomically increases the allowance granted to `spender` by the caller. This is an alternative to {approve} that can be used as a mitigation for problems described in {IERC20-approve}. Emits an {Approval} event indicating the updated allowance. Requirements: - `spender` cannot be the zero address."
      },
      "name()": {
        "details": "Returns the name of the token."
      },
      "symbol()": {
        "details": "Returns the symbol of the token, usually a shorter version of the name."
      },
      "totalSupply()": {
        "details": "See {IERC20-totalSupply}."
      },
      "transfer(address,uint256)": {
        "details": "See {IERC20-transfer}. Requirements: - `to` cannot be the zero address. - the caller must have a balance of at least `amount`."
      },
      "transferFrom(address,address,uint256)": {
        "details": "See {IERC20-transferFrom}. Emits an {Approval} event indicating the updated allowance. This is not required by the EIP. See the note at the beginning of {ERC20}. NOTE: Does not update the allowance if the current allowance is the maximum `uint256`. Requirements: - `from` and `to` cannot be the zero address. - `from` must have a balance of at least `amount`. - the caller must have allowance for ``from``'s tokens of at least `amount`."
      }
    },
    "version": 1
  },
  "userdoc": {
    "kind": "user",
    "methods": {},
    "version": 1
  }
}