{
  "contractName": "OSIVoting",
  "abi": [
    {
      "inputs": [
        {
          "internalType": "uint256",
          "name": "_supply",
          "type": "uint256"
        },
        {
          "internalType": "uint256",
          "name": "_start",
          "type": "uint256"
        }
      ],
      "stateMutability": "nonpayable",
      "type": "constructor"
    },
    {
      "anonymous": false,
      "inputs": [
        {
          "indexed": true,
          "internalType": "address",
          "name": "_nominator",
          "type": "address"
        },
        {
          "indexed": true,
          "internalType": "address",
          "name": "_writer",
          "type": "address"
        },
        {
          "indexed": false,
          "internalType": "string",
          "name": "_url",
          "type": "string"
        }
      ],
      "name": "Nominate",
      "type": "event"
    },
    {
      "anonymous": false,
      "inputs": [
        {
          "indexed": true,
          "internalType": "address",
          "name": "previousOwner",
          "type": "address"
        },
        {
          "indexed": true,
          "internalType": "address",
          "name": "newOwner",
          "type": "address"
        }
      ],
      "name": "OwnershipTransferred",
      "type": "event"
    },
    {
      "anonymous": false,
      "inputs": [
        {
          "indexed": true,
          "internalType": "address",
          "name": "_voter",
          "type": "address"
        },
        {
          "indexed": false,
          "internalType": "string",
          "name": "_url",
          "type": "string"
        },
        {
          "indexed": false,
          "internalType": "uint256",
          "name": "_amount",
          "type": "uint256"
        }
      ],
      "name": "Vote",
      "type": "event"
    },
    {
      "anonymous": false,
      "inputs": [
        {
          "indexed": true,
          "internalType": "address",
          "name": "_writer",
          "type": "address"
        },
        {
          "indexed": false,
          "internalType": "string",
          "name": "_url",
          "type": "string"
        }
      ],
      "name": "Winner",
      "type": "event"
    },
    {
      "inputs": [],
      "name": "goverance",
      "outputs": [
        {
          "internalType": "contract GovToken",
          "name": "",
          "type": "address"
        }
      ],
      "stateMutability": "view",
      "type": "function",
      "constant": true
    },
    {
      "inputs": [],
      "name": "goverance_votes",
      "outputs": [
        {
          "internalType": "uint256",
          "name": "",
          "type": "uint256"
        }
      ],
      "stateMutability": "view",
      "type": "function",
      "constant": true
    },
    {
      "inputs": [],
      "name": "name",
      "outputs": [
        {
          "internalType": "string",
          "name": "",
          "type": "string"
        }
      ],
      "stateMutability": "view",
      "type": "function",
      "constant": true
    },
    {
      "inputs": [
        {
          "internalType": "uint256",
          "name": "",
          "type": "uint256"
        }
      ],
      "name": "nominees",
      "outputs": [
        {
          "internalType": "address",
          "name": "writer",
          "type": "address"
        },
        {
          "internalType": "string",
          "name": "url",
          "type": "string"
        }
      ],
      "stateMutability": "view",
      "type": "function",
      "constant": true
    },
    {
      "inputs": [],
      "name": "owner",
      "outputs": [
        {
          "internalType": "address",
          "name": "",
          "type": "address"
        }
      ],
      "stateMutability": "view",
      "type": "function",
      "constant": true
    },
    {
      "inputs": [],
      "name": "renounceOwnership",
      "outputs": [],
      "stateMutability": "nonpayable",
      "type": "function"
    },
    {
      "inputs": [],
      "name": "rewards",
      "outputs": [
        {
          "internalType": "contract RewToken",
          "name": "",
          "type": "address"
        }
      ],
      "stateMutability": "view",
      "type": "function",
      "constant": true
    },
    {
      "inputs": [],
      "name": "seconds_for_nominations",
      "outputs": [
        {
          "internalType": "uint256",
          "name": "",
          "type": "uint256"
        }
      ],
      "stateMutability": "view",
      "type": "function",
      "constant": true
    },
    {
      "inputs": [],
      "name": "seconds_for_voting",
      "outputs": [
        {
          "internalType": "uint256",
          "name": "",
          "type": "uint256"
        }
      ],
      "stateMutability": "view",
      "type": "function",
      "constant": true
    },
    {
      "inputs": [],
      "name": "startTime",
      "outputs": [
        {
          "internalType": "uint256",
          "name": "",
          "type": "uint256"
        }
      ],
      "stateMutability": "view",
      "type": "function",
      "constant": true
    },
    {
      "inputs": [
        {
          "internalType": "address",
          "name": "newOwner",
          "type": "address"
        }
      ],
      "name": "transferOwnership",
      "outputs": [],
      "stateMutability": "nonpayable",
      "type": "function"
    },
    {
      "inputs": [
        {
          "internalType": "uint256",
          "name": "",
          "type": "uint256"
        }
      ],
      "name": "voteCounts",
      "outputs": [
        {
          "internalType": "uint256",
          "name": "",
          "type": "uint256"
        }
      ],
      "stateMutability": "view",
      "type": "function",
      "constant": true
    },
    {
      "inputs": [],
      "name": "winner_tokens",
      "outputs": [
        {
          "internalType": "uint256",
          "name": "",
          "type": "uint256"
        }
      ],
      "stateMutability": "view",
      "type": "function",
      "constant": true
    },
    {
      "inputs": [
        {
          "internalType": "uint256",
          "name": "",
          "type": "uint256"
        }
      ],
      "name": "winners",
      "outputs": [
        {
          "internalType": "address",
          "name": "writer",
          "type": "address"
        },
        {
          "internalType": "string",
          "name": "url",
          "type": "string"
        }
      ],
      "stateMutability": "view",
      "type": "function",
      "constant": true
    },
    {
      "inputs": [
        {
          "internalType": "uint256",
          "name": "_time",
          "type": "uint256"
        }
      ],
      "name": "setStartTime",
      "outputs": [],
      "stateMutability": "nonpayable",
      "type": "function"
    },
    {
      "inputs": [
        {
          "internalType": "uint256",
          "name": "_index",
          "type": "uint256"
        }
      ],
      "name": "nomineesWriter",
      "outputs": [
        {
          "internalType": "address",
          "name": "",
          "type": "address"
        }
      ],
      "stateMutability": "view",
      "type": "function",
      "constant": true
    },
    {
      "inputs": [
        {
          "internalType": "uint256",
          "name": "_index",
          "type": "uint256"
        }
      ],
      "name": "nomineesUrl",
      "outputs": [
        {
          "internalType": "string",
          "name": "",
          "type": "string"
        }
      ],
      "stateMutability": "view",
      "type": "function",
      "constant": true
    },
    {
      "inputs": [],
      "name": "nomineesLength",
      "outputs": [
        {
          "internalType": "uint256",
          "name": "",
          "type": "uint256"
        }
      ],
      "stateMutability": "view",
      "type": "function",
      "constant": true
    },
    {
      "inputs": [
        {
          "internalType": "uint256",
          "name": "_index",
          "type": "uint256"
        }
      ],
      "name": "winnersWriter",
      "outputs": [
        {
          "internalType": "address",
          "name": "",
          "type": "address"
        }
      ],
      "stateMutability": "view",
      "type": "function",
      "constant": true
    },
    {
      "inputs": [
        {
          "internalType": "uint256",
          "name": "_index",
          "type": "uint256"
        }
      ],
      "name": "winnersUrl",
      "outputs": [
        {
          "internalType": "string",
          "name": "",
          "type": "string"
        }
      ],
      "stateMutability": "view",
      "type": "function",
      "constant": true
    },
    {
      "inputs": [],
      "name": "winnersLength",
      "outputs": [
        {
          "internalType": "uint256",
          "name": "",
          "type": "uint256"
        }
      ],
      "stateMutability": "view",
      "type": "function",
      "constant": true
    },
    {
      "inputs": [],
      "name": "nominationsEnds",
      "outputs": [
        {
          "internalType": "uint256",
          "name": "",
          "type": "uint256"
        }
      ],
      "stateMutability": "view",
      "type": "function",
      "constant": true
    },
    {
      "inputs": [],
      "name": "votingEnds",
      "outputs": [
        {
          "internalType": "uint256",
          "name": "",
          "type": "uint256"
        }
      ],
      "stateMutability": "view",
      "type": "function",
      "constant": true
    },
    {
      "inputs": [
        {
          "internalType": "address",
          "name": "_from",
          "type": "address"
        },
        {
          "internalType": "address",
          "name": "_to",
          "type": "address"
        },
        {
          "internalType": "uint256",
          "name": "_amount",
          "type": "uint256"
        }
      ],
      "name": "goveranceTransfer",
      "outputs": [],
      "stateMutability": "nonpayable",
      "type": "function"
    },
    {
      "inputs": [
        {
          "internalType": "address",
          "name": "_from",
          "type": "address"
        },
        {
          "internalType": "address",
          "name": "_to",
          "type": "address"
        },
        {
          "internalType": "uint256",
          "name": "_amount",
          "type": "uint256"
        }
      ],
      "name": "rewardsTransfer",
      "outputs": [],
      "stateMutability": "nonpayable",
      "type": "function"
    },
    {
      "inputs": [
        {
          "internalType": "address",
          "name": "_voter",
          "type": "address"
        }
      ],
      "name": "votesRemaining",
      "outputs": [
        {
          "internalType": "uint256",
          "name": "",
          "type": "uint256"
        }
      ],
      "stateMutability": "view",
      "type": "function",
      "constant": true
    },
    {
      "inputs": [
        {
          "internalType": "address",
          "name": "_writer",
          "type": "address"
        },
        {
          "internalType": "string",
          "name": "_url",
          "type": "string"
        }
      ],
      "name": "submitNomination",
      "outputs": [
        {
          "internalType": "bool",
          "name": "",
          "type": "bool"
        }
      ],
      "stateMutability": "nonpayable",
      "type": "function"
    },
    {
      "inputs": [
        {
          "internalType": "uint256",
          "name": "_index",
          "type": "uint256"
        },
        {
          "internalType": "uint256",
          "name": "_amount",
          "type": "uint256"
        }
      ],
      "name": "castVotes",
      "outputs": [
        {
          "internalType": "bool",
          "name": "",
          "type": "bool"
        }
      ],
      "stateMutability": "nonpayable",
      "type": "function"
    },
    {
      "inputs": [],
      "name": "updateWinner",
      "outputs": [
        {
          "internalType": "bool",
          "name": "",
          "type": "bool"
        }
      ],
      "stateMutability": "nonpayable",
      "type": "function"
    }
  ],
  "bytecode": "0x60806040523480156200001157600080fd5b5060405162006c5e38038062006c5e833981810160405281019062000037919062000287565b62000069620000546200015f640100000000026401000000009004565b62000167640100000000026401000000009004565b338260405162000079906200022b565b6200008692919062000324565b604051809103906000f080158015620000a3573d6000803e3d6000fd5b50600260006101000a81548173ffffffffffffffffffffffffffffffffffffffff021916908373ffffffffffffffffffffffffffffffffffffffff160217905550604051620000f29062000239565b604051809103906000f0801580156200010f573d6000803e3d6000fd5b50600360006101000a81548173ffffffffffffffffffffffffffffffffffffffff021916908373ffffffffffffffffffffffffffffffffffffffff16021790555080600181905550505062000351565b600033905090565b60008060009054906101000a900473ffffffffffffffffffffffffffffffffffffffff169050816000806101000a81548173ffffffffffffffffffffffffffffffffffffffff021916908373ffffffffffffffffffffffffffffffffffffffff1602179055508173ffffffffffffffffffffffffffffffffffffffff168173ffffffffffffffffffffffffffffffffffffffff167f8be0079c531659141344cd1fd0a4f28419497f9722a3daafe3b4186f6b6457e060405160405180910390a35050565b611bc580620032af83390190565b611dea8062004e7483390190565b600080fd5b6000819050919050565b62000261816200024c565b81146200026d57600080fd5b50565b600081519050620002818162000256565b92915050565b60008060408385031215620002a157620002a062000247565b5b6000620002b18582860162000270565b9250506020620002c48582860162000270565b9150509250929050565b600073ffffffffffffffffffffffffffffffffffffffff82169050919050565b6000620002fb82620002ce565b9050919050565b6200030d81620002ee565b82525050565b6200031e816200024c565b82525050565b60006040820190506200033b600083018562000302565b6200034a602083018462000313565b9392505050565b612f4e80620003616000396000f3fe608060405234801561001057600080fd5b50600436106101ec576000357c0100000000000000000000000000000000000000000000000000000000900480637c9f512a116101215780639ec5a894116100bf578063d1fe8b8f1161008e578063d1fe8b8f14610556578063df7b637b14610586578063eec6b91e146105a4578063f2fde38b146105d5576101ec565b80639ec5a894146104b9578063a2fb1175146104d7578063aebd9dd414610508578063c723035714610526576101ec565b806384ecc4db116100fb57806384ecc4db1461040b578063885515da1461043b5780638da5cb5b1461046b5780639b19547d14610489576101ec565b80637c9f512a146103a15780637fbe6207146103d15780637fdb1adb146103ed576101ec565b80633376def81161018e5780633e0a322d116101685780633e0a322d1461033f578063715018a61461035b57806378e97925146103655780637bb87e9814610383576101ec565b80633376def8146102d35780633b52f2be146102f15780633c3a220d1461030f576101ec565b80631f0304e2116101ca5780631f0304e214610249578063280ee4ee146102675780632c3c2fd2146102855780633284dfed146102b5576101ec565b8063022ef633146101f157806306fdde031461020d5780631ab6a1811461022b575b600080fd5b61020b60048036038101906102069190612345565b6105f1565b005b61021561078e565b6040516102229190612431565b60405180910390f35b6102336107c7565b6040516102409190612462565b60405180910390f35b6102516107ce565b60405161025e91906124dc565b60405180910390f35b61026f6107f4565b60405161027c9190612462565b60405180910390f35b61029f600480360381019061029a91906124f7565b61081a565b6040516102ac9190612533565b60405180910390f35b6102bd610869565b6040516102ca9190612462565b60405180910390f35b6102db61086f565b6040516102e89190612569565b60405180910390f35b6102f9610be4565b6040516103069190612462565b60405180910390f35b610329600480360381019061032491906124f7565b610bf1565b6040516103369190612462565b60405180910390f35b610359600480360381019061035491906124f7565b610c15565b005b610363610c9b565b005b61036d610d23565b60405161037a9190612462565b60405180910390f35b61038b610d29565b6040516103989190612462565b60405180910390f35b6103bb60048036038101906103b691906124f7565b610d41565b6040516103c89190612431565b60405180910390f35b6103eb60048036038101906103e69190612345565b610df8565b005b6103f56110ed565b6040516104029190612462565b60405180910390f35b610425600480360381019061042091906125e9565b6110f3565b6040516104329190612569565b60405180910390f35b61045560048036038101906104509190612649565b611557565b6040516104629190612462565b60405180910390f35b610473611731565b6040516104809190612533565b60405180910390f35b6104a3600480360381019061049e9190612676565b61175a565b6040516104b09190612569565b60405180910390f35b6104c1611a0d565b6040516104ce91906126d7565b60405180910390f35b6104f160048036038101906104ec91906124f7565b611a33565b6040516104ff9291906126f2565b60405180910390f35b610510611b0f565b60405161051d9190612462565b60405180910390f35b610540600480360381019061053b91906124f7565b611b1c565b60405161054d9190612533565b60405180910390f35b610570600480360381019061056b91906124f7565b611b6b565b60405161057d9190612431565b60405180910390f35b61058e611c22565b60405161059b9190612462565b60405180910390f35b6105be60048036038101906105b991906124f7565b611c29565b6040516105cc9291906126f2565b60405180910390f35b6105ef60048036038101906105ea9190612649565b611d05565b005b600360009054906101000a900473ffffffffffffffffffffffffffffffffffffffff1673ffffffffffffffffffffffffffffffffffffffff163373ffffffffffffffffffffffffffffffffffffffff161461064b57600080fd5b6000600960008573ffffffffffffffffffffffffffffffffffffffff1673ffffffffffffffffffffffffffffffffffffffff1681526020019081526020016000205482106106d857600960008573ffffffffffffffffffffffffffffffffffffffff1673ffffffffffffffffffffffffffffffffffffffff168152602001908152602001600020546106da565b815b905080600960008673ffffffffffffffffffffffffffffffffffffffff1673ffffffffffffffffffffffffffffffffffffffff168152602001908152602001600020600082825461072b9190612751565b9250508190555080600960008573ffffffffffffffffffffffffffffffffffffffff1673ffffffffffffffffffffffffffffffffffffffff16815260200190815260200160002060008282546107819190612785565b9250508190555050505050565b6040518060400160405280600a81526020017f4f534920566f74696e670000000000000000000000000000000000000000000081525081565b6202a30081565b600260009054906101000a900473ffffffffffffffffffffffffffffffffffffffff1681565b6000620697806202a30060015461080b9190612785565b6108159190612785565b905090565b6000600582815481106108305761082f6127db565b5b906000526020600020906002020160000160009054906101000a900473ffffffffffffffffffffffffffffffffffffffff169050919050565b6103e881565b6000620697806202a3006001546108869190612785565b6108909190612785565b421115610bdc5760006005805490501115610bcb57600080600190505b60058054905081101561091557600a82815481106108ce576108cd6127db565b5b9060005260206000200154600a82815481106108ed576108ec6127db565b5b90600052602060002001541115610902578091505b808061090d9061280a565b9150506108ad565b5060006005828154811061092c5761092b6127db565b5b90600052602060002090600202016040518060400160405290816000820160009054906101000a900473ffffffffffffffffffffffffffffffffffffffff1673ffffffffffffffffffffffffffffffffffffffff1673ffffffffffffffffffffffffffffffffffffffff1681526020016001820180546109ab90612882565b80601f01602080910402602001604051908101604052809291908181526020018280546109d790612882565b8015610a245780601f106109f957610100808354040283529160200191610a24565b820191906000526020600020905b815481529060010190602001808311610a0757829003601f168201915b5050505050815250509050600481908060018154018082558091505060019003906000526020600020906002020160009091909190915060008201518160000160006101000a81548173ffffffffffffffffffffffffffffffffffffffff021916908373ffffffffffffffffffffffffffffffffffffffff1602179055506020820151816001019080519060200190610abe929190612110565b505050600360009054906101000a900473ffffffffffffffffffffffffffffffffffffffff1673ffffffffffffffffffffffffffffffffffffffff166340c10f1982600001516103e86040518363ffffffff167c0100000000000000000000000000000000000000000000000000000000028152600401610b409291906128b4565b600060405180830381600087803b158015610b5a57600080fd5b505af1158015610b6e573d6000803e3d6000fd5b50505050806000015173ffffffffffffffffffffffffffffffffffffffff167f45edd59c4f5dea5f690cd524f1a6ea9cba17b09235c1bfaa2cea0d80bac5daba8260200151604051610bc09190612431565b60405180910390a250505b610bd3611dfd565b60019050610be1565b600090505b90565b6000600480549050905090565b600a8181548110610c0157600080fd5b906000526020600020016000915090505481565b610c1d611fab565b73ffffffffffffffffffffffffffffffffffffffff16610c3b611731565b73ffffffffffffffffffffffffffffffffffffffff1614610c91576040517f08c379a0000000000000000000000000000000000000000000000000000000008152600401610c8890612929565b60405180910390fd5b8060018190555050565b610ca3611fab565b73ffffffffffffffffffffffffffffffffffffffff16610cc1611731565b73ffffffffffffffffffffffffffffffffffffffff1614610d17576040517f08c379a0000000000000000000000000000000000000000000000000000000008152600401610d0e90612929565b60405180910390fd5b610d216000611fb3565b565b60015481565b60006202a300600154610d3c9190612785565b905090565b606060048281548110610d5757610d566127db565b5b90600052602060002090600202016001018054610d7390612882565b80601f0160208091040260200160405190810160405280929190818152602001828054610d9f90612882565b8015610dec5780601f10610dc157610100808354040283529160200191610dec565b820191906000526020600020905b815481529060010190602001808311610dcf57829003601f168201915b50505050509050919050565b600260009054906101000a900473ffffffffffffffffffffffffffffffffffffffff1673ffffffffffffffffffffffffffffffffffffffff163373ffffffffffffffffffffffffffffffffffffffff1614610e5257600080fd5b6000600760008573ffffffffffffffffffffffffffffffffffffffff1673ffffffffffffffffffffffffffffffffffffffff168152602001908152602001600020548210610edf57600760008573ffffffffffffffffffffffffffffffffffffffff1673ffffffffffffffffffffffffffffffffffffffff16815260200190815260200160002054610ee1565b815b905080600760008673ffffffffffffffffffffffffffffffffffffffff1673ffffffffffffffffffffffffffffffffffffffff1681526020019081526020016000206000828254610f329190612751565b9250508190555080600760008573ffffffffffffffffffffffffffffffffffffffff1673ffffffffffffffffffffffffffffffffffffffff1681526020019081526020016000206000828254610f889190612785565b925050819055506000600960008673ffffffffffffffffffffffffffffffffffffffff1673ffffffffffffffffffffffffffffffffffffffff16815260200190815260200160002054836103e8610fdf9190612949565b1061102957600960008673ffffffffffffffffffffffffffffffffffffffff1673ffffffffffffffffffffffffffffffffffffffff16815260200190815260200160002054611038565b826103e86110379190612949565b5b905080600960008773ffffffffffffffffffffffffffffffffffffffff1673ffffffffffffffffffffffffffffffffffffffff16815260200190815260200160002060008282546110899190612751565b9250508190555080600960008673ffffffffffffffffffffffffffffffffffffffff1673ffffffffffffffffffffffffffffffffffffffff16815260200190815260200160002060008282546110df9190612785565b925050819055505050505050565b6103e881565b6000600260009054906101000a900473ffffffffffffffffffffffffffffffffffffffff1673ffffffffffffffffffffffffffffffffffffffff166370a08231336040518263ffffffff167c010000000000000000000000000000000000000000000000000000000002815260040161116c9190612533565b602060405180830381865afa158015611189573d6000803e3d6000fd5b505050506040513d601f19601f820116820180604052508101906111ad91906129b8565b600760003373ffffffffffffffffffffffffffffffffffffffff1673ffffffffffffffffffffffffffffffffffffffff168152602001908152602001600020541061122d576040517f08c379a000000000000000000000000000000000000000000000000000000000815260040161122490612a31565b60405180910390fd5b6001544211611271576040517f08c379a000000000000000000000000000000000000000000000000000000000815260040161126890612a9d565b60405180910390fd5b6202a3006001546112829190612785565b4211156112c4576040517f08c379a00000000000000000000000000000000000000000000000000000000081526004016112bb90612b09565b60405180910390fd5b6112ce8383612077565b1561130e576040517f08c379a000000000000000000000000000000000000000000000000000000000815260040161130590612b75565b60405180910390fd5b6001600760003373ffffffffffffffffffffffffffffffffffffffff1673ffffffffffffffffffffffffffffffffffffffff168152602001908152602001600020600082825461135e9190612785565b92505081905550600560405180604001604052808673ffffffffffffffffffffffffffffffffffffffff16815260200185858080601f016020809104026020016040519081016040528093929190818152602001838380828437600081840152601f19601f82011690508083019250505050505050815250908060018154018082558091505060019003906000526020600020906002020160009091909190915060008201518160000160006101000a81548173ffffffffffffffffffffffffffffffffffffffff021916908373ffffffffffffffffffffffffffffffffffffffff1602179055506020820151816001019080519060200190611462929190612110565b5050506006339080600181540180825580915050600190039060005260206000200160009091909190916101000a81548173ffffffffffffffffffffffffffffffffffffffff021916908373ffffffffffffffffffffffffffffffffffffffff160217905550600a6001816001815401808255809150500390600052602060002050508373ffffffffffffffffffffffffffffffffffffffff163373ffffffffffffffffffffffffffffffffffffffff167f86b9bd97bdb1aa709e139f61f71cef4092d6d19d5f94dc1ecdc98402bdc09a258585604051611544929190612bd1565b60405180910390a3600190509392505050565b6000600960008373ffffffffffffffffffffffffffffffffffffffff1673ffffffffffffffffffffffffffffffffffffffff16815260200190815260200160002054600360009054906101000a900473ffffffffffffffffffffffffffffffffffffffff1673ffffffffffffffffffffffffffffffffffffffff166370a08231846040518263ffffffff167c01000000000000000000000000000000000000000000000000000000000281526004016116109190612533565b602060405180830381865afa15801561162d573d6000803e3d6000fd5b505050506040513d601f19601f8201168201806040525081019061165191906129b8565b600260009054906101000a900473ffffffffffffffffffffffffffffffffffffffff1673ffffffffffffffffffffffffffffffffffffffff166370a08231856040518263ffffffff167c01000000000000000000000000000000000000000000000000000000000281526004016116c89190612533565b602060405180830381865afa1580156116e5573d6000803e3d6000fd5b505050506040513d601f19601f8201168201806040525081019061170991906129b8565b6103e86117169190612949565b6117209190612785565b61172a9190612751565b9050919050565b60008060009054906101000a900473ffffffffffffffffffffffffffffffffffffffff16905090565b60008161176633611557565b10156117a7576040517f08c379a000000000000000000000000000000000000000000000000000000000815260040161179e90612c41565b60405180910390fd5b60058054905083106117ee576040517f08c379a00000000000000000000000000000000000000000000000000000000081526004016117e590612cad565b60405180910390fd5b6202a3006001546117ff9190612785565b4211611840576040517f08c379a000000000000000000000000000000000000000000000000000000000815260040161183790612a9d565b60405180910390fd5b620697806202a3006001546118559190612785565b61185f9190612785565b4211156118a1576040517f08c379a000000000000000000000000000000000000000000000000000000000815260040161189890612b09565b60405180910390fd5b81600960003373ffffffffffffffffffffffffffffffffffffffff1673ffffffffffffffffffffffffffffffffffffffff16815260200190815260200160002060008282546118f09190612785565b9250508190555081600a848154811061190c5761190b6127db565b5b9060005260206000200160008282546119259190612785565b925050819055506008339080600181540180825580915050600190039060005260206000200160009091909190916101000a81548173ffffffffffffffffffffffffffffffffffffffff021916908373ffffffffffffffffffffffffffffffffffffffff1602179055503373ffffffffffffffffffffffffffffffffffffffff167ff872c9dd43e62509c7276e545b258673a25292dbeb9756e834227c8a83818655600585815481106119db576119da6127db565b5b9060005260206000209060020201600101846040516119fb929190612d62565b60405180910390a26001905092915050565b600360009054906101000a900473ffffffffffffffffffffffffffffffffffffffff1681565b60048181548110611a4357600080fd5b90600052602060002090600202016000915090508060000160009054906101000a900473ffffffffffffffffffffffffffffffffffffffff1690806001018054611a8c90612882565b80601f0160208091040260200160405190810160405280929190818152602001828054611ab890612882565b8015611b055780601f10611ada57610100808354040283529160200191611b05565b820191906000526020600020905b815481529060010190602001808311611ae857829003601f168201915b5050505050905082565b6000600580549050905090565b600060048281548110611b3257611b316127db565b5b906000526020600020906002020160000160009054906101000a900473ffffffffffffffffffffffffffffffffffffffff169050919050565b606060058281548110611b8157611b806127db565b5b90600052602060002090600202016001018054611b9d90612882565b80601f0160208091040260200160405190810160405280929190818152602001828054611bc990612882565b8015611c165780601f10611beb57610100808354040283529160200191611c16565b820191906000526020600020905b815481529060010190602001808311611bf957829003601f168201915b50505050509050919050565b6206978081565b60058181548110611c3957600080fd5b90600052602060002090600202016000915090508060000160009054906101000a900473ffffffffffffffffffffffffffffffffffffffff1690806001018054611c8290612882565b80601f0160208091040260200160405190810160405280929190818152602001828054611cae90612882565b8015611cfb5780601f10611cd057610100808354040283529160200191611cfb565b820191906000526020600020905b815481529060010190602001808311611cde57829003601f168201915b5050505050905082565b611d0d611fab565b73ffffffffffffffffffffffffffffffffffffffff16611d2b611731565b73ffffffffffffffffffffffffffffffffffffffff1614611d81576040517f08c379a0000000000000000000000000000000000000000000000000000000008152600401611d7890612929565b60405180910390fd5b600073ffffffffffffffffffffffffffffffffffffffff168173ffffffffffffffffffffffffffffffffffffffff161415611df1576040517f08c379a0000000000000000000000000000000000000000000000000000000008152600401611de890612e04565b60405180910390fd5b611dfa81611fb3565b50565b60056000611e0b9190612196565b60005b600680549050811015611eaf576007600060068381548110611e3357611e326127db565b5b9060005260206000200160009054906101000a900473ffffffffffffffffffffffffffffffffffffffff1673ffffffffffffffffffffffffffffffffffffffff1673ffffffffffffffffffffffffffffffffffffffff168152602001908152602001600020600090558080611ea79061280a565b915050611e0e565b5060066000611ebe91906121ba565b60005b600880549050811015611f62576009600060088381548110611ee657611ee56127db565b5b9060005260206000200160009054906101000a900473ffffffffffffffffffffffffffffffffffffffff1673ffffffffffffffffffffffffffffffffffffffff1673ffffffffffffffffffffffffffffffffffffffff168152602001908152602001600020600090558080611f5a9061280a565b915050611ec1565b5060086000611f7191906121ba565b600a6000611f7f91906121db565b620697806202a300611f919190612785565b60016000828254611fa29190612785565b92505081905550565b600033905090565b60008060009054906101000a900473ffffffffffffffffffffffffffffffffffffffff169050816000806101000a81548173ffffffffffffffffffffffffffffffffffffffff021916908373ffffffffffffffffffffffffffffffffffffffff1602179055508173ffffffffffffffffffffffffffffffffffffffff168173ffffffffffffffffffffffffffffffffffffffff167f8be0079c531659141344cd1fd0a4f28419497f9722a3daafe3b4186f6b6457e060405160405180910390a35050565b600080838360405161208a929190612e54565b6040518091039020905060005b60058054905081101561210357600581815481106120b8576120b76127db565b5b90600052602060002090600202016001016040516120d69190612f01565b60405180910390208214156120f05760019250505061210a565b80806120fb9061280a565b915050612097565b5060009150505b92915050565b82805461211c90612882565b90600052602060002090601f01602090048101928261213e5760008555612185565b82601f1061215757805160ff1916838001178555612185565b82800160010185558215612185579182015b82811115612184578251825591602001919060010190612169565b5b50905061219291906121fc565b5090565b50805460008255600202906000526020600020908101906121b79190612219565b50565b50805460008255906000526020600020908101906121d891906121fc565b50565b50805460008255906000526020600020908101906121f991906121fc565b50565b5b808211156122155760008160009055506001016121fd565b5090565b5b8082111561226357600080820160006101000a81549073ffffffffffffffffffffffffffffffffffffffff021916905560018201600061225a9190612267565b5060020161221a565b5090565b50805461227390612882565b6000825580601f1061228557506122a4565b601f0160209004906000526020600020908101906122a391906121fc565b5b50565b600080fd5b600080fd5b600073ffffffffffffffffffffffffffffffffffffffff82169050919050565b60006122dc826122b1565b9050919050565b6122ec816122d1565b81146122f757600080fd5b50565b600081359050612309816122e3565b92915050565b6000819050919050565b6123228161230f565b811461232d57600080fd5b50565b60008135905061233f81612319565b92915050565b60008060006060848603121561235e5761235d6122a7565b5b600061236c868287016122fa565b935050602061237d868287016122fa565b925050604061238e86828701612330565b9150509250925092565b600081519050919050565b600082825260208201905092915050565b60005b838110156123d25780820151818401526020810190506123b7565b838111156123e1576000848401525b50505050565b6000601f19601f8301169050919050565b600061240382612398565b61240d81856123a3565b935061241d8185602086016123b4565b612426816123e7565b840191505092915050565b6000602082019050818103600083015261244b81846123f8565b905092915050565b61245c8161230f565b82525050565b60006020820190506124776000830184612453565b92915050565b6000819050919050565b60006124a261249d612498846122b1565b61247d565b6122b1565b9050919050565b60006124b482612487565b9050919050565b60006124c6826124a9565b9050919050565b6124d6816124bb565b82525050565b60006020820190506124f160008301846124cd565b92915050565b60006020828403121561250d5761250c6122a7565b5b600061251b84828501612330565b91505092915050565b61252d816122d1565b82525050565b60006020820190506125486000830184612524565b92915050565b60008115159050919050565b6125638161254e565b82525050565b600060208201905061257e600083018461255a565b92915050565b600080fd5b600080fd5b600080fd5b60008083601f8401126125a9576125a8612584565b5b8235905067ffffffffffffffff8111156125c6576125c5612589565b5b6020830191508360018202830111156125e2576125e161258e565b5b9250929050565b600080600060408486031215612602576126016122a7565b5b6000612610868287016122fa565b935050602084013567ffffffffffffffff811115612631576126306122ac565b5b61263d86828701612593565b92509250509250925092565b60006020828403121561265f5761265e6122a7565b5b600061266d848285016122fa565b91505092915050565b6000806040838503121561268d5761268c6122a7565b5b600061269b85828601612330565b92505060206126ac85828601612330565b9150509250929050565b60006126c1826124a9565b9050919050565b6126d1816126b6565b82525050565b60006020820190506126ec60008301846126c8565b92915050565b60006040820190506127076000830185612524565b818103602083015261271981846123f8565b90509392505050565b7f4e487b7100000000000000000000000000000000000000000000000000000000600052601160045260246000fd5b600061275c8261230f565b91506127678361230f565b92508282101561277a57612779612722565b5b828203905092915050565b60006127908261230f565b915061279b8361230f565b9250827fffffffffffffffffffffffffffffffffffffffffffffffffffffffffffffffff038211156127d0576127cf612722565b5b828201905092915050565b7f4e487b7100000000000000000000000000000000000000000000000000000000600052603260045260246000fd5b60006128158261230f565b91507fffffffffffffffffffffffffffffffffffffffffffffffffffffffffffffffff82141561284857612847612722565b5b600182019050919050565b7f4e487b7100000000000000000000000000000000000000000000000000000000600052602260045260246000fd5b6000600282049050600182168061289a57607f821691505b602082108114156128ae576128ad612853565b5b50919050565b60006040820190506128c96000830185612524565b6128d66020830184612453565b9392505050565b7f4f776e61626c653a2063616c6c6572206973206e6f7420746865206f776e6572600082015250565b60006129136020836123a3565b915061291e826128dd565b602082019050919050565b6000602082019050818103600083015261294281612906565b9050919050565b60006129548261230f565b915061295f8361230f565b9250817fffffffffffffffffffffffffffffffffffffffffffffffffffffffffffffffff048311821515161561299857612997612722565b5b828202905092915050565b6000815190506129b281612319565b92915050565b6000602082840312156129ce576129cd6122a7565b5b60006129dc848285016129a3565b91505092915050565b7f746f6f206d616e79206e6f6d696e6174696f6e73000000000000000000000000600082015250565b6000612a1b6014836123a3565b9150612a26826129e5565b602082019050919050565b60006020820190508181036000830152612a4a81612a0e565b9050919050565b7f746f6f206561726c790000000000000000000000000000000000000000000000600082015250565b6000612a876009836123a3565b9150612a9282612a51565b602082019050919050565b60006020820190508181036000830152612ab681612a7a565b9050919050565b7f746f6f206c617465000000000000000000000000000000000000000000000000600082015250565b6000612af36008836123a3565b9150612afe82612abd565b602082019050919050565b60006020820190508181036000830152612b2281612ae6565b9050919050565b7f616c7265616479206e6f6d696e61746500000000000000000000000000000000600082015250565b6000612b5f6010836123a3565b9150612b6a82612b29565b602082019050919050565b60006020820190508181036000830152612b8e81612b52565b9050919050565b82818337600083830152505050565b6000612bb083856123a3565b9350612bbd838584612b95565b612bc6836123e7565b840190509392505050565b60006020820190508181036000830152612bec818486612ba4565b90509392505050565b7f746f6f206665772072656d61696e696e67000000000000000000000000000000600082015250565b6000612c2b6011836123a3565b9150612c3682612bf5565b602082019050919050565b60006020820190508181036000830152612c5a81612c1e565b9050919050565b7f696e76616c6964206e6f6d696e65650000000000000000000000000000000000600082015250565b6000612c97600f836123a3565b9150612ca282612c61565b602082019050919050565b60006020820190508181036000830152612cc681612c8a565b9050919050565b60008190508160005260206000209050919050565b60008154612cef81612882565b612cf981866123a3565b94506001821660008114612d145760018114612d2657612d59565b60ff1983168652602086019350612d59565b612d2f85612ccd565b60005b83811015612d5157815481890152600182019150602081019050612d32565b808801955050505b50505092915050565b60006040820190508181036000830152612d7c8185612ce2565b9050612d8b6020830184612453565b9392505050565b7f4f776e61626c653a206e6577206f776e657220697320746865207a65726f206160008201527f6464726573730000000000000000000000000000000000000000000000000000602082015250565b6000612dee6026836123a3565b9150612df982612d92565b604082019050919050565b60006020820190508181036000830152612e1d81612de1565b9050919050565b600081905092915050565b6000612e3b8385612e24565b9350612e48838584612b95565b82840190509392505050565b6000612e61828486612e2f565b91508190509392505050565b60008190508160005260206000209050919050565b60008154612e8f81612882565b612e998186612e24565b94506001821660008114612eb45760018114612ec557612ef8565b60ff19831686528186019350612ef8565b612ece85612e6d565b60005b83811015612ef057815481890152600182019150602081019050612ed1565b838801955050505b50505092915050565b6000612f0d8284612e82565b91508190509291505056fea26469706673582212208259dce0854f0b20fdbbcfafcfa31ad9e0fd902a2b04b7bb10777cac93171ee264736f6c634300080b003360806040523480156200001157600080fd5b5060405162001bc538038062001bc583398181016040528101906200003791906200050c565b6040518060400160405280600d81526020017f4f534920476f766572616e6365000000000000000000000000000000000000008152506040518060400160405280600781526020017f4f53495f474f56000000000000000000000000000000000000000000000000008152508160039080519060200190620000bb929190620003b7565b508060049080519060200190620000d4929190620003b7565b505050620000f282826200013b640100000000026401000000009004565b33600560006101000a81548173ffffffffffffffffffffffffffffffffffffffff021916908373ffffffffffffffffffffffffffffffffffffffff160217905550505062000743565b600073ffffffffffffffffffffffffffffffffffffffff168273ffffffffffffffffffffffffffffffffffffffff161415620001ae576040517f08c379a0000000000000000000000000000000000000000000000000000000008152600401620001a590620005b4565b60405180910390fd5b620001cb60008383620002c6640100000000026401000000009004565b8060026000828254620001df919062000605565b92505081905550806000808473ffffffffffffffffffffffffffffffffffffffff1673ffffffffffffffffffffffffffffffffffffffff168152602001908152602001600020600082825462000236919062000605565b925050819055508173ffffffffffffffffffffffffffffffffffffffff16600073ffffffffffffffffffffffffffffffffffffffff167fddf252ad1be2c89b69c2b068fc378daa952ba7f163c4a11628f55a4df523b3ef836040516200029d919062000673565b60405180910390a3620002c260008383620002cb640100000000026401000000009004565b5050565b505050565b600073ffffffffffffffffffffffffffffffffffffffff168373ffffffffffffffffffffffffffffffffffffffff1614620003b257600560009054906101000a900473ffffffffffffffffffffffffffffffffffffffff1673ffffffffffffffffffffffffffffffffffffffff16637fbe62073384846040518463ffffffff167c01000000000000000000000000000000000000000000000000000000000281526004016200037d93929190620006a1565b600060405180830381600087803b1580156200039857600080fd5b505af1158015620003ad573d6000803e3d6000fd5b505050505b505050565b828054620003c5906200070d565b90600052602060002090601f016020900481019282620003e9576000855562000435565b82601f106200040457805160ff191683800117855562000435565b8280016001018555821562000435579182015b828111156200043457825182559160200191906001019062000417565b5b50905062000444919062000448565b5090565b5b808211156200046357600081600090555060010162000449565b5090565b600080fd5b600073ffffffffffffffffffffffffffffffffffffffff82169050919050565b600062000499826200046c565b9050919050565b620004ab816200048c565b8114620004b757600080fd5b50565b600081519050620004cb81620004a0565b92915050565b6000819050919050565b620004e681620004d1565b8114620004f257600080fd5b50565b6000815190506200050681620004db565b92915050565b6000806040838503121562000526576200052562000467565b5b60006200053685828601620004ba565b92505060206200054985828601620004f5565b9150509250929050565b600082825260208201905092915050565b7f45524332303a206d696e7420746f20746865207a65726f206164647265737300600082015250565b60006200059c601f8362000553565b9150620005a98262000564565b602082019050919050565b60006020820190508181036000830152620005cf816200058d565b9050919050565b7f4e487b7100000000000000000000000000000000000000000000000000000000600052601160045260246000fd5b60006200061282620004d1565b91506200061f83620004d1565b9250827fffffffffffffffffffffffffffffffffffffffffffffffffffffffffffffffff03821115620006575762000656620005d6565b5b828201905092915050565b6200066d81620004d1565b82525050565b60006020820190506200068a600083018462000662565b92915050565b6200069b816200048c565b82525050565b6000606082019050620006b8600083018662000690565b620006c7602083018562000690565b620006d6604083018462000662565b949350505050565b7f4e487b7100000000000000000000000000000000000000000000000000000000600052602260045260246000fd5b600060028204905060018216806200072657607f821691505b602082108114156200073d576200073c620006de565b5b50919050565b61147280620007536000396000f3fe608060405234801561001057600080fd5b50600436106100d1576000357c01000000000000000000000000000000000000000000000000000000009004806370a082311161008e57806370a08231146101c057806395d89b41146101f0578063a457c2d71461020e578063a9059cbb1461023e578063dd62ed3e1461026e578063fce1ccca1461029e576100d1565b806306fdde03146100d6578063095ea7b3146100f457806318160ddd1461012457806323b872dd14610142578063313ce567146101725780633950935114610190575b600080fd5b6100de6102bc565b6040516100eb9190610c6c565b60405180910390f35b61010e60048036038101906101099190610d27565b61034e565b60405161011b9190610d82565b60405180910390f35b61012c610371565b6040516101399190610dac565b60405180910390f35b61015c60048036038101906101579190610dc7565b61037b565b6040516101699190610d82565b60405180910390f35b61017a6103aa565b6040516101879190610e36565b60405180910390f35b6101aa60048036038101906101a59190610d27565b6103af565b6040516101b79190610d82565b60405180910390f35b6101da60048036038101906101d59190610e51565b6103e6565b6040516101e79190610dac565b60405180910390f35b6101f861042e565b6040516102059190610c6c565b60405180910390f35b61022860048036038101906102239190610d27565b6104c0565b6040516102359190610d82565b60405180910390f35b61025860048036038101906102539190610d27565b610537565b6040516102659190610d82565b60405180910390f35b61028860048036038101906102839190610e7e565b61055a565b6040516102959190610dac565b60405180910390f35b6102a66105e1565b6040516102b39190610f1d565b60405180910390f35b6060600380546102cb90610f67565b80601f01602080910402602001604051908101604052809291908181526020018280546102f790610f67565b80156103445780601f1061031957610100808354040283529160200191610344565b820191906000526020600020905b81548152906001019060200180831161032757829003601f168201915b5050505050905090565b600080610359610607565b905061036681858561060f565b600191505092915050565b6000600254905090565b600080610386610607565b90506103938582856107da565b61039e858585610866565b60019150509392505050565b600090565b6000806103ba610607565b90506103db8185856103cc858961055a565b6103d69190610fc8565b61060f565b600191505092915050565b60008060008373ffffffffffffffffffffffffffffffffffffffff1673ffffffffffffffffffffffffffffffffffffffff168152602001908152602001600020549050919050565b60606004805461043d90610f67565b80601f016020809104026020016040519081016040528092919081815260200182805461046990610f67565b80156104b65780601f1061048b576101008083540402835291602001916104b6565b820191906000526020600020905b81548152906001019060200180831161049957829003601f168201915b5050505050905090565b6000806104cb610607565b905060006104d9828661055a565b90508381101561051e576040517f08c379a000000000000000000000000000000000000000000000000000000000815260040161051590611090565b60405180910390fd5b61052b828686840361060f565b60019250505092915050565b600080610542610607565b905061054f818585610866565b600191505092915050565b6000600160008473ffffffffffffffffffffffffffffffffffffffff1673ffffffffffffffffffffffffffffffffffffffff16815260200190815260200160002060008373ffffffffffffffffffffffffffffffffffffffff1673ffffffffffffffffffffffffffffffffffffffff16815260200190815260200160002054905092915050565b600560009054906101000a900473ffffffffffffffffffffffffffffffffffffffff1681565b600033905090565b600073ffffffffffffffffffffffffffffffffffffffff168373ffffffffffffffffffffffffffffffffffffffff16141561067f576040517f08c379a000000000000000000000000000000000000000000000000000000000815260040161067690611122565b60405180910390fd5b600073ffffffffffffffffffffffffffffffffffffffff168273ffffffffffffffffffffffffffffffffffffffff1614156106ef576040517f08c379a00000000000000000000000000000000000000000000000000000000081526004016106e6906111b4565b60405180910390fd5b80600160008573ffffffffffffffffffffffffffffffffffffffff1673ffffffffffffffffffffffffffffffffffffffff16815260200190815260200160002060008473ffffffffffffffffffffffffffffffffffffffff1673ffffffffffffffffffffffffffffffffffffffff168152602001908152602001600020819055508173ffffffffffffffffffffffffffffffffffffffff168373ffffffffffffffffffffffffffffffffffffffff167f8c5be1e5ebec7d5bd14f71427d1e84f3dd0314c0f7b2291e5b200ac8c7c3b925836040516107cd9190610dac565b60405180910390a3505050565b60006107e6848461055a565b90507fffffffffffffffffffffffffffffffffffffffffffffffffffffffffffffffff81146108605781811015610852576040517f08c379a000000000000000000000000000000000000000000000000000000000815260040161084990611220565b60405180910390fd5b61085f848484840361060f565b5b50505050565b600073ffffffffffffffffffffffffffffffffffffffff168373ffffffffffffffffffffffffffffffffffffffff1614156108d6576040517f08c379a00000000000000000000000000000000000000000000000000000000081526004016108cd906112b2565b60405180910390fd5b600073ffffffffffffffffffffffffffffffffffffffff168273ffffffffffffffffffffffffffffffffffffffff161415610946576040517f08c379a000000000000000000000000000000000000000000000000000000000815260040161093d90611344565b60405180910390fd5b610951838383610ae7565b60008060008573ffffffffffffffffffffffffffffffffffffffff1673ffffffffffffffffffffffffffffffffffffffff168152602001908152602001600020549050818110156109d7576040517f08c379a00000000000000000000000000000000000000000000000000000000081526004016109ce906113d6565b60405180910390fd5b8181036000808673ffffffffffffffffffffffffffffffffffffffff1673ffffffffffffffffffffffffffffffffffffffff16815260200190815260200160002081905550816000808573ffffffffffffffffffffffffffffffffffffffff1673ffffffffffffffffffffffffffffffffffffffff1681526020019081526020016000206000828254610a6a9190610fc8565b925050819055508273ffffffffffffffffffffffffffffffffffffffff168473ffffffffffffffffffffffffffffffffffffffff167fddf252ad1be2c89b69c2b068fc378daa952ba7f163c4a11628f55a4df523b3ef84604051610ace9190610dac565b60405180910390a3610ae1848484610aec565b50505050565b505050565b600073ffffffffffffffffffffffffffffffffffffffff168373ffffffffffffffffffffffffffffffffffffffff1614610bce57600560009054906101000a900473ffffffffffffffffffffffffffffffffffffffff1673ffffffffffffffffffffffffffffffffffffffff16637fbe62073384846040518463ffffffff167c0100000000000000000000000000000000000000000000000000000000028152600401610b9b93929190611405565b600060405180830381600087803b158015610bb557600080fd5b505af1158015610bc9573d6000803e3d6000fd5b505050505b505050565b600081519050919050565b600082825260208201905092915050565b60005b83811015610c0d578082015181840152602081019050610bf2565b83811115610c1c576000848401525b50505050565b6000601f19601f8301169050919050565b6000610c3e82610bd3565b610c488185610bde565b9350610c58818560208601610bef565b610c6181610c22565b840191505092915050565b60006020820190508181036000830152610c868184610c33565b905092915050565b600080fd5b600073ffffffffffffffffffffffffffffffffffffffff82169050919050565b6000610cbe82610c93565b9050919050565b610cce81610cb3565b8114610cd957600080fd5b50565b600081359050610ceb81610cc5565b92915050565b6000819050919050565b610d0481610cf1565b8114610d0f57600080fd5b50565b600081359050610d2181610cfb565b92915050565b60008060408385031215610d3e57610d3d610c8e565b5b6000610d4c85828601610cdc565b9250506020610d5d85828601610d12565b9150509250929050565b60008115159050919050565b610d7c81610d67565b82525050565b6000602082019050610d976000830184610d73565b92915050565b610da681610cf1565b82525050565b6000602082019050610dc16000830184610d9d565b92915050565b600080600060608486031215610de057610ddf610c8e565b5b6000610dee86828701610cdc565b9350506020610dff86828701610cdc565b9250506040610e1086828701610d12565b9150509250925092565b600060ff82169050919050565b610e3081610e1a565b82525050565b6000602082019050610e4b6000830184610e27565b92915050565b600060208284031215610e6757610e66610c8e565b5b6000610e7584828501610cdc565b91505092915050565b60008060408385031215610e9557610e94610c8e565b5b6000610ea385828601610cdc565b9250506020610eb485828601610cdc565b9150509250929050565b6000819050919050565b6000610ee3610ede610ed984610c93565b610ebe565b610c93565b9050919050565b6000610ef582610ec8565b9050919050565b6000610f0782610eea565b9050919050565b610f1781610efc565b82525050565b6000602082019050610f326000830184610f0e565b92915050565b7f4e487b7100000000000000000000000000000000000000000000000000000000600052602260045260246000fd5b60006002820490506001821680610f7f57607f821691505b60208210811415610f9357610f92610f38565b5b50919050565b7f4e487b7100000000000000000000000000000000000000000000000000000000600052601160045260246000fd5b6000610fd382610cf1565b9150610fde83610cf1565b9250827fffffffffffffffffffffffffffffffffffffffffffffffffffffffffffffffff0382111561101357611012610f99565b5b828201905092915050565b7f45524332303a2064656372656173656420616c6c6f77616e63652062656c6f7760008201527f207a65726f000000000000000000000000000000000000000000000000000000602082015250565b600061107a602583610bde565b91506110858261101e565b604082019050919050565b600060208201905081810360008301526110a98161106d565b9050919050565b7f45524332303a20617070726f76652066726f6d20746865207a65726f2061646460008201527f7265737300000000000000000000000000000000000000000000000000000000602082015250565b600061110c602483610bde565b9150611117826110b0565b604082019050919050565b6000602082019050818103600083015261113b816110ff565b9050919050565b7f45524332303a20617070726f766520746f20746865207a65726f20616464726560008201527f7373000000000000000000000000000000000000000000000000000000000000602082015250565b600061119e602283610bde565b91506111a982611142565b604082019050919050565b600060208201905081810360008301526111cd81611191565b9050919050565b7f45524332303a20696e73756666696369656e7420616c6c6f77616e6365000000600082015250565b600061120a601d83610bde565b9150611215826111d4565b602082019050919050565b60006020820190508181036000830152611239816111fd565b9050919050565b7f45524332303a207472616e736665722066726f6d20746865207a65726f20616460008201527f6472657373000000000000000000000000000000000000000000000000000000602082015250565b600061129c602583610bde565b91506112a782611240565b604082019050919050565b600060208201905081810360008301526112cb8161128f565b9050919050565b7f45524332303a207472616e7366657220746f20746865207a65726f206164647260008201527f6573730000000000000000000000000000000000000000000000000000000000602082015250565b600061132e602383610bde565b9150611339826112d2565b604082019050919050565b6000602082019050818103600083015261135d81611321565b9050919050565b7f45524332303a207472616e7366657220616d6f756e742065786365656473206260008201527f616c616e63650000000000000000000000000000000000000000000000000000602082015250565b60006113c0602683610bde565b91506113cb82611364565b604082019050919050565b600060208201905081810360008301526113ef816113b3565b9050919050565b6113ff81610cb3565b82525050565b600060608201905061141a60008301866113f6565b61142760208301856113f6565b6114346040830184610d9d565b94935050505056fea264697066735822122019b299b0f952d36e0f642d033cab456432aac56fe1b1fb289f79b872ffbc61a064736f6c634300080b003360806040523480156200001157600080fd5b506040518060400160405280600b81526020017f4f534920526577617264730000000000000000000000000000000000000000008152506040518060400160405280600381526020017f4f53490000000000000000000000000000000000000000000000000000000000815250816003908051906020019062000096929190620001f9565b508060049080519060200190620000af929190620001f9565b505050620000e4620000cf6200012b640100000000026401000000009004565b62000133640100000000026401000000009004565b33600660006101000a81548173ffffffffffffffffffffffffffffffffffffffff021916908373ffffffffffffffffffffffffffffffffffffffff1602179055506200030e565b600033905090565b6000600560009054906101000a900473ffffffffffffffffffffffffffffffffffffffff16905081600560006101000a81548173ffffffffffffffffffffffffffffffffffffffff021916908373ffffffffffffffffffffffffffffffffffffffff1602179055508173ffffffffffffffffffffffffffffffffffffffff168173ffffffffffffffffffffffffffffffffffffffff167f8be0079c531659141344cd1fd0a4f28419497f9722a3daafe3b4186f6b6457e060405160405180910390a35050565b8280546200020790620002d8565b90600052602060002090601f0160209004810192826200022b576000855562000277565b82601f106200024657805160ff191683800117855562000277565b8280016001018555821562000277579182015b828111156200027657825182559160200191906001019062000259565b5b5090506200028691906200028a565b5090565b5b80821115620002a55760008160009055506001016200028b565b5090565b7f4e487b7100000000000000000000000000000000000000000000000000000000600052602260045260246000fd5b60006002820490506001821680620002f157607f821691505b60208210811415620003085762000307620002a9565b5b50919050565b611acc806200031e6000396000f3fe608060405234801561001057600080fd5b506004361061011d576000357c010000000000000000000000000000000000000000000000000000000090048063715018a6116100b4578063a9059cbb11610083578063a9059cbb146102ce578063dd62ed3e146102fe578063f2fde38b1461032e578063fce1ccca1461034a5761011d565b8063715018a6146102585780638da5cb5b1461026257806395d89b4114610280578063a457c2d71461029e5761011d565b8063313ce567116100f0578063313ce567146101be57806339509351146101dc57806340c10f191461020c57806370a08231146102285761011d565b806306fdde0314610122578063095ea7b31461014057806318160ddd1461017057806323b872dd1461018e575b600080fd5b61012a610368565b6040516101379190611141565b60405180910390f35b61015a600480360381019061015591906111fc565b6103fa565b6040516101679190611257565b60405180910390f35b61017861041d565b6040516101859190611281565b60405180910390f35b6101a860048036038101906101a3919061129c565b610427565b6040516101b59190611257565b60405180910390f35b6101c6610456565b6040516101d3919061130b565b60405180910390f35b6101f660048036038101906101f191906111fc565b61045f565b6040516102039190611257565b60405180910390f35b610226600480360381019061022191906111fc565b610496565b005b610242600480360381019061023d9190611326565b610520565b60405161024f9190611281565b60405180910390f35b610260610568565b005b61026a6105f0565b6040516102779190611362565b60405180910390f35b61028861061a565b6040516102959190611141565b60405180910390f35b6102b860048036038101906102b391906111fc565b6106ac565b6040516102c59190611257565b60405180910390f35b6102e860048036038101906102e391906111fc565b610723565b6040516102f59190611257565b60405180910390f35b6103186004803603810190610313919061137d565b610746565b6040516103259190611281565b60405180910390f35b61034860048036038101906103439190611326565b6107cd565b005b6103526108c5565b60405161035f919061141c565b60405180910390f35b60606003805461037790611466565b80601f01602080910402602001604051908101604052809291908181526020018280546103a390611466565b80156103f05780601f106103c5576101008083540402835291602001916103f0565b820191906000526020600020905b8154815290600101906020018083116103d357829003601f168201915b5050505050905090565b6000806104056108eb565b90506104128185856108f3565b600191505092915050565b6000600254905090565b6000806104326108eb565b905061043f858285610abe565b61044a858585610b4a565b60019150509392505050565b60006003905090565b60008061046a6108eb565b905061048b81858561047c8589610746565b61048691906114c7565b6108f3565b600191505092915050565b61049e6108eb565b73ffffffffffffffffffffffffffffffffffffffff166104bc6105f0565b73ffffffffffffffffffffffffffffffffffffffff1614610512576040517f08c379a000000000000000000000000000000000000000000000000000000000815260040161050990611569565b60405180910390fd5b61051c8282610dcb565b5050565b60008060008373ffffffffffffffffffffffffffffffffffffffff1673ffffffffffffffffffffffffffffffffffffffff168152602001908152602001600020549050919050565b6105706108eb565b73ffffffffffffffffffffffffffffffffffffffff1661058e6105f0565b73ffffffffffffffffffffffffffffffffffffffff16146105e4576040517f08c379a00000000000000000000000000000000000000000000000000000000081526004016105db90611569565b60405180910390fd5b6105ee6000610f2b565b565b6000600560009054906101000a900473ffffffffffffffffffffffffffffffffffffffff16905090565b60606004805461062990611466565b80601f016020809104026020016040519081016040528092919081815260200182805461065590611466565b80156106a25780601f10610677576101008083540402835291602001916106a2565b820191906000526020600020905b81548152906001019060200180831161068557829003601f168201915b5050505050905090565b6000806106b76108eb565b905060006106c58286610746565b90508381101561070a576040517f08c379a0000000000000000000000000000000000000000000000000000000008152600401610701906115fb565b60405180910390fd5b61071782868684036108f3565b60019250505092915050565b60008061072e6108eb565b905061073b818585610b4a565b600191505092915050565b6000600160008473ffffffffffffffffffffffffffffffffffffffff1673ffffffffffffffffffffffffffffffffffffffff16815260200190815260200160002060008373ffffffffffffffffffffffffffffffffffffffff1673ffffffffffffffffffffffffffffffffffffffff16815260200190815260200160002054905092915050565b6107d56108eb565b73ffffffffffffffffffffffffffffffffffffffff166107f36105f0565b73ffffffffffffffffffffffffffffffffffffffff1614610849576040517f08c379a000000000000000000000000000000000000000000000000000000000815260040161084090611569565b60405180910390fd5b600073ffffffffffffffffffffffffffffffffffffffff168173ffffffffffffffffffffffffffffffffffffffff1614156108b9576040517f08c379a00000000000000000000000000000000000000000000000000000000081526004016108b09061168d565b60405180910390fd5b6108c281610f2b565b50565b600660009054906101000a900473ffffffffffffffffffffffffffffffffffffffff1681565b600033905090565b600073ffffffffffffffffffffffffffffffffffffffff168373ffffffffffffffffffffffffffffffffffffffff161415610963576040517f08c379a000000000000000000000000000000000000000000000000000000000815260040161095a9061171f565b60405180910390fd5b600073ffffffffffffffffffffffffffffffffffffffff168273ffffffffffffffffffffffffffffffffffffffff1614156109d3576040517f08c379a00000000000000000000000000000000000000000000000000000000081526004016109ca906117b1565b60405180910390fd5b80600160008573ffffffffffffffffffffffffffffffffffffffff1673ffffffffffffffffffffffffffffffffffffffff16815260200190815260200160002060008473ffffffffffffffffffffffffffffffffffffffff1673ffffffffffffffffffffffffffffffffffffffff168152602001908152602001600020819055508173ffffffffffffffffffffffffffffffffffffffff168373ffffffffffffffffffffffffffffffffffffffff167f8c5be1e5ebec7d5bd14f71427d1e84f3dd0314c0f7b2291e5b200ac8c7c3b92583604051610ab19190611281565b60405180910390a3505050565b6000610aca8484610746565b90507fffffffffffffffffffffffffffffffffffffffffffffffffffffffffffffffff8114610b445781811015610b36576040517f08c379a0000000000000000000000000000000000000000000000000000000008152600401610b2d9061181d565b60405180910390fd5b610b4384848484036108f3565b5b50505050565b600073ffffffffffffffffffffffffffffffffffffffff168373ffffffffffffffffffffffffffffffffffffffff161415610bba576040517f08c379a0000000000000000000000000000000000000000000000000000000008152600401610bb1906118af565b60405180910390fd5b600073ffffffffffffffffffffffffffffffffffffffff168273ffffffffffffffffffffffffffffffffffffffff161415610c2a576040517f08c379a0000000000000000000000000000000000000000000000000000000008152600401610c2190611941565b60405180910390fd5b610c35838383610ff1565b60008060008573ffffffffffffffffffffffffffffffffffffffff1673ffffffffffffffffffffffffffffffffffffffff16815260200190815260200160002054905081811015610cbb576040517f08c379a0000000000000000000000000000000000000000000000000000000008152600401610cb2906119d3565b60405180910390fd5b8181036000808673ffffffffffffffffffffffffffffffffffffffff1673ffffffffffffffffffffffffffffffffffffffff16815260200190815260200160002081905550816000808573ffffffffffffffffffffffffffffffffffffffff1673ffffffffffffffffffffffffffffffffffffffff1681526020019081526020016000206000828254610d4e91906114c7565b925050819055508273ffffffffffffffffffffffffffffffffffffffff168473ffffffffffffffffffffffffffffffffffffffff167fddf252ad1be2c89b69c2b068fc378daa952ba7f163c4a11628f55a4df523b3ef84604051610db29190611281565b60405180910390a3610dc5848484610ff6565b50505050565b600073ffffffffffffffffffffffffffffffffffffffff168273ffffffffffffffffffffffffffffffffffffffff161415610e3b576040517f08c379a0000000000000000000000000000000000000000000000000000000008152600401610e3290611a3f565b60405180910390fd5b610e4760008383610ff1565b8060026000828254610e5991906114c7565b92505081905550806000808473ffffffffffffffffffffffffffffffffffffffff1673ffffffffffffffffffffffffffffffffffffffff1681526020019081526020016000206000828254610eae91906114c7565b925050819055508173ffffffffffffffffffffffffffffffffffffffff16600073ffffffffffffffffffffffffffffffffffffffff167fddf252ad1be2c89b69c2b068fc378daa952ba7f163c4a11628f55a4df523b3ef83604051610f139190611281565b60405180910390a3610f2760008383610ff6565b5050565b6000600560009054906101000a900473ffffffffffffffffffffffffffffffffffffffff16905081600560006101000a81548173ffffffffffffffffffffffffffffffffffffffff021916908373ffffffffffffffffffffffffffffffffffffffff1602179055508173ffffffffffffffffffffffffffffffffffffffff168173ffffffffffffffffffffffffffffffffffffffff167f8be0079c531659141344cd1fd0a4f28419497f9722a3daafe3b4186f6b6457e060405160405180910390a35050565b505050565b600660009054906101000a900473ffffffffffffffffffffffffffffffffffffffff1673ffffffffffffffffffffffffffffffffffffffff1663022ef6333384846040518463ffffffff167c010000000000000000000000000000000000000000000000000000000002815260040161107193929190611a5f565b600060405180830381600087803b15801561108b57600080fd5b505af115801561109f573d6000803e3d6000fd5b50505050505050565b600081519050919050565b600082825260208201905092915050565b60005b838110156110e25780820151818401526020810190506110c7565b838111156110f1576000848401525b50505050565b6000601f19601f8301169050919050565b6000611113826110a8565b61111d81856110b3565b935061112d8185602086016110c4565b611136816110f7565b840191505092915050565b6000602082019050818103600083015261115b8184611108565b905092915050565b600080fd5b600073ffffffffffffffffffffffffffffffffffffffff82169050919050565b600061119382611168565b9050919050565b6111a381611188565b81146111ae57600080fd5b50565b6000813590506111c08161119a565b92915050565b6000819050919050565b6111d9816111c6565b81146111e457600080fd5b50565b6000813590506111f6816111d0565b92915050565b6000806040838503121561121357611212611163565b5b6000611221858286016111b1565b9250506020611232858286016111e7565b9150509250929050565b60008115159050919050565b6112518161123c565b82525050565b600060208201905061126c6000830184611248565b92915050565b61127b816111c6565b82525050565b60006020820190506112966000830184611272565b92915050565b6000806000606084860312156112b5576112b4611163565b5b60006112c3868287016111b1565b93505060206112d4868287016111b1565b92505060406112e5868287016111e7565b9150509250925092565b600060ff82169050919050565b611305816112ef565b82525050565b600060208201905061132060008301846112fc565b92915050565b60006020828403121561133c5761133b611163565b5b600061134a848285016111b1565b91505092915050565b61135c81611188565b82525050565b60006020820190506113776000830184611353565b92915050565b6000806040838503121561139457611393611163565b5b60006113a2858286016111b1565b92505060206113b3858286016111b1565b9150509250929050565b6000819050919050565b60006113e26113dd6113d884611168565b6113bd565b611168565b9050919050565b60006113f4826113c7565b9050919050565b6000611406826113e9565b9050919050565b611416816113fb565b82525050565b6000602082019050611431600083018461140d565b92915050565b7f4e487b7100000000000000000000000000000000000000000000000000000000600052602260045260246000fd5b6000600282049050600182168061147e57607f821691505b6020821081141561149257611491611437565b5b50919050565b7f4e487b7100000000000000000000000000000000000000000000000000000000600052601160045260246000fd5b60006114d2826111c6565b91506114dd836111c6565b9250827fffffffffffffffffffffffffffffffffffffffffffffffffffffffffffffffff0382111561151257611511611498565b5b828201905092915050565b7f4f776e61626c653a2063616c6c6572206973206e6f7420746865206f776e6572600082015250565b60006115536020836110b3565b915061155e8261151d565b602082019050919050565b6000602082019050818103600083015261158281611546565b9050919050565b7f45524332303a2064656372656173656420616c6c6f77616e63652062656c6f7760008201527f207a65726f000000000000000000000000000000000000000000000000000000602082015250565b60006115e56025836110b3565b91506115f082611589565b604082019050919050565b60006020820190508181036000830152611614816115d8565b9050919050565b7f4f776e61626c653a206e6577206f776e657220697320746865207a65726f206160008201527f6464726573730000000000000000000000000000000000000000000000000000602082015250565b60006116776026836110b3565b91506116828261161b565b604082019050919050565b600060208201905081810360008301526116a68161166a565b9050919050565b7f45524332303a20617070726f76652066726f6d20746865207a65726f2061646460008201527f7265737300000000000000000000000000000000000000000000000000000000602082015250565b60006117096024836110b3565b9150611714826116ad565b604082019050919050565b60006020820190508181036000830152611738816116fc565b9050919050565b7f45524332303a20617070726f766520746f20746865207a65726f20616464726560008201527f7373000000000000000000000000000000000000000000000000000000000000602082015250565b600061179b6022836110b3565b91506117a68261173f565b604082019050919050565b600060208201905081810360008301526117ca8161178e565b9050919050565b7f45524332303a20696e73756666696369656e7420616c6c6f77616e6365000000600082015250565b6000611807601d836110b3565b9150611812826117d1565b602082019050919050565b60006020820190508181036000830152611836816117fa565b9050919050565b7f45524332303a207472616e736665722066726f6d20746865207a65726f20616460008201527f6472657373000000000000000000000000000000000000000000000000000000602082015250565b60006118996025836110b3565b91506118a48261183d565b604082019050919050565b600060208201905081810360008301526118c88161188c565b9050919050565b7f45524332303a207472616e7366657220746f20746865207a65726f206164647260008201527f6573730000000000000000000000000000000000000000000000000000000000602082015250565b600061192b6023836110b3565b9150611936826118cf565b604082019050919050565b6000602082019050818103600083015261195a8161191e565b9050919050565b7f45524332303a207472616e7366657220616d6f756e742065786365656473206260008201527f616c616e63650000000000000000000000000000000000000000000000000000602082015250565b60006119bd6026836110b3565b91506119c882611961565b604082019050919050565b600060208201905081810360008301526119ec816119b0565b9050919050565b7f45524332303a206d696e7420746f20746865207a65726f206164647265737300600082015250565b6000611a29601f836110b3565b9150611a34826119f3565b602082019050919050565b60006020820190508181036000830152611a5881611a1c565b9050919050565b6000606082019050611a746000830186611353565b611a816020830185611353565b611a8e6040830184611272565b94935050505056fea2646970667358221220a80daf76f631d9ed1c31b5c5448e2a0386f6327c15dcdd875c919defbda1419a64736f6c634300080b0033",
  "immutableReferences": {},
  "source": "// contracts/OSIVoting.sol\n// SPDX-License-Identifier: MIT\npragma solidity ^0.8.0;\n\nimport \"./GovToken.sol\";\nimport \"./RewToken.sol\";\nimport \"@openzeppelin/contracts/access/Ownable.sol\";\n\ncontract OSIVoting is Ownable {\n\n    struct Article {\n        address writer;\n        string url;\n    }\n\n    string public constant name = \"OSI Voting\";\n\n    // 2 days for nominations\n    uint public constant seconds_for_nominations = 172800;\n    // 5 days for voting\n    uint public constant seconds_for_voting = 432000;\n    // number of votes given per goverance token\n    uint256 public constant goverance_votes = 1000;\n    // number of reward tokens given per winner\n    uint256 public constant winner_tokens = 1000;\n\n    // end of last voting period\n    uint public startTime;\n\n    GovToken public goverance;\n    RewToken public rewards;\n\n    // record of past winners\n    Article[] public winners;\n\n    // articles to be voted on this week\n    Article[] public nominees;\n\n    // nominations made by each address\n    address[] nominators;\n    mapping(address => uint256) nominationsMade;\n\n    // number of votes cast by each address\n    address[] voters;\n    mapping(address => uint256) votesCast;\n\n    // cumulative votes for each nominee\n    uint256[] public voteCounts;\n\n    constructor(uint256 _supply, uint _start) {\n        goverance = new GovToken(msg.sender, _supply);\n        rewards = new RewToken();\n        startTime = _start;\n    }\n\n    event Nominate(address indexed _nominator, address indexed _writer, string _url);\n    event Vote(address indexed _voter, string _url, uint256 _amount);\n    event Winner(address indexed _writer, string _url);\n\n    function setStartTime(uint _time) public onlyOwner {\n        startTime = _time;\n    }\n\n    function nomineesWriter(uint _index) public view returns (address) {\n        return nominees[_index].writer;\n    }\n\n    function nomineesUrl(uint _index) public view returns (string memory) {\n        return nominees[_index].url;\n    }\n\n    function nomineesLength() public view returns (uint) {\n        return nominees.length;\n    }\n\n    function winnersWriter(uint _index) public view returns (address) {\n        return winners[_index].writer;\n    }\n\n    function winnersUrl(uint _index) public view returns (string memory) {\n        return winners[_index].url;\n    }\n\n    function winnersLength() public view returns (uint) {\n        return winners.length;\n    }\n\n    function nominationsEnds() public view returns (uint) {\n        return startTime + seconds_for_nominations;\n    }\n\n    function votingEnds() public view returns (uint) {\n        return startTime + seconds_for_nominations + seconds_for_voting;\n    }\n\n    function goveranceTransfer(address _from, address _to, uint256 _amount) external {\n        require(msg.sender == address(goverance));\n\n        uint256 nominationTransfer = _amount < nominationsMade[_from] ? _amount : nominationsMade[_from];\n        nominationsMade[_from] -= nominationTransfer;\n        nominationsMade[_to] += nominationTransfer;\n\n        uint256 voteTransfer = goverance_votes * _amount < votesCast[_from] ? goverance_votes * _amount : votesCast[_from];\n        votesCast[_from] -= voteTransfer;\n        votesCast[_to] += voteTransfer;\n    }\n\n    function rewardsTransfer(address _from, address _to, uint256 _amount) external {\n        require(msg.sender == address(rewards));\n\n        uint256 voteTransfer = _amount < votesCast[_from] ? _amount : votesCast[_from];\n        votesCast[_from] -= voteTransfer;\n        votesCast[_to] += voteTransfer;\n    }\n\n    function votesRemaining(address _voter) public view returns (uint256) {\n        return goverance_votes * goverance.balanceOf(_voter) + rewards.balanceOf(_voter) - votesCast[_voter];\n    }\n\n    function submitNomination(address _writer, string calldata _url) public returns (bool) {\n        require(nominationsMade[msg.sender] < goverance.balanceOf(msg.sender), \"too many nominations\");\n        require(block.timestamp > startTime, \"too early\");\n        require(block.timestamp <= startTime + seconds_for_nominations, \"too late\");\n        require(!alreadyNominated(_url), \"already nominate\");\n\n        nominationsMade[msg.sender] += 1;\n        nominees.push(Article(_writer, _url));\n        nominators.push(msg.sender);\n        voteCounts.push();\n\n        emit Nominate(msg.sender, _writer, _url);\n        return true;\n    }\n\n    function castVotes(uint _index, uint256 _amount) public returns (bool) {\n        require(votesRemaining(msg.sender) >= _amount, \"too few remaining\");\n        require(_index < nominees.length, \"invalid nominee\");\n        require(block.timestamp > startTime + seconds_for_nominations, \"too early\");\n        require(block.timestamp <= startTime + seconds_for_nominations + seconds_for_voting, \"too late\");\n\n        votesCast[msg.sender] += _amount;\n        voteCounts[_index] += _amount;\n        voters.push(msg.sender);\n\n        emit Vote(msg.sender, nominees[_index].url, _amount);\n        return true;\n    }\n\n    function updateWinner() public returns (bool) {\n        if (block.timestamp > startTime + seconds_for_nominations + seconds_for_voting) {\n            if (nominees.length > 0) {\n                uint index = 0;\n                for (uint i = 1; i < nominees.length; i++) {\n                    if (voteCounts[i] > voteCounts[index]) {\n                        index = i;\n                    }\n                }\n                Article memory winner = nominees[index];\n\n                winners.push(winner);\n                rewards.mint(winner.writer, winner_tokens);\n                emit Winner(winner.writer, winner.url); \n            }\n           \n            resetVoting();\n            return true;\n        }\n        return false;\n    }\n\n    function resetVoting() private {\n        delete nominees;\n\n        for (uint i = 0; i < nominators.length; i++) {\n            delete nominationsMade[nominators[i]];\n        }\n        delete nominators;\n\n        for (uint i = 0; i < voters.length; i++) {\n            delete votesCast[voters[i]];\n        }\n        delete voters;\n\n        delete voteCounts;\n\n        startTime += seconds_for_nominations + seconds_for_voting;\n    }\n\n    function alreadyNominated(string calldata _url) private view returns (bool) {\n        bytes32 hashVal = keccak256(bytes(_url));\n        for (uint i = 0; i < nominees.length; i++) {\n            if (hashVal == keccak256(bytes(nominees[i].url))) {\n                return true;\n            }\n        }\n        return false;\n    }\n    \n}\n",
  "sourcePath": "/Users/edwardtian/Documents/Code/react/contracts/OSIVoting.sol",
  "compiler": {
    "name": "solc",
    "version": "0.8.11+commit.d7f03943.Emscripten.clang"
  },
  "schemaVersion": "3.4.7",
  "updatedAt": "2022-05-02T18:03:27.177Z",
  "networkType": "ethereum",
  "devdoc": {
    "kind": "dev",
    "methods": {
      "owner()": {
        "details": "Returns the address of the current owner."
      },
      "renounceOwnership()": {
        "details": "Leaves the contract without owner. It will not be possible to call `onlyOwner` functions anymore. Can only be called by the current owner. NOTE: Renouncing ownership will leave the contract without an owner, thereby removing any functionality that is only available to the owner."
      },
      "transferOwnership(address)": {
        "details": "Transfers ownership of the contract to a new account (`newOwner`). Can only be called by the current owner."
      }
    },
    "version": 1
  },
  "userdoc": {
    "kind": "user",
    "methods": {},
    "version": 1
  }
}