{
  "contractName": "OSIVoting",
  "abi": [
    {
      "inputs": [
        {
          "internalType": "uint256",
          "name": "_supply",
          "type": "uint256"
        },
        {
          "internalType": "uint256",
          "name": "_start",
          "type": "uint256"
        }
      ],
      "stateMutability": "nonpayable",
      "type": "constructor"
    },
    {
      "anonymous": false,
      "inputs": [
        {
          "indexed": true,
          "internalType": "address",
          "name": "_nominator",
          "type": "address"
        },
        {
          "indexed": true,
          "internalType": "address",
          "name": "_writer",
          "type": "address"
        },
        {
          "indexed": false,
          "internalType": "string",
          "name": "_url",
          "type": "string"
        }
      ],
      "name": "Nominate",
      "type": "event"
    },
    {
      "anonymous": false,
      "inputs": [
        {
          "indexed": true,
          "internalType": "address",
          "name": "previousOwner",
          "type": "address"
        },
        {
          "indexed": true,
          "internalType": "address",
          "name": "newOwner",
          "type": "address"
        }
      ],
      "name": "OwnershipTransferred",
      "type": "event"
    },
    {
      "anonymous": false,
      "inputs": [
        {
          "indexed": true,
          "internalType": "address",
          "name": "_voter",
          "type": "address"
        },
        {
          "indexed": false,
          "internalType": "string",
          "name": "_url",
          "type": "string"
        },
        {
          "indexed": false,
          "internalType": "uint256",
          "name": "_amount",
          "type": "uint256"
        }
      ],
      "name": "Vote",
      "type": "event"
    },
    {
      "anonymous": false,
      "inputs": [
        {
          "indexed": true,
          "internalType": "address",
          "name": "_writer",
          "type": "address"
        },
        {
          "indexed": false,
          "internalType": "string",
          "name": "_url",
          "type": "string"
        }
      ],
      "name": "Winner",
      "type": "event"
    },
    {
      "inputs": [],
      "name": "goverance",
      "outputs": [
        {
          "internalType": "contract GovToken",
          "name": "",
          "type": "address"
        }
      ],
      "stateMutability": "view",
      "type": "function",
      "constant": true
    },
    {
      "inputs": [],
      "name": "goverance_votes",
      "outputs": [
        {
          "internalType": "uint256",
          "name": "",
          "type": "uint256"
        }
      ],
      "stateMutability": "view",
      "type": "function",
      "constant": true
    },
    {
      "inputs": [],
      "name": "name",
      "outputs": [
        {
          "internalType": "string",
          "name": "",
          "type": "string"
        }
      ],
      "stateMutability": "view",
      "type": "function",
      "constant": true
    },
    {
      "inputs": [
        {
          "internalType": "uint256",
          "name": "",
          "type": "uint256"
        }
      ],
      "name": "nominees",
      "outputs": [
        {
          "internalType": "address",
          "name": "writer",
          "type": "address"
        },
        {
          "internalType": "string",
          "name": "url",
          "type": "string"
        }
      ],
      "stateMutability": "view",
      "type": "function",
      "constant": true
    },
    {
      "inputs": [],
      "name": "owner",
      "outputs": [
        {
          "internalType": "address",
          "name": "",
          "type": "address"
        }
      ],
      "stateMutability": "view",
      "type": "function",
      "constant": true
    },
    {
      "inputs": [],
      "name": "renounceOwnership",
      "outputs": [],
      "stateMutability": "nonpayable",
      "type": "function"
    },
    {
      "inputs": [],
      "name": "rewards",
      "outputs": [
        {
          "internalType": "contract RewToken",
          "name": "",
          "type": "address"
        }
      ],
      "stateMutability": "view",
      "type": "function",
      "constant": true
    },
    {
      "inputs": [],
      "name": "seconds_for_nominations",
      "outputs": [
        {
          "internalType": "uint256",
          "name": "",
          "type": "uint256"
        }
      ],
      "stateMutability": "view",
      "type": "function",
      "constant": true
    },
    {
      "inputs": [],
      "name": "seconds_for_voting",
      "outputs": [
        {
          "internalType": "uint256",
          "name": "",
          "type": "uint256"
        }
      ],
      "stateMutability": "view",
      "type": "function",
      "constant": true
    },
    {
      "inputs": [],
      "name": "startTime",
      "outputs": [
        {
          "internalType": "uint256",
          "name": "",
          "type": "uint256"
        }
      ],
      "stateMutability": "view",
      "type": "function",
      "constant": true
    },
    {
      "inputs": [
        {
          "internalType": "address",
          "name": "newOwner",
          "type": "address"
        }
      ],
      "name": "transferOwnership",
      "outputs": [],
      "stateMutability": "nonpayable",
      "type": "function"
    },
    {
      "inputs": [
        {
          "internalType": "uint256",
          "name": "",
          "type": "uint256"
        }
      ],
      "name": "voteCounts",
      "outputs": [
        {
          "internalType": "uint256",
          "name": "",
          "type": "uint256"
        }
      ],
      "stateMutability": "view",
      "type": "function",
      "constant": true
    },
    {
      "inputs": [],
      "name": "winner_tokens",
      "outputs": [
        {
          "internalType": "uint256",
          "name": "",
          "type": "uint256"
        }
      ],
      "stateMutability": "view",
      "type": "function",
      "constant": true
    },
    {
      "inputs": [
        {
          "internalType": "uint256",
          "name": "",
          "type": "uint256"
        }
      ],
      "name": "winners",
      "outputs": [
        {
          "internalType": "address",
          "name": "writer",
          "type": "address"
        },
        {
          "internalType": "string",
          "name": "url",
          "type": "string"
        }
      ],
      "stateMutability": "view",
      "type": "function",
      "constant": true
    },
    {
      "inputs": [
        {
          "internalType": "uint256",
          "name": "_time",
          "type": "uint256"
        }
      ],
      "name": "setStartTime",
      "outputs": [],
      "stateMutability": "nonpayable",
      "type": "function"
    },
    {
      "inputs": [
        {
          "internalType": "uint256",
          "name": "_index",
          "type": "uint256"
        }
      ],
      "name": "nomineesWriter",
      "outputs": [
        {
          "internalType": "address",
          "name": "",
          "type": "address"
        }
      ],
      "stateMutability": "view",
      "type": "function",
      "constant": true
    },
    {
      "inputs": [
        {
          "internalType": "uint256",
          "name": "_index",
          "type": "uint256"
        }
      ],
      "name": "nomineesUrl",
      "outputs": [
        {
          "internalType": "string",
          "name": "",
          "type": "string"
        }
      ],
      "stateMutability": "view",
      "type": "function",
      "constant": true
    },
    {
      "inputs": [],
      "name": "nomineesLength",
      "outputs": [
        {
          "internalType": "uint256",
          "name": "",
          "type": "uint256"
        }
      ],
      "stateMutability": "view",
      "type": "function",
      "constant": true
    },
    {
      "inputs": [
        {
          "internalType": "uint256",
          "name": "_index",
          "type": "uint256"
        }
      ],
      "name": "winnersWriter",
      "outputs": [
        {
          "internalType": "address",
          "name": "",
          "type": "address"
        }
      ],
      "stateMutability": "view",
      "type": "function",
      "constant": true
    },
    {
      "inputs": [
        {
          "internalType": "uint256",
          "name": "_index",
          "type": "uint256"
        }
      ],
      "name": "winnersUrl",
      "outputs": [
        {
          "internalType": "string",
          "name": "",
          "type": "string"
        }
      ],
      "stateMutability": "view",
      "type": "function",
      "constant": true
    },
    {
      "inputs": [],
      "name": "winnersLength",
      "outputs": [
        {
          "internalType": "uint256",
          "name": "",
          "type": "uint256"
        }
      ],
      "stateMutability": "view",
      "type": "function",
      "constant": true
    },
    {
      "inputs": [],
      "name": "nominationsEnds",
      "outputs": [
        {
          "internalType": "uint256",
          "name": "",
          "type": "uint256"
        }
      ],
      "stateMutability": "view",
      "type": "function",
      "constant": true
    },
    {
      "inputs": [],
      "name": "votingEnds",
      "outputs": [
        {
          "internalType": "uint256",
          "name": "",
          "type": "uint256"
        }
      ],
      "stateMutability": "view",
      "type": "function",
      "constant": true
    },
    {
      "inputs": [
        {
          "internalType": "address",
          "name": "_from",
          "type": "address"
        },
        {
          "internalType": "address",
          "name": "_to",
          "type": "address"
        },
        {
          "internalType": "uint256",
          "name": "_amount",
          "type": "uint256"
        }
      ],
      "name": "goveranceTransfer",
      "outputs": [],
      "stateMutability": "nonpayable",
      "type": "function"
    },
    {
      "inputs": [
        {
          "internalType": "address",
          "name": "_from",
          "type": "address"
        },
        {
          "internalType": "address",
          "name": "_to",
          "type": "address"
        },
        {
          "internalType": "uint256",
          "name": "_amount",
          "type": "uint256"
        }
      ],
      "name": "rewardsTransfer",
      "outputs": [],
      "stateMutability": "nonpayable",
      "type": "function"
    },
    {
      "inputs": [
        {
          "internalType": "address",
          "name": "_voter",
          "type": "address"
        }
      ],
      "name": "votesRemaining",
      "outputs": [
        {
          "internalType": "uint256",
          "name": "",
          "type": "uint256"
        }
      ],
      "stateMutability": "view",
      "type": "function",
      "constant": true
    },
    {
      "inputs": [
        {
          "internalType": "address",
          "name": "_writer",
          "type": "address"
        },
        {
          "internalType": "string",
          "name": "_url",
          "type": "string"
        }
      ],
      "name": "submitNomination",
      "outputs": [
        {
          "internalType": "bool",
          "name": "",
          "type": "bool"
        }
      ],
      "stateMutability": "nonpayable",
      "type": "function"
    },
    {
      "inputs": [
        {
          "internalType": "uint256",
          "name": "_index",
          "type": "uint256"
        },
        {
          "internalType": "uint256",
          "name": "_amount",
          "type": "uint256"
        }
      ],
      "name": "castVotes",
      "outputs": [
        {
          "internalType": "bool",
          "name": "",
          "type": "bool"
        }
      ],
      "stateMutability": "nonpayable",
      "type": "function"
    },
    {
      "inputs": [],
      "name": "updateWinner",
      "outputs": [
        {
          "internalType": "bool",
          "name": "",
          "type": "bool"
        }
      ],
      "stateMutability": "nonpayable",
      "type": "function"
    }
  ],
  "bytecode": "0x60806040523480156200001157600080fd5b5060405162006b0438038062006b04833981810160405281019062000037919062000275565b620000576200004b6200014d60201b60201c565b6200015560201b60201c565b3382604051620000679062000219565b6200007492919062000312565b604051809103906000f08015801562000091573d6000803e3d6000fd5b50600260006101000a81548173ffffffffffffffffffffffffffffffffffffffff021916908373ffffffffffffffffffffffffffffffffffffffff160217905550604051620000e09062000227565b604051809103906000f080158015620000fd573d6000803e3d6000fd5b50600360006101000a81548173ffffffffffffffffffffffffffffffffffffffff021916908373ffffffffffffffffffffffffffffffffffffffff1602179055508060018190555050506200033f565b600033905090565b60008060009054906101000a900473ffffffffffffffffffffffffffffffffffffffff169050816000806101000a81548173ffffffffffffffffffffffffffffffffffffffff021916908373ffffffffffffffffffffffffffffffffffffffff1602179055508173ffffffffffffffffffffffffffffffffffffffff168173ffffffffffffffffffffffffffffffffffffffff167f8be0079c531659141344cd1fd0a4f28419497f9722a3daafe3b4186f6b6457e060405160405180910390a35050565b611b55806200321083390190565b611d9f8062004d6583390190565b600080fd5b6000819050919050565b6200024f816200023a565b81146200025b57600080fd5b50565b6000815190506200026f8162000244565b92915050565b600080604083850312156200028f576200028e62000235565b5b60006200029f858286016200025e565b9250506020620002b2858286016200025e565b9150509250929050565b600073ffffffffffffffffffffffffffffffffffffffff82169050919050565b6000620002e982620002bc565b9050919050565b620002fb81620002dc565b82525050565b6200030c816200023a565b82525050565b6000604082019050620003296000830185620002f0565b62000338602083018462000301565b9392505050565b612ec1806200034f6000396000f3fe608060405234801561001057600080fd5b50600436106101cf5760003560e01c80637c9f512a116101045780639ec5a894116100a2578063d1fe8b8f11610071578063d1fe8b8f14610539578063df7b637b14610569578063eec6b91e14610587578063f2fde38b146105b8576101cf565b80639ec5a8941461049c578063a2fb1175146104ba578063aebd9dd4146104eb578063c723035714610509576101cf565b806384ecc4db116100de57806384ecc4db146103ee578063885515da1461041e5780638da5cb5b1461044e5780639b19547d1461046c576101cf565b80637c9f512a146103845780637fbe6207146103b45780637fdb1adb146103d0576101cf565b80633376def8116101715780633e0a322d1161014b5780633e0a322d14610322578063715018a61461033e57806378e97925146103485780637bb87e9814610366576101cf565b80633376def8146102b65780633b52f2be146102d45780633c3a220d146102f2576101cf565b80631f0304e2116101ad5780631f0304e21461022c578063280ee4ee1461024a5780632c3c2fd2146102685780633284dfed14610298576101cf565b8063022ef633146101d457806306fdde03146101f05780631ab6a1811461020e575b600080fd5b6101ee60048036038101906101e991906122b8565b6105d4565b005b6101f8610771565b60405161020591906123a4565b60405180910390f35b6102166107aa565b60405161022391906123d5565b60405180910390f35b6102346107b1565b604051610241919061244f565b60405180910390f35b6102526107d7565b60405161025f91906123d5565b60405180910390f35b610282600480360381019061027d919061246a565b6107fd565b60405161028f91906124a6565b60405180910390f35b6102a061084c565b6040516102ad91906123d5565b60405180910390f35b6102be610852565b6040516102cb91906124dc565b60405180910390f35b6102dc610bab565b6040516102e991906123d5565b60405180910390f35b61030c6004803603810190610307919061246a565b610bb8565b60405161031991906123d5565b60405180910390f35b61033c6004803603810190610337919061246a565b610bdc565b005b610346610c62565b005b610350610cea565b60405161035d91906123d5565b60405180910390f35b61036e610cf0565b60405161037b91906123d5565b60405180910390f35b61039e6004803603810190610399919061246a565b610d08565b6040516103ab91906123a4565b60405180910390f35b6103ce60048036038101906103c991906122b8565b610dbf565b005b6103d86110b4565b6040516103e591906123d5565b60405180910390f35b6104086004803603810190610403919061255c565b6110ba565b60405161041591906124dc565b60405180910390f35b610438600480360381019061043391906125bc565b611502565b60405161044591906123d5565b60405180910390f35b6104566116a4565b60405161046391906124a6565b60405180910390f35b610486600480360381019061048191906125e9565b6116cd565b60405161049391906124dc565b60405180910390f35b6104a4611980565b6040516104b1919061264a565b60405180910390f35b6104d460048036038101906104cf919061246a565b6119a6565b6040516104e2929190612665565b60405180910390f35b6104f3611a82565b60405161050091906123d5565b60405180910390f35b610523600480360381019061051e919061246a565b611a8f565b60405161053091906124a6565b60405180910390f35b610553600480360381019061054e919061246a565b611ade565b60405161056091906123a4565b60405180910390f35b610571611b95565b60405161057e91906123d5565b60405180910390f35b6105a1600480360381019061059c919061246a565b611b9c565b6040516105af929190612665565b60405180910390f35b6105d260048036038101906105cd91906125bc565b611c78565b005b600360009054906101000a900473ffffffffffffffffffffffffffffffffffffffff1673ffffffffffffffffffffffffffffffffffffffff163373ffffffffffffffffffffffffffffffffffffffff161461062e57600080fd5b6000600960008573ffffffffffffffffffffffffffffffffffffffff1673ffffffffffffffffffffffffffffffffffffffff1681526020019081526020016000205482106106bb57600960008573ffffffffffffffffffffffffffffffffffffffff1673ffffffffffffffffffffffffffffffffffffffff168152602001908152602001600020546106bd565b815b905080600960008673ffffffffffffffffffffffffffffffffffffffff1673ffffffffffffffffffffffffffffffffffffffff168152602001908152602001600020600082825461070e91906126c4565b9250508190555080600960008573ffffffffffffffffffffffffffffffffffffffff1673ffffffffffffffffffffffffffffffffffffffff168152602001908152602001600020600082825461076491906126f8565b9250508190555050505050565b6040518060400160405280600a81526020017f4f534920566f74696e670000000000000000000000000000000000000000000081525081565b6202a30081565b600260009054906101000a900473ffffffffffffffffffffffffffffffffffffffff1681565b6000620697806202a3006001546107ee91906126f8565b6107f891906126f8565b905090565b6000600582815481106108135761081261274e565b5b906000526020600020906002020160000160009054906101000a900473ffffffffffffffffffffffffffffffffffffffff169050919050565b6103e881565b6000620697806202a30060015461086991906126f8565b61087391906126f8565b421115610ba35760006005805490501115610b9257600080600190505b6005805490508110156108f857600a82815481106108b1576108b061274e565b5b9060005260206000200154600a82815481106108d0576108cf61274e565b5b906000526020600020015411156108e5578091505b80806108f09061277d565b915050610890565b5060006005828154811061090f5761090e61274e565b5b90600052602060002090600202016040518060400160405290816000820160009054906101000a900473ffffffffffffffffffffffffffffffffffffffff1673ffffffffffffffffffffffffffffffffffffffff1673ffffffffffffffffffffffffffffffffffffffff16815260200160018201805461098e906127f5565b80601f01602080910402602001604051908101604052809291908181526020018280546109ba906127f5565b8015610a075780601f106109dc57610100808354040283529160200191610a07565b820191906000526020600020905b8154815290600101906020018083116109ea57829003601f168201915b5050505050815250509050600481908060018154018082558091505060019003906000526020600020906002020160009091909190915060008201518160000160006101000a81548173ffffffffffffffffffffffffffffffffffffffff021916908373ffffffffffffffffffffffffffffffffffffffff1602179055506020820151816001019080519060200190610aa1929190612083565b505050600360009054906101000a900473ffffffffffffffffffffffffffffffffffffffff1673ffffffffffffffffffffffffffffffffffffffff166340c10f1982600001516103e86040518363ffffffff1660e01b8152600401610b07929190612827565b600060405180830381600087803b158015610b2157600080fd5b505af1158015610b35573d6000803e3d6000fd5b50505050806000015173ffffffffffffffffffffffffffffffffffffffff167f45edd59c4f5dea5f690cd524f1a6ea9cba17b09235c1bfaa2cea0d80bac5daba8260200151604051610b8791906123a4565b60405180910390a250505b610b9a611d70565b60019050610ba8565b600090505b90565b6000600480549050905090565b600a8181548110610bc857600080fd5b906000526020600020016000915090505481565b610be4611f1e565b73ffffffffffffffffffffffffffffffffffffffff16610c026116a4565b73ffffffffffffffffffffffffffffffffffffffff1614610c58576040517f08c379a0000000000000000000000000000000000000000000000000000000008152600401610c4f9061289c565b60405180910390fd5b8060018190555050565b610c6a611f1e565b73ffffffffffffffffffffffffffffffffffffffff16610c886116a4565b73ffffffffffffffffffffffffffffffffffffffff1614610cde576040517f08c379a0000000000000000000000000000000000000000000000000000000008152600401610cd59061289c565b60405180910390fd5b610ce86000611f26565b565b60015481565b60006202a300600154610d0391906126f8565b905090565b606060048281548110610d1e57610d1d61274e565b5b90600052602060002090600202016001018054610d3a906127f5565b80601f0160208091040260200160405190810160405280929190818152602001828054610d66906127f5565b8015610db35780601f10610d8857610100808354040283529160200191610db3565b820191906000526020600020905b815481529060010190602001808311610d9657829003601f168201915b50505050509050919050565b600260009054906101000a900473ffffffffffffffffffffffffffffffffffffffff1673ffffffffffffffffffffffffffffffffffffffff163373ffffffffffffffffffffffffffffffffffffffff1614610e1957600080fd5b6000600760008573ffffffffffffffffffffffffffffffffffffffff1673ffffffffffffffffffffffffffffffffffffffff168152602001908152602001600020548210610ea657600760008573ffffffffffffffffffffffffffffffffffffffff1673ffffffffffffffffffffffffffffffffffffffff16815260200190815260200160002054610ea8565b815b905080600760008673ffffffffffffffffffffffffffffffffffffffff1673ffffffffffffffffffffffffffffffffffffffff1681526020019081526020016000206000828254610ef991906126c4565b9250508190555080600760008573ffffffffffffffffffffffffffffffffffffffff1673ffffffffffffffffffffffffffffffffffffffff1681526020019081526020016000206000828254610f4f91906126f8565b925050819055506000600960008673ffffffffffffffffffffffffffffffffffffffff1673ffffffffffffffffffffffffffffffffffffffff16815260200190815260200160002054836103e8610fa691906128bc565b10610ff057600960008673ffffffffffffffffffffffffffffffffffffffff1673ffffffffffffffffffffffffffffffffffffffff16815260200190815260200160002054610fff565b826103e8610ffe91906128bc565b5b905080600960008773ffffffffffffffffffffffffffffffffffffffff1673ffffffffffffffffffffffffffffffffffffffff168152602001908152602001600020600082825461105091906126c4565b9250508190555080600960008673ffffffffffffffffffffffffffffffffffffffff1673ffffffffffffffffffffffffffffffffffffffff16815260200190815260200160002060008282546110a691906126f8565b925050819055505050505050565b6103e881565b6000600260009054906101000a900473ffffffffffffffffffffffffffffffffffffffff1673ffffffffffffffffffffffffffffffffffffffff166370a08231336040518263ffffffff1660e01b815260040161111791906124a6565b602060405180830381865afa158015611134573d6000803e3d6000fd5b505050506040513d601f19601f82011682018060405250810190611158919061292b565b600760003373ffffffffffffffffffffffffffffffffffffffff1673ffffffffffffffffffffffffffffffffffffffff16815260200190815260200160002054106111d8576040517f08c379a00000000000000000000000000000000000000000000000000000000081526004016111cf906129a4565b60405180910390fd5b600154421161121c576040517f08c379a000000000000000000000000000000000000000000000000000000000815260040161121390612a10565b60405180910390fd5b6202a30060015461122d91906126f8565b42111561126f576040517f08c379a000000000000000000000000000000000000000000000000000000000815260040161126690612a7c565b60405180910390fd5b6112798383611fea565b156112b9576040517f08c379a00000000000000000000000000000000000000000000000000000000081526004016112b090612ae8565b60405180910390fd5b6001600760003373ffffffffffffffffffffffffffffffffffffffff1673ffffffffffffffffffffffffffffffffffffffff168152602001908152602001600020600082825461130991906126f8565b92505081905550600560405180604001604052808673ffffffffffffffffffffffffffffffffffffffff16815260200185858080601f016020809104026020016040519081016040528093929190818152602001838380828437600081840152601f19601f82011690508083019250505050505050815250908060018154018082558091505060019003906000526020600020906002020160009091909190915060008201518160000160006101000a81548173ffffffffffffffffffffffffffffffffffffffff021916908373ffffffffffffffffffffffffffffffffffffffff160217905550602082015181600101908051906020019061140d929190612083565b5050506006339080600181540180825580915050600190039060005260206000200160009091909190916101000a81548173ffffffffffffffffffffffffffffffffffffffff021916908373ffffffffffffffffffffffffffffffffffffffff160217905550600a6001816001815401808255809150500390600052602060002050508373ffffffffffffffffffffffffffffffffffffffff163373ffffffffffffffffffffffffffffffffffffffff167f86b9bd97bdb1aa709e139f61f71cef4092d6d19d5f94dc1ecdc98402bdc09a2585856040516114ef929190612b44565b60405180910390a3600190509392505050565b6000600960008373ffffffffffffffffffffffffffffffffffffffff1673ffffffffffffffffffffffffffffffffffffffff16815260200190815260200160002054600360009054906101000a900473ffffffffffffffffffffffffffffffffffffffff1673ffffffffffffffffffffffffffffffffffffffff166370a08231846040518263ffffffff1660e01b815260040161159f91906124a6565b602060405180830381865afa1580156115bc573d6000803e3d6000fd5b505050506040513d601f19601f820116820180604052508101906115e0919061292b565b600260009054906101000a900473ffffffffffffffffffffffffffffffffffffffff1673ffffffffffffffffffffffffffffffffffffffff166370a08231856040518263ffffffff1660e01b815260040161163b91906124a6565b602060405180830381865afa158015611658573d6000803e3d6000fd5b505050506040513d601f19601f8201168201806040525081019061167c919061292b565b6103e861168991906128bc565b61169391906126f8565b61169d91906126c4565b9050919050565b60008060009054906101000a900473ffffffffffffffffffffffffffffffffffffffff16905090565b6000816116d933611502565b101561171a576040517f08c379a000000000000000000000000000000000000000000000000000000000815260040161171190612bb4565b60405180910390fd5b6005805490508310611761576040517f08c379a000000000000000000000000000000000000000000000000000000000815260040161175890612c20565b60405180910390fd5b6202a30060015461177291906126f8565b42116117b3576040517f08c379a00000000000000000000000000000000000000000000000000000000081526004016117aa90612a10565b60405180910390fd5b620697806202a3006001546117c891906126f8565b6117d291906126f8565b421115611814576040517f08c379a000000000000000000000000000000000000000000000000000000000815260040161180b90612a7c565b60405180910390fd5b81600960003373ffffffffffffffffffffffffffffffffffffffff1673ffffffffffffffffffffffffffffffffffffffff168152602001908152602001600020600082825461186391906126f8565b9250508190555081600a848154811061187f5761187e61274e565b5b90600052602060002001600082825461189891906126f8565b925050819055506008339080600181540180825580915050600190039060005260206000200160009091909190916101000a81548173ffffffffffffffffffffffffffffffffffffffff021916908373ffffffffffffffffffffffffffffffffffffffff1602179055503373ffffffffffffffffffffffffffffffffffffffff167ff872c9dd43e62509c7276e545b258673a25292dbeb9756e834227c8a838186556005858154811061194e5761194d61274e565b5b90600052602060002090600202016001018460405161196e929190612cd5565b60405180910390a26001905092915050565b600360009054906101000a900473ffffffffffffffffffffffffffffffffffffffff1681565b600481815481106119b657600080fd5b90600052602060002090600202016000915090508060000160009054906101000a900473ffffffffffffffffffffffffffffffffffffffff16908060010180546119ff906127f5565b80601f0160208091040260200160405190810160405280929190818152602001828054611a2b906127f5565b8015611a785780601f10611a4d57610100808354040283529160200191611a78565b820191906000526020600020905b815481529060010190602001808311611a5b57829003601f168201915b5050505050905082565b6000600580549050905090565b600060048281548110611aa557611aa461274e565b5b906000526020600020906002020160000160009054906101000a900473ffffffffffffffffffffffffffffffffffffffff169050919050565b606060058281548110611af457611af361274e565b5b90600052602060002090600202016001018054611b10906127f5565b80601f0160208091040260200160405190810160405280929190818152602001828054611b3c906127f5565b8015611b895780601f10611b5e57610100808354040283529160200191611b89565b820191906000526020600020905b815481529060010190602001808311611b6c57829003601f168201915b50505050509050919050565b6206978081565b60058181548110611bac57600080fd5b90600052602060002090600202016000915090508060000160009054906101000a900473ffffffffffffffffffffffffffffffffffffffff1690806001018054611bf5906127f5565b80601f0160208091040260200160405190810160405280929190818152602001828054611c21906127f5565b8015611c6e5780601f10611c4357610100808354040283529160200191611c6e565b820191906000526020600020905b815481529060010190602001808311611c5157829003601f168201915b5050505050905082565b611c80611f1e565b73ffffffffffffffffffffffffffffffffffffffff16611c9e6116a4565b73ffffffffffffffffffffffffffffffffffffffff1614611cf4576040517f08c379a0000000000000000000000000000000000000000000000000000000008152600401611ceb9061289c565b60405180910390fd5b600073ffffffffffffffffffffffffffffffffffffffff168173ffffffffffffffffffffffffffffffffffffffff161415611d64576040517f08c379a0000000000000000000000000000000000000000000000000000000008152600401611d5b90612d77565b60405180910390fd5b611d6d81611f26565b50565b60056000611d7e9190612109565b60005b600680549050811015611e22576007600060068381548110611da657611da561274e565b5b9060005260206000200160009054906101000a900473ffffffffffffffffffffffffffffffffffffffff1673ffffffffffffffffffffffffffffffffffffffff1673ffffffffffffffffffffffffffffffffffffffff168152602001908152602001600020600090558080611e1a9061277d565b915050611d81565b5060066000611e31919061212d565b60005b600880549050811015611ed5576009600060088381548110611e5957611e5861274e565b5b9060005260206000200160009054906101000a900473ffffffffffffffffffffffffffffffffffffffff1673ffffffffffffffffffffffffffffffffffffffff1673ffffffffffffffffffffffffffffffffffffffff168152602001908152602001600020600090558080611ecd9061277d565b915050611e34565b5060086000611ee4919061212d565b600a6000611ef2919061214e565b620697806202a300611f0491906126f8565b60016000828254611f1591906126f8565b92505081905550565b600033905090565b60008060009054906101000a900473ffffffffffffffffffffffffffffffffffffffff169050816000806101000a81548173ffffffffffffffffffffffffffffffffffffffff021916908373ffffffffffffffffffffffffffffffffffffffff1602179055508173ffffffffffffffffffffffffffffffffffffffff168173ffffffffffffffffffffffffffffffffffffffff167f8be0079c531659141344cd1fd0a4f28419497f9722a3daafe3b4186f6b6457e060405160405180910390a35050565b6000808383604051611ffd929190612dc7565b6040518091039020905060005b600580549050811015612076576005818154811061202b5761202a61274e565b5b90600052602060002090600202016001016040516120499190612e74565b60405180910390208214156120635760019250505061207d565b808061206e9061277d565b91505061200a565b5060009150505b92915050565b82805461208f906127f5565b90600052602060002090601f0160209004810192826120b157600085556120f8565b82601f106120ca57805160ff19168380011785556120f8565b828001600101855582156120f8579182015b828111156120f75782518255916020019190600101906120dc565b5b509050612105919061216f565b5090565b508054600082556002029060005260206000209081019061212a919061218c565b50565b508054600082559060005260206000209081019061214b919061216f565b50565b508054600082559060005260206000209081019061216c919061216f565b50565b5b80821115612188576000816000905550600101612170565b5090565b5b808211156121d657600080820160006101000a81549073ffffffffffffffffffffffffffffffffffffffff02191690556001820160006121cd91906121da565b5060020161218d565b5090565b5080546121e6906127f5565b6000825580601f106121f85750612217565b601f016020900490600052602060002090810190612216919061216f565b5b50565b600080fd5b600080fd5b600073ffffffffffffffffffffffffffffffffffffffff82169050919050565b600061224f82612224565b9050919050565b61225f81612244565b811461226a57600080fd5b50565b60008135905061227c81612256565b92915050565b6000819050919050565b61229581612282565b81146122a057600080fd5b50565b6000813590506122b28161228c565b92915050565b6000806000606084860312156122d1576122d061221a565b5b60006122df8682870161226d565b93505060206122f08682870161226d565b9250506040612301868287016122a3565b9150509250925092565b600081519050919050565b600082825260208201905092915050565b60005b8381101561234557808201518184015260208101905061232a565b83811115612354576000848401525b50505050565b6000601f19601f8301169050919050565b60006123768261230b565b6123808185612316565b9350612390818560208601612327565b6123998161235a565b840191505092915050565b600060208201905081810360008301526123be818461236b565b905092915050565b6123cf81612282565b82525050565b60006020820190506123ea60008301846123c6565b92915050565b6000819050919050565b600061241561241061240b84612224565b6123f0565b612224565b9050919050565b6000612427826123fa565b9050919050565b60006124398261241c565b9050919050565b6124498161242e565b82525050565b60006020820190506124646000830184612440565b92915050565b6000602082840312156124805761247f61221a565b5b600061248e848285016122a3565b91505092915050565b6124a081612244565b82525050565b60006020820190506124bb6000830184612497565b92915050565b60008115159050919050565b6124d6816124c1565b82525050565b60006020820190506124f160008301846124cd565b92915050565b600080fd5b600080fd5b600080fd5b60008083601f84011261251c5761251b6124f7565b5b8235905067ffffffffffffffff811115612539576125386124fc565b5b60208301915083600182028301111561255557612554612501565b5b9250929050565b6000806000604084860312156125755761257461221a565b5b60006125838682870161226d565b935050602084013567ffffffffffffffff8111156125a4576125a361221f565b5b6125b086828701612506565b92509250509250925092565b6000602082840312156125d2576125d161221a565b5b60006125e08482850161226d565b91505092915050565b60008060408385031215612600576125ff61221a565b5b600061260e858286016122a3565b925050602061261f858286016122a3565b9150509250929050565b60006126348261241c565b9050919050565b61264481612629565b82525050565b600060208201905061265f600083018461263b565b92915050565b600060408201905061267a6000830185612497565b818103602083015261268c818461236b565b90509392505050565b7f4e487b7100000000000000000000000000000000000000000000000000000000600052601160045260246000fd5b60006126cf82612282565b91506126da83612282565b9250828210156126ed576126ec612695565b5b828203905092915050565b600061270382612282565b915061270e83612282565b9250827fffffffffffffffffffffffffffffffffffffffffffffffffffffffffffffffff0382111561274357612742612695565b5b828201905092915050565b7f4e487b7100000000000000000000000000000000000000000000000000000000600052603260045260246000fd5b600061278882612282565b91507fffffffffffffffffffffffffffffffffffffffffffffffffffffffffffffffff8214156127bb576127ba612695565b5b600182019050919050565b7f4e487b7100000000000000000000000000000000000000000000000000000000600052602260045260246000fd5b6000600282049050600182168061280d57607f821691505b60208210811415612821576128206127c6565b5b50919050565b600060408201905061283c6000830185612497565b61284960208301846123c6565b9392505050565b7f4f776e61626c653a2063616c6c6572206973206e6f7420746865206f776e6572600082015250565b6000612886602083612316565b915061289182612850565b602082019050919050565b600060208201905081810360008301526128b581612879565b9050919050565b60006128c782612282565b91506128d283612282565b9250817fffffffffffffffffffffffffffffffffffffffffffffffffffffffffffffffff048311821515161561290b5761290a612695565b5b828202905092915050565b6000815190506129258161228c565b92915050565b6000602082840312156129415761294061221a565b5b600061294f84828501612916565b91505092915050565b7f746f6f206d616e79206e6f6d696e6174696f6e73000000000000000000000000600082015250565b600061298e601483612316565b915061299982612958565b602082019050919050565b600060208201905081810360008301526129bd81612981565b9050919050565b7f746f6f206561726c790000000000000000000000000000000000000000000000600082015250565b60006129fa600983612316565b9150612a05826129c4565b602082019050919050565b60006020820190508181036000830152612a29816129ed565b9050919050565b7f746f6f206c617465000000000000000000000000000000000000000000000000600082015250565b6000612a66600883612316565b9150612a7182612a30565b602082019050919050565b60006020820190508181036000830152612a9581612a59565b9050919050565b7f616c7265616479206e6f6d696e61746500000000000000000000000000000000600082015250565b6000612ad2601083612316565b9150612add82612a9c565b602082019050919050565b60006020820190508181036000830152612b0181612ac5565b9050919050565b82818337600083830152505050565b6000612b238385612316565b9350612b30838584612b08565b612b398361235a565b840190509392505050565b60006020820190508181036000830152612b5f818486612b17565b90509392505050565b7f746f6f206665772072656d61696e696e67000000000000000000000000000000600082015250565b6000612b9e601183612316565b9150612ba982612b68565b602082019050919050565b60006020820190508181036000830152612bcd81612b91565b9050919050565b7f696e76616c6964206e6f6d696e65650000000000000000000000000000000000600082015250565b6000612c0a600f83612316565b9150612c1582612bd4565b602082019050919050565b60006020820190508181036000830152612c3981612bfd565b9050919050565b60008190508160005260206000209050919050565b60008154612c62816127f5565b612c6c8186612316565b94506001821660008114612c875760018114612c9957612ccc565b60ff1983168652602086019350612ccc565b612ca285612c40565b60005b83811015612cc457815481890152600182019150602081019050612ca5565b808801955050505b50505092915050565b60006040820190508181036000830152612cef8185612c55565b9050612cfe60208301846123c6565b9392505050565b7f4f776e61626c653a206e6577206f776e657220697320746865207a65726f206160008201527f6464726573730000000000000000000000000000000000000000000000000000602082015250565b6000612d61602683612316565b9150612d6c82612d05565b604082019050919050565b60006020820190508181036000830152612d9081612d54565b9050919050565b600081905092915050565b6000612dae8385612d97565b9350612dbb838584612b08565b82840190509392505050565b6000612dd4828486612da2565b91508190509392505050565b60008190508160005260206000209050919050565b60008154612e02816127f5565b612e0c8186612d97565b94506001821660008114612e275760018114612e3857612e6b565b60ff19831686528186019350612e6b565b612e4185612de0565b60005b83811015612e6357815481890152600182019150602081019050612e44565b838801955050505b50505092915050565b6000612e808284612df5565b91508190509291505056fea264697066735822122032aa067c6eb598fc3d80dea0e306a768c9d100c2c3955bd980dfd84d831f530f64736f6c634300080b003360806040523480156200001157600080fd5b5060405162001b5538038062001b558339818101604052810190620000379190620004d5565b6040518060400160405280600d81526020017f4f534920476f766572616e6365000000000000000000000000000000000000008152506040518060400160405280600781526020017f4f53495f474f56000000000000000000000000000000000000000000000000008152508160039080519060200190620000bb92919062000380565b508060049080519060200190620000d492919062000380565b505050620000e982826200013260201b60201c565b33600560006101000a81548173ffffffffffffffffffffffffffffffffffffffff021916908373ffffffffffffffffffffffffffffffffffffffff16021790555050506200070c565b600073ffffffffffffffffffffffffffffffffffffffff168273ffffffffffffffffffffffffffffffffffffffff161415620001a5576040517f08c379a00000000000000000000000000000000000000000000000000000000081526004016200019c906200057d565b60405180910390fd5b620001b960008383620002ab60201b60201c565b8060026000828254620001cd9190620005ce565b92505081905550806000808473ffffffffffffffffffffffffffffffffffffffff1673ffffffffffffffffffffffffffffffffffffffff1681526020019081526020016000206000828254620002249190620005ce565b925050819055508173ffffffffffffffffffffffffffffffffffffffff16600073ffffffffffffffffffffffffffffffffffffffff167fddf252ad1be2c89b69c2b068fc378daa952ba7f163c4a11628f55a4df523b3ef836040516200028b91906200063c565b60405180910390a3620002a760008383620002b060201b60201c565b5050565b505050565b600073ffffffffffffffffffffffffffffffffffffffff168373ffffffffffffffffffffffffffffffffffffffff16146200037b57600560009054906101000a900473ffffffffffffffffffffffffffffffffffffffff1673ffffffffffffffffffffffffffffffffffffffff16637fbe62073384846040518463ffffffff1660e01b815260040162000346939291906200066a565b600060405180830381600087803b1580156200036157600080fd5b505af115801562000376573d6000803e3d6000fd5b505050505b505050565b8280546200038e90620006d6565b90600052602060002090601f016020900481019282620003b25760008555620003fe565b82601f10620003cd57805160ff1916838001178555620003fe565b82800160010185558215620003fe579182015b82811115620003fd578251825591602001919060010190620003e0565b5b5090506200040d919062000411565b5090565b5b808211156200042c57600081600090555060010162000412565b5090565b600080fd5b600073ffffffffffffffffffffffffffffffffffffffff82169050919050565b6000620004628262000435565b9050919050565b620004748162000455565b81146200048057600080fd5b50565b600081519050620004948162000469565b92915050565b6000819050919050565b620004af816200049a565b8114620004bb57600080fd5b50565b600081519050620004cf81620004a4565b92915050565b60008060408385031215620004ef57620004ee62000430565b5b6000620004ff8582860162000483565b92505060206200051285828601620004be565b9150509250929050565b600082825260208201905092915050565b7f45524332303a206d696e7420746f20746865207a65726f206164647265737300600082015250565b600062000565601f836200051c565b915062000572826200052d565b602082019050919050565b60006020820190508181036000830152620005988162000556565b9050919050565b7f4e487b7100000000000000000000000000000000000000000000000000000000600052601160045260246000fd5b6000620005db826200049a565b9150620005e8836200049a565b9250827fffffffffffffffffffffffffffffffffffffffffffffffffffffffffffffffff0382111562000620576200061f6200059f565b5b828201905092915050565b62000636816200049a565b82525050565b60006020820190506200065360008301846200062b565b92915050565b620006648162000455565b82525050565b600060608201905062000681600083018662000659565b62000690602083018562000659565b6200069f60408301846200062b565b949350505050565b7f4e487b7100000000000000000000000000000000000000000000000000000000600052602260045260246000fd5b60006002820490506001821680620006ef57607f821691505b60208210811415620007065762000705620006a7565b5b50919050565b611439806200071c6000396000f3fe608060405234801561001057600080fd5b50600436106100b45760003560e01c806370a082311161007157806370a08231146101a357806395d89b41146101d3578063a457c2d7146101f1578063a9059cbb14610221578063dd62ed3e14610251578063fce1ccca14610281576100b4565b806306fdde03146100b9578063095ea7b3146100d757806318160ddd1461010757806323b872dd14610125578063313ce567146101555780633950935114610173575b600080fd5b6100c161029f565b6040516100ce9190610c33565b60405180910390f35b6100f160048036038101906100ec9190610cee565b610331565b6040516100fe9190610d49565b60405180910390f35b61010f610354565b60405161011c9190610d73565b60405180910390f35b61013f600480360381019061013a9190610d8e565b61035e565b60405161014c9190610d49565b60405180910390f35b61015d61038d565b60405161016a9190610dfd565b60405180910390f35b61018d60048036038101906101889190610cee565b610392565b60405161019a9190610d49565b60405180910390f35b6101bd60048036038101906101b89190610e18565b6103c9565b6040516101ca9190610d73565b60405180910390f35b6101db610411565b6040516101e89190610c33565b60405180910390f35b61020b60048036038101906102069190610cee565b6104a3565b6040516102189190610d49565b60405180910390f35b61023b60048036038101906102369190610cee565b61051a565b6040516102489190610d49565b60405180910390f35b61026b60048036038101906102669190610e45565b61053d565b6040516102789190610d73565b60405180910390f35b6102896105c4565b6040516102969190610ee4565b60405180910390f35b6060600380546102ae90610f2e565b80601f01602080910402602001604051908101604052809291908181526020018280546102da90610f2e565b80156103275780601f106102fc57610100808354040283529160200191610327565b820191906000526020600020905b81548152906001019060200180831161030a57829003601f168201915b5050505050905090565b60008061033c6105ea565b90506103498185856105f2565b600191505092915050565b6000600254905090565b6000806103696105ea565b90506103768582856107bd565b610381858585610849565b60019150509392505050565b600090565b60008061039d6105ea565b90506103be8185856103af858961053d565b6103b99190610f8f565b6105f2565b600191505092915050565b60008060008373ffffffffffffffffffffffffffffffffffffffff1673ffffffffffffffffffffffffffffffffffffffff168152602001908152602001600020549050919050565b60606004805461042090610f2e565b80601f016020809104026020016040519081016040528092919081815260200182805461044c90610f2e565b80156104995780601f1061046e57610100808354040283529160200191610499565b820191906000526020600020905b81548152906001019060200180831161047c57829003601f168201915b5050505050905090565b6000806104ae6105ea565b905060006104bc828661053d565b905083811015610501576040517f08c379a00000000000000000000000000000000000000000000000000000000081526004016104f890611057565b60405180910390fd5b61050e82868684036105f2565b60019250505092915050565b6000806105256105ea565b9050610532818585610849565b600191505092915050565b6000600160008473ffffffffffffffffffffffffffffffffffffffff1673ffffffffffffffffffffffffffffffffffffffff16815260200190815260200160002060008373ffffffffffffffffffffffffffffffffffffffff1673ffffffffffffffffffffffffffffffffffffffff16815260200190815260200160002054905092915050565b600560009054906101000a900473ffffffffffffffffffffffffffffffffffffffff1681565b600033905090565b600073ffffffffffffffffffffffffffffffffffffffff168373ffffffffffffffffffffffffffffffffffffffff161415610662576040517f08c379a0000000000000000000000000000000000000000000000000000000008152600401610659906110e9565b60405180910390fd5b600073ffffffffffffffffffffffffffffffffffffffff168273ffffffffffffffffffffffffffffffffffffffff1614156106d2576040517f08c379a00000000000000000000000000000000000000000000000000000000081526004016106c99061117b565b60405180910390fd5b80600160008573ffffffffffffffffffffffffffffffffffffffff1673ffffffffffffffffffffffffffffffffffffffff16815260200190815260200160002060008473ffffffffffffffffffffffffffffffffffffffff1673ffffffffffffffffffffffffffffffffffffffff168152602001908152602001600020819055508173ffffffffffffffffffffffffffffffffffffffff168373ffffffffffffffffffffffffffffffffffffffff167f8c5be1e5ebec7d5bd14f71427d1e84f3dd0314c0f7b2291e5b200ac8c7c3b925836040516107b09190610d73565b60405180910390a3505050565b60006107c9848461053d565b90507fffffffffffffffffffffffffffffffffffffffffffffffffffffffffffffffff81146108435781811015610835576040517f08c379a000000000000000000000000000000000000000000000000000000000815260040161082c906111e7565b60405180910390fd5b61084284848484036105f2565b5b50505050565b600073ffffffffffffffffffffffffffffffffffffffff168373ffffffffffffffffffffffffffffffffffffffff1614156108b9576040517f08c379a00000000000000000000000000000000000000000000000000000000081526004016108b090611279565b60405180910390fd5b600073ffffffffffffffffffffffffffffffffffffffff168273ffffffffffffffffffffffffffffffffffffffff161415610929576040517f08c379a00000000000000000000000000000000000000000000000000000000081526004016109209061130b565b60405180910390fd5b610934838383610aca565b60008060008573ffffffffffffffffffffffffffffffffffffffff1673ffffffffffffffffffffffffffffffffffffffff168152602001908152602001600020549050818110156109ba576040517f08c379a00000000000000000000000000000000000000000000000000000000081526004016109b19061139d565b60405180910390fd5b8181036000808673ffffffffffffffffffffffffffffffffffffffff1673ffffffffffffffffffffffffffffffffffffffff16815260200190815260200160002081905550816000808573ffffffffffffffffffffffffffffffffffffffff1673ffffffffffffffffffffffffffffffffffffffff1681526020019081526020016000206000828254610a4d9190610f8f565b925050819055508273ffffffffffffffffffffffffffffffffffffffff168473ffffffffffffffffffffffffffffffffffffffff167fddf252ad1be2c89b69c2b068fc378daa952ba7f163c4a11628f55a4df523b3ef84604051610ab19190610d73565b60405180910390a3610ac4848484610acf565b50505050565b505050565b600073ffffffffffffffffffffffffffffffffffffffff168373ffffffffffffffffffffffffffffffffffffffff1614610b9557600560009054906101000a900473ffffffffffffffffffffffffffffffffffffffff1673ffffffffffffffffffffffffffffffffffffffff16637fbe62073384846040518463ffffffff1660e01b8152600401610b62939291906113cc565b600060405180830381600087803b158015610b7c57600080fd5b505af1158015610b90573d6000803e3d6000fd5b505050505b505050565b600081519050919050565b600082825260208201905092915050565b60005b83811015610bd4578082015181840152602081019050610bb9565b83811115610be3576000848401525b50505050565b6000601f19601f8301169050919050565b6000610c0582610b9a565b610c0f8185610ba5565b9350610c1f818560208601610bb6565b610c2881610be9565b840191505092915050565b60006020820190508181036000830152610c4d8184610bfa565b905092915050565b600080fd5b600073ffffffffffffffffffffffffffffffffffffffff82169050919050565b6000610c8582610c5a565b9050919050565b610c9581610c7a565b8114610ca057600080fd5b50565b600081359050610cb281610c8c565b92915050565b6000819050919050565b610ccb81610cb8565b8114610cd657600080fd5b50565b600081359050610ce881610cc2565b92915050565b60008060408385031215610d0557610d04610c55565b5b6000610d1385828601610ca3565b9250506020610d2485828601610cd9565b9150509250929050565b60008115159050919050565b610d4381610d2e565b82525050565b6000602082019050610d5e6000830184610d3a565b92915050565b610d6d81610cb8565b82525050565b6000602082019050610d886000830184610d64565b92915050565b600080600060608486031215610da757610da6610c55565b5b6000610db586828701610ca3565b9350506020610dc686828701610ca3565b9250506040610dd786828701610cd9565b9150509250925092565b600060ff82169050919050565b610df781610de1565b82525050565b6000602082019050610e126000830184610dee565b92915050565b600060208284031215610e2e57610e2d610c55565b5b6000610e3c84828501610ca3565b91505092915050565b60008060408385031215610e5c57610e5b610c55565b5b6000610e6a85828601610ca3565b9250506020610e7b85828601610ca3565b9150509250929050565b6000819050919050565b6000610eaa610ea5610ea084610c5a565b610e85565b610c5a565b9050919050565b6000610ebc82610e8f565b9050919050565b6000610ece82610eb1565b9050919050565b610ede81610ec3565b82525050565b6000602082019050610ef96000830184610ed5565b92915050565b7f4e487b7100000000000000000000000000000000000000000000000000000000600052602260045260246000fd5b60006002820490506001821680610f4657607f821691505b60208210811415610f5a57610f59610eff565b5b50919050565b7f4e487b7100000000000000000000000000000000000000000000000000000000600052601160045260246000fd5b6000610f9a82610cb8565b9150610fa583610cb8565b9250827fffffffffffffffffffffffffffffffffffffffffffffffffffffffffffffffff03821115610fda57610fd9610f60565b5b828201905092915050565b7f45524332303a2064656372656173656420616c6c6f77616e63652062656c6f7760008201527f207a65726f000000000000000000000000000000000000000000000000000000602082015250565b6000611041602583610ba5565b915061104c82610fe5565b604082019050919050565b6000602082019050818103600083015261107081611034565b9050919050565b7f45524332303a20617070726f76652066726f6d20746865207a65726f2061646460008201527f7265737300000000000000000000000000000000000000000000000000000000602082015250565b60006110d3602483610ba5565b91506110de82611077565b604082019050919050565b60006020820190508181036000830152611102816110c6565b9050919050565b7f45524332303a20617070726f766520746f20746865207a65726f20616464726560008201527f7373000000000000000000000000000000000000000000000000000000000000602082015250565b6000611165602283610ba5565b915061117082611109565b604082019050919050565b6000602082019050818103600083015261119481611158565b9050919050565b7f45524332303a20696e73756666696369656e7420616c6c6f77616e6365000000600082015250565b60006111d1601d83610ba5565b91506111dc8261119b565b602082019050919050565b60006020820190508181036000830152611200816111c4565b9050919050565b7f45524332303a207472616e736665722066726f6d20746865207a65726f20616460008201527f6472657373000000000000000000000000000000000000000000000000000000602082015250565b6000611263602583610ba5565b915061126e82611207565b604082019050919050565b6000602082019050818103600083015261129281611256565b9050919050565b7f45524332303a207472616e7366657220746f20746865207a65726f206164647260008201527f6573730000000000000000000000000000000000000000000000000000000000602082015250565b60006112f5602383610ba5565b915061130082611299565b604082019050919050565b60006020820190508181036000830152611324816112e8565b9050919050565b7f45524332303a207472616e7366657220616d6f756e742065786365656473206260008201527f616c616e63650000000000000000000000000000000000000000000000000000602082015250565b6000611387602683610ba5565b91506113928261132b565b604082019050919050565b600060208201905081810360008301526113b68161137a565b9050919050565b6113c681610c7a565b82525050565b60006060820190506113e160008301866113bd565b6113ee60208301856113bd565b6113fb6040830184610d64565b94935050505056fea2646970667358221220914f868d3a7ed267683ccb57e2aa2dd38b891bd6e8376d7d67167e9bd7054f7064736f6c634300080b003360806040523480156200001157600080fd5b506040518060400160405280600b81526020017f4f534920526577617264730000000000000000000000000000000000000000008152506040518060400160405280600381526020017f4f53490000000000000000000000000000000000000000000000000000000000815250816003908051906020019062000096929190620001e7565b508060049080519060200190620000af929190620001e7565b505050620000d2620000c66200011960201b60201c565b6200012160201b60201c565b33600660006101000a81548173ffffffffffffffffffffffffffffffffffffffff021916908373ffffffffffffffffffffffffffffffffffffffff160217905550620002fc565b600033905090565b6000600560009054906101000a900473ffffffffffffffffffffffffffffffffffffffff16905081600560006101000a81548173ffffffffffffffffffffffffffffffffffffffff021916908373ffffffffffffffffffffffffffffffffffffffff1602179055508173ffffffffffffffffffffffffffffffffffffffff168173ffffffffffffffffffffffffffffffffffffffff167f8be0079c531659141344cd1fd0a4f28419497f9722a3daafe3b4186f6b6457e060405160405180910390a35050565b828054620001f590620002c6565b90600052602060002090601f01602090048101928262000219576000855562000265565b82601f106200023457805160ff191683800117855562000265565b8280016001018555821562000265579182015b828111156200026457825182559160200191906001019062000247565b5b50905062000274919062000278565b5090565b5b808211156200029357600081600090555060010162000279565b5090565b7f4e487b7100000000000000000000000000000000000000000000000000000000600052602260045260246000fd5b60006002820490506001821680620002df57607f821691505b60208210811415620002f657620002f562000297565b5b50919050565b611a93806200030c6000396000f3fe608060405234801561001057600080fd5b50600436106101005760003560e01c8063715018a611610097578063a9059cbb11610066578063a9059cbb146102b1578063dd62ed3e146102e1578063f2fde38b14610311578063fce1ccca1461032d57610100565b8063715018a61461023b5780638da5cb5b1461024557806395d89b4114610263578063a457c2d71461028157610100565b8063313ce567116100d3578063313ce567146101a157806339509351146101bf57806340c10f19146101ef57806370a082311461020b57610100565b806306fdde0314610105578063095ea7b31461012357806318160ddd1461015357806323b872dd14610171575b600080fd5b61010d61034b565b60405161011a9190611108565b60405180910390f35b61013d600480360381019061013891906111c3565b6103dd565b60405161014a919061121e565b60405180910390f35b61015b610400565b6040516101689190611248565b60405180910390f35b61018b60048036038101906101869190611263565b61040a565b604051610198919061121e565b60405180910390f35b6101a9610439565b6040516101b691906112d2565b60405180910390f35b6101d960048036038101906101d491906111c3565b610442565b6040516101e6919061121e565b60405180910390f35b610209600480360381019061020491906111c3565b610479565b005b610225600480360381019061022091906112ed565b610503565b6040516102329190611248565b60405180910390f35b61024361054b565b005b61024d6105d3565b60405161025a9190611329565b60405180910390f35b61026b6105fd565b6040516102789190611108565b60405180910390f35b61029b600480360381019061029691906111c3565b61068f565b6040516102a8919061121e565b60405180910390f35b6102cb60048036038101906102c691906111c3565b610706565b6040516102d8919061121e565b60405180910390f35b6102fb60048036038101906102f69190611344565b610729565b6040516103089190611248565b60405180910390f35b61032b600480360381019061032691906112ed565b6107b0565b005b6103356108a8565b60405161034291906113e3565b60405180910390f35b60606003805461035a9061142d565b80601f01602080910402602001604051908101604052809291908181526020018280546103869061142d565b80156103d35780601f106103a8576101008083540402835291602001916103d3565b820191906000526020600020905b8154815290600101906020018083116103b657829003601f168201915b5050505050905090565b6000806103e86108ce565b90506103f58185856108d6565b600191505092915050565b6000600254905090565b6000806104156108ce565b9050610422858285610aa1565b61042d858585610b2d565b60019150509392505050565b60006003905090565b60008061044d6108ce565b905061046e81858561045f8589610729565b610469919061148e565b6108d6565b600191505092915050565b6104816108ce565b73ffffffffffffffffffffffffffffffffffffffff1661049f6105d3565b73ffffffffffffffffffffffffffffffffffffffff16146104f5576040517f08c379a00000000000000000000000000000000000000000000000000000000081526004016104ec90611530565b60405180910390fd5b6104ff8282610dae565b5050565b60008060008373ffffffffffffffffffffffffffffffffffffffff1673ffffffffffffffffffffffffffffffffffffffff168152602001908152602001600020549050919050565b6105536108ce565b73ffffffffffffffffffffffffffffffffffffffff166105716105d3565b73ffffffffffffffffffffffffffffffffffffffff16146105c7576040517f08c379a00000000000000000000000000000000000000000000000000000000081526004016105be90611530565b60405180910390fd5b6105d16000610f0e565b565b6000600560009054906101000a900473ffffffffffffffffffffffffffffffffffffffff16905090565b60606004805461060c9061142d565b80601f01602080910402602001604051908101604052809291908181526020018280546106389061142d565b80156106855780601f1061065a57610100808354040283529160200191610685565b820191906000526020600020905b81548152906001019060200180831161066857829003601f168201915b5050505050905090565b60008061069a6108ce565b905060006106a88286610729565b9050838110156106ed576040517f08c379a00000000000000000000000000000000000000000000000000000000081526004016106e4906115c2565b60405180910390fd5b6106fa82868684036108d6565b60019250505092915050565b6000806107116108ce565b905061071e818585610b2d565b600191505092915050565b6000600160008473ffffffffffffffffffffffffffffffffffffffff1673ffffffffffffffffffffffffffffffffffffffff16815260200190815260200160002060008373ffffffffffffffffffffffffffffffffffffffff1673ffffffffffffffffffffffffffffffffffffffff16815260200190815260200160002054905092915050565b6107b86108ce565b73ffffffffffffffffffffffffffffffffffffffff166107d66105d3565b73ffffffffffffffffffffffffffffffffffffffff161461082c576040517f08c379a000000000000000000000000000000000000000000000000000000000815260040161082390611530565b60405180910390fd5b600073ffffffffffffffffffffffffffffffffffffffff168173ffffffffffffffffffffffffffffffffffffffff16141561089c576040517f08c379a000000000000000000000000000000000000000000000000000000000815260040161089390611654565b60405180910390fd5b6108a581610f0e565b50565b600660009054906101000a900473ffffffffffffffffffffffffffffffffffffffff1681565b600033905090565b600073ffffffffffffffffffffffffffffffffffffffff168373ffffffffffffffffffffffffffffffffffffffff161415610946576040517f08c379a000000000000000000000000000000000000000000000000000000000815260040161093d906116e6565b60405180910390fd5b600073ffffffffffffffffffffffffffffffffffffffff168273ffffffffffffffffffffffffffffffffffffffff1614156109b6576040517f08c379a00000000000000000000000000000000000000000000000000000000081526004016109ad90611778565b60405180910390fd5b80600160008573ffffffffffffffffffffffffffffffffffffffff1673ffffffffffffffffffffffffffffffffffffffff16815260200190815260200160002060008473ffffffffffffffffffffffffffffffffffffffff1673ffffffffffffffffffffffffffffffffffffffff168152602001908152602001600020819055508173ffffffffffffffffffffffffffffffffffffffff168373ffffffffffffffffffffffffffffffffffffffff167f8c5be1e5ebec7d5bd14f71427d1e84f3dd0314c0f7b2291e5b200ac8c7c3b92583604051610a949190611248565b60405180910390a3505050565b6000610aad8484610729565b90507fffffffffffffffffffffffffffffffffffffffffffffffffffffffffffffffff8114610b275781811015610b19576040517f08c379a0000000000000000000000000000000000000000000000000000000008152600401610b10906117e4565b60405180910390fd5b610b2684848484036108d6565b5b50505050565b600073ffffffffffffffffffffffffffffffffffffffff168373ffffffffffffffffffffffffffffffffffffffff161415610b9d576040517f08c379a0000000000000000000000000000000000000000000000000000000008152600401610b9490611876565b60405180910390fd5b600073ffffffffffffffffffffffffffffffffffffffff168273ffffffffffffffffffffffffffffffffffffffff161415610c0d576040517f08c379a0000000000000000000000000000000000000000000000000000000008152600401610c0490611908565b60405180910390fd5b610c18838383610fd4565b60008060008573ffffffffffffffffffffffffffffffffffffffff1673ffffffffffffffffffffffffffffffffffffffff16815260200190815260200160002054905081811015610c9e576040517f08c379a0000000000000000000000000000000000000000000000000000000008152600401610c959061199a565b60405180910390fd5b8181036000808673ffffffffffffffffffffffffffffffffffffffff1673ffffffffffffffffffffffffffffffffffffffff16815260200190815260200160002081905550816000808573ffffffffffffffffffffffffffffffffffffffff1673ffffffffffffffffffffffffffffffffffffffff1681526020019081526020016000206000828254610d31919061148e565b925050819055508273ffffffffffffffffffffffffffffffffffffffff168473ffffffffffffffffffffffffffffffffffffffff167fddf252ad1be2c89b69c2b068fc378daa952ba7f163c4a11628f55a4df523b3ef84604051610d959190611248565b60405180910390a3610da8848484610fd9565b50505050565b600073ffffffffffffffffffffffffffffffffffffffff168273ffffffffffffffffffffffffffffffffffffffff161415610e1e576040517f08c379a0000000000000000000000000000000000000000000000000000000008152600401610e1590611a06565b60405180910390fd5b610e2a60008383610fd4565b8060026000828254610e3c919061148e565b92505081905550806000808473ffffffffffffffffffffffffffffffffffffffff1673ffffffffffffffffffffffffffffffffffffffff1681526020019081526020016000206000828254610e91919061148e565b925050819055508173ffffffffffffffffffffffffffffffffffffffff16600073ffffffffffffffffffffffffffffffffffffffff167fddf252ad1be2c89b69c2b068fc378daa952ba7f163c4a11628f55a4df523b3ef83604051610ef69190611248565b60405180910390a3610f0a60008383610fd9565b5050565b6000600560009054906101000a900473ffffffffffffffffffffffffffffffffffffffff16905081600560006101000a81548173ffffffffffffffffffffffffffffffffffffffff021916908373ffffffffffffffffffffffffffffffffffffffff1602179055508173ffffffffffffffffffffffffffffffffffffffff168173ffffffffffffffffffffffffffffffffffffffff167f8be0079c531659141344cd1fd0a4f28419497f9722a3daafe3b4186f6b6457e060405160405180910390a35050565b505050565b600660009054906101000a900473ffffffffffffffffffffffffffffffffffffffff1673ffffffffffffffffffffffffffffffffffffffff1663022ef6333384846040518463ffffffff1660e01b815260040161103893929190611a26565b600060405180830381600087803b15801561105257600080fd5b505af1158015611066573d6000803e3d6000fd5b50505050505050565b600081519050919050565b600082825260208201905092915050565b60005b838110156110a957808201518184015260208101905061108e565b838111156110b8576000848401525b50505050565b6000601f19601f8301169050919050565b60006110da8261106f565b6110e4818561107a565b93506110f481856020860161108b565b6110fd816110be565b840191505092915050565b6000602082019050818103600083015261112281846110cf565b905092915050565b600080fd5b600073ffffffffffffffffffffffffffffffffffffffff82169050919050565b600061115a8261112f565b9050919050565b61116a8161114f565b811461117557600080fd5b50565b60008135905061118781611161565b92915050565b6000819050919050565b6111a08161118d565b81146111ab57600080fd5b50565b6000813590506111bd81611197565b92915050565b600080604083850312156111da576111d961112a565b5b60006111e885828601611178565b92505060206111f9858286016111ae565b9150509250929050565b60008115159050919050565b61121881611203565b82525050565b6000602082019050611233600083018461120f565b92915050565b6112428161118d565b82525050565b600060208201905061125d6000830184611239565b92915050565b60008060006060848603121561127c5761127b61112a565b5b600061128a86828701611178565b935050602061129b86828701611178565b92505060406112ac868287016111ae565b9150509250925092565b600060ff82169050919050565b6112cc816112b6565b82525050565b60006020820190506112e760008301846112c3565b92915050565b6000602082840312156113035761130261112a565b5b600061131184828501611178565b91505092915050565b6113238161114f565b82525050565b600060208201905061133e600083018461131a565b92915050565b6000806040838503121561135b5761135a61112a565b5b600061136985828601611178565b925050602061137a85828601611178565b9150509250929050565b6000819050919050565b60006113a96113a461139f8461112f565b611384565b61112f565b9050919050565b60006113bb8261138e565b9050919050565b60006113cd826113b0565b9050919050565b6113dd816113c2565b82525050565b60006020820190506113f860008301846113d4565b92915050565b7f4e487b7100000000000000000000000000000000000000000000000000000000600052602260045260246000fd5b6000600282049050600182168061144557607f821691505b60208210811415611459576114586113fe565b5b50919050565b7f4e487b7100000000000000000000000000000000000000000000000000000000600052601160045260246000fd5b60006114998261118d565b91506114a48361118d565b9250827fffffffffffffffffffffffffffffffffffffffffffffffffffffffffffffffff038211156114d9576114d861145f565b5b828201905092915050565b7f4f776e61626c653a2063616c6c6572206973206e6f7420746865206f776e6572600082015250565b600061151a60208361107a565b9150611525826114e4565b602082019050919050565b600060208201905081810360008301526115498161150d565b9050919050565b7f45524332303a2064656372656173656420616c6c6f77616e63652062656c6f7760008201527f207a65726f000000000000000000000000000000000000000000000000000000602082015250565b60006115ac60258361107a565b91506115b782611550565b604082019050919050565b600060208201905081810360008301526115db8161159f565b9050919050565b7f4f776e61626c653a206e6577206f776e657220697320746865207a65726f206160008201527f6464726573730000000000000000000000000000000000000000000000000000602082015250565b600061163e60268361107a565b9150611649826115e2565b604082019050919050565b6000602082019050818103600083015261166d81611631565b9050919050565b7f45524332303a20617070726f76652066726f6d20746865207a65726f2061646460008201527f7265737300000000000000000000000000000000000000000000000000000000602082015250565b60006116d060248361107a565b91506116db82611674565b604082019050919050565b600060208201905081810360008301526116ff816116c3565b9050919050565b7f45524332303a20617070726f766520746f20746865207a65726f20616464726560008201527f7373000000000000000000000000000000000000000000000000000000000000602082015250565b600061176260228361107a565b915061176d82611706565b604082019050919050565b6000602082019050818103600083015261179181611755565b9050919050565b7f45524332303a20696e73756666696369656e7420616c6c6f77616e6365000000600082015250565b60006117ce601d8361107a565b91506117d982611798565b602082019050919050565b600060208201905081810360008301526117fd816117c1565b9050919050565b7f45524332303a207472616e736665722066726f6d20746865207a65726f20616460008201527f6472657373000000000000000000000000000000000000000000000000000000602082015250565b600061186060258361107a565b915061186b82611804565b604082019050919050565b6000602082019050818103600083015261188f81611853565b9050919050565b7f45524332303a207472616e7366657220746f20746865207a65726f206164647260008201527f6573730000000000000000000000000000000000000000000000000000000000602082015250565b60006118f260238361107a565b91506118fd82611896565b604082019050919050565b60006020820190508181036000830152611921816118e5565b9050919050565b7f45524332303a207472616e7366657220616d6f756e742065786365656473206260008201527f616c616e63650000000000000000000000000000000000000000000000000000602082015250565b600061198460268361107a565b915061198f82611928565b604082019050919050565b600060208201905081810360008301526119b381611977565b9050919050565b7f45524332303a206d696e7420746f20746865207a65726f206164647265737300600082015250565b60006119f0601f8361107a565b91506119fb826119ba565b602082019050919050565b60006020820190508181036000830152611a1f816119e3565b9050919050565b6000606082019050611a3b600083018661131a565b611a48602083018561131a565b611a556040830184611239565b94935050505056fea2646970667358221220230e232948b16e0b78262ce94230fe86d9b4831e3d4e621ddf05a27fbb0ba16d64736f6c634300080b0033",
  "immutableReferences": {},
  "source": "// contracts/OSIVoting.sol\n// SPDX-License-Identifier: MIT\npragma solidity ^0.8.0;\n\nimport \"./GovToken.sol\";\nimport \"./RewToken.sol\";\nimport \"@openzeppelin/contracts/access/Ownable.sol\";\n\ncontract OSIVoting is Ownable {\n\n    struct Article {\n        address writer;\n        string url;\n    }\n\n    string public constant name = \"OSI Voting\";\n\n    // 2 days for nominations\n    uint public constant seconds_for_nominations = 172800;\n    // 5 days for voting\n    uint public constant seconds_for_voting = 432000;\n    // number of votes given per goverance token\n    uint256 public constant goverance_votes = 1000;\n    // number of reward tokens given per winner\n    uint256 public constant winner_tokens = 1000;\n\n    // end of last voting period\n    uint public startTime;\n\n    GovToken public goverance;\n    RewToken public rewards;\n\n    // record of past winners\n    Article[] public winners;\n\n    // articles to be voted on this week\n    Article[] public nominees;\n\n    // nominations made by each address\n    address[] nominators;\n    mapping(address => uint256) nominationsMade;\n\n    // number of votes cast by each address\n    address[] voters;\n    mapping(address => uint256) votesCast;\n\n    // cumulative votes for each nominee\n    uint256[] public voteCounts;\n\n    constructor(uint256 _supply, uint _start) {\n        goverance = new GovToken(msg.sender, _supply);\n        rewards = new RewToken();\n        startTime = _start;\n    }\n\n    event Nominate(address indexed _nominator, address indexed _writer, string _url);\n    event Vote(address indexed _voter, string _url, uint256 _amount);\n    event Winner(address indexed _writer, string _url);\n\n    function setStartTime(uint _time) public onlyOwner {\n        startTime = _time;\n    }\n\n    function nomineesWriter(uint _index) public view returns (address) {\n        return nominees[_index].writer;\n    }\n\n    function nomineesUrl(uint _index) public view returns (string memory) {\n        return nominees[_index].url;\n    }\n\n    function nomineesLength() public view returns (uint) {\n        return nominees.length;\n    }\n\n    function winnersWriter(uint _index) public view returns (address) {\n        return winners[_index].writer;\n    }\n\n    function winnersUrl(uint _index) public view returns (string memory) {\n        return winners[_index].url;\n    }\n\n    function winnersLength() public view returns (uint) {\n        return winners.length;\n    }\n\n    function nominationsEnds() public view returns (uint) {\n        return startTime + seconds_for_nominations;\n    }\n\n    function votingEnds() public view returns (uint) {\n        return startTime + seconds_for_nominations + seconds_for_voting;\n    }\n\n    function goveranceTransfer(address _from, address _to, uint256 _amount) external {\n        require(msg.sender == address(goverance));\n\n        uint256 nominationTransfer = _amount < nominationsMade[_from] ? _amount : nominationsMade[_from];\n        nominationsMade[_from] -= nominationTransfer;\n        nominationsMade[_to] += nominationTransfer;\n\n        uint256 voteTransfer = goverance_votes * _amount < votesCast[_from] ? goverance_votes * _amount : votesCast[_from];\n        votesCast[_from] -= voteTransfer;\n        votesCast[_to] += voteTransfer;\n    }\n\n    function rewardsTransfer(address _from, address _to, uint256 _amount) external {\n        require(msg.sender == address(rewards));\n\n        uint256 voteTransfer = _amount < votesCast[_from] ? _amount : votesCast[_from];\n        votesCast[_from] -= voteTransfer;\n        votesCast[_to] += voteTransfer;\n    }\n\n    function votesRemaining(address _voter) public view returns (uint256) {\n        return goverance_votes * goverance.balanceOf(_voter) + rewards.balanceOf(_voter) - votesCast[_voter];\n    }\n\n    function submitNomination(address _writer, string calldata _url) public returns (bool) {\n        require(nominationsMade[msg.sender] < goverance.balanceOf(msg.sender), \"too many nominations\");\n        require(block.timestamp > startTime, \"too early\");\n        require(block.timestamp <= startTime + seconds_for_nominations, \"too late\");\n        require(!alreadyNominated(_url), \"already nominate\");\n\n        nominationsMade[msg.sender] += 1;\n        nominees.push(Article(_writer, _url));\n        nominators.push(msg.sender);\n        voteCounts.push();\n\n        emit Nominate(msg.sender, _writer, _url);\n        return true;\n    }\n\n    function castVotes(uint _index, uint256 _amount) public returns (bool) {\n        require(votesRemaining(msg.sender) >= _amount, \"too few remaining\");\n        require(_index < nominees.length, \"invalid nominee\");\n        require(block.timestamp > startTime + seconds_for_nominations, \"too early\");\n        require(block.timestamp <= startTime + seconds_for_nominations + seconds_for_voting, \"too late\");\n\n        votesCast[msg.sender] += _amount;\n        voteCounts[_index] += _amount;\n        voters.push(msg.sender);\n\n        emit Vote(msg.sender, nominees[_index].url, _amount);\n        return true;\n    }\n\n    function updateWinner() public returns (bool) {\n        if (block.timestamp > startTime + seconds_for_nominations + seconds_for_voting) {\n            if (nominees.length > 0) {\n                uint index = 0;\n                for (uint i = 1; i < nominees.length; i++) {\n                    if (voteCounts[i] > voteCounts[index]) {\n                        index = i;\n                    }\n                }\n                Article memory winner = nominees[index];\n\n                winners.push(winner);\n                rewards.mint(winner.writer, winner_tokens);\n                emit Winner(winner.writer, winner.url); \n            }\n           \n            resetVoting();\n            return true;\n        }\n        return false;\n    }\n\n    function resetVoting() private {\n        delete nominees;\n\n        for (uint i = 0; i < nominators.length; i++) {\n            delete nominationsMade[nominators[i]];\n        }\n        delete nominators;\n\n        for (uint i = 0; i < voters.length; i++) {\n            delete votesCast[voters[i]];\n        }\n        delete voters;\n\n        delete voteCounts;\n\n        startTime += seconds_for_nominations + seconds_for_voting;\n    }\n\n    function alreadyNominated(string calldata _url) private view returns (bool) {\n        bytes32 hashVal = keccak256(bytes(_url));\n        for (uint i = 0; i < nominees.length; i++) {\n            if (hashVal == keccak256(bytes(nominees[i].url))) {\n                return true;\n            }\n        }\n        return false;\n    }\n    \n}\n",
  "sourcePath": "/home/liamdj/Desktop/OsinToken/contracts/OSIVoting.sol",
  "compiler": {
    "name": "solc",
    "version": "0.8.11+commit.d7f03943.Emscripten.clang"
  },
  "schemaVersion": "3.4.5",
  "updatedAt": "2022-04-29T00:43:44.214Z",
  "networkType": "ethereum",
  "devdoc": {
    "kind": "dev",
    "methods": {
      "owner()": {
        "details": "Returns the address of the current owner."
      },
      "renounceOwnership()": {
        "details": "Leaves the contract without owner. It will not be possible to call `onlyOwner` functions anymore. Can only be called by the current owner. NOTE: Renouncing ownership will leave the contract without an owner, thereby removing any functionality that is only available to the owner."
      },
      "transferOwnership(address)": {
        "details": "Transfers ownership of the contract to a new account (`newOwner`). Can only be called by the current owner."
      }
    },
    "version": 1
  },
  "userdoc": {
    "kind": "user",
    "methods": {},
    "version": 1
  }
}