{
  "contractName": "OSIVoting",
  "abi": [
    {
      "inputs": [
        {
          "internalType": "uint256",
          "name": "_supply",
          "type": "uint256"
        },
        {
          "internalType": "uint256",
          "name": "_start",
          "type": "uint256"
        }
      ],
      "stateMutability": "nonpayable",
      "type": "constructor"
    },
    {
      "anonymous": false,
      "inputs": [
        {
          "indexed": true,
          "internalType": "address",
          "name": "_nominator",
          "type": "address"
        },
        {
          "indexed": true,
          "internalType": "address",
          "name": "_writer",
          "type": "address"
        },
        {
          "indexed": false,
          "internalType": "string",
          "name": "_url",
          "type": "string"
        }
      ],
      "name": "Nominate",
      "type": "event"
    },
    {
      "anonymous": false,
      "inputs": [
        {
          "indexed": true,
          "internalType": "address",
          "name": "previousOwner",
          "type": "address"
        },
        {
          "indexed": true,
          "internalType": "address",
          "name": "newOwner",
          "type": "address"
        }
      ],
      "name": "OwnershipTransferred",
      "type": "event"
    },
    {
      "anonymous": false,
      "inputs": [
        {
          "indexed": true,
          "internalType": "address",
          "name": "_voter",
          "type": "address"
        },
        {
          "indexed": false,
          "internalType": "string",
          "name": "_url",
          "type": "string"
        },
        {
          "indexed": false,
          "internalType": "uint256",
          "name": "_amount",
          "type": "uint256"
        }
      ],
      "name": "Vote",
      "type": "event"
    },
    {
      "anonymous": false,
      "inputs": [
        {
          "indexed": true,
          "internalType": "address",
          "name": "_writer",
          "type": "address"
        },
        {
          "indexed": false,
          "internalType": "string",
          "name": "_url",
          "type": "string"
        }
      ],
      "name": "Winner",
      "type": "event"
    },
    {
      "inputs": [],
      "name": "goverance",
      "outputs": [
        {
          "internalType": "contract GovToken",
          "name": "",
          "type": "address"
        }
      ],
      "stateMutability": "view",
      "type": "function",
      "constant": true
    },
    {
      "inputs": [],
      "name": "goverance_votes",
      "outputs": [
        {
          "internalType": "uint256",
          "name": "",
          "type": "uint256"
        }
      ],
      "stateMutability": "view",
      "type": "function",
      "constant": true
    },
    {
      "inputs": [],
      "name": "name",
      "outputs": [
        {
          "internalType": "string",
          "name": "",
          "type": "string"
        }
      ],
      "stateMutability": "view",
      "type": "function",
      "constant": true
    },
    {
      "inputs": [
        {
          "internalType": "uint256",
          "name": "",
          "type": "uint256"
        }
      ],
      "name": "nominees",
      "outputs": [
        {
          "internalType": "address",
          "name": "writer",
          "type": "address"
        },
        {
          "internalType": "string",
          "name": "url",
          "type": "string"
        }
      ],
      "stateMutability": "view",
      "type": "function",
      "constant": true
    },
    {
      "inputs": [],
      "name": "owner",
      "outputs": [
        {
          "internalType": "address",
          "name": "",
          "type": "address"
        }
      ],
      "stateMutability": "view",
      "type": "function",
      "constant": true
    },
    {
      "inputs": [],
      "name": "renounceOwnership",
      "outputs": [],
      "stateMutability": "nonpayable",
      "type": "function"
    },
    {
      "inputs": [],
      "name": "rewards",
      "outputs": [
        {
          "internalType": "contract RewToken",
          "name": "",
          "type": "address"
        }
      ],
      "stateMutability": "view",
      "type": "function",
      "constant": true
    },
    {
      "inputs": [],
      "name": "seconds_for_nominations",
      "outputs": [
        {
          "internalType": "uint256",
          "name": "",
          "type": "uint256"
        }
      ],
      "stateMutability": "view",
      "type": "function",
      "constant": true
    },
    {
      "inputs": [],
      "name": "seconds_for_voting",
      "outputs": [
        {
          "internalType": "uint256",
          "name": "",
          "type": "uint256"
        }
      ],
      "stateMutability": "view",
      "type": "function",
      "constant": true
    },
    {
      "inputs": [],
      "name": "startTime",
      "outputs": [
        {
          "internalType": "uint256",
          "name": "",
          "type": "uint256"
        }
      ],
      "stateMutability": "view",
      "type": "function",
      "constant": true
    },
    {
      "inputs": [
        {
          "internalType": "address",
          "name": "newOwner",
          "type": "address"
        }
      ],
      "name": "transferOwnership",
      "outputs": [],
      "stateMutability": "nonpayable",
      "type": "function"
    },
    {
      "inputs": [
        {
          "internalType": "uint256",
          "name": "",
          "type": "uint256"
        }
      ],
      "name": "voteCounts",
      "outputs": [
        {
          "internalType": "uint256",
          "name": "",
          "type": "uint256"
        }
      ],
      "stateMutability": "view",
      "type": "function",
      "constant": true
    },
    {
      "inputs": [],
      "name": "winner_tokens",
      "outputs": [
        {
          "internalType": "uint256",
          "name": "",
          "type": "uint256"
        }
      ],
      "stateMutability": "view",
      "type": "function",
      "constant": true
    },
    {
      "inputs": [
        {
          "internalType": "uint256",
          "name": "",
          "type": "uint256"
        }
      ],
      "name": "winners",
      "outputs": [
        {
          "internalType": "address",
          "name": "writer",
          "type": "address"
        },
        {
          "internalType": "string",
          "name": "url",
          "type": "string"
        }
      ],
      "stateMutability": "view",
      "type": "function",
      "constant": true
    },
    {
      "inputs": [
        {
          "internalType": "uint256",
          "name": "_time",
          "type": "uint256"
        }
      ],
      "name": "setStartTime",
      "outputs": [],
      "stateMutability": "nonpayable",
      "type": "function"
    },
    {
      "inputs": [
        {
          "internalType": "uint256",
          "name": "_index",
          "type": "uint256"
        }
      ],
      "name": "nomineesWriter",
      "outputs": [
        {
          "internalType": "address",
          "name": "",
          "type": "address"
        }
      ],
      "stateMutability": "view",
      "type": "function",
      "constant": true
    },
    {
      "inputs": [
        {
          "internalType": "uint256",
          "name": "_index",
          "type": "uint256"
        }
      ],
      "name": "nomineesUrl",
      "outputs": [
        {
          "internalType": "string",
          "name": "",
          "type": "string"
        }
      ],
      "stateMutability": "view",
      "type": "function",
      "constant": true
    },
    {
      "inputs": [],
      "name": "nomineesLength",
      "outputs": [
        {
          "internalType": "uint256",
          "name": "",
          "type": "uint256"
        }
      ],
      "stateMutability": "view",
      "type": "function",
      "constant": true
    },
    {
      "inputs": [
        {
          "internalType": "uint256",
          "name": "_index",
          "type": "uint256"
        }
      ],
      "name": "winnersWriter",
      "outputs": [
        {
          "internalType": "address",
          "name": "",
          "type": "address"
        }
      ],
      "stateMutability": "view",
      "type": "function",
      "constant": true
    },
    {
      "inputs": [
        {
          "internalType": "uint256",
          "name": "_index",
          "type": "uint256"
        }
      ],
      "name": "winnersUrl",
      "outputs": [
        {
          "internalType": "string",
          "name": "",
          "type": "string"
        }
      ],
      "stateMutability": "view",
      "type": "function",
      "constant": true
    },
    {
      "inputs": [],
      "name": "winnersLength",
      "outputs": [
        {
          "internalType": "uint256",
          "name": "",
          "type": "uint256"
        }
      ],
      "stateMutability": "view",
      "type": "function",
      "constant": true
    },
    {
      "inputs": [],
      "name": "nominationsEnds",
      "outputs": [
        {
          "internalType": "uint256",
          "name": "",
          "type": "uint256"
        }
      ],
      "stateMutability": "view",
      "type": "function",
      "constant": true
    },
    {
      "inputs": [],
      "name": "votingEnds",
      "outputs": [
        {
          "internalType": "uint256",
          "name": "",
          "type": "uint256"
        }
      ],
      "stateMutability": "view",
      "type": "function",
      "constant": true
    },
    {
      "inputs": [
        {
          "internalType": "address",
          "name": "_from",
          "type": "address"
        },
        {
          "internalType": "address",
          "name": "_to",
          "type": "address"
        },
        {
          "internalType": "uint256",
          "name": "_amount",
          "type": "uint256"
        }
      ],
      "name": "goveranceTransfer",
      "outputs": [],
      "stateMutability": "nonpayable",
      "type": "function"
    },
    {
      "inputs": [
        {
          "internalType": "address",
          "name": "_from",
          "type": "address"
        },
        {
          "internalType": "address",
          "name": "_to",
          "type": "address"
        },
        {
          "internalType": "uint256",
          "name": "_amount",
          "type": "uint256"
        }
      ],
      "name": "rewardsTransfer",
      "outputs": [],
      "stateMutability": "nonpayable",
      "type": "function"
    },
    {
      "inputs": [
        {
          "internalType": "address",
          "name": "_voter",
          "type": "address"
        }
      ],
      "name": "votesRemaining",
      "outputs": [
        {
          "internalType": "uint256",
          "name": "",
          "type": "uint256"
        }
      ],
      "stateMutability": "view",
      "type": "function",
      "constant": true
    },
    {
      "inputs": [],
      "name": "canNominate",
      "outputs": [
        {
          "internalType": "bool",
          "name": "",
          "type": "bool"
        }
      ],
      "stateMutability": "view",
      "type": "function",
      "constant": true
    },
    {
      "inputs": [
        {
          "internalType": "address",
          "name": "_writer",
          "type": "address"
        },
        {
          "internalType": "string",
          "name": "_url",
          "type": "string"
        }
      ],
      "name": "submitNomination",
      "outputs": [
        {
          "internalType": "bool",
          "name": "",
          "type": "bool"
        }
      ],
      "stateMutability": "nonpayable",
      "type": "function"
    },
    {
      "inputs": [],
      "name": "canVote",
      "outputs": [
        {
          "internalType": "bool",
          "name": "",
          "type": "bool"
        }
      ],
      "stateMutability": "view",
      "type": "function",
      "constant": true
    },
    {
      "inputs": [
        {
          "internalType": "uint256",
          "name": "_index",
          "type": "uint256"
        },
        {
          "internalType": "uint256",
          "name": "_amount",
          "type": "uint256"
        }
      ],
      "name": "castVotes",
      "outputs": [
        {
          "internalType": "bool",
          "name": "",
          "type": "bool"
        }
      ],
      "stateMutability": "nonpayable",
      "type": "function"
    },
    {
      "inputs": [],
      "name": "updateWinner",
      "outputs": [
        {
          "internalType": "bool",
          "name": "",
          "type": "bool"
        }
      ],
      "stateMutability": "nonpayable",
      "type": "function"
    }
  ],
  "bytecode": "0x60806040523480156200001157600080fd5b5060405162003d0838038062003d08833981016040819052620000349162000183565b6200005a6200004b64010000000062000113810204565b64010000000062000117810204565b33826040516200006a9062000167565b600160a060020a0390921682526020820152604001604051809103906000f0801580156200009c573d6000803e3d6000fd5b5060028054600160a060020a031916600160a060020a0392909216919091179055604051620000cb9062000175565b604051809103906000f080158015620000e8573d6000803e3d6000fd5b5060038054600160a060020a031916600160a060020a039290921691909117905560015550620001a8565b3390565b60008054600160a060020a03838116600160a060020a0319831681178455604051919092169283917f8be0079c531659141344cd1fd0a4f28419497f9722a3daafe3b4186f6b6457e09190a35050565b610eaf8062001e8783390190565b610fd28062002d3683390190565b600080604083850312156200019757600080fd5b505080516020909101519092909150565b611ccf80620001b86000396000f3fe608060405234801561001057600080fd5b5060043610610202576000357c0100000000000000000000000000000000000000000000000000000000900480637bb87e981161012c5780639ec5a894116100bf578063d1fe8b8f1161008e578063d1fe8b8f14610403578063df7b637b14610416578063eec6b91e14610420578063f2fde38b1461043357600080fd5b80639ec5a894146103b4578063a2fb1175146103c7578063aebd9dd4146103e8578063c7230357146103f057600080fd5b806384ecc4db116100fb57806384ecc4db1461036a578063885515da1461037d5780638da5cb5b146103905780639b19547d146103a157600080fd5b80637bb87e981461033c5780637c9f512a146103445780637fbe6207146103575780637fdb1adb146102e457600080fd5b80633284dfed116101a45780633e0a322d116101735780633e0a322d1461031057806361e3e76f14610323578063715018a61461032b57806378e979251461033357600080fd5b80633284dfed146102e45780633376def8146102ed5780633b52f2be146102f55780633c3a220d146102fd57600080fd5b80631ab6a181116101e05780631ab6a181146102865780631f0304e21461029e578063280ee4ee146102c95780632c3c2fd2146102d157600080fd5b8063022ef6331461020757806306fdde031461021c578063159e70641461026e575b600080fd5b61021a61021536600461184b565b610446565b005b6102586040518060400160405280600a81526020017f4f534920566f74696e670000000000000000000000000000000000000000000081525081565b60405161026591906118d4565b60405180910390f35b610276610501565b6040519015158152602001610265565b6102906202a30081565b604051908152602001610265565b6002546102b190600160a060020a031681565b604051600160a060020a039091168152602001610265565b610290610558565b6102b16102df3660046118ee565b610579565b6102906103e881565b6102766105ae565b600454610290565b61029061030b3660046118ee565b6108a4565b61021a61031e3660046118ee565b6108c5565b610276610900565b61021a6109a6565b61029060015481565b6102906109df565b6102586103523660046118ee565b6109f2565b61021a61036536600461184b565b610aa8565b610276610378366004611907565b610c17565b61029061038b36600461198a565b610f80565b600054600160a060020a03166102b1565b6102766103af3660046119a5565b61109d565b6003546102b190600160a060020a031681565b6103da6103d53660046118ee565b611333565b6040516102659291906119c7565b600554610290565b6102b16103fe3660046118ee565b6113f5565b6102586104113660046118ee565b61140a565b6102906206978081565b6103da61042e3660046118ee565b61141f565b61021a61044136600461198a565b61142f565b600354600160a060020a0316331461045d57600080fd5b600160a060020a038316600090815260096020526040812054821061049a57600160a060020a03841660009081526009602052604090205461049c565b815b600160a060020a0385166000908152600960205260408120805492935083929091906104c9908490611a20565b9091555050600160a060020a038316600090815260096020526040812080548392906104f6908490611a37565b909155505050505050565b60008061050d33610f80565b11801561052957506202a3006001546105269190611a37565b42115b80156105535750620697806202a3006001546105459190611a37565b61054f9190611a37565b4211155b905090565b6000620697806202a30060015461056f9190611a37565b6105539190611a37565b60006005828154811061058e5761058e611a4f565b6000918252602090912060029091020154600160a060020a031692915050565b6000620697806202a3006001546105c59190611a37565b6105cf9190611a37565b42111561089e576005541561089057600060015b60055481101561064557600a828154811061060057610600611a4f565b9060005260206000200154600a828154811061061e5761061e611a4f565b90600052602060002001541115610633578091505b8061063d81611a7e565b9150506105e3565b5060006005828154811061065b5761065b611a4f565b6000918252602091829020604080518082019091526002909202018054600160a060020a03168252600181018054929391929184019161069a90611a99565b80601f01602080910402602001604051908101604052809291908181526020018280546106c690611a99565b80156107135780601f106106e857610100808354040283529160200191610713565b820191906000526020600020905b8154815290600101906020018083116106f657829003601f168201915b5050509190925250506004805460018101825560009190915282517f8a35acfbc15ff81a39ae7d344fd709f28e8600b4aa8c65c6b64bfe7fe36bd19b6002909202918201805473ffffffffffffffffffffffffffffffffffffffff1916600160a060020a03909216919091178155602080850151805195965086959294506107c0937f8a35acfbc15ff81a39ae7d344fd709f28e8600b4aa8c65c6b64bfe7fe36bd19c01929101906116e6565b505060035482516040517f40c10f19000000000000000000000000000000000000000000000000000000008152600160a060020a0391821660048201526103e86024820152911691506340c10f1990604401600060405180830381600087803b15801561082c57600080fd5b505af1158015610840573d6000803e3d6000fd5b505050508060000151600160a060020a03167f45edd59c4f5dea5f690cd524f1a6ea9cba17b09235c1bfaa2cea0d80bac5daba826020015160405161088591906118d4565b60405180910390a250505b6108986114e7565b50600190565b50600090565b600a81815481106108b457600080fd5b600091825260209091200154905081565b600054600160a060020a031633146108fb5760405160e560020a62461bcd0281526004016108f290611aed565b60405180910390fd5b600155565b60025460405160e060020a6370a08231028152336004820152600091600160a060020a0316906370a0823190602401602060405180830381865afa15801561094c573d6000803e3d6000fd5b505050506040513d601f19601f820116820180604052508101906109709190611b22565b3360009081526007602052604090205410801561098e575060015442115b801561055357506202a30060015461054f9190611a37565b600054600160a060020a031633146109d35760405160e560020a62461bcd0281526004016108f290611aed565b6109dd60006115f7565b565b60006202a3006001546105539190611a37565b606060048281548110610a0757610a07611a4f565b90600052602060002090600202016001018054610a2390611a99565b80601f0160208091040260200160405190810160405280929190818152602001828054610a4f90611a99565b8015610a9c5780601f10610a7157610100808354040283529160200191610a9c565b820191906000526020600020905b815481529060010190602001808311610a7f57829003601f168201915b50505050509050919050565b600254600160a060020a03163314610abf57600080fd5b600160a060020a0383166000908152600760205260408120548210610afc57600160a060020a038416600090815260076020526040902054610afe565b815b600160a060020a038516600090815260076020526040812080549293508392909190610b2b908490611a20565b9091555050600160a060020a03831660009081526007602052604081208054839290610b58908490611a37565b9091555050600160a060020a038416600090815260096020526040812054610b82846103e8611b3b565b10610ba557600160a060020a038516600090815260096020526040902054610bb1565b610bb1836103e8611b3b565b600160a060020a038616600090815260096020526040812080549293508392909190610bde908490611a20565b9091555050600160a060020a03841660009081526009602052604081208054839290610c0b908490611a37565b90915550505050505050565b60025460405160e060020a6370a08231028152336004820152600091600160a060020a0316906370a0823190602401602060405180830381865afa158015610c63573d6000803e3d6000fd5b505050506040513d601f19601f82011682018060405250810190610c879190611b22565b3360009081526007602052604090205410610ce75760405160e560020a62461bcd02815260206004820152601460248201527f746f6f206d616e79206e6f6d696e6174696f6e7300000000000000000000000060448201526064016108f2565b6001544211610d3b5760405160e560020a62461bcd02815260206004820152600960248201527f746f6f206561726c79000000000000000000000000000000000000000000000060448201526064016108f2565b6202a300600154610d4c9190611a37565b421115610d9e5760405160e560020a62461bcd02815260206004820152600860248201527f746f6f206c61746500000000000000000000000000000000000000000000000060448201526064016108f2565b610da88383611654565b15610df85760405160e560020a62461bcd02815260206004820152601060248201527f616c7265616479206e6f6d696e6174650000000000000000000000000000000060448201526064016108f2565b336000908152600760205260408120805460019290610e18908490611a37565b925050819055506005604051806040016040528086600160a060020a0316815260200185858080601f01602080910402602001604051908101604052809392919081815260200183838082843760009201829052509390945250508354600180820186559482526020918290208451600290920201805473ffffffffffffffffffffffffffffffffffffffff1916600160a060020a0390921691909117815583820151805194959194610ed194509185019201906116e6565b50506006805460018181019092557ff652222313e28459528d920b65115c16c04f3efc82aaedc97be59f3f377c0d3f01805473ffffffffffffffffffffffffffffffffffffffff191633908117909155600a80549092018255600091909152604051600160a060020a03871692507f86b9bd97bdb1aa709e139f61f71cef4092d6d19d5f94dc1ecdc98402bdc09a2590610f6e9087908790611b5a565b60405180910390a35060019392505050565b600160a060020a0381811660008181526009602052604080822054600354915160e060020a6370a082310281526004810194909452919391929116906370a0823190602401602060405180830381865afa158015610fe2573d6000803e3d6000fd5b505050506040513d601f19601f820116820180604052508101906110069190611b22565b60025460405160e060020a6370a08231028152600160a060020a038681166004830152909116906370a0823190602401602060405180830381865afa158015611053573d6000803e3d6000fd5b505050506040513d601f19601f820116820180604052508101906110779190611b22565b611083906103e8611b3b565b61108d9190611a37565b6110979190611a20565b92915050565b6000816110a933610f80565b10156110fa5760405160e560020a62461bcd02815260206004820152601160248201527f746f6f206665772072656d61696e696e6700000000000000000000000000000060448201526064016108f2565b600554831061114e5760405160e560020a62461bcd02815260206004820152600f60248201527f696e76616c6964206e6f6d696e6565000000000000000000000000000000000060448201526064016108f2565b6202a30060015461115f9190611a37565b42116111b05760405160e560020a62461bcd02815260206004820152600960248201527f746f6f206561726c79000000000000000000000000000000000000000000000060448201526064016108f2565b620697806202a3006001546111c59190611a37565b6111cf9190611a37565b4211156112215760405160e560020a62461bcd02815260206004820152600860248201527f746f6f206c61746500000000000000000000000000000000000000000000000060448201526064016108f2565b3360009081526009602052604081208054849290611240908490611a37565b9250508190555081600a848154811061125b5761125b611a4f565b9060005260206000200160008282546112749190611a37565b9091555050600880546001810182556000919091527ff3f7a9fe364faab93b216da50a3214154f22a0a2b415b23a84c8169e8b636ee301805473ffffffffffffffffffffffffffffffffffffffff191633908117909155600580547ff872c9dd43e62509c7276e545b258673a25292dbeb9756e834227c8a8381865591908690811061130257611302611a4f565b906000526020600020906002020160010184604051611322929190611b89565b60405180910390a250600192915050565b6004818154811061134357600080fd5b600091825260209091206002909102018054600182018054600160a060020a0390921693509061137290611a99565b80601f016020809104026020016040519081016040528092919081815260200182805461139e90611a99565b80156113eb5780601f106113c0576101008083540402835291602001916113eb565b820191906000526020600020905b8154815290600101906020018083116113ce57829003601f168201915b5050505050905082565b60006004828154811061058e5761058e611a4f565b606060058281548110610a0757610a07611a4f565b6005818154811061134357600080fd5b600054600160a060020a0316331461145c5760405160e560020a62461bcd0281526004016108f290611aed565b600160a060020a0381166114db5760405160e560020a62461bcd02815260206004820152602660248201527f4f776e61626c653a206e6577206f776e657220697320746865207a65726f206160448201527f646472657373000000000000000000000000000000000000000000000000000060648201526084016108f2565b6114e4816115f7565b50565b6114f36005600061176a565b60005b60065481101561154e57600760006006838154811061151757611517611a4f565b6000918252602080832090910154600160a060020a031683528201929092526040018120558061154681611a7e565b9150506114f6565b5061155b6006600061178b565b60005b6008548110156115b657600960006008838154811061157f5761157f611a4f565b6000918252602080832090910154600160a060020a03168352820192909252604001812055806115ae81611a7e565b91505061155e565b506115c36008600061178b565b6115cf600a600061178b565b6115df620697806202a300611a37565b600160008282546115f09190611a37565b9091555050565b60008054600160a060020a0383811673ffffffffffffffffffffffffffffffffffffffff19831681178455604051919092169283917f8be0079c531659141344cd1fd0a4f28419497f9722a3daafe3b4186f6b6457e09190a35050565b6000808383604051611667929190611c17565b6040518091039020905060005b6005548110156116db576005818154811061169157611691611a4f565b90600052602060002090600202016001016040516116af9190611c27565b60405180910390208214156116c957600192505050611097565b806116d381611a7e565b915050611674565b506000949350505050565b8280546116f290611a99565b90600052602060002090601f016020900481019282611714576000855561175a565b82601f1061172d57805160ff191683800117855561175a565b8280016001018555821561175a579182015b8281111561175a57825182559160200191906001019061173f565b506117669291506117a5565b5090565b50805460008255600202906000526020600020908101906114e491906117ba565b50805460008255906000526020600020908101906114e491905b5b8082111561176657600081556001016117a6565b8082111561176657805473ffffffffffffffffffffffffffffffffffffffff1916815560006117ec60018301826117f5565b506002016117ba565b50805461180190611a99565b6000825580601f10611811575050565b601f0160209004906000526020600020908101906114e491906117a5565b8035600160a060020a038116811461184657600080fd5b919050565b60008060006060848603121561186057600080fd5b6118698461182f565b92506118776020850161182f565b9150604084013590509250925092565b6000815180845260005b818110156118ad57602081850181015186830182015201611891565b818111156118bf576000602083870101525b50601f01601f19169290920160200192915050565b6020815260006118e76020830184611887565b9392505050565b60006020828403121561190057600080fd5b5035919050565b60008060006040848603121561191c57600080fd5b6119258461182f565b9250602084013567ffffffffffffffff8082111561194257600080fd5b818601915086601f83011261195657600080fd5b81358181111561196557600080fd5b87602082850101111561197757600080fd5b6020830194508093505050509250925092565b60006020828403121561199c57600080fd5b6118e78261182f565b600080604083850312156119b857600080fd5b50508035926020909101359150565b600160a060020a03831681526040602082015260006119e96040830184611887565b949350505050565b7f4e487b7100000000000000000000000000000000000000000000000000000000600052601160045260246000fd5b600082821015611a3257611a326119f1565b500390565b60008219821115611a4a57611a4a6119f1565b500190565b7f4e487b7100000000000000000000000000000000000000000000000000000000600052603260045260246000fd5b6000600019821415611a9257611a926119f1565b5060010190565b600281046001821680611aad57607f821691505b60208210811415611ae7577f4e487b7100000000000000000000000000000000000000000000000000000000600052602260045260246000fd5b50919050565b6020808252818101527f4f776e61626c653a2063616c6c6572206973206e6f7420746865206f776e6572604082015260600190565b600060208284031215611b3457600080fd5b5051919050565b6000816000190483118215151615611b5557611b556119f1565b500290565b60208152816020820152818360408301376000818301604090810191909152601f909201601f19160101919050565b604081526000808454611b9b81611a99565b8060408601526060600180841660008114611bbd5760018114611bd157611c02565b60ff19851688840152608088019550611c02565b8960005260208060002060005b86811015611bf95781548b8201870152908401908201611bde565b8a018501975050505b50505050506020929092019290925292915050565b8183823760009101908152919050565b6000808354611c3581611a99565b60018281168015611c4d5760018114611c5e57611c8d565b60ff19841687528287019450611c8d565b8760005260208060002060005b85811015611c845781548a820152908401908201611c6b565b50505082870194505b5092969550505050505056fea264697066735822122065b81b87b55a68e0afdbc2806d35a84a66ffc7a70240ca55c47d0303ea16500e64736f6c634300080b003360806040523480156200001157600080fd5b5060405162000eaf38038062000eaf833981016040819052620000349162000373565b604080518082018252600d81527f4f534920476f766572616e63650000000000000000000000000000000000000060208083019182528351808501909452600784527f4f53495f474f5600000000000000000000000000000000000000000000000000908401528151919291620000ae91600391620002cd565b508051620000c4906004906020840190620002cd565b505050620000e28282620000fc640100000000026401000000009004565b505060058054600160a060020a0319163317905562000445565b600160a060020a03821662000171576040517f08c379a000000000000000000000000000000000000000000000000000000000815260206004820152601f60248201527f45524332303a206d696e7420746f20746865207a65726f206164647265737300604482015260640160405180910390fd5b62000188600083836401000000006200022c810204565b80600260008282546200019c9190620003af565b9091555050600160a060020a03821660009081526020819052604081208054839290620001cb908490620003af565b9091555050604051818152600160a060020a038316906000907fddf252ad1be2c89b69c2b068fc378daa952ba7f163c4a11628f55a4df523b3ef9060200160405180910390a3620002286000838364010000000062000231810204565b5050565b505050565b600160a060020a038316156200022c576005546040517f7fbe6207000000000000000000000000000000000000000000000000000000008152336004820152600160a060020a0384811660248301526044820184905290911690637fbe620790606401600060405180830381600087803b158015620002af57600080fd5b505af1158015620002c4573d6000803e3d6000fd5b50505050505050565b828054620002db90620003ef565b90600052602060002090601f016020900481019282620002ff57600085556200034a565b82601f106200031a57805160ff19168380011785556200034a565b828001600101855582156200034a579182015b828111156200034a5782518255916020019190600101906200032d565b50620003589291506200035c565b5090565b5b808211156200035857600081556001016200035d565b600080604083850312156200038757600080fd5b8251600160a060020a03811681146200039f57600080fd5b6020939093015192949293505050565b60008219821115620003ea577f4e487b7100000000000000000000000000000000000000000000000000000000600052601160045260246000fd5b500190565b6002810460018216806200040457607f821691505b602082108114156200043f577f4e487b7100000000000000000000000000000000000000000000000000000000600052602260045260246000fd5b50919050565b610a5a80620004556000396000f3fe608060405234801561001057600080fd5b50600436106100d1576000357c01000000000000000000000000000000000000000000000000000000009004806370a082311161008e57806370a082311461015e57806395d89b4114610187578063a457c2d71461018f578063a9059cbb146101a2578063dd62ed3e146101b5578063fce1ccca146101c857600080fd5b806306fdde03146100d6578063095ea7b3146100f457806318160ddd1461011757806323b872dd14610129578063313ce5671461013c578063395093511461014b575b600080fd5b6100de6101f3565b6040516100eb9190610865565b60405180910390f35b6101076101023660046108d6565b610285565b60405190151581526020016100eb565b6002545b6040519081526020016100eb565b610107610137366004610900565b61029d565b604051600081526020016100eb565b6101076101593660046108d6565b6102c1565b61011b61016c36600461093c565b600160a060020a031660009081526020819052604090205490565b6100de6102e3565b61010761019d3660046108d6565b6102f2565b6101076101b03660046108d6565b61038d565b61011b6101c336600461095e565b61039b565b6005546101db90600160a060020a031681565b604051600160a060020a0390911681526020016100eb565b60606003805461020290610991565b80601f016020809104026020016040519081016040528092919081815260200182805461022e90610991565b801561027b5780601f106102505761010080835404028352916020019161027b565b820191906000526020600020905b81548152906001019060200180831161025e57829003601f168201915b5050505050905090565b6000336102938185856103c6565b5060019392505050565b6000336102ab858285610524565b6102b68585856105a1565b506001949350505050565b6000336102938185856102d4838361039b565b6102de91906109e5565b6103c6565b60606004805461020290610991565b60003381610300828661039b565b9050838110156103805760405160e560020a62461bcd02815260206004820152602560248201527f45524332303a2064656372656173656420616c6c6f77616e63652062656c6f7760448201527f207a65726f00000000000000000000000000000000000000000000000000000060648201526084015b60405180910390fd5b6102b682868684036103c6565b6000336102938185856105a1565b600160a060020a03918216600090815260016020908152604080832093909416825291909152205490565b600160a060020a0383166104445760405160e560020a62461bcd028152602060048201526024808201527f45524332303a20617070726f76652066726f6d20746865207a65726f2061646460448201527f72657373000000000000000000000000000000000000000000000000000000006064820152608401610377565b600160a060020a0382166104c35760405160e560020a62461bcd02815260206004820152602260248201527f45524332303a20617070726f766520746f20746865207a65726f20616464726560448201527f73730000000000000000000000000000000000000000000000000000000000006064820152608401610377565b600160a060020a0383811660008181526001602090815260408083209487168084529482529182902085905590518481527f8c5be1e5ebec7d5bd14f71427d1e84f3dd0314c0f7b2291e5b200ac8c7c3b925910160405180910390a3505050565b6000610530848461039b565b9050600019811461059b578181101561058e5760405160e560020a62461bcd02815260206004820152601d60248201527f45524332303a20696e73756666696369656e7420616c6c6f77616e63650000006044820152606401610377565b61059b84848484036103c6565b50505050565b600160a060020a0383166106205760405160e560020a62461bcd02815260206004820152602560248201527f45524332303a207472616e736665722066726f6d20746865207a65726f20616460448201527f64726573730000000000000000000000000000000000000000000000000000006064820152608401610377565b600160a060020a03821661069f5760405160e560020a62461bcd02815260206004820152602360248201527f45524332303a207472616e7366657220746f20746865207a65726f206164647260448201527f65737300000000000000000000000000000000000000000000000000000000006064820152608401610377565b600160a060020a038316600090815260208190526040902054818110156107315760405160e560020a62461bcd02815260206004820152602660248201527f45524332303a207472616e7366657220616d6f756e742065786365656473206260448201527f616c616e636500000000000000000000000000000000000000000000000000006064820152608401610377565b600160a060020a038085166000908152602081905260408082208585039055918516815290812080548492906107689084906109e5565b9250508190555082600160a060020a031684600160a060020a03167fddf252ad1be2c89b69c2b068fc378daa952ba7f163c4a11628f55a4df523b3ef846040516107b491815260200190565b60405180910390a361059b8484846107cc565b505050565b600160a060020a038316156107c7576005546040517f7fbe6207000000000000000000000000000000000000000000000000000000008152336004820152600160a060020a0384811660248301526044820184905290911690637fbe620790606401600060405180830381600087803b15801561084857600080fd5b505af115801561085c573d6000803e3d6000fd5b50505050505050565b600060208083528351808285015260005b8181101561089257858101830151858201604001528201610876565b818111156108a4576000604083870101525b50601f01601f1916929092016040019392505050565b8035600160a060020a03811681146108d157600080fd5b919050565b600080604083850312156108e957600080fd5b6108f2836108ba565b946020939093013593505050565b60008060006060848603121561091557600080fd5b61091e846108ba565b925061092c602085016108ba565b9150604084013590509250925092565b60006020828403121561094e57600080fd5b610957826108ba565b9392505050565b6000806040838503121561097157600080fd5b61097a836108ba565b9150610988602084016108ba565b90509250929050565b6002810460018216806109a557607f821691505b602082108114156109df577f4e487b7100000000000000000000000000000000000000000000000000000000600052602260045260246000fd5b50919050565b60008219821115610a1f577f4e487b7100000000000000000000000000000000000000000000000000000000600052601160045260246000fd5b50019056fea26469706673582212203b2d207b600277aa5536d1249e59123abaaf03220bc1bda7e50d26c0a3a4bbf364736f6c634300080b003360806040523480156200001157600080fd5b506040518060400160405280600b81526020017f4f534920526577617264730000000000000000000000000000000000000000008152506040518060400160405280600381526020017f4f5349000000000000000000000000000000000000000000000000000000000081525081600390805190602001906200009692919062000149565b508051620000ac90600490602084019062000149565b505050620000db620000cc620000f3640100000000026401000000009004565b640100000000620000f7810204565b60068054600160a060020a0319163317905562000245565b3390565b60058054600160a060020a03838116600160a060020a0319831681179093556040519116919082907f8be0079c531659141344cd1fd0a4f28419497f9722a3daafe3b4186f6b6457e090600090a35050565b8280546200015790620001ef565b90600052602060002090601f0160209004810192826200017b5760008555620001c6565b82601f106200019657805160ff1916838001178555620001c6565b82800160010185558215620001c6579182015b82811115620001c6578251825591602001919060010190620001a9565b50620001d4929150620001d8565b5090565b5b80821115620001d45760008155600101620001d9565b6002810460018216806200020457607f821691505b602082108114156200023f577f4e487b7100000000000000000000000000000000000000000000000000000000600052602260045260246000fd5b50919050565b610d7d80620002556000396000f3fe608060405234801561001057600080fd5b506004361061011d576000357c010000000000000000000000000000000000000000000000000000000090048063715018a6116100b4578063a9059cbb11610083578063a9059cbb14610230578063dd62ed3e14610243578063f2fde38b14610256578063fce1ccca1461026957600080fd5b8063715018a6146101e85780638da5cb5b146101f057806395d89b4114610215578063a457c2d71461021d57600080fd5b8063313ce567116100f0578063313ce56714610188578063395093511461019757806340c10f19146101aa57806370a08231146101bf57600080fd5b806306fdde0314610122578063095ea7b31461014057806318160ddd1461016357806323b872dd14610175575b600080fd5b61012a61027c565b6040516101379190610b53565b60405180910390f35b61015361014e366004610bc4565b61030e565b6040519015158152602001610137565b6002545b604051908152602001610137565b610153610183366004610bee565b610326565b60405160038152602001610137565b6101536101a5366004610bc4565b61034a565b6101bd6101b8366004610bc4565b61036c565b005b6101676101cd366004610c2a565b600160a060020a031660009081526020819052604090205490565b6101bd6103b0565b600554600160a060020a03165b604051600160a060020a039091168152602001610137565b61012a6103e9565b61015361022b366004610bc4565b6103f8565b61015361023e366004610bc4565b61048e565b610167610251366004610c4c565b61049c565b6101bd610264366004610c2a565b6104c7565b6006546101fd90600160a060020a031681565b60606003805461028b90610c7f565b80601f01602080910402602001604051908101604052809291908181526020018280546102b790610c7f565b80156103045780601f106102d957610100808354040283529160200191610304565b820191906000526020600020905b8154815290600101906020018083116102e757829003601f168201915b5050505050905090565b60003361031c81858561057f565b5060019392505050565b6000336103348582856106dd565b61033f85858561075a565b506001949350505050565b60003361031c81858561035d838361049c565b6103679190610cd3565b61057f565b600554600160a060020a031633146103a25760405160e560020a62461bcd02815260040161039990610d12565b60405180910390fd5b6103ac8282610980565b5050565b600554600160a060020a031633146103dd5760405160e560020a62461bcd02815260040161039990610d12565b6103e76000610a6a565b565b60606004805461028b90610c7f565b60003381610406828661049c565b9050838110156104815760405160e560020a62461bcd02815260206004820152602560248201527f45524332303a2064656372656173656420616c6c6f77616e63652062656c6f7760448201527f207a65726f0000000000000000000000000000000000000000000000000000006064820152608401610399565b61033f828686840361057f565b60003361031c81858561075a565b600160a060020a03918216600090815260016020908152604080832093909416825291909152205490565b600554600160a060020a031633146104f45760405160e560020a62461bcd02815260040161039990610d12565b600160a060020a0381166105735760405160e560020a62461bcd02815260206004820152602660248201527f4f776e61626c653a206e6577206f776e657220697320746865207a65726f206160448201527f64647265737300000000000000000000000000000000000000000000000000006064820152608401610399565b61057c81610a6a565b50565b600160a060020a0383166105fd5760405160e560020a62461bcd028152602060048201526024808201527f45524332303a20617070726f76652066726f6d20746865207a65726f2061646460448201527f72657373000000000000000000000000000000000000000000000000000000006064820152608401610399565b600160a060020a03821661067c5760405160e560020a62461bcd02815260206004820152602260248201527f45524332303a20617070726f766520746f20746865207a65726f20616464726560448201527f73730000000000000000000000000000000000000000000000000000000000006064820152608401610399565b600160a060020a0383811660008181526001602090815260408083209487168084529482529182902085905590518481527f8c5be1e5ebec7d5bd14f71427d1e84f3dd0314c0f7b2291e5b200ac8c7c3b925910160405180910390a3505050565b60006106e9848461049c565b9050600019811461075457818110156107475760405160e560020a62461bcd02815260206004820152601d60248201527f45524332303a20696e73756666696369656e7420616c6c6f77616e63650000006044820152606401610399565b610754848484840361057f565b50505050565b600160a060020a0383166107d95760405160e560020a62461bcd02815260206004820152602560248201527f45524332303a207472616e736665722066726f6d20746865207a65726f20616460448201527f64726573730000000000000000000000000000000000000000000000000000006064820152608401610399565b600160a060020a0382166108585760405160e560020a62461bcd02815260206004820152602360248201527f45524332303a207472616e7366657220746f20746865207a65726f206164647260448201527f65737300000000000000000000000000000000000000000000000000000000006064820152608401610399565b600160a060020a038316600090815260208190526040902054818110156108ea5760405160e560020a62461bcd02815260206004820152602660248201527f45524332303a207472616e7366657220616d6f756e742065786365656473206260448201527f616c616e636500000000000000000000000000000000000000000000000000006064820152608401610399565b600160a060020a03808516600090815260208190526040808220858503905591851681529081208054849290610921908490610cd3565b9250508190555082600160a060020a031684600160a060020a03167fddf252ad1be2c89b69c2b068fc378daa952ba7f163c4a11628f55a4df523b3ef8460405161096d91815260200190565b60405180910390a3610754848484610ac9565b600160a060020a0382166109d95760405160e560020a62461bcd02815260206004820152601f60248201527f45524332303a206d696e7420746f20746865207a65726f2061646472657373006044820152606401610399565b80600260008282546109eb9190610cd3565b9091555050600160a060020a03821660009081526020819052604081208054839290610a18908490610cd3565b9091555050604051818152600160a060020a038316906000907fddf252ad1be2c89b69c2b068fc378daa952ba7f163c4a11628f55a4df523b3ef9060200160405180910390a36103ac60008383610ac9565b60058054600160a060020a0383811673ffffffffffffffffffffffffffffffffffffffff19831681179093556040519116919082907f8be0079c531659141344cd1fd0a4f28419497f9722a3daafe3b4186f6b6457e090600090a35050565b6006546040517f022ef633000000000000000000000000000000000000000000000000000000008152336004820152600160a060020a038481166024830152604482018490529091169063022ef63390606401600060405180830381600087803b158015610b3657600080fd5b505af1158015610b4a573d6000803e3d6000fd5b50505050505050565b600060208083528351808285015260005b81811015610b8057858101830151858201604001528201610b64565b81811115610b92576000604083870101525b50601f01601f1916929092016040019392505050565b8035600160a060020a0381168114610bbf57600080fd5b919050565b60008060408385031215610bd757600080fd5b610be083610ba8565b946020939093013593505050565b600080600060608486031215610c0357600080fd5b610c0c84610ba8565b9250610c1a60208501610ba8565b9150604084013590509250925092565b600060208284031215610c3c57600080fd5b610c4582610ba8565b9392505050565b60008060408385031215610c5f57600080fd5b610c6883610ba8565b9150610c7660208401610ba8565b90509250929050565b600281046001821680610c9357607f821691505b60208210811415610ccd577f4e487b7100000000000000000000000000000000000000000000000000000000600052602260045260246000fd5b50919050565b60008219821115610d0d577f4e487b7100000000000000000000000000000000000000000000000000000000600052601160045260246000fd5b500190565b6020808252818101527f4f776e61626c653a2063616c6c6572206973206e6f7420746865206f776e657260408201526060019056fea264697066735822122087bb9eeadd6d8834ed86ea3dc0a106e88b9b7be34fa0000f695382f94145c62a64736f6c634300080b0033",
  "immutableReferences": {},
  "source": "// contracts/OSIVoting.sol\n// SPDX-License-Identifier: MIT\npragma solidity ^0.8.0;\n\nimport \"./GovToken.sol\";\nimport \"./RewToken.sol\";\nimport \"@openzeppelin/contracts/access/Ownable.sol\";\n\ncontract OSIVoting is Ownable {\n\n    struct Article {\n        address writer;\n        string url;\n    }\n\n    string public constant name = \"OSI Voting\";\n\n    // 2 days for nominations\n    uint public constant seconds_for_nominations = 172800;\n    // 5 days for voting\n    uint public constant seconds_for_voting = 432000;\n    // number of votes given per goverance token\n    uint256 public constant goverance_votes = 1000;\n    // number of reward tokens given per winner\n    uint256 public constant winner_tokens = 1000;\n\n    // end of last voting period\n    uint public startTime;\n\n    GovToken public goverance;\n    RewToken public rewards;\n\n    // record of past winners\n    Article[] public winners;\n\n    // articles to be voted on this week\n    Article[] public nominees;\n\n    // nominations made by each address\n    address[] nominators;\n    mapping(address => uint256) nominationsMade;\n\n    // number of votes cast by each address\n    address[] voters;\n    mapping(address => uint256) votesCast;\n\n    // cumulative votes for each nominee\n    uint256[] public voteCounts;\n\n    constructor(uint256 _supply, uint _start) {\n        goverance = new GovToken(msg.sender, _supply);\n        rewards = new RewToken();\n        startTime = _start;\n    }\n\n    event Nominate(address indexed _nominator, address indexed _writer, string _url);\n    event Vote(address indexed _voter, string _url, uint256 _amount);\n    event Winner(address indexed _writer, string _url);\n\n    function setStartTime(uint _time) public onlyOwner {\n        startTime = _time;\n    }\n\n    function nomineesWriter(uint _index) public view returns (address) {\n        return nominees[_index].writer;\n    }\n\n    function nomineesUrl(uint _index) public view returns (string memory) {\n        return nominees[_index].url;\n    }\n\n    function nomineesLength() public view returns (uint) {\n        return nominees.length;\n    }\n\n    function winnersWriter(uint _index) public view returns (address) {\n        return winners[_index].writer;\n    }\n\n    function winnersUrl(uint _index) public view returns (string memory) {\n        return winners[_index].url;\n    }\n\n    function winnersLength() public view returns (uint) {\n        return winners.length;\n    }\n\n    function nominationsEnds() public view returns (uint) {\n        return startTime + seconds_for_nominations;\n    }\n\n    function votingEnds() public view returns (uint) {\n        return startTime + seconds_for_nominations + seconds_for_voting;\n    }\n\n    function goveranceTransfer(address _from, address _to, uint256 _amount) external {\n        require(msg.sender == address(goverance));\n\n        uint256 nominationTransfer = _amount < nominationsMade[_from] ? _amount : nominationsMade[_from];\n        nominationsMade[_from] -= nominationTransfer;\n        nominationsMade[_to] += nominationTransfer;\n\n        uint256 voteTransfer = goverance_votes * _amount < votesCast[_from] ? goverance_votes * _amount : votesCast[_from];\n        votesCast[_from] -= voteTransfer;\n        votesCast[_to] += voteTransfer;\n    }\n\n    function rewardsTransfer(address _from, address _to, uint256 _amount) external {\n        require(msg.sender == address(rewards));\n\n        uint256 voteTransfer = _amount < votesCast[_from] ? _amount : votesCast[_from];\n        votesCast[_from] -= voteTransfer;\n        votesCast[_to] += voteTransfer;\n    }\n\n    function votesRemaining(address _voter) public view returns (uint256) {\n        return goverance_votes * goverance.balanceOf(_voter) + rewards.balanceOf(_voter) - votesCast[_voter];\n    }\n\n    function canNominate() public view returns (bool) {\n        return nominationsMade[msg.sender] < goverance.balanceOf(msg.sender) && block.timestamp > startTime && block.timestamp <= startTime + seconds_for_nominations;\n    }\n\n    function submitNomination(address _writer, string calldata _url) public returns (bool) {\n        require(nominationsMade[msg.sender] < goverance.balanceOf(msg.sender), \"too many nominations\");\n        require(block.timestamp > startTime, \"too early\");\n        require(block.timestamp <= startTime + seconds_for_nominations, \"too late\");\n        require(!alreadyNominated(_url), \"already nominate\");\n\n        nominationsMade[msg.sender] += 1;\n        nominees.push(Article(_writer, _url));\n        nominators.push(msg.sender);\n        voteCounts.push();\n\n        emit Nominate(msg.sender, _writer, _url);\n        return true;\n    }\n\n    function canVote() public view returns (bool) {\n        return votesRemaining(msg.sender) > 0 && block.timestamp > startTime + seconds_for_nominations && block.timestamp <= startTime + seconds_for_nominations + seconds_for_voting;\n    }\n\n    function castVotes(uint _index, uint256 _amount) public returns (bool) {\n        require(votesRemaining(msg.sender) >= _amount, \"too few remaining\");\n        require(_index < nominees.length, \"invalid nominee\");\n        require(block.timestamp > startTime + seconds_for_nominations, \"too early\");\n        require(block.timestamp <= startTime + seconds_for_nominations + seconds_for_voting, \"too late\");\n\n        votesCast[msg.sender] += _amount;\n        voteCounts[_index] += _amount;\n        voters.push(msg.sender);\n\n        emit Vote(msg.sender, nominees[_index].url, _amount);\n        return true;\n    }\n\n    function updateWinner() public returns (bool) {\n        if (block.timestamp > startTime + seconds_for_nominations + seconds_for_voting) {\n            if (nominees.length > 0) {\n                uint index = 0;\n                for (uint i = 1; i < nominees.length; i++) {\n                    if (voteCounts[i] > voteCounts[index]) {\n                        index = i;\n                    }\n                }\n                Article memory winner = nominees[index];\n\n                winners.push(winner);\n                rewards.mint(winner.writer, winner_tokens);\n                emit Winner(winner.writer, winner.url); \n            }\n           \n            resetVoting();\n            return true;\n        }\n        return false;\n    }\n\n    function resetVoting() private {\n        delete nominees;\n\n        for (uint i = 0; i < nominators.length; i++) {\n            delete nominationsMade[nominators[i]];\n        }\n        delete nominators;\n\n        for (uint i = 0; i < voters.length; i++) {\n            delete votesCast[voters[i]];\n        }\n        delete voters;\n\n        delete voteCounts;\n\n        startTime += seconds_for_nominations + seconds_for_voting;\n    }\n\n    function alreadyNominated(string calldata _url) private view returns (bool) {\n        bytes32 hashVal = keccak256(bytes(_url));\n        for (uint i = 0; i < nominees.length; i++) {\n            if (hashVal == keccak256(bytes(nominees[i].url))) {\n                return true;\n            }\n        }\n        return false;\n    }\n    \n}\n",
  "sourcePath": "/Users/edwardtian/Documents/Code/react/contracts/OSIVoting.sol",
  "compiler": {
    "name": "solc",
    "version": "0.8.11+commit.d7f03943.Emscripten.clang"
  },
  "schemaVersion": "3.4.7",
  "updatedAt": "2022-05-03T22:40:42.941Z",
  "networkType": "ethereum",
  "devdoc": {
    "kind": "dev",
    "methods": {
      "owner()": {
        "details": "Returns the address of the current owner."
      },
      "renounceOwnership()": {
        "details": "Leaves the contract without owner. It will not be possible to call `onlyOwner` functions anymore. Can only be called by the current owner. NOTE: Renouncing ownership will leave the contract without an owner, thereby removing any functionality that is only available to the owner."
      },
      "transferOwnership(address)": {
        "details": "Transfers ownership of the contract to a new account (`newOwner`). Can only be called by the current owner."
      }
    },
    "version": 1
  },
  "userdoc": {
    "kind": "user",
    "methods": {},
    "version": 1
  }
}