{
  "contractName": "RewToken",
  "abi": [
    {
      "inputs": [],
      "stateMutability": "nonpayable",
      "type": "constructor"
    },
    {
      "anonymous": false,
      "inputs": [
        {
          "indexed": true,
          "internalType": "address",
          "name": "owner",
          "type": "address"
        },
        {
          "indexed": true,
          "internalType": "address",
          "name": "spender",
          "type": "address"
        },
        {
          "indexed": false,
          "internalType": "uint256",
          "name": "value",
          "type": "uint256"
        }
      ],
      "name": "Approval",
      "type": "event"
    },
    {
      "anonymous": false,
      "inputs": [
        {
          "indexed": true,
          "internalType": "address",
          "name": "previousOwner",
          "type": "address"
        },
        {
          "indexed": true,
          "internalType": "address",
          "name": "newOwner",
          "type": "address"
        }
      ],
      "name": "OwnershipTransferred",
      "type": "event"
    },
    {
      "anonymous": false,
      "inputs": [
        {
          "indexed": true,
          "internalType": "address",
          "name": "from",
          "type": "address"
        },
        {
          "indexed": true,
          "internalType": "address",
          "name": "to",
          "type": "address"
        },
        {
          "indexed": false,
          "internalType": "uint256",
          "name": "value",
          "type": "uint256"
        }
      ],
      "name": "Transfer",
      "type": "event"
    },
    {
      "inputs": [
        {
          "internalType": "address",
          "name": "owner",
          "type": "address"
        },
        {
          "internalType": "address",
          "name": "spender",
          "type": "address"
        }
      ],
      "name": "allowance",
      "outputs": [
        {
          "internalType": "uint256",
          "name": "",
          "type": "uint256"
        }
      ],
      "stateMutability": "view",
      "type": "function"
    },
    {
      "inputs": [
        {
          "internalType": "address",
          "name": "spender",
          "type": "address"
        },
        {
          "internalType": "uint256",
          "name": "amount",
          "type": "uint256"
        }
      ],
      "name": "approve",
      "outputs": [
        {
          "internalType": "bool",
          "name": "",
          "type": "bool"
        }
      ],
      "stateMutability": "nonpayable",
      "type": "function"
    },
    {
      "inputs": [
        {
          "internalType": "address",
          "name": "account",
          "type": "address"
        }
      ],
      "name": "balanceOf",
      "outputs": [
        {
          "internalType": "uint256",
          "name": "",
          "type": "uint256"
        }
      ],
      "stateMutability": "view",
      "type": "function"
    },
    {
      "inputs": [
        {
          "internalType": "address",
          "name": "spender",
          "type": "address"
        },
        {
          "internalType": "uint256",
          "name": "subtractedValue",
          "type": "uint256"
        }
      ],
      "name": "decreaseAllowance",
      "outputs": [
        {
          "internalType": "bool",
          "name": "",
          "type": "bool"
        }
      ],
      "stateMutability": "nonpayable",
      "type": "function"
    },
    {
      "inputs": [
        {
          "internalType": "address",
          "name": "spender",
          "type": "address"
        },
        {
          "internalType": "uint256",
          "name": "addedValue",
          "type": "uint256"
        }
      ],
      "name": "increaseAllowance",
      "outputs": [
        {
          "internalType": "bool",
          "name": "",
          "type": "bool"
        }
      ],
      "stateMutability": "nonpayable",
      "type": "function"
    },
    {
      "inputs": [],
      "name": "name",
      "outputs": [
        {
          "internalType": "string",
          "name": "",
          "type": "string"
        }
      ],
      "stateMutability": "view",
      "type": "function"
    },
    {
      "inputs": [],
      "name": "owner",
      "outputs": [
        {
          "internalType": "address",
          "name": "",
          "type": "address"
        }
      ],
      "stateMutability": "view",
      "type": "function"
    },
    {
      "inputs": [],
      "name": "renounceOwnership",
      "outputs": [],
      "stateMutability": "nonpayable",
      "type": "function"
    },
    {
      "inputs": [],
      "name": "symbol",
      "outputs": [
        {
          "internalType": "string",
          "name": "",
          "type": "string"
        }
      ],
      "stateMutability": "view",
      "type": "function"
    },
    {
      "inputs": [],
      "name": "totalSupply",
      "outputs": [
        {
          "internalType": "uint256",
          "name": "",
          "type": "uint256"
        }
      ],
      "stateMutability": "view",
      "type": "function"
    },
    {
      "inputs": [
        {
          "internalType": "address",
          "name": "to",
          "type": "address"
        },
        {
          "internalType": "uint256",
          "name": "amount",
          "type": "uint256"
        }
      ],
      "name": "transfer",
      "outputs": [
        {
          "internalType": "bool",
          "name": "",
          "type": "bool"
        }
      ],
      "stateMutability": "nonpayable",
      "type": "function"
    },
    {
      "inputs": [
        {
          "internalType": "address",
          "name": "from",
          "type": "address"
        },
        {
          "internalType": "address",
          "name": "to",
          "type": "address"
        },
        {
          "internalType": "uint256",
          "name": "amount",
          "type": "uint256"
        }
      ],
      "name": "transferFrom",
      "outputs": [
        {
          "internalType": "bool",
          "name": "",
          "type": "bool"
        }
      ],
      "stateMutability": "nonpayable",
      "type": "function"
    },
    {
      "inputs": [
        {
          "internalType": "address",
          "name": "newOwner",
          "type": "address"
        }
      ],
      "name": "transferOwnership",
      "outputs": [],
      "stateMutability": "nonpayable",
      "type": "function"
    },
    {
      "inputs": [],
      "name": "voting",
      "outputs": [
        {
          "internalType": "contract OSIVoting",
          "name": "",
          "type": "address"
        }
      ],
      "stateMutability": "view",
      "type": "function"
    },
    {
      "inputs": [
        {
          "internalType": "address",
          "name": "_to",
          "type": "address"
        },
        {
          "internalType": "uint256",
          "name": "_amount",
          "type": "uint256"
        }
      ],
      "name": "mint",
      "outputs": [],
      "stateMutability": "nonpayable",
      "type": "function"
    },
    {
      "inputs": [],
      "name": "decimals",
      "outputs": [
        {
          "internalType": "uint8",
          "name": "",
          "type": "uint8"
        }
      ],
      "stateMutability": "view",
      "type": "function"
    }
  ],
  "bytecode": "0x60806040523480156200001157600080fd5b506040518060400160405280600b81526020017f4f534920526577617264730000000000000000000000000000000000000000008152506040518060400160405280600381526020017f4f53490000000000000000000000000000000000000000000000000000000000815250816003908051906020019062000096929190620001f9565b508060049080519060200190620000af929190620001f9565b505050620000e4620000cf6200012b640100000000026401000000009004565b62000133640100000000026401000000009004565b33600660006101000a81548173ffffffffffffffffffffffffffffffffffffffff021916908373ffffffffffffffffffffffffffffffffffffffff1602179055506200030e565b600033905090565b6000600560009054906101000a900473ffffffffffffffffffffffffffffffffffffffff16905081600560006101000a81548173ffffffffffffffffffffffffffffffffffffffff021916908373ffffffffffffffffffffffffffffffffffffffff1602179055508173ffffffffffffffffffffffffffffffffffffffff168173ffffffffffffffffffffffffffffffffffffffff167f8be0079c531659141344cd1fd0a4f28419497f9722a3daafe3b4186f6b6457e060405160405180910390a35050565b8280546200020790620002d8565b90600052602060002090601f0160209004810192826200022b576000855562000277565b82601f106200024657805160ff191683800117855562000277565b8280016001018555821562000277579182015b828111156200027657825182559160200191906001019062000259565b5b5090506200028691906200028a565b5090565b5b80821115620002a55760008160009055506001016200028b565b5090565b7f4e487b7100000000000000000000000000000000000000000000000000000000600052602260045260246000fd5b60006002820490506001821680620002f157607f821691505b60208210811415620003085762000307620002a9565b5b50919050565b611acc806200031e6000396000f3fe608060405234801561001057600080fd5b506004361061011d576000357c010000000000000000000000000000000000000000000000000000000090048063715018a6116100b4578063a9059cbb11610083578063a9059cbb146102ce578063dd62ed3e146102fe578063f2fde38b1461032e578063fce1ccca1461034a5761011d565b8063715018a6146102585780638da5cb5b1461026257806395d89b4114610280578063a457c2d71461029e5761011d565b8063313ce567116100f0578063313ce567146101be57806339509351146101dc57806340c10f191461020c57806370a08231146102285761011d565b806306fdde0314610122578063095ea7b31461014057806318160ddd1461017057806323b872dd1461018e575b600080fd5b61012a610368565b6040516101379190611141565b60405180910390f35b61015a600480360381019061015591906111fc565b6103fa565b6040516101679190611257565b60405180910390f35b61017861041d565b6040516101859190611281565b60405180910390f35b6101a860048036038101906101a3919061129c565b610427565b6040516101b59190611257565b60405180910390f35b6101c6610456565b6040516101d3919061130b565b60405180910390f35b6101f660048036038101906101f191906111fc565b61045f565b6040516102039190611257565b60405180910390f35b610226600480360381019061022191906111fc565b610496565b005b610242600480360381019061023d9190611326565b610520565b60405161024f9190611281565b60405180910390f35b610260610568565b005b61026a6105f0565b6040516102779190611362565b60405180910390f35b61028861061a565b6040516102959190611141565b60405180910390f35b6102b860048036038101906102b391906111fc565b6106ac565b6040516102c59190611257565b60405180910390f35b6102e860048036038101906102e391906111fc565b610723565b6040516102f59190611257565b60405180910390f35b6103186004803603810190610313919061137d565b610746565b6040516103259190611281565b60405180910390f35b61034860048036038101906103439190611326565b6107cd565b005b6103526108c5565b60405161035f919061141c565b60405180910390f35b60606003805461037790611466565b80601f01602080910402602001604051908101604052809291908181526020018280546103a390611466565b80156103f05780601f106103c5576101008083540402835291602001916103f0565b820191906000526020600020905b8154815290600101906020018083116103d357829003601f168201915b5050505050905090565b6000806104056108eb565b90506104128185856108f3565b600191505092915050565b6000600254905090565b6000806104326108eb565b905061043f858285610abe565b61044a858585610b4a565b60019150509392505050565b60006003905090565b60008061046a6108eb565b905061048b81858561047c8589610746565b61048691906114c7565b6108f3565b600191505092915050565b61049e6108eb565b73ffffffffffffffffffffffffffffffffffffffff166104bc6105f0565b73ffffffffffffffffffffffffffffffffffffffff1614610512576040517f08c379a000000000000000000000000000000000000000000000000000000000815260040161050990611569565b60405180910390fd5b61051c8282610dcb565b5050565b60008060008373ffffffffffffffffffffffffffffffffffffffff1673ffffffffffffffffffffffffffffffffffffffff168152602001908152602001600020549050919050565b6105706108eb565b73ffffffffffffffffffffffffffffffffffffffff1661058e6105f0565b73ffffffffffffffffffffffffffffffffffffffff16146105e4576040517f08c379a00000000000000000000000000000000000000000000000000000000081526004016105db90611569565b60405180910390fd5b6105ee6000610f2b565b565b6000600560009054906101000a900473ffffffffffffffffffffffffffffffffffffffff16905090565b60606004805461062990611466565b80601f016020809104026020016040519081016040528092919081815260200182805461065590611466565b80156106a25780601f10610677576101008083540402835291602001916106a2565b820191906000526020600020905b81548152906001019060200180831161068557829003601f168201915b5050505050905090565b6000806106b76108eb565b905060006106c58286610746565b90508381101561070a576040517f08c379a0000000000000000000000000000000000000000000000000000000008152600401610701906115fb565b60405180910390fd5b61071782868684036108f3565b60019250505092915050565b60008061072e6108eb565b905061073b818585610b4a565b600191505092915050565b6000600160008473ffffffffffffffffffffffffffffffffffffffff1673ffffffffffffffffffffffffffffffffffffffff16815260200190815260200160002060008373ffffffffffffffffffffffffffffffffffffffff1673ffffffffffffffffffffffffffffffffffffffff16815260200190815260200160002054905092915050565b6107d56108eb565b73ffffffffffffffffffffffffffffffffffffffff166107f36105f0565b73ffffffffffffffffffffffffffffffffffffffff1614610849576040517f08c379a000000000000000000000000000000000000000000000000000000000815260040161084090611569565b60405180910390fd5b600073ffffffffffffffffffffffffffffffffffffffff168173ffffffffffffffffffffffffffffffffffffffff1614156108b9576040517f08c379a00000000000000000000000000000000000000000000000000000000081526004016108b09061168d565b60405180910390fd5b6108c281610f2b565b50565b600660009054906101000a900473ffffffffffffffffffffffffffffffffffffffff1681565b600033905090565b600073ffffffffffffffffffffffffffffffffffffffff168373ffffffffffffffffffffffffffffffffffffffff161415610963576040517f08c379a000000000000000000000000000000000000000000000000000000000815260040161095a9061171f565b60405180910390fd5b600073ffffffffffffffffffffffffffffffffffffffff168273ffffffffffffffffffffffffffffffffffffffff1614156109d3576040517f08c379a00000000000000000000000000000000000000000000000000000000081526004016109ca906117b1565b60405180910390fd5b80600160008573ffffffffffffffffffffffffffffffffffffffff1673ffffffffffffffffffffffffffffffffffffffff16815260200190815260200160002060008473ffffffffffffffffffffffffffffffffffffffff1673ffffffffffffffffffffffffffffffffffffffff168152602001908152602001600020819055508173ffffffffffffffffffffffffffffffffffffffff168373ffffffffffffffffffffffffffffffffffffffff167f8c5be1e5ebec7d5bd14f71427d1e84f3dd0314c0f7b2291e5b200ac8c7c3b92583604051610ab19190611281565b60405180910390a3505050565b6000610aca8484610746565b90507fffffffffffffffffffffffffffffffffffffffffffffffffffffffffffffffff8114610b445781811015610b36576040517f08c379a0000000000000000000000000000000000000000000000000000000008152600401610b2d9061181d565b60405180910390fd5b610b4384848484036108f3565b5b50505050565b600073ffffffffffffffffffffffffffffffffffffffff168373ffffffffffffffffffffffffffffffffffffffff161415610bba576040517f08c379a0000000000000000000000000000000000000000000000000000000008152600401610bb1906118af565b60405180910390fd5b600073ffffffffffffffffffffffffffffffffffffffff168273ffffffffffffffffffffffffffffffffffffffff161415610c2a576040517f08c379a0000000000000000000000000000000000000000000000000000000008152600401610c2190611941565b60405180910390fd5b610c35838383610ff1565b60008060008573ffffffffffffffffffffffffffffffffffffffff1673ffffffffffffffffffffffffffffffffffffffff16815260200190815260200160002054905081811015610cbb576040517f08c379a0000000000000000000000000000000000000000000000000000000008152600401610cb2906119d3565b60405180910390fd5b8181036000808673ffffffffffffffffffffffffffffffffffffffff1673ffffffffffffffffffffffffffffffffffffffff16815260200190815260200160002081905550816000808573ffffffffffffffffffffffffffffffffffffffff1673ffffffffffffffffffffffffffffffffffffffff1681526020019081526020016000206000828254610d4e91906114c7565b925050819055508273ffffffffffffffffffffffffffffffffffffffff168473ffffffffffffffffffffffffffffffffffffffff167fddf252ad1be2c89b69c2b068fc378daa952ba7f163c4a11628f55a4df523b3ef84604051610db29190611281565b60405180910390a3610dc5848484610ff6565b50505050565b600073ffffffffffffffffffffffffffffffffffffffff168273ffffffffffffffffffffffffffffffffffffffff161415610e3b576040517f08c379a0000000000000000000000000000000000000000000000000000000008152600401610e3290611a3f565b60405180910390fd5b610e4760008383610ff1565b8060026000828254610e5991906114c7565b92505081905550806000808473ffffffffffffffffffffffffffffffffffffffff1673ffffffffffffffffffffffffffffffffffffffff1681526020019081526020016000206000828254610eae91906114c7565b925050819055508173ffffffffffffffffffffffffffffffffffffffff16600073ffffffffffffffffffffffffffffffffffffffff167fddf252ad1be2c89b69c2b068fc378daa952ba7f163c4a11628f55a4df523b3ef83604051610f139190611281565b60405180910390a3610f2760008383610ff6565b5050565b6000600560009054906101000a900473ffffffffffffffffffffffffffffffffffffffff16905081600560006101000a81548173ffffffffffffffffffffffffffffffffffffffff021916908373ffffffffffffffffffffffffffffffffffffffff1602179055508173ffffffffffffffffffffffffffffffffffffffff168173ffffffffffffffffffffffffffffffffffffffff167f8be0079c531659141344cd1fd0a4f28419497f9722a3daafe3b4186f6b6457e060405160405180910390a35050565b505050565b600660009054906101000a900473ffffffffffffffffffffffffffffffffffffffff1673ffffffffffffffffffffffffffffffffffffffff1663022ef6333384846040518463ffffffff167c010000000000000000000000000000000000000000000000000000000002815260040161107193929190611a5f565b600060405180830381600087803b15801561108b57600080fd5b505af115801561109f573d6000803e3d6000fd5b50505050505050565b600081519050919050565b600082825260208201905092915050565b60005b838110156110e25780820151818401526020810190506110c7565b838111156110f1576000848401525b50505050565b6000601f19601f8301169050919050565b6000611113826110a8565b61111d81856110b3565b935061112d8185602086016110c4565b611136816110f7565b840191505092915050565b6000602082019050818103600083015261115b8184611108565b905092915050565b600080fd5b600073ffffffffffffffffffffffffffffffffffffffff82169050919050565b600061119382611168565b9050919050565b6111a381611188565b81146111ae57600080fd5b50565b6000813590506111c08161119a565b92915050565b6000819050919050565b6111d9816111c6565b81146111e457600080fd5b50565b6000813590506111f6816111d0565b92915050565b6000806040838503121561121357611212611163565b5b6000611221858286016111b1565b9250506020611232858286016111e7565b9150509250929050565b60008115159050919050565b6112518161123c565b82525050565b600060208201905061126c6000830184611248565b92915050565b61127b816111c6565b82525050565b60006020820190506112966000830184611272565b92915050565b6000806000606084860312156112b5576112b4611163565b5b60006112c3868287016111b1565b93505060206112d4868287016111b1565b92505060406112e5868287016111e7565b9150509250925092565b600060ff82169050919050565b611305816112ef565b82525050565b600060208201905061132060008301846112fc565b92915050565b60006020828403121561133c5761133b611163565b5b600061134a848285016111b1565b91505092915050565b61135c81611188565b82525050565b60006020820190506113776000830184611353565b92915050565b6000806040838503121561139457611393611163565b5b60006113a2858286016111b1565b92505060206113b3858286016111b1565b9150509250929050565b6000819050919050565b60006113e26113dd6113d884611168565b6113bd565b611168565b9050919050565b60006113f4826113c7565b9050919050565b6000611406826113e9565b9050919050565b611416816113fb565b82525050565b6000602082019050611431600083018461140d565b92915050565b7f4e487b7100000000000000000000000000000000000000000000000000000000600052602260045260246000fd5b6000600282049050600182168061147e57607f821691505b6020821081141561149257611491611437565b5b50919050565b7f4e487b7100000000000000000000000000000000000000000000000000000000600052601160045260246000fd5b60006114d2826111c6565b91506114dd836111c6565b9250827fffffffffffffffffffffffffffffffffffffffffffffffffffffffffffffffff0382111561151257611511611498565b5b828201905092915050565b7f4f776e61626c653a2063616c6c6572206973206e6f7420746865206f776e6572600082015250565b60006115536020836110b3565b915061155e8261151d565b602082019050919050565b6000602082019050818103600083015261158281611546565b9050919050565b7f45524332303a2064656372656173656420616c6c6f77616e63652062656c6f7760008201527f207a65726f000000000000000000000000000000000000000000000000000000602082015250565b60006115e56025836110b3565b91506115f082611589565b604082019050919050565b60006020820190508181036000830152611614816115d8565b9050919050565b7f4f776e61626c653a206e6577206f776e657220697320746865207a65726f206160008201527f6464726573730000000000000000000000000000000000000000000000000000602082015250565b60006116776026836110b3565b91506116828261161b565b604082019050919050565b600060208201905081810360008301526116a68161166a565b9050919050565b7f45524332303a20617070726f76652066726f6d20746865207a65726f2061646460008201527f7265737300000000000000000000000000000000000000000000000000000000602082015250565b60006117096024836110b3565b9150611714826116ad565b604082019050919050565b60006020820190508181036000830152611738816116fc565b9050919050565b7f45524332303a20617070726f766520746f20746865207a65726f20616464726560008201527f7373000000000000000000000000000000000000000000000000000000000000602082015250565b600061179b6022836110b3565b91506117a68261173f565b604082019050919050565b600060208201905081810360008301526117ca8161178e565b9050919050565b7f45524332303a20696e73756666696369656e7420616c6c6f77616e6365000000600082015250565b6000611807601d836110b3565b9150611812826117d1565b602082019050919050565b60006020820190508181036000830152611836816117fa565b9050919050565b7f45524332303a207472616e736665722066726f6d20746865207a65726f20616460008201527f6472657373000000000000000000000000000000000000000000000000000000602082015250565b60006118996025836110b3565b91506118a48261183d565b604082019050919050565b600060208201905081810360008301526118c88161188c565b9050919050565b7f45524332303a207472616e7366657220746f20746865207a65726f206164647260008201527f6573730000000000000000000000000000000000000000000000000000000000602082015250565b600061192b6023836110b3565b9150611936826118cf565b604082019050919050565b6000602082019050818103600083015261195a8161191e565b9050919050565b7f45524332303a207472616e7366657220616d6f756e742065786365656473206260008201527f616c616e63650000000000000000000000000000000000000000000000000000602082015250565b60006119bd6026836110b3565b91506119c882611961565b604082019050919050565b600060208201905081810360008301526119ec816119b0565b9050919050565b7f45524332303a206d696e7420746f20746865207a65726f206164647265737300600082015250565b6000611a29601f836110b3565b9150611a34826119f3565b602082019050919050565b60006020820190508181036000830152611a5881611a1c565b9050919050565b6000606082019050611a746000830186611353565b611a816020830185611353565b611a8e6040830184611272565b94935050505056fea2646970667358221220a80daf76f631d9ed1c31b5c5448e2a0386f6327c15dcdd875c919defbda1419a64736f6c634300080b0033",
  "immutableReferences": {},
  "source": "// contracts/RewToken.sol\n// SPDX-License-Identifier: MIT\npragma solidity ^0.8.0;\n\nimport \"./OSIVoting.sol\";\nimport \"@openzeppelin/contracts/token/ERC20/ERC20.sol\";\nimport \"@openzeppelin/contracts/access/Ownable.sol\";\n\ncontract RewToken is ERC20, Ownable {\n\n    OSIVoting public voting;\n\n\n    constructor() ERC20(\"OSI Rewards\", \"OSI\") {\n        voting = OSIVoting(msg.sender);\n    }\n\n    function _afterTokenTransfer(address, address _to, uint256 _amount) internal virtual override {\n        voting.rewardsTransfer(msg.sender, _to, _amount);\n    }\n\n    function mint(address _to, uint256 _amount) external onlyOwner {\n        _mint(_to, _amount);\n    }\n\n    function decimals() public view virtual override returns (uint8) {\n        return 3;\n    }\n}\n",
  "sourcePath": "/Users/edwardtian/Documents/Code/react/contracts/RewToken.sol",
  "compiler": {
    "name": "solc",
    "version": "0.8.11+commit.d7f03943.Emscripten.clang"
  },
  "schemaVersion": "3.4.7",
  "updatedAt": "2022-05-03T19:10:42.529Z",
  "devdoc": {
    "kind": "dev",
    "methods": {
      "allowance(address,address)": {
        "details": "See {IERC20-allowance}."
      },
      "approve(address,uint256)": {
        "details": "See {IERC20-approve}. NOTE: If `amount` is the maximum `uint256`, the allowance is not updated on `transferFrom`. This is semantically equivalent to an infinite approval. Requirements: - `spender` cannot be the zero address."
      },
      "balanceOf(address)": {
        "details": "See {IERC20-balanceOf}."
      },
      "decimals()": {
        "details": "Returns the number of decimals used to get its user representation. For example, if `decimals` equals `2`, a balance of `505` tokens should be displayed to a user as `5.05` (`505 / 10 ** 2`). Tokens usually opt for a value of 18, imitating the relationship between Ether and Wei. This is the value {ERC20} uses, unless this function is overridden; NOTE: This information is only used for _display_ purposes: it in no way affects any of the arithmetic of the contract, including {IERC20-balanceOf} and {IERC20-transfer}."
      },
      "decreaseAllowance(address,uint256)": {
        "details": "Atomically decreases the allowance granted to `spender` by the caller. This is an alternative to {approve} that can be used as a mitigation for problems described in {IERC20-approve}. Emits an {Approval} event indicating the updated allowance. Requirements: - `spender` cannot be the zero address. - `spender` must have allowance for the caller of at least `subtractedValue`."
      },
      "increaseAllowance(address,uint256)": {
        "details": "Atomically increases the allowance granted to `spender` by the caller. This is an alternative to {approve} that can be used as a mitigation for problems described in {IERC20-approve}. Emits an {Approval} event indicating the updated allowance. Requirements: - `spender` cannot be the zero address."
      },
      "name()": {
        "details": "Returns the name of the token."
      },
      "owner()": {
        "details": "Returns the address of the current owner."
      },
      "renounceOwnership()": {
        "details": "Leaves the contract without owner. It will not be possible to call `onlyOwner` functions anymore. Can only be called by the current owner. NOTE: Renouncing ownership will leave the contract without an owner, thereby removing any functionality that is only available to the owner."
      },
      "symbol()": {
        "details": "Returns the symbol of the token, usually a shorter version of the name."
      },
      "totalSupply()": {
        "details": "See {IERC20-totalSupply}."
      },
      "transfer(address,uint256)": {
        "details": "See {IERC20-transfer}. Requirements: - `to` cannot be the zero address. - the caller must have a balance of at least `amount`."
      },
      "transferFrom(address,address,uint256)": {
        "details": "See {IERC20-transferFrom}. Emits an {Approval} event indicating the updated allowance. This is not required by the EIP. See the note at the beginning of {ERC20}. NOTE: Does not update the allowance if the current allowance is the maximum `uint256`. Requirements: - `from` and `to` cannot be the zero address. - `from` must have a balance of at least `amount`. - the caller must have allowance for ``from``'s tokens of at least `amount`."
      },
      "transferOwnership(address)": {
        "details": "Transfers ownership of the contract to a new account (`newOwner`). Can only be called by the current owner."
      }
    },
    "version": 1
  },
  "userdoc": {
    "kind": "user",
    "methods": {},
    "version": 1
  }
}