{
  "contractName": "Token",
  "abi": [
    {
      "inputs": [
        {
          "internalType": "uint16",
          "name": "_supply",
          "type": "uint16"
        },
        {
          "internalType": "uint256",
          "name": "_start",
          "type": "uint256"
        }
      ],
      "stateMutability": "nonpayable",
      "type": "constructor"
    },
    {
      "anonymous": false,
      "inputs": [
        {
          "indexed": true,
          "internalType": "address",
          "name": "_nominator",
          "type": "address"
        },
        {
          "indexed": true,
          "internalType": "address",
          "name": "_writer",
          "type": "address"
        },
        {
          "indexed": false,
          "internalType": "string",
          "name": "_url",
          "type": "string"
        }
      ],
      "name": "Nominate",
      "type": "event"
    },
    {
      "anonymous": false,
      "inputs": [
        {
          "indexed": true,
          "internalType": "address",
          "name": "_from",
          "type": "address"
        },
        {
          "indexed": true,
          "internalType": "address",
          "name": "_to",
          "type": "address"
        },
        {
          "indexed": false,
          "internalType": "uint16",
          "name": "_value",
          "type": "uint16"
        }
      ],
      "name": "Transfer_Goverance",
      "type": "event"
    },
    {
      "anonymous": false,
      "inputs": [
        {
          "indexed": true,
          "internalType": "address",
          "name": "_from",
          "type": "address"
        },
        {
          "indexed": true,
          "internalType": "address",
          "name": "_to",
          "type": "address"
        },
        {
          "indexed": false,
          "internalType": "uint16",
          "name": "_value",
          "type": "uint16"
        }
      ],
      "name": "Transfer_Reward",
      "type": "event"
    },
    {
      "anonymous": false,
      "inputs": [
        {
          "indexed": true,
          "internalType": "address",
          "name": "_voter",
          "type": "address"
        },
        {
          "indexed": false,
          "internalType": "string",
          "name": "_url",
          "type": "string"
        },
        {
          "indexed": false,
          "internalType": "uint16",
          "name": "_value",
          "type": "uint16"
        }
      ],
      "name": "Vote",
      "type": "event"
    },
    {
      "anonymous": false,
      "inputs": [
        {
          "indexed": true,
          "internalType": "address",
          "name": "_writer",
          "type": "address"
        },
        {
          "indexed": false,
          "internalType": "string",
          "name": "_url",
          "type": "string"
        }
      ],
      "name": "Winner",
      "type": "event"
    },
    {
      "inputs": [
        {
          "internalType": "address",
          "name": "",
          "type": "address"
        }
      ],
      "name": "goveranceBalance",
      "outputs": [
        {
          "internalType": "uint16",
          "name": "",
          "type": "uint16"
        }
      ],
      "stateMutability": "view",
      "type": "function",
      "constant": true
    },
    {
      "inputs": [],
      "name": "goveranceSupply",
      "outputs": [
        {
          "internalType": "uint16",
          "name": "",
          "type": "uint16"
        }
      ],
      "stateMutability": "view",
      "type": "function",
      "constant": true
    },
    {
      "inputs": [],
      "name": "name",
      "outputs": [
        {
          "internalType": "string",
          "name": "",
          "type": "string"
        }
      ],
      "stateMutability": "view",
      "type": "function",
      "constant": true
    },
    {
      "inputs": [
        {
          "internalType": "uint256",
          "name": "",
          "type": "uint256"
        }
      ],
      "name": "nominees",
      "outputs": [
        {
          "internalType": "address",
          "name": "writer",
          "type": "address"
        },
        {
          "internalType": "string",
          "name": "url",
          "type": "string"
        }
      ],
      "stateMutability": "view",
      "type": "function",
      "constant": true
    },
    {
      "inputs": [],
      "name": "owner",
      "outputs": [
        {
          "internalType": "address",
          "name": "",
          "type": "address"
        }
      ],
      "stateMutability": "view",
      "type": "function",
      "constant": true
    },
    {
      "inputs": [
        {
          "internalType": "address",
          "name": "",
          "type": "address"
        }
      ],
      "name": "rewardBalance",
      "outputs": [
        {
          "internalType": "uint16",
          "name": "",
          "type": "uint16"
        }
      ],
      "stateMutability": "view",
      "type": "function",
      "constant": true
    },
    {
      "inputs": [],
      "name": "rewardSupply",
      "outputs": [
        {
          "internalType": "uint16",
          "name": "",
          "type": "uint16"
        }
      ],
      "stateMutability": "view",
      "type": "function",
      "constant": true
    },
    {
      "inputs": [],
      "name": "seconds_for_nominations",
      "outputs": [
        {
          "internalType": "uint256",
          "name": "",
          "type": "uint256"
        }
      ],
      "stateMutability": "view",
      "type": "function",
      "constant": true
    },
    {
      "inputs": [],
      "name": "seconds_for_voting",
      "outputs": [
        {
          "internalType": "uint256",
          "name": "",
          "type": "uint256"
        }
      ],
      "stateMutability": "view",
      "type": "function",
      "constant": true
    },
    {
      "inputs": [],
      "name": "startTime",
      "outputs": [
        {
          "internalType": "uint256",
          "name": "",
          "type": "uint256"
        }
      ],
      "stateMutability": "view",
      "type": "function",
      "constant": true
    },
    {
      "inputs": [
        {
          "internalType": "uint256",
          "name": "",
          "type": "uint256"
        }
      ],
      "name": "voteCounts",
      "outputs": [
        {
          "internalType": "uint16",
          "name": "",
          "type": "uint16"
        }
      ],
      "stateMutability": "view",
      "type": "function",
      "constant": true
    },
    {
      "inputs": [
        {
          "internalType": "uint256",
          "name": "",
          "type": "uint256"
        }
      ],
      "name": "winners",
      "outputs": [
        {
          "internalType": "address",
          "name": "writer",
          "type": "address"
        },
        {
          "internalType": "string",
          "name": "url",
          "type": "string"
        }
      ],
      "stateMutability": "view",
      "type": "function",
      "constant": true
    },
    {
      "inputs": [
        {
          "internalType": "uint256",
          "name": "_time",
          "type": "uint256"
        }
      ],
      "name": "setStartTime",
      "outputs": [
        {
          "internalType": "bool",
          "name": "",
          "type": "bool"
        }
      ],
      "stateMutability": "nonpayable",
      "type": "function"
    },
    {
      "inputs": [
        {
          "internalType": "uint256",
          "name": "_index",
          "type": "uint256"
        }
      ],
      "name": "nomineesWriter",
      "outputs": [
        {
          "internalType": "address",
          "name": "",
          "type": "address"
        }
      ],
      "stateMutability": "view",
      "type": "function",
      "constant": true
    },
    {
      "inputs": [
        {
          "internalType": "uint256",
          "name": "_index",
          "type": "uint256"
        }
      ],
      "name": "nomineesUrl",
      "outputs": [
        {
          "internalType": "string",
          "name": "",
          "type": "string"
        }
      ],
      "stateMutability": "view",
      "type": "function",
      "constant": true
    },
    {
      "inputs": [],
      "name": "nomineesLength",
      "outputs": [
        {
          "internalType": "uint256",
          "name": "",
          "type": "uint256"
        }
      ],
      "stateMutability": "view",
      "type": "function",
      "constant": true
    },
    {
      "inputs": [
        {
          "internalType": "uint256",
          "name": "_index",
          "type": "uint256"
        }
      ],
      "name": "winnersWriter",
      "outputs": [
        {
          "internalType": "address",
          "name": "",
          "type": "address"
        }
      ],
      "stateMutability": "view",
      "type": "function",
      "constant": true
    },
    {
      "inputs": [
        {
          "internalType": "uint256",
          "name": "_index",
          "type": "uint256"
        }
      ],
      "name": "winnersUrl",
      "outputs": [
        {
          "internalType": "string",
          "name": "",
          "type": "string"
        }
      ],
      "stateMutability": "view",
      "type": "function",
      "constant": true
    },
    {
      "inputs": [],
      "name": "winnersLength",
      "outputs": [
        {
          "internalType": "uint256",
          "name": "",
          "type": "uint256"
        }
      ],
      "stateMutability": "view",
      "type": "function",
      "constant": true
    },
    {
      "inputs": [],
      "name": "votingEnds",
      "outputs": [
        {
          "internalType": "uint256",
          "name": "",
          "type": "uint256"
        }
      ],
      "stateMutability": "view",
      "type": "function",
      "constant": true
    },
    {
      "inputs": [
        {
          "internalType": "address",
          "name": "_voter",
          "type": "address"
        }
      ],
      "name": "votesRemaining",
      "outputs": [
        {
          "internalType": "uint16",
          "name": "",
          "type": "uint16"
        }
      ],
      "stateMutability": "view",
      "type": "function",
      "constant": true
    },
    {
      "inputs": [
        {
          "internalType": "address",
          "name": "_writer",
          "type": "address"
        },
        {
          "internalType": "string",
          "name": "_url",
          "type": "string"
        }
      ],
      "name": "submitNomination",
      "outputs": [
        {
          "internalType": "bool",
          "name": "",
          "type": "bool"
        }
      ],
      "stateMutability": "nonpayable",
      "type": "function"
    },
    {
      "inputs": [
        {
          "internalType": "uint256",
          "name": "_index",
          "type": "uint256"
        },
        {
          "internalType": "uint16",
          "name": "_value",
          "type": "uint16"
        }
      ],
      "name": "castVotes",
      "outputs": [
        {
          "internalType": "bool",
          "name": "",
          "type": "bool"
        }
      ],
      "stateMutability": "nonpayable",
      "type": "function"
    },
    {
      "inputs": [
        {
          "internalType": "address",
          "name": "_to",
          "type": "address"
        },
        {
          "internalType": "uint16",
          "name": "_value",
          "type": "uint16"
        }
      ],
      "name": "transferGoverance",
      "outputs": [
        {
          "internalType": "bool",
          "name": "",
          "type": "bool"
        }
      ],
      "stateMutability": "nonpayable",
      "type": "function"
    },
    {
      "inputs": [
        {
          "internalType": "address",
          "name": "_to",
          "type": "address"
        },
        {
          "internalType": "uint16",
          "name": "_value",
          "type": "uint16"
        }
      ],
      "name": "transferReward",
      "outputs": [
        {
          "internalType": "bool",
          "name": "",
          "type": "bool"
        }
      ],
      "stateMutability": "nonpayable",
      "type": "function"
    },
    {
      "inputs": [],
      "name": "updateWinner",
      "outputs": [
        {
          "internalType": "bool",
          "name": "",
          "type": "bool"
        }
      ],
      "stateMutability": "nonpayable",
      "type": "function"
    }
  ],
  "bytecode": "0x60806040523480156200001157600080fd5b5060405162002bd438038062002bd4833981810160405281019062000037919062000202565b336000806101000a81548173ffffffffffffffffffffffffffffffffffffffff021916908373ffffffffffffffffffffffffffffffffffffffff16021790555081600360006101000a81548161ffff021916908361ffff16021790555081600260003373ffffffffffffffffffffffffffffffffffffffff1673ffffffffffffffffffffffffffffffffffffffff16815260200190815260200160002060006101000a81548161ffff021916908361ffff160217905550806001819055506000600560006101000a81548161ffff021916908361ffff1602179055503373ffffffffffffffffffffffffffffffffffffffff16600073ffffffffffffffffffffffffffffffffffffffff167f77a6867a906a43f071dd51ecb754a9611814ec6659608ac73700ef7d7f42e1b9846040516200017391906200025a565b60405180910390a3505062000277565b600080fd5b600061ffff82169050919050565b620001a18162000188565b8114620001ad57600080fd5b50565b600081519050620001c18162000196565b92915050565b6000819050919050565b620001dc81620001c7565b8114620001e857600080fd5b50565b600081519050620001fc81620001d1565b92915050565b600080604083850312156200021c576200021b62000183565b5b60006200022c85828601620001b0565b92505060206200023f85828601620001eb565b9150509250929050565b620002548162000188565b82525050565b600060208201905062000271600083018462000249565b92915050565b61294d80620002876000396000f3fe608060405234801561001057600080fd5b506004361061018e5760003560e01c80637b5ea02b116100de578063a2fb117511610097578063d1fe8b8f11610071578063d1fe8b8f14610512578063d20e6df414610542578063df7b637b14610560578063eec6b91e1461057e5761018e565b8063a2fb117514610493578063aebd9dd4146104c4578063c7230357146104e25761018e565b80637b5ea02b146103855780637c9f512a146103b557806384ecc4db146103e5578063885515da146104155780638da5cb5b1461044557806394be82ba146104635761018e565b80633c3a220d1161014b578063527834a711610125578063527834a7146102e957806367b40cf7146103195780636b0c341b1461034957806378e97925146103675761018e565b80633c3a220d146102595780633e0a322d146102895780633e286cca146102b95761018e565b806306fdde03146101935780631ab6a181146101b1578063280ee4ee146101cf5780632c3c2fd2146101ed5780633376def81461021d5780633b52f2be1461023b575b600080fd5b61019b6105af565b6040516101a89190611f2f565b60405180910390f35b6101b96105e8565b6040516101c69190611f6a565b60405180910390f35b6101d76105ef565b6040516101e49190611f6a565b60405180910390f35b61020760048036038101906102029190611fbb565b610615565b6040516102149190612029565b60405180910390f35b610225610664565b604051610232919061205f565b60405180910390f35b610243610a17565b6040516102509190611f6a565b60405180910390f35b610273600480360381019061026e9190611fbb565b610a24565b6040516102809190612097565b60405180910390f35b6102a3600480360381019061029e9190611fbb565b610a5c565b6040516102b0919061205f565b60405180910390f35b6102d360048036038101906102ce919061210a565b610ac7565b6040516102e0919061205f565b60405180910390f35b61030360048036038101906102fe919061210a565b610c77565b604051610310919061205f565b60405180910390f35b610333600480360381019061032e919061214a565b610e27565b6040516103409190612097565b60405180910390f35b610351610e48565b60405161035e9190612097565b60405180910390f35b61036f610e5c565b60405161037c9190611f6a565b60405180910390f35b61039f600480360381019061039a9190612177565b610e62565b6040516103ac919061205f565b60405180910390f35b6103cf60048036038101906103ca9190611fbb565b611168565b6040516103dc9190611f2f565b60405180910390f35b6103ff60048036038101906103fa919061221c565b61121f565b60405161040c919061205f565b60405180910390f35b61042f600480360381019061042a919061214a565b611665565b60405161043c9190612097565b60405180910390f35b61044d61176c565b60405161045a9190612029565b60405180910390f35b61047d6004803603810190610478919061214a565b611790565b60405161048a9190612097565b60405180910390f35b6104ad60048036038101906104a89190611fbb565b6117b1565b6040516104bb92919061227c565b60405180910390f35b6104cc61188d565b6040516104d99190611f6a565b60405180910390f35b6104fc60048036038101906104f79190611fbb565b61189a565b6040516105099190612029565b60405180910390f35b61052c60048036038101906105279190611fbb565b6118e9565b6040516105399190611f2f565b60405180910390f35b61054a6119a0565b6040516105579190612097565b60405180910390f35b6105686119b4565b6040516105759190611f6a565b60405180910390f35b61059860048036038101906105939190611fbb565b6119bb565b6040516105a692919061227c565b60405180910390f35b6040518060400160405280600981526020017f4f73696e546f6b656e000000000000000000000000000000000000000000000081525081565b6202a30081565b6000620697806202a30060015461060691906122db565b61061091906122db565b905090565b60006007828154811061062b5761062a612331565b5b906000526020600020906002020160000160009054906101000a900473ffffffffffffffffffffffffffffffffffffffff169050919050565b6000620697806202a30060015461067b91906122db565b61068591906122db565b421115610a0f57600060078054905011156109fe57600080600190505b60078054905081101561074457600c82815481106106c3576106c2612331565b5b90600052602060002090601091828204019190066002029054906101000a900461ffff1661ffff16600c82815481106106ff576106fe612331565b5b90600052602060002090601091828204019190066002029054906101000a900461ffff1661ffff161115610731578091505b808061073c90612360565b9150506106a2565b5060006007828154811061075b5761075a612331565b5b90600052602060002090600202016040518060400160405290816000820160009054906101000a900473ffffffffffffffffffffffffffffffffffffffff1673ffffffffffffffffffffffffffffffffffffffff1673ffffffffffffffffffffffffffffffffffffffff1681526020016001820180546107da906123d8565b80601f0160208091040260200160405190810160405280929190818152602001828054610806906123d8565b80156108535780601f1061082857610100808354040283529160200191610853565b820191906000526020600020905b81548152906001019060200180831161083657829003601f168201915b5050505050815250509050600681908060018154018082558091505060019003906000526020600020906002020160009091909190915060008201518160000160006101000a81548173ffffffffffffffffffffffffffffffffffffffff021916908373ffffffffffffffffffffffffffffffffffffffff16021790555060208201518160010190805190602001906108ed929190611cf8565b505050600160046000836000015173ffffffffffffffffffffffffffffffffffffffff1673ffffffffffffffffffffffffffffffffffffffff16815260200190815260200160002060008282829054906101000a900461ffff16610951919061240a565b92506101000a81548161ffff021916908361ffff1602179055506001600560008282829054906101000a900461ffff1661098b919061240a565b92506101000a81548161ffff021916908361ffff160217905550806000015173ffffffffffffffffffffffffffffffffffffffff167f45edd59c4f5dea5f690cd524f1a6ea9cba17b09235c1bfaa2cea0d80bac5daba82602001516040516109f39190611f2f565b60405180910390a250505b610a06611a97565b60019050610a14565b600090505b90565b6000600680549050905090565b600c8181548110610a3457600080fd5b9060005260206000209060109182820401919006600202915054906101000a900461ffff1681565b60008060009054906101000a900473ffffffffffffffffffffffffffffffffffffffff1673ffffffffffffffffffffffffffffffffffffffff163373ffffffffffffffffffffffffffffffffffffffff1614610ab757600080fd5b8160018190555060019050919050565b60008161ffff16610ad733611665565b61ffff161015610b1c576040517f08c379a0000000000000000000000000000000000000000000000000000000008152600401610b139061248e565b60405180910390fd5b81600460003373ffffffffffffffffffffffffffffffffffffffff1673ffffffffffffffffffffffffffffffffffffffff16815260200190815260200160002060008282829054906101000a900461ffff16610b7891906124ae565b92506101000a81548161ffff021916908361ffff16021790555081600460008573ffffffffffffffffffffffffffffffffffffffff1673ffffffffffffffffffffffffffffffffffffffff16815260200190815260200160002060008282829054906101000a900461ffff16610bee919061240a565b92506101000a81548161ffff021916908361ffff1602179055508273ffffffffffffffffffffffffffffffffffffffff163373ffffffffffffffffffffffffffffffffffffffff167fae13b1b9025e718165e591dfa0112bd25bfc4707360823943febf4a50e79e0fd84604051610c659190612097565b60405180910390a36001905092915050565b60008161ffff16610c8733611665565b61ffff161015610ccc576040517f08c379a0000000000000000000000000000000000000000000000000000000008152600401610cc39061248e565b60405180910390fd5b81600260003373ffffffffffffffffffffffffffffffffffffffff1673ffffffffffffffffffffffffffffffffffffffff16815260200190815260200160002060008282829054906101000a900461ffff16610d2891906124ae565b92506101000a81548161ffff021916908361ffff16021790555081600260008573ffffffffffffffffffffffffffffffffffffffff1673ffffffffffffffffffffffffffffffffffffffff16815260200190815260200160002060008282829054906101000a900461ffff16610d9e919061240a565b92506101000a81548161ffff021916908361ffff1602179055508273ffffffffffffffffffffffffffffffffffffffff163373ffffffffffffffffffffffffffffffffffffffff167f77a6867a906a43f071dd51ecb754a9611814ec6659608ac73700ef7d7f42e1b984604051610e159190612097565b60405180910390a36001905092915050565b60046020528060005260406000206000915054906101000a900461ffff1681565b600560009054906101000a900461ffff1681565b60015481565b60008161ffff16610e7233611665565b61ffff161015610eb7576040517f08c379a0000000000000000000000000000000000000000000000000000000008152600401610eae9061248e565b60405180910390fd5b6007805490508310610efe576040517f08c379a0000000000000000000000000000000000000000000000000000000008152600401610ef59061252e565b60405180910390fd5b6202a300600154610f0f91906122db565b4211610f50576040517f08c379a0000000000000000000000000000000000000000000000000000000008152600401610f479061259a565b60405180910390fd5b620697806202a300600154610f6591906122db565b610f6f91906122db565b421115610fb1576040517f08c379a0000000000000000000000000000000000000000000000000000000008152600401610fa890612606565b60405180910390fd5b81600b60003373ffffffffffffffffffffffffffffffffffffffff1673ffffffffffffffffffffffffffffffffffffffff16815260200190815260200160002060008282829054906101000a900461ffff1661100d919061240a565b92506101000a81548161ffff021916908361ffff16021790555081600c848154811061103c5761103b612331565b5b90600052602060002090601091828204019190066002028282829054906101000a900461ffff1661106d919061240a565b92506101000a81548161ffff021916908361ffff160217905550600a339080600181540180825580915050600190039060005260206000200160009091909190916101000a81548173ffffffffffffffffffffffffffffffffffffffff021916908373ffffffffffffffffffffffffffffffffffffffff1602179055503373ffffffffffffffffffffffffffffffffffffffff167f1a5088a3ca5c105d23f497c6b2068517c63f032c4b02f658fcb02808fce9a5116007858154811061113657611135612331565b5b9060005260206000209060020201600101846040516111569291906126bb565b60405180910390a26001905092915050565b60606006828154811061117e5761117d612331565b5b9060005260206000209060020201600101805461119a906123d8565b80601f01602080910402602001604051908101604052809291908181526020018280546111c6906123d8565b80156112135780601f106111e857610100808354040283529160200191611213565b820191906000526020600020905b8154815290600101906020018083116111f657829003601f168201915b50505050509050919050565b6000600260003373ffffffffffffffffffffffffffffffffffffffff1673ffffffffffffffffffffffffffffffffffffffff16815260200190815260200160002060009054906101000a900461ffff1661ffff16600960003373ffffffffffffffffffffffffffffffffffffffff1673ffffffffffffffffffffffffffffffffffffffff16815260200190815260200160002060009054906101000a900461ffff1661ffff1610611305576040517f08c379a00000000000000000000000000000000000000000000000000000000081526004016112fc90612737565b60405180910390fd5b6001544211611349576040517f08c379a00000000000000000000000000000000000000000000000000000000081526004016113409061259a565b60405180910390fd5b6202a30060015461135a91906122db565b42111561139c576040517f08c379a000000000000000000000000000000000000000000000000000000000815260040161139390612606565b60405180910390fd5b6113a68383611c5f565b156113e6576040517f08c379a00000000000000000000000000000000000000000000000000000000081526004016113dd906127a3565b60405180910390fd5b6001600960003373ffffffffffffffffffffffffffffffffffffffff1673ffffffffffffffffffffffffffffffffffffffff16815260200190815260200160002060008282829054906101000a900461ffff16611443919061240a565b92506101000a81548161ffff021916908361ffff160217905550600760405180604001604052808673ffffffffffffffffffffffffffffffffffffffff16815260200185858080601f016020809104026020016040519081016040528093929190818152602001838380828437600081840152601f19601f82011690508083019250505050505050815250908060018154018082558091505060019003906000526020600020906002020160009091909190915060008201518160000160006101000a81548173ffffffffffffffffffffffffffffffffffffffff021916908373ffffffffffffffffffffffffffffffffffffffff160217905550602082015181600101908051906020019061155a929190611cf8565b5050506008339080600181540180825580915050600190039060005260206000200160009091909190916101000a81548173ffffffffffffffffffffffffffffffffffffffff021916908373ffffffffffffffffffffffffffffffffffffffff160217905550600c6001816001815401808255809150500390600052602060002090601091828204019190066002029054906101000a9050508373ffffffffffffffffffffffffffffffffffffffff163373ffffffffffffffffffffffffffffffffffffffff167f86b9bd97bdb1aa709e139f61f71cef4092d6d19d5f94dc1ecdc98402bdc09a2585856040516116529291906127ff565b60405180910390a3600190509392505050565b6000600b60008373ffffffffffffffffffffffffffffffffffffffff1673ffffffffffffffffffffffffffffffffffffffff16815260200190815260200160002060009054906101000a900461ffff16600460008473ffffffffffffffffffffffffffffffffffffffff1673ffffffffffffffffffffffffffffffffffffffff16815260200190815260200160002060009054906101000a900461ffff16600260008573ffffffffffffffffffffffffffffffffffffffff1673ffffffffffffffffffffffffffffffffffffffff16815260200190815260200160002060009054906101000a900461ffff1661175b919061240a565b61176591906124ae565b9050919050565b60008054906101000a900473ffffffffffffffffffffffffffffffffffffffff1681565b60026020528060005260406000206000915054906101000a900461ffff1681565b600681815481106117c157600080fd5b90600052602060002090600202016000915090508060000160009054906101000a900473ffffffffffffffffffffffffffffffffffffffff169080600101805461180a906123d8565b80601f0160208091040260200160405190810160405280929190818152602001828054611836906123d8565b80156118835780601f1061185857610100808354040283529160200191611883565b820191906000526020600020905b81548152906001019060200180831161186657829003601f168201915b5050505050905082565b6000600780549050905090565b6000600682815481106118b0576118af612331565b5b906000526020600020906002020160000160009054906101000a900473ffffffffffffffffffffffffffffffffffffffff169050919050565b6060600782815481106118ff576118fe612331565b5b9060005260206000209060020201600101805461191b906123d8565b80601f0160208091040260200160405190810160405280929190818152602001828054611947906123d8565b80156119945780601f1061196957610100808354040283529160200191611994565b820191906000526020600020905b81548152906001019060200180831161197757829003601f168201915b50505050509050919050565b600360009054906101000a900461ffff1681565b6206978081565b600781815481106119cb57600080fd5b90600052602060002090600202016000915090508060000160009054906101000a900473ffffffffffffffffffffffffffffffffffffffff1690806001018054611a14906123d8565b80601f0160208091040260200160405190810160405280929190818152602001828054611a40906123d8565b8015611a8d5780601f10611a6257610100808354040283529160200191611a8d565b820191906000526020600020905b815481529060010190602001808311611a7057829003601f168201915b5050505050905082565b60076000611aa59190611d7e565b60005b600880549050811015611b56576009600060088381548110611acd57611acc612331565b5b9060005260206000200160009054906101000a900473ffffffffffffffffffffffffffffffffffffffff1673ffffffffffffffffffffffffffffffffffffffff1673ffffffffffffffffffffffffffffffffffffffff16815260200190815260200160002060006101000a81549061ffff02191690558080611b4e90612360565b915050611aa8565b5060086000611b659190611da2565b60005b600a80549050811015611c1657600b6000600a8381548110611b8d57611b8c612331565b5b9060005260206000200160009054906101000a900473ffffffffffffffffffffffffffffffffffffffff1673ffffffffffffffffffffffffffffffffffffffff1673ffffffffffffffffffffffffffffffffffffffff16815260200190815260200160002060006101000a81549061ffff02191690558080611c0e90612360565b915050611b68565b50600a6000611c259190611da2565b600c6000611c339190611dc3565b620697806202a300611c4591906122db565b60016000828254611c5691906122db565b92505081905550565b6000808383604051611c72929190612853565b6040518091039020905060005b600780549050811015611ceb5760078181548110611ca057611c9f612331565b5b9060005260206000209060020201600101604051611cbe9190612900565b6040518091039020821415611cd857600192505050611cf2565b8080611ce390612360565b915050611c7f565b5060009150505b92915050565b828054611d04906123d8565b90600052602060002090601f016020900481019282611d265760008555611d6d565b82601f10611d3f57805160ff1916838001178555611d6d565b82800160010185558215611d6d579182015b82811115611d6c578251825591602001919060010190611d51565b5b509050611d7a9190611deb565b5090565b5080546000825560020290600052602060002090810190611d9f9190611e08565b50565b5080546000825590600052602060002090810190611dc09190611deb565b50565b50805460008255600f016010900490600052602060002090810190611de89190611deb565b50565b5b80821115611e04576000816000905550600101611dec565b5090565b5b80821115611e5257600080820160006101000a81549073ffffffffffffffffffffffffffffffffffffffff0219169055600182016000611e499190611e56565b50600201611e09565b5090565b508054611e62906123d8565b6000825580601f10611e745750611e93565b601f016020900490600052602060002090810190611e929190611deb565b5b50565b600081519050919050565b600082825260208201905092915050565b60005b83811015611ed0578082015181840152602081019050611eb5565b83811115611edf576000848401525b50505050565b6000601f19601f8301169050919050565b6000611f0182611e96565b611f0b8185611ea1565b9350611f1b818560208601611eb2565b611f2481611ee5565b840191505092915050565b60006020820190508181036000830152611f498184611ef6565b905092915050565b6000819050919050565b611f6481611f51565b82525050565b6000602082019050611f7f6000830184611f5b565b92915050565b600080fd5b600080fd5b611f9881611f51565b8114611fa357600080fd5b50565b600081359050611fb581611f8f565b92915050565b600060208284031215611fd157611fd0611f85565b5b6000611fdf84828501611fa6565b91505092915050565b600073ffffffffffffffffffffffffffffffffffffffff82169050919050565b600061201382611fe8565b9050919050565b61202381612008565b82525050565b600060208201905061203e600083018461201a565b92915050565b60008115159050919050565b61205981612044565b82525050565b60006020820190506120746000830184612050565b92915050565b600061ffff82169050919050565b6120918161207a565b82525050565b60006020820190506120ac6000830184612088565b92915050565b6120bb81612008565b81146120c657600080fd5b50565b6000813590506120d8816120b2565b92915050565b6120e78161207a565b81146120f257600080fd5b50565b600081359050612104816120de565b92915050565b6000806040838503121561212157612120611f85565b5b600061212f858286016120c9565b9250506020612140858286016120f5565b9150509250929050565b6000602082840312156121605761215f611f85565b5b600061216e848285016120c9565b91505092915050565b6000806040838503121561218e5761218d611f85565b5b600061219c85828601611fa6565b92505060206121ad858286016120f5565b9150509250929050565b600080fd5b600080fd5b600080fd5b60008083601f8401126121dc576121db6121b7565b5b8235905067ffffffffffffffff8111156121f9576121f86121bc565b5b602083019150836001820283011115612215576122146121c1565b5b9250929050565b60008060006040848603121561223557612234611f85565b5b6000612243868287016120c9565b935050602084013567ffffffffffffffff81111561226457612263611f8a565b5b612270868287016121c6565b92509250509250925092565b6000604082019050612291600083018561201a565b81810360208301526122a38184611ef6565b90509392505050565b7f4e487b7100000000000000000000000000000000000000000000000000000000600052601160045260246000fd5b60006122e682611f51565b91506122f183611f51565b9250827fffffffffffffffffffffffffffffffffffffffffffffffffffffffffffffffff03821115612326576123256122ac565b5b828201905092915050565b7f4e487b7100000000000000000000000000000000000000000000000000000000600052603260045260246000fd5b600061236b82611f51565b91507fffffffffffffffffffffffffffffffffffffffffffffffffffffffffffffffff82141561239e5761239d6122ac565b5b600182019050919050565b7f4e487b7100000000000000000000000000000000000000000000000000000000600052602260045260246000fd5b600060028204905060018216806123f057607f821691505b60208210811415612404576124036123a9565b5b50919050565b60006124158261207a565b91506124208361207a565b92508261ffff03821115612437576124366122ac565b5b828201905092915050565b7f746f6f206665772072656d61696e696e67000000000000000000000000000000600082015250565b6000612478601183611ea1565b915061248382612442565b602082019050919050565b600060208201905081810360008301526124a78161246b565b9050919050565b60006124b98261207a565b91506124c48361207a565b9250828210156124d7576124d66122ac565b5b828203905092915050565b7f696e76616c6964206e6f6d696e65650000000000000000000000000000000000600082015250565b6000612518600f83611ea1565b9150612523826124e2565b602082019050919050565b600060208201905081810360008301526125478161250b565b9050919050565b7f746f6f206561726c790000000000000000000000000000000000000000000000600082015250565b6000612584600983611ea1565b915061258f8261254e565b602082019050919050565b600060208201905081810360008301526125b381612577565b9050919050565b7f746f6f206c617465000000000000000000000000000000000000000000000000600082015250565b60006125f0600883611ea1565b91506125fb826125ba565b602082019050919050565b6000602082019050818103600083015261261f816125e3565b9050919050565b60008190508160005260206000209050919050565b60008154612648816123d8565b6126528186611ea1565b9450600182166000811461266d576001811461267f576126b2565b60ff19831686526020860193506126b2565b61268885612626565b60005b838110156126aa5781548189015260018201915060208101905061268b565b808801955050505b50505092915050565b600060408201905081810360008301526126d5818561263b565b90506126e46020830184612088565b9392505050565b7f746f6f206d616e79206e6f6d696e6174696f6e73000000000000000000000000600082015250565b6000612721601483611ea1565b915061272c826126eb565b602082019050919050565b6000602082019050818103600083015261275081612714565b9050919050565b7f616c7265616479206e6f6d696e61746500000000000000000000000000000000600082015250565b600061278d601083611ea1565b915061279882612757565b602082019050919050565b600060208201905081810360008301526127bc81612780565b9050919050565b82818337600083830152505050565b60006127de8385611ea1565b93506127eb8385846127c3565b6127f483611ee5565b840190509392505050565b6000602082019050818103600083015261281a8184866127d2565b90509392505050565b600081905092915050565b600061283a8385612823565b93506128478385846127c3565b82840190509392505050565b600061286082848661282e565b91508190509392505050565b60008190508160005260206000209050919050565b6000815461288e816123d8565b6128988186612823565b945060018216600081146128b357600181146128c4576128f7565b60ff198316865281860193506128f7565b6128cd8561286c565b60005b838110156128ef578154818901526001820191506020810190506128d0565b838801955050505b50505092915050565b600061290c8284612881565b91508190509291505056fea2646970667358221220340a1cf63b34347435c56015200909676374cde3bf6cccd1d91569d873543daa64736f6c634300080b0033",
  "immutableReferences": {},
  "source": "pragma solidity >=0.4.22 <0.9.0;\n\ncontract Token {\n\n    struct Article {\n        address writer;\n        string url;\n    }\n\n    string public constant name = \"OsinToken\";\n    address public owner;\n\n    // 2 days for nominations\n    uint public constant seconds_for_nominations = 172800;\n    // 5 days for voting\n    uint public constant seconds_for_voting = 432000;\n    // end of last voting period\n    uint public startTime;\n\n    mapping(address => uint16) public goveranceBalance;\n    uint16 public goveranceSupply;\n\n    mapping(address => uint16) public rewardBalance;\n    uint16 public rewardSupply;\n\n    // record of past winners\n    Article[] public winners;\n\n    // articles to be voted on this week\n    Article[] public nominees;\n\n    // nominations made by each address\n    address[] nominators;\n    mapping(address => uint16) nominationsMade;\n\n    // number of votes cast by each address\n    address[] voters;\n    mapping(address => uint16) votesCast;\n\n    // cumulative votes for each nominee\n    uint16[] public voteCounts;\n\n    constructor(uint16 _supply, uint _start) {\n        owner = msg.sender;\n        goveranceSupply = _supply;\n        goveranceBalance[msg.sender] = _supply;\n        startTime = _start;\n        rewardSupply = 0;\n\n        emit Transfer_Goverance(address(0), msg.sender, _supply);\n    }\n\n    event Nominate(address indexed _nominator, address indexed _writer, string _url);\n    event Vote(address indexed _voter, string _url, uint16 _value);\n    event Transfer_Goverance(address indexed _from, address indexed _to, uint16 _value);\n    event Transfer_Reward(address indexed _from, address indexed _to, uint16 _value);\n    event Winner(address indexed _writer, string _url);\n\n    function setStartTime(uint _time) public returns (bool) {\n        require(msg.sender == owner);\n        startTime = _time;\n        return true;\n    }\n\n    function nomineesWriter(uint _index) public view returns (address) {\n        return nominees[_index].writer;\n    }\n\n    function nomineesUrl(uint _index) public view returns (string memory) {\n        return nominees[_index].url;\n    }\n\n    function nomineesLength() public view returns (uint) {\n        return nominees.length;\n    }\n\n    function winnersWriter(uint _index) public view returns (address) {\n        return winners[_index].writer;\n    }\n\n    function winnersUrl(uint _index) public view returns (string memory) {\n        return winners[_index].url;\n    }\n\n    function winnersLength() public view returns (uint) {\n        return winners.length;\n    }\n\n    function votingEnds() public view returns (uint) {\n        return startTime + seconds_for_nominations + seconds_for_voting;\n    }\n\n    function votesRemaining(address _voter) public view returns (uint16) {\n        return goveranceBalance[_voter] + rewardBalance[_voter] - votesCast[_voter];\n    }\n\n    function submitNomination(address _writer, string calldata _url) public returns (bool) {\n        require(nominationsMade[msg.sender] < goveranceBalance[msg.sender], \"too many nominations\");\n        require(block.timestamp > startTime, \"too early\");\n        require(block.timestamp <= startTime + seconds_for_nominations, \"too late\");\n        require(!alreadyNominated(_url), \"already nominate\");\n\n        nominationsMade[msg.sender] += 1;\n        nominees.push(Article(_writer, _url));\n        nominators.push(msg.sender);\n        voteCounts.push();\n\n        emit Nominate(msg.sender, _writer, _url);\n        return true;\n    }\n\n    function castVotes(uint _index, uint16 _value) public returns (bool) {\n        require(votesRemaining(msg.sender) >= _value, \"too few remaining\");\n        require(_index < nominees.length, \"invalid nominee\");\n        require(block.timestamp > startTime + seconds_for_nominations, \"too early\");\n        require(block.timestamp <= startTime + seconds_for_nominations + seconds_for_voting, \"too late\");\n\n        votesCast[msg.sender] += _value;\n        voteCounts[_index] += _value;\n        voters.push(msg.sender);\n\n        emit Vote(msg.sender, nominees[_index].url, _value);\n        return true;\n    }\n\n    function transferGoverance(address _to, uint16 _value) public returns (bool) {\n        require(votesRemaining(msg.sender) >= _value, \"too few remaining\");\n\n        goveranceBalance[msg.sender] -= _value;\n        goveranceBalance[_to] += _value;\n\n        emit Transfer_Goverance(msg.sender, _to, _value);\n        return true;\n    }\n\n    function transferReward(address _to, uint16 _value) public returns (bool) {\n        require(votesRemaining(msg.sender) >= _value, \"too few remaining\");\n\n        rewardBalance[msg.sender] -= _value;\n        rewardBalance[_to] += _value;\n\n        emit Transfer_Reward(msg.sender, _to, _value);\n        return true;\n    }\n\n    function updateWinner() public returns (bool) {\n        if (block.timestamp > startTime + seconds_for_nominations + seconds_for_voting) {\n            if (nominees.length > 0) {\n                uint index = 0;\n                for (uint i = 1; i < nominees.length; i++) {\n                    if (voteCounts[i] > voteCounts[index]) {\n                        index = i;\n                    }\n                }\n                Article memory winner = nominees[index];\n\n                winners.push(winner);\n                rewardBalance[winner.writer] += 1;\n                rewardSupply += 1;\n                emit Winner(winner.writer, winner.url); \n            }\n           \n            resetVoting();\n            return true;\n        }\n        return false;\n    }\n\n    function resetVoting() private {\n        delete nominees;\n\n        for (uint i = 0; i < nominators.length; i++) {\n            delete nominationsMade[nominators[i]];\n        }\n        delete nominators;\n\n        for (uint i = 0; i < voters.length; i++) {\n            delete votesCast[voters[i]];\n        }\n        delete voters;\n\n        delete voteCounts;\n\n        startTime += seconds_for_nominations + seconds_for_voting;\n    }\n\n    function alreadyNominated(string calldata _url) private view returns (bool) {\n        bytes32 hashVal = keccak256(bytes(_url));\n        for (uint i = 0; i < nominees.length; i++) {\n            if (hashVal == keccak256(bytes(nominees[i].url))) {\n                return true;\n            }\n        }\n        return false;\n    }\n    \n}\n",
  "sourcePath": "/home/liamdj/Desktop/OsinToken/contracts/bellingcoin.sol",
  "compiler": {
    "name": "solc",
    "version": "0.8.11+commit.d7f03943.Emscripten.clang"
  },
  "schemaVersion": "3.4.5",
  "updatedAt": "2022-04-28T20:28:26.289Z",
  "networkType": "ethereum",
  "devdoc": {
    "kind": "dev",
    "methods": {},
    "version": 1
  },
  "userdoc": {
    "kind": "user",
    "methods": {},
    "version": 1
  }
}