{
  "contractName": "Token",
  "abi": [
    {
      "inputs": [
        {
          "internalType": "uint16",
          "name": "_supply",
          "type": "uint16"
        },
        {
          "internalType": "uint256",
          "name": "_start",
          "type": "uint256"
        }
      ],
      "stateMutability": "nonpayable",
      "type": "constructor"
    },
    {
      "anonymous": false,
      "inputs": [
        {
          "indexed": true,
          "internalType": "address",
          "name": "_nominator",
          "type": "address"
        },
        {
          "indexed": true,
          "internalType": "address",
          "name": "_writer",
          "type": "address"
        },
        {
          "indexed": false,
          "internalType": "string",
          "name": "_url",
          "type": "string"
        }
      ],
      "name": "Nominate",
      "type": "event"
    },
    {
      "anonymous": false,
      "inputs": [
        {
          "indexed": true,
          "internalType": "address",
          "name": "_from",
          "type": "address"
        },
        {
          "indexed": true,
          "internalType": "address",
          "name": "_to",
          "type": "address"
        },
        {
          "indexed": false,
          "internalType": "uint16",
          "name": "_value",
          "type": "uint16"
        }
      ],
      "name": "Transfer_Goverance",
      "type": "event"
    },
    {
      "anonymous": false,
      "inputs": [
        {
          "indexed": true,
          "internalType": "address",
          "name": "_from",
          "type": "address"
        },
        {
          "indexed": true,
          "internalType": "address",
          "name": "_to",
          "type": "address"
        },
        {
          "indexed": false,
          "internalType": "uint16",
          "name": "_value",
          "type": "uint16"
        }
      ],
      "name": "Transfer_Reward",
      "type": "event"
    },
    {
      "anonymous": false,
      "inputs": [
        {
          "indexed": true,
          "internalType": "address",
          "name": "_voter",
          "type": "address"
        },
        {
          "indexed": false,
          "internalType": "string",
          "name": "_url",
          "type": "string"
        },
        {
          "indexed": false,
          "internalType": "uint16",
          "name": "_value",
          "type": "uint16"
        }
      ],
      "name": "Vote",
      "type": "event"
    },
    {
      "anonymous": false,
      "inputs": [
        {
          "indexed": true,
          "internalType": "address",
          "name": "_writer",
          "type": "address"
        },
        {
          "indexed": false,
          "internalType": "string",
          "name": "_url",
          "type": "string"
        }
      ],
      "name": "Winner",
      "type": "event"
    },
    {
      "inputs": [
        {
          "internalType": "address",
          "name": "",
          "type": "address"
        }
      ],
      "name": "goveranceBalance",
      "outputs": [
        {
          "internalType": "uint16",
          "name": "",
          "type": "uint16"
        }
      ],
      "stateMutability": "view",
      "type": "function"
    },
    {
      "inputs": [],
      "name": "goveranceSupply",
      "outputs": [
        {
          "internalType": "uint16",
          "name": "",
          "type": "uint16"
        }
      ],
      "stateMutability": "view",
      "type": "function"
    },
    {
      "inputs": [],
      "name": "name",
      "outputs": [
        {
          "internalType": "string",
          "name": "",
          "type": "string"
        }
      ],
      "stateMutability": "view",
      "type": "function"
    },
    {
      "inputs": [
        {
          "internalType": "uint256",
          "name": "",
          "type": "uint256"
        }
      ],
      "name": "nominees",
      "outputs": [
        {
          "internalType": "address",
          "name": "writer",
          "type": "address"
        },
        {
          "internalType": "string",
          "name": "url",
          "type": "string"
        }
      ],
      "stateMutability": "view",
      "type": "function"
    },
    {
      "inputs": [
        {
          "internalType": "address",
          "name": "",
          "type": "address"
        }
      ],
      "name": "rewardBalance",
      "outputs": [
        {
          "internalType": "uint16",
          "name": "",
          "type": "uint16"
        }
      ],
      "stateMutability": "view",
      "type": "function"
    },
    {
      "inputs": [],
      "name": "rewardSupply",
      "outputs": [
        {
          "internalType": "uint16",
          "name": "",
          "type": "uint16"
        }
      ],
      "stateMutability": "view",
      "type": "function"
    },
    {
      "inputs": [],
      "name": "seconds_for_nominations",
      "outputs": [
        {
          "internalType": "uint256",
          "name": "",
          "type": "uint256"
        }
      ],
      "stateMutability": "view",
      "type": "function"
    },
    {
      "inputs": [],
      "name": "seconds_for_voting",
      "outputs": [
        {
          "internalType": "uint256",
          "name": "",
          "type": "uint256"
        }
      ],
      "stateMutability": "view",
      "type": "function"
    },
    {
      "inputs": [],
      "name": "startTime",
      "outputs": [
        {
          "internalType": "uint256",
          "name": "",
          "type": "uint256"
        }
      ],
      "stateMutability": "view",
      "type": "function"
    },
    {
      "inputs": [
        {
          "internalType": "uint256",
          "name": "",
          "type": "uint256"
        }
      ],
      "name": "voteCounts",
      "outputs": [
        {
          "internalType": "uint16",
          "name": "",
          "type": "uint16"
        }
      ],
      "stateMutability": "view",
      "type": "function"
    },
    {
      "inputs": [
        {
          "internalType": "uint256",
          "name": "",
          "type": "uint256"
        }
      ],
      "name": "winners",
      "outputs": [
        {
          "internalType": "address",
          "name": "writer",
          "type": "address"
        },
        {
          "internalType": "string",
          "name": "url",
          "type": "string"
        }
      ],
      "stateMutability": "view",
      "type": "function"
    },
    {
      "inputs": [
        {
          "internalType": "uint256",
          "name": "_index",
          "type": "uint256"
        }
      ],
      "name": "nomineesWriter",
      "outputs": [
        {
          "internalType": "address",
          "name": "",
          "type": "address"
        }
      ],
      "stateMutability": "view",
      "type": "function"
    },
    {
      "inputs": [
        {
          "internalType": "uint256",
          "name": "_index",
          "type": "uint256"
        }
      ],
      "name": "nomineesUrl",
      "outputs": [
        {
          "internalType": "string",
          "name": "",
          "type": "string"
        }
      ],
      "stateMutability": "view",
      "type": "function"
    },
    {
      "inputs": [],
      "name": "nomineesLength",
      "outputs": [
        {
          "internalType": "uint256",
          "name": "",
          "type": "uint256"
        }
      ],
      "stateMutability": "view",
      "type": "function"
    },
    {
      "inputs": [
        {
          "internalType": "uint256",
          "name": "_index",
          "type": "uint256"
        }
      ],
      "name": "winnersWriter",
      "outputs": [
        {
          "internalType": "address",
          "name": "",
          "type": "address"
        }
      ],
      "stateMutability": "view",
      "type": "function"
    },
    {
      "inputs": [
        {
          "internalType": "uint256",
          "name": "_index",
          "type": "uint256"
        }
      ],
      "name": "winnersUrl",
      "outputs": [
        {
          "internalType": "string",
          "name": "",
          "type": "string"
        }
      ],
      "stateMutability": "view",
      "type": "function"
    },
    {
      "inputs": [],
      "name": "winnersLength",
      "outputs": [
        {
          "internalType": "uint256",
          "name": "",
          "type": "uint256"
        }
      ],
      "stateMutability": "view",
      "type": "function"
    },
    {
      "inputs": [],
      "name": "votingEnds",
      "outputs": [
        {
          "internalType": "uint256",
          "name": "",
          "type": "uint256"
        }
      ],
      "stateMutability": "view",
      "type": "function"
    },
    {
      "inputs": [
        {
          "internalType": "address",
          "name": "_voter",
          "type": "address"
        }
      ],
      "name": "votesRemaining",
      "outputs": [
        {
          "internalType": "uint16",
          "name": "",
          "type": "uint16"
        }
      ],
      "stateMutability": "view",
      "type": "function"
    },
    {
      "inputs": [
        {
          "internalType": "address",
          "name": "_writer",
          "type": "address"
        },
        {
          "internalType": "string",
          "name": "_url",
          "type": "string"
        }
      ],
      "name": "submitNomination",
      "outputs": [
        {
          "internalType": "bool",
          "name": "",
          "type": "bool"
        }
      ],
      "stateMutability": "nonpayable",
      "type": "function"
    },
    {
      "inputs": [
        {
          "internalType": "uint256",
          "name": "_index",
          "type": "uint256"
        },
        {
          "internalType": "uint16",
          "name": "_value",
          "type": "uint16"
        }
      ],
      "name": "castVotes",
      "outputs": [
        {
          "internalType": "bool",
          "name": "",
          "type": "bool"
        }
      ],
      "stateMutability": "nonpayable",
      "type": "function"
    },
    {
      "inputs": [
        {
          "internalType": "address",
          "name": "_to",
          "type": "address"
        },
        {
          "internalType": "uint16",
          "name": "_value",
          "type": "uint16"
        }
      ],
      "name": "transferGoverance",
      "outputs": [
        {
          "internalType": "bool",
          "name": "",
          "type": "bool"
        }
      ],
      "stateMutability": "nonpayable",
      "type": "function"
    },
    {
      "inputs": [
        {
          "internalType": "address",
          "name": "_to",
          "type": "address"
        },
        {
          "internalType": "uint16",
          "name": "_value",
          "type": "uint16"
        }
      ],
      "name": "transferReward",
      "outputs": [
        {
          "internalType": "bool",
          "name": "",
          "type": "bool"
        }
      ],
      "stateMutability": "nonpayable",
      "type": "function"
    },
    {
      "inputs": [],
      "name": "updateWinner",
      "outputs": [
        {
          "internalType": "bool",
          "name": "",
          "type": "bool"
        }
      ],
      "stateMutability": "nonpayable",
      "type": "function"
    }
  ],
  "bytecode": "0x60806040523480156200001157600080fd5b50604051620029ea380380620029ea83398181016040528101906200003791906200015a565b81600260006101000a81548161ffff021916908361ffff16021790555081600160003373ffffffffffffffffffffffffffffffffffffffff1673ffffffffffffffffffffffffffffffffffffffff16815260200190815260200160002060006101000a81548161ffff021916908361ffff160217905550806000819055506000600460006101000a81548161ffff021916908361ffff1602179055505050620001a1565b600080fd5b600061ffff82169050919050565b620000f981620000e0565b81146200010557600080fd5b50565b6000815190506200011981620000ee565b92915050565b6000819050919050565b62000134816200011f565b81146200014057600080fd5b50565b600081519050620001548162000129565b92915050565b60008060408385031215620001745762000173620000db565b5b6000620001848582860162000108565b9250506020620001978582860162000143565b9150509250929050565b61283980620001b16000396000f3fe608060405234801561001057600080fd5b50600436106101585760003560e01c80637b5ea02b116100c3578063aebd9dd41161007c578063aebd9dd414610440578063c72303571461045e578063d1fe8b8f1461048e578063d20e6df4146104be578063df7b637b146104dc578063eec6b91e146104fa57610158565b80637b5ea02b1461031f5780637c9f512a1461034f57806384ecc4db1461037f578063885515da146103af57806394be82ba146103df578063a2fb11751461040f57610158565b80633c3a220d116101155780633c3a220d146102235780633e286cca14610253578063527834a71461028357806367b40cf7146102b35780636b0c341b146102e357806378e979251461030157610158565b806306fdde031461015d5780631ab6a1811461017b578063280ee4ee146101995780632c3c2fd2146101b75780633376def8146101e75780633b52f2be14610205575b600080fd5b61016561052b565b6040516101729190611e1b565b60405180910390f35b610183610564565b6040516101909190611e56565b60405180910390f35b6101a161056b565b6040516101ae9190611e56565b60405180910390f35b6101d160048036038101906101cc9190611ea7565b610591565b6040516101de9190611f15565b60405180910390f35b6101ef6105e0565b6040516101fc9190611f4b565b60405180910390f35b61020d610993565b60405161021a9190611e56565b60405180910390f35b61023d60048036038101906102389190611ea7565b6109a0565b60405161024a9190611f83565b60405180910390f35b61026d60048036038101906102689190611ff6565b6109d8565b60405161027a9190611f4b565b60405180910390f35b61029d60048036038101906102989190611ff6565b610b88565b6040516102aa9190611f4b565b60405180910390f35b6102cd60048036038101906102c89190612036565b610d38565b6040516102da9190611f83565b60405180910390f35b6102eb610d59565b6040516102f89190611f83565b60405180910390f35b610309610d6d565b6040516103169190611e56565b60405180910390f35b61033960048036038101906103349190612063565b610d73565b6040516103469190611f4b565b60405180910390f35b61036960048036038101906103649190611ea7565b611079565b6040516103769190611e1b565b60405180910390f35b61039960048036038101906103949190612108565b611130565b6040516103a69190611f4b565b60405180910390f35b6103c960048036038101906103c49190612036565b611576565b6040516103d69190611f83565b60405180910390f35b6103f960048036038101906103f49190612036565b61167d565b6040516104069190611f83565b60405180910390f35b61042960048036038101906104249190611ea7565b61169e565b604051610437929190612168565b60405180910390f35b61044861177a565b6040516104559190611e56565b60405180910390f35b61047860048036038101906104739190611ea7565b611787565b6040516104859190611f15565b60405180910390f35b6104a860048036038101906104a39190611ea7565b6117d6565b6040516104b59190611e1b565b60405180910390f35b6104c661188d565b6040516104d39190611f83565b60405180910390f35b6104e46118a1565b6040516104f19190611e56565b60405180910390f35b610514600480360381019061050f9190611ea7565b6118a8565b604051610522929190612168565b60405180910390f35b6040518060400160405280600b81526020017f42656c6c696e67636f696e00000000000000000000000000000000000000000081525081565b6202a30081565b6000620697806202a30060005461058291906121c7565b61058c91906121c7565b905090565b6000600682815481106105a7576105a661221d565b5b906000526020600020906002020160000160009054906101000a900473ffffffffffffffffffffffffffffffffffffffff169050919050565b6000620697806202a3006000546105f791906121c7565b61060191906121c7565b42111561098b576000600680549050111561097a57600080600190505b6006805490508110156106c057600b828154811061063f5761063e61221d565b5b90600052602060002090601091828204019190066002029054906101000a900461ffff1661ffff16600b828154811061067b5761067a61221d565b5b90600052602060002090601091828204019190066002029054906101000a900461ffff1661ffff1611156106ad578091505b80806106b89061224c565b91505061061e565b506000600682815481106106d7576106d661221d565b5b90600052602060002090600202016040518060400160405290816000820160009054906101000a900473ffffffffffffffffffffffffffffffffffffffff1673ffffffffffffffffffffffffffffffffffffffff1673ffffffffffffffffffffffffffffffffffffffff168152602001600182018054610756906122c4565b80601f0160208091040260200160405190810160405280929190818152602001828054610782906122c4565b80156107cf5780601f106107a4576101008083540402835291602001916107cf565b820191906000526020600020905b8154815290600101906020018083116107b257829003601f168201915b5050505050815250509050600581908060018154018082558091505060019003906000526020600020906002020160009091909190915060008201518160000160006101000a81548173ffffffffffffffffffffffffffffffffffffffff021916908373ffffffffffffffffffffffffffffffffffffffff1602179055506020820151816001019080519060200190610869929190611be4565b505050600160036000836000015173ffffffffffffffffffffffffffffffffffffffff1673ffffffffffffffffffffffffffffffffffffffff16815260200190815260200160002060008282829054906101000a900461ffff166108cd91906122f6565b92506101000a81548161ffff021916908361ffff1602179055506001600460008282829054906101000a900461ffff1661090791906122f6565b92506101000a81548161ffff021916908361ffff160217905550806000015173ffffffffffffffffffffffffffffffffffffffff167f45edd59c4f5dea5f690cd524f1a6ea9cba17b09235c1bfaa2cea0d80bac5daba826020015160405161096f9190611e1b565b60405180910390a250505b610982611984565b60019050610990565b600090505b90565b6000600580549050905090565b600b81815481106109b057600080fd5b9060005260206000209060109182820401919006600202915054906101000a900461ffff1681565b60008161ffff166109e833611576565b61ffff161015610a2d576040517f08c379a0000000000000000000000000000000000000000000000000000000008152600401610a249061237a565b60405180910390fd5b81600360003373ffffffffffffffffffffffffffffffffffffffff1673ffffffffffffffffffffffffffffffffffffffff16815260200190815260200160002060008282829054906101000a900461ffff16610a89919061239a565b92506101000a81548161ffff021916908361ffff16021790555081600360008573ffffffffffffffffffffffffffffffffffffffff1673ffffffffffffffffffffffffffffffffffffffff16815260200190815260200160002060008282829054906101000a900461ffff16610aff91906122f6565b92506101000a81548161ffff021916908361ffff1602179055508273ffffffffffffffffffffffffffffffffffffffff163373ffffffffffffffffffffffffffffffffffffffff167fae13b1b9025e718165e591dfa0112bd25bfc4707360823943febf4a50e79e0fd84604051610b769190611f83565b60405180910390a36001905092915050565b60008161ffff16610b9833611576565b61ffff161015610bdd576040517f08c379a0000000000000000000000000000000000000000000000000000000008152600401610bd49061237a565b60405180910390fd5b81600160003373ffffffffffffffffffffffffffffffffffffffff1673ffffffffffffffffffffffffffffffffffffffff16815260200190815260200160002060008282829054906101000a900461ffff16610c39919061239a565b92506101000a81548161ffff021916908361ffff16021790555081600160008573ffffffffffffffffffffffffffffffffffffffff1673ffffffffffffffffffffffffffffffffffffffff16815260200190815260200160002060008282829054906101000a900461ffff16610caf91906122f6565b92506101000a81548161ffff021916908361ffff1602179055508273ffffffffffffffffffffffffffffffffffffffff163373ffffffffffffffffffffffffffffffffffffffff167f77a6867a906a43f071dd51ecb754a9611814ec6659608ac73700ef7d7f42e1b984604051610d269190611f83565b60405180910390a36001905092915050565b60036020528060005260406000206000915054906101000a900461ffff1681565b600460009054906101000a900461ffff1681565b60005481565b60008161ffff16610d8333611576565b61ffff161015610dc8576040517f08c379a0000000000000000000000000000000000000000000000000000000008152600401610dbf9061237a565b60405180910390fd5b6006805490508310610e0f576040517f08c379a0000000000000000000000000000000000000000000000000000000008152600401610e069061241a565b60405180910390fd5b6202a300600054610e2091906121c7565b4211610e61576040517f08c379a0000000000000000000000000000000000000000000000000000000008152600401610e5890612486565b60405180910390fd5b620697806202a300600054610e7691906121c7565b610e8091906121c7565b421115610ec2576040517f08c379a0000000000000000000000000000000000000000000000000000000008152600401610eb9906124f2565b60405180910390fd5b81600a60003373ffffffffffffffffffffffffffffffffffffffff1673ffffffffffffffffffffffffffffffffffffffff16815260200190815260200160002060008282829054906101000a900461ffff16610f1e91906122f6565b92506101000a81548161ffff021916908361ffff16021790555081600b8481548110610f4d57610f4c61221d565b5b90600052602060002090601091828204019190066002028282829054906101000a900461ffff16610f7e91906122f6565b92506101000a81548161ffff021916908361ffff1602179055506009339080600181540180825580915050600190039060005260206000200160009091909190916101000a81548173ffffffffffffffffffffffffffffffffffffffff021916908373ffffffffffffffffffffffffffffffffffffffff1602179055503373ffffffffffffffffffffffffffffffffffffffff167f1a5088a3ca5c105d23f497c6b2068517c63f032c4b02f658fcb02808fce9a511600685815481106110475761104661221d565b5b9060005260206000209060020201600101846040516110679291906125a7565b60405180910390a26001905092915050565b60606005828154811061108f5761108e61221d565b5b906000526020600020906002020160010180546110ab906122c4565b80601f01602080910402602001604051908101604052809291908181526020018280546110d7906122c4565b80156111245780601f106110f957610100808354040283529160200191611124565b820191906000526020600020905b81548152906001019060200180831161110757829003601f168201915b50505050509050919050565b6000600160003373ffffffffffffffffffffffffffffffffffffffff1673ffffffffffffffffffffffffffffffffffffffff16815260200190815260200160002060009054906101000a900461ffff1661ffff16600860003373ffffffffffffffffffffffffffffffffffffffff1673ffffffffffffffffffffffffffffffffffffffff16815260200190815260200160002060009054906101000a900461ffff1661ffff1610611216576040517f08c379a000000000000000000000000000000000000000000000000000000000815260040161120d90612623565b60405180910390fd5b600054421161125a576040517f08c379a000000000000000000000000000000000000000000000000000000000815260040161125190612486565b60405180910390fd5b6202a30060005461126b91906121c7565b4211156112ad576040517f08c379a00000000000000000000000000000000000000000000000000000000081526004016112a4906124f2565b60405180910390fd5b6112b78383611b4b565b156112f7576040517f08c379a00000000000000000000000000000000000000000000000000000000081526004016112ee9061268f565b60405180910390fd5b6001600860003373ffffffffffffffffffffffffffffffffffffffff1673ffffffffffffffffffffffffffffffffffffffff16815260200190815260200160002060008282829054906101000a900461ffff1661135491906122f6565b92506101000a81548161ffff021916908361ffff160217905550600660405180604001604052808673ffffffffffffffffffffffffffffffffffffffff16815260200185858080601f016020809104026020016040519081016040528093929190818152602001838380828437600081840152601f19601f82011690508083019250505050505050815250908060018154018082558091505060019003906000526020600020906002020160009091909190915060008201518160000160006101000a81548173ffffffffffffffffffffffffffffffffffffffff021916908373ffffffffffffffffffffffffffffffffffffffff160217905550602082015181600101908051906020019061146b929190611be4565b5050506007339080600181540180825580915050600190039060005260206000200160009091909190916101000a81548173ffffffffffffffffffffffffffffffffffffffff021916908373ffffffffffffffffffffffffffffffffffffffff160217905550600b6001816001815401808255809150500390600052602060002090601091828204019190066002029054906101000a9050508373ffffffffffffffffffffffffffffffffffffffff163373ffffffffffffffffffffffffffffffffffffffff167f86b9bd97bdb1aa709e139f61f71cef4092d6d19d5f94dc1ecdc98402bdc09a2585856040516115639291906126eb565b60405180910390a3600190509392505050565b6000600a60008373ffffffffffffffffffffffffffffffffffffffff1673ffffffffffffffffffffffffffffffffffffffff16815260200190815260200160002060009054906101000a900461ffff16600360008473ffffffffffffffffffffffffffffffffffffffff1673ffffffffffffffffffffffffffffffffffffffff16815260200190815260200160002060009054906101000a900461ffff16600160008573ffffffffffffffffffffffffffffffffffffffff1673ffffffffffffffffffffffffffffffffffffffff16815260200190815260200160002060009054906101000a900461ffff1661166c91906122f6565b611676919061239a565b9050919050565b60016020528060005260406000206000915054906101000a900461ffff1681565b600581815481106116ae57600080fd5b90600052602060002090600202016000915090508060000160009054906101000a900473ffffffffffffffffffffffffffffffffffffffff16908060010180546116f7906122c4565b80601f0160208091040260200160405190810160405280929190818152602001828054611723906122c4565b80156117705780601f1061174557610100808354040283529160200191611770565b820191906000526020600020905b81548152906001019060200180831161175357829003601f168201915b5050505050905082565b6000600680549050905090565b60006005828154811061179d5761179c61221d565b5b906000526020600020906002020160000160009054906101000a900473ffffffffffffffffffffffffffffffffffffffff169050919050565b6060600682815481106117ec576117eb61221d565b5b90600052602060002090600202016001018054611808906122c4565b80601f0160208091040260200160405190810160405280929190818152602001828054611834906122c4565b80156118815780601f1061185657610100808354040283529160200191611881565b820191906000526020600020905b81548152906001019060200180831161186457829003601f168201915b50505050509050919050565b600260009054906101000a900461ffff1681565b6206978081565b600681815481106118b857600080fd5b90600052602060002090600202016000915090508060000160009054906101000a900473ffffffffffffffffffffffffffffffffffffffff1690806001018054611901906122c4565b80601f016020809104026020016040519081016040528092919081815260200182805461192d906122c4565b801561197a5780601f1061194f5761010080835404028352916020019161197a565b820191906000526020600020905b81548152906001019060200180831161195d57829003601f168201915b5050505050905082565b600660006119929190611c6a565b60005b600780549050811015611a435760086000600783815481106119ba576119b961221d565b5b9060005260206000200160009054906101000a900473ffffffffffffffffffffffffffffffffffffffff1673ffffffffffffffffffffffffffffffffffffffff1673ffffffffffffffffffffffffffffffffffffffff16815260200190815260200160002060006101000a81549061ffff02191690558080611a3b9061224c565b915050611995565b5060076000611a529190611c8e565b60005b600980549050811015611b0357600a600060098381548110611a7a57611a7961221d565b5b9060005260206000200160009054906101000a900473ffffffffffffffffffffffffffffffffffffffff1673ffffffffffffffffffffffffffffffffffffffff1673ffffffffffffffffffffffffffffffffffffffff16815260200190815260200160002060006101000a81549061ffff02191690558080611afb9061224c565b915050611a55565b5060096000611b129190611c8e565b600b6000611b209190611caf565b620697806202a300611b3291906121c7565b600080828254611b4291906121c7565b92505081905550565b6000808383604051611b5e92919061273f565b6040518091039020905060005b600680549050811015611bd75760068181548110611b8c57611b8b61221d565b5b9060005260206000209060020201600101604051611baa91906127ec565b6040518091039020821415611bc457600192505050611bde565b8080611bcf9061224c565b915050611b6b565b5060009150505b92915050565b828054611bf0906122c4565b90600052602060002090601f016020900481019282611c125760008555611c59565b82601f10611c2b57805160ff1916838001178555611c59565b82800160010185558215611c59579182015b82811115611c58578251825591602001919060010190611c3d565b5b509050611c669190611cd7565b5090565b5080546000825560020290600052602060002090810190611c8b9190611cf4565b50565b5080546000825590600052602060002090810190611cac9190611cd7565b50565b50805460008255600f016010900490600052602060002090810190611cd49190611cd7565b50565b5b80821115611cf0576000816000905550600101611cd8565b5090565b5b80821115611d3e57600080820160006101000a81549073ffffffffffffffffffffffffffffffffffffffff0219169055600182016000611d359190611d42565b50600201611cf5565b5090565b508054611d4e906122c4565b6000825580601f10611d605750611d7f565b601f016020900490600052602060002090810190611d7e9190611cd7565b5b50565b600081519050919050565b600082825260208201905092915050565b60005b83811015611dbc578082015181840152602081019050611da1565b83811115611dcb576000848401525b50505050565b6000601f19601f8301169050919050565b6000611ded82611d82565b611df78185611d8d565b9350611e07818560208601611d9e565b611e1081611dd1565b840191505092915050565b60006020820190508181036000830152611e358184611de2565b905092915050565b6000819050919050565b611e5081611e3d565b82525050565b6000602082019050611e6b6000830184611e47565b92915050565b600080fd5b600080fd5b611e8481611e3d565b8114611e8f57600080fd5b50565b600081359050611ea181611e7b565b92915050565b600060208284031215611ebd57611ebc611e71565b5b6000611ecb84828501611e92565b91505092915050565b600073ffffffffffffffffffffffffffffffffffffffff82169050919050565b6000611eff82611ed4565b9050919050565b611f0f81611ef4565b82525050565b6000602082019050611f2a6000830184611f06565b92915050565b60008115159050919050565b611f4581611f30565b82525050565b6000602082019050611f606000830184611f3c565b92915050565b600061ffff82169050919050565b611f7d81611f66565b82525050565b6000602082019050611f986000830184611f74565b92915050565b611fa781611ef4565b8114611fb257600080fd5b50565b600081359050611fc481611f9e565b92915050565b611fd381611f66565b8114611fde57600080fd5b50565b600081359050611ff081611fca565b92915050565b6000806040838503121561200d5761200c611e71565b5b600061201b85828601611fb5565b925050602061202c85828601611fe1565b9150509250929050565b60006020828403121561204c5761204b611e71565b5b600061205a84828501611fb5565b91505092915050565b6000806040838503121561207a57612079611e71565b5b600061208885828601611e92565b925050602061209985828601611fe1565b9150509250929050565b600080fd5b600080fd5b600080fd5b60008083601f8401126120c8576120c76120a3565b5b8235905067ffffffffffffffff8111156120e5576120e46120a8565b5b602083019150836001820283011115612101576121006120ad565b5b9250929050565b60008060006040848603121561212157612120611e71565b5b600061212f86828701611fb5565b935050602084013567ffffffffffffffff8111156121505761214f611e76565b5b61215c868287016120b2565b92509250509250925092565b600060408201905061217d6000830185611f06565b818103602083015261218f8184611de2565b90509392505050565b7f4e487b7100000000000000000000000000000000000000000000000000000000600052601160045260246000fd5b60006121d282611e3d565b91506121dd83611e3d565b9250827fffffffffffffffffffffffffffffffffffffffffffffffffffffffffffffffff0382111561221257612211612198565b5b828201905092915050565b7f4e487b7100000000000000000000000000000000000000000000000000000000600052603260045260246000fd5b600061225782611e3d565b91507fffffffffffffffffffffffffffffffffffffffffffffffffffffffffffffffff82141561228a57612289612198565b5b600182019050919050565b7f4e487b7100000000000000000000000000000000000000000000000000000000600052602260045260246000fd5b600060028204905060018216806122dc57607f821691505b602082108114156122f0576122ef612295565b5b50919050565b600061230182611f66565b915061230c83611f66565b92508261ffff0382111561232357612322612198565b5b828201905092915050565b7f746f6f206665772072656d61696e696e67000000000000000000000000000000600082015250565b6000612364601183611d8d565b915061236f8261232e565b602082019050919050565b6000602082019050818103600083015261239381612357565b9050919050565b60006123a582611f66565b91506123b083611f66565b9250828210156123c3576123c2612198565b5b828203905092915050565b7f696e76616c6964206e6f6d696e65650000000000000000000000000000000000600082015250565b6000612404600f83611d8d565b915061240f826123ce565b602082019050919050565b60006020820190508181036000830152612433816123f7565b9050919050565b7f746f6f206561726c790000000000000000000000000000000000000000000000600082015250565b6000612470600983611d8d565b915061247b8261243a565b602082019050919050565b6000602082019050818103600083015261249f81612463565b9050919050565b7f746f6f206c617465000000000000000000000000000000000000000000000000600082015250565b60006124dc600883611d8d565b91506124e7826124a6565b602082019050919050565b6000602082019050818103600083015261250b816124cf565b9050919050565b60008190508160005260206000209050919050565b60008154612534816122c4565b61253e8186611d8d565b94506001821660008114612559576001811461256b5761259e565b60ff198316865260208601935061259e565b61257485612512565b60005b8381101561259657815481890152600182019150602081019050612577565b808801955050505b50505092915050565b600060408201905081810360008301526125c18185612527565b90506125d06020830184611f74565b9392505050565b7f746f6f206d616e79206e6f6d696e6174696f6e73000000000000000000000000600082015250565b600061260d601483611d8d565b9150612618826125d7565b602082019050919050565b6000602082019050818103600083015261263c81612600565b9050919050565b7f616c7265616479206e6f6d696e61746500000000000000000000000000000000600082015250565b6000612679601083611d8d565b915061268482612643565b602082019050919050565b600060208201905081810360008301526126a88161266c565b9050919050565b82818337600083830152505050565b60006126ca8385611d8d565b93506126d78385846126af565b6126e083611dd1565b840190509392505050565b600060208201905081810360008301526127068184866126be565b90509392505050565b600081905092915050565b6000612726838561270f565b93506127338385846126af565b82840190509392505050565b600061274c82848661271a565b91508190509392505050565b60008190508160005260206000209050919050565b6000815461277a816122c4565b612784818661270f565b9450600182166000811461279f57600181146127b0576127e3565b60ff198316865281860193506127e3565b6127b985612758565b60005b838110156127db578154818901526001820191506020810190506127bc565b838801955050505b50505092915050565b60006127f8828461276d565b91508190509291505056fea264697066735822122053530d0c9960c386080240f13a2da4ea9acbaecf2260dd93d81f2b223f9c21e464736f6c634300080b0033",
  "immutableReferences": {},
  "source": "pragma solidity >=0.4.22 <0.9.0;\n\ncontract Token {\n\n    struct Article {\n        address writer;\n        string url;\n    }\n\n    string public constant name = \"Bellingcoin\";\n    uint public constant seconds_for_nominations = 172800;\n    uint public constant seconds_for_voting = 432000;\n    uint public startTime;\n\n    mapping(address => uint16) public goveranceBalance;\n    uint16 public goveranceSupply;\n\n    mapping(address => uint16) public rewardBalance;\n    uint16 public rewardSupply;\n\n    Article[] public winners;\n\n    Article[] public nominees;\n    // number of nominations made by each address\n    address[] nominators;\n    mapping(address => uint16) nominationsMade;\n    // number of votes cast by each address\n    address[] voters;\n    mapping(address => uint16) votesCast;\n    // cumulative votes for each nominee\n    uint16[] public voteCounts;\n\n    constructor(uint16 _supply, uint _start) public {\n        goveranceSupply = _supply;\n        goveranceBalance[msg.sender] = _supply;\n        startTime = _start;\n        rewardSupply = 0;\n    }\n\n    event Nominate(address indexed _nominator, address indexed _writer, string _url);\n    event Vote(address indexed _voter, string _url, uint16 _value);\n    event Transfer_Goverance(address indexed _from, address indexed _to, uint16 _value);\n    event Transfer_Reward(address indexed _from, address indexed _to, uint16 _value);\n    event Winner(address indexed _writer, string _url);\n\n    function nomineesWriter(uint _index) public view returns (address) {\n        return nominees[_index].writer;\n    }\n\n    function nomineesUrl(uint _index) public view returns (string memory) {\n        return nominees[_index].url;\n    }\n\n    function nomineesLength() public view returns (uint) {\n        return nominees.length;\n    }\n\n    function winnersWriter(uint _index) public view returns (address) {\n        return winners[_index].writer;\n    }\n\n    function winnersUrl(uint _index) public view returns (string memory) {\n        return winners[_index].url;\n    }\n\n    function winnersLength() public view returns (uint) {\n        return winners.length;\n    }\n\n    function votingEnds() public view returns (uint) {\n        return startTime + seconds_for_nominations + seconds_for_voting;\n    }\n\n    function votesRemaining(address _voter) public view returns (uint16) {\n        return goveranceBalance[_voter] + rewardBalance[_voter] - votesCast[_voter];\n    }\n\n    function submitNomination(address _writer, string calldata _url) public returns (bool) {\n        require(nominationsMade[msg.sender] < goveranceBalance[msg.sender], \"too many nominations\");\n        require(block.timestamp > startTime, \"too early\");\n        require(block.timestamp <= startTime + seconds_for_nominations, \"too late\");\n        require(!alreadyNominated(_url), \"already nominate\");\n\n        nominationsMade[msg.sender] += 1;\n        nominees.push(Article(_writer, _url));\n        nominators.push(msg.sender);\n        voteCounts.push();\n\n        emit Nominate(msg.sender, _writer, _url);\n        return true;\n    }\n\n    function castVotes(uint _index, uint16 _value) public returns (bool) {\n        require(votesRemaining(msg.sender) >= _value, \"too few remaining\");\n        require(_index < nominees.length, \"invalid nominee\");\n        require(block.timestamp > startTime + seconds_for_nominations, \"too early\");\n        require(block.timestamp <= startTime + seconds_for_nominations + seconds_for_voting, \"too late\");\n\n        votesCast[msg.sender] += _value;\n        voteCounts[_index] += _value;\n        voters.push(msg.sender);\n\n        emit Vote(msg.sender, nominees[_index].url, _value);\n        return true;\n    }\n\n    function transferGoverance(address _to, uint16 _value) public returns (bool) {\n        require(votesRemaining(msg.sender) >= _value, \"too few remaining\");\n\n        goveranceBalance[msg.sender] -= _value;\n        goveranceBalance[_to] += _value;\n\n        emit Transfer_Goverance(msg.sender, _to, _value);\n        return true;\n    }\n\n    function transferReward(address _to, uint16 _value) public returns (bool) {\n        require(votesRemaining(msg.sender) >= _value, \"too few remaining\");\n\n        rewardBalance[msg.sender] -= _value;\n        rewardBalance[_to] += _value;\n\n        emit Transfer_Reward(msg.sender, _to, _value);\n        return true;\n    }\n\n    function updateWinner() public returns (bool) {\n        if (block.timestamp > startTime + seconds_for_nominations + seconds_for_voting) {\n            if (nominees.length > 0) {\n                uint index = 0;\n                for (uint i = 1; i < nominees.length; i++) {\n                    if (voteCounts[i] > voteCounts[index]) {\n                        index = i;\n                    }\n                }\n                Article memory winner = nominees[index];\n\n                winners.push(winner);\n                rewardBalance[winner.writer] += 1;\n                rewardSupply += 1;\n                emit Winner(winner.writer, winner.url);\n            }\n           \n            resetVoting();\n            return true;\n        }\n        return false;\n    }\n\n    function resetVoting() private {\n        delete nominees;\n\n        for (uint i = 0; i < nominators.length; i++) {\n            delete nominationsMade[nominators[i]];\n        }\n        delete nominators;\n\n        for (uint i = 0; i < voters.length; i++) {\n            delete votesCast[voters[i]];\n        }\n        delete voters;\n\n        delete voteCounts;\n\n        startTime += seconds_for_nominations + seconds_for_voting;\n    }\n\n    function alreadyNominated(string calldata _url) private view returns (bool) {\n        bytes32 hashVal = keccak256(bytes(_url));\n        for (uint i = 0; i < nominees.length; i++) {\n            if (hashVal == keccak256(bytes(nominees[i].url))) {\n                return true;\n            }\n        }\n        return false;\n    }\n    \n}\n",
  "sourcePath": "/home/liamdj/Desktop/OsinToken/contracts/bellingcoin.sol",
  "compiler": {
    "name": "solc",
    "version": "0.8.11+commit.d7f03943.Emscripten.clang"
  },
  "schemaVersion": "3.4.5",
  "updatedAt": "2022-04-28T00:24:42.212Z",
  "devdoc": {
    "kind": "dev",
    "methods": {},
    "version": 1
  },
  "userdoc": {
    "kind": "user",
    "methods": {},
    "version": 1
  }
}