{
  "contractName": "Token",
  "abi": [
    {
      "inputs": [
        {
          "internalType": "uint16",
          "name": "_supply",
          "type": "uint16"
        },
        {
          "internalType": "uint256",
          "name": "_start",
          "type": "uint256"
        }
      ],
      "stateMutability": "nonpayable",
      "type": "constructor"
    },
    {
      "anonymous": false,
      "inputs": [
        {
          "indexed": true,
          "internalType": "address",
          "name": "_nominator",
          "type": "address"
        },
        {
          "indexed": true,
          "internalType": "address",
          "name": "_writer",
          "type": "address"
        },
        {
          "indexed": false,
          "internalType": "string",
          "name": "_url",
          "type": "string"
        }
      ],
      "name": "Nominate",
      "type": "event"
    },
    {
      "anonymous": false,
      "inputs": [
        {
          "indexed": true,
          "internalType": "address",
          "name": "_from",
          "type": "address"
        },
        {
          "indexed": true,
          "internalType": "address",
          "name": "_to",
          "type": "address"
        },
        {
          "indexed": false,
          "internalType": "uint16",
          "name": "_value",
          "type": "uint16"
        }
      ],
      "name": "Transfer_Goverance",
      "type": "event"
    },
    {
      "anonymous": false,
      "inputs": [
        {
          "indexed": true,
          "internalType": "address",
          "name": "_from",
          "type": "address"
        },
        {
          "indexed": true,
          "internalType": "address",
          "name": "_to",
          "type": "address"
        },
        {
          "indexed": false,
          "internalType": "uint16",
          "name": "_value",
          "type": "uint16"
        }
      ],
      "name": "Transfer_Reward",
      "type": "event"
    },
    {
      "anonymous": false,
      "inputs": [
        {
          "indexed": true,
          "internalType": "address",
          "name": "_voter",
          "type": "address"
        },
        {
          "indexed": false,
          "internalType": "string",
          "name": "_url",
          "type": "string"
        },
        {
          "indexed": false,
          "internalType": "uint16",
          "name": "_value",
          "type": "uint16"
        }
      ],
      "name": "Vote",
      "type": "event"
    },
    {
      "anonymous": false,
      "inputs": [
        {
          "indexed": true,
          "internalType": "address",
          "name": "_writer",
          "type": "address"
        },
        {
          "indexed": false,
          "internalType": "string",
          "name": "_url",
          "type": "string"
        }
      ],
      "name": "Winner",
      "type": "event"
    },
    {
      "inputs": [
        {
          "internalType": "address",
          "name": "",
          "type": "address"
        }
      ],
      "name": "goveranceBalance",
      "outputs": [
        {
          "internalType": "uint16",
          "name": "",
          "type": "uint16"
        }
      ],
      "stateMutability": "view",
      "type": "function",
      "constant": true
    },
    {
      "inputs": [],
      "name": "goveranceSupply",
      "outputs": [
        {
          "internalType": "uint16",
          "name": "",
          "type": "uint16"
        }
      ],
      "stateMutability": "view",
      "type": "function",
      "constant": true
    },
    {
      "inputs": [],
      "name": "name",
      "outputs": [
        {
          "internalType": "string",
          "name": "",
          "type": "string"
        }
      ],
      "stateMutability": "view",
      "type": "function",
      "constant": true
    },
    {
      "inputs": [
        {
          "internalType": "uint256",
          "name": "",
          "type": "uint256"
        }
      ],
      "name": "nominees",
      "outputs": [
        {
          "internalType": "address",
          "name": "writer",
          "type": "address"
        },
        {
          "internalType": "string",
          "name": "url",
          "type": "string"
        }
      ],
      "stateMutability": "view",
      "type": "function",
      "constant": true
    },
    {
      "inputs": [],
      "name": "owner",
      "outputs": [
        {
          "internalType": "address",
          "name": "",
          "type": "address"
        }
      ],
      "stateMutability": "view",
      "type": "function",
      "constant": true
    },
    {
      "inputs": [
        {
          "internalType": "address",
          "name": "",
          "type": "address"
        }
      ],
      "name": "rewardBalance",
      "outputs": [
        {
          "internalType": "uint16",
          "name": "",
          "type": "uint16"
        }
      ],
      "stateMutability": "view",
      "type": "function",
      "constant": true
    },
    {
      "inputs": [],
      "name": "rewardSupply",
      "outputs": [
        {
          "internalType": "uint16",
          "name": "",
          "type": "uint16"
        }
      ],
      "stateMutability": "view",
      "type": "function",
      "constant": true
    },
    {
      "inputs": [],
      "name": "seconds_for_nominations",
      "outputs": [
        {
          "internalType": "uint256",
          "name": "",
          "type": "uint256"
        }
      ],
      "stateMutability": "view",
      "type": "function",
      "constant": true
    },
    {
      "inputs": [],
      "name": "seconds_for_voting",
      "outputs": [
        {
          "internalType": "uint256",
          "name": "",
          "type": "uint256"
        }
      ],
      "stateMutability": "view",
      "type": "function",
      "constant": true
    },
    {
      "inputs": [],
      "name": "startTime",
      "outputs": [
        {
          "internalType": "uint256",
          "name": "",
          "type": "uint256"
        }
      ],
      "stateMutability": "view",
      "type": "function",
      "constant": true
    },
    {
      "inputs": [
        {
          "internalType": "uint256",
          "name": "",
          "type": "uint256"
        }
      ],
      "name": "voteCounts",
      "outputs": [
        {
          "internalType": "uint16",
          "name": "",
          "type": "uint16"
        }
      ],
      "stateMutability": "view",
      "type": "function",
      "constant": true
    },
    {
      "inputs": [
        {
          "internalType": "uint256",
          "name": "",
          "type": "uint256"
        }
      ],
      "name": "winners",
      "outputs": [
        {
          "internalType": "address",
          "name": "writer",
          "type": "address"
        },
        {
          "internalType": "string",
          "name": "url",
          "type": "string"
        }
      ],
      "stateMutability": "view",
      "type": "function",
      "constant": true
    },
    {
      "inputs": [
        {
          "internalType": "uint256",
          "name": "_time",
          "type": "uint256"
        }
      ],
      "name": "setStartTime",
      "outputs": [
        {
          "internalType": "bool",
          "name": "",
          "type": "bool"
        }
      ],
      "stateMutability": "nonpayable",
      "type": "function"
    },
    {
      "inputs": [
        {
          "internalType": "uint256",
          "name": "_index",
          "type": "uint256"
        }
      ],
      "name": "nomineesWriter",
      "outputs": [
        {
          "internalType": "address",
          "name": "",
          "type": "address"
        }
      ],
      "stateMutability": "view",
      "type": "function",
      "constant": true
    },
    {
      "inputs": [],
      "name": "get_supply",
      "outputs": [
        {
          "internalType": "uint256",
          "name": "",
          "type": "uint256"
        }
      ],
      "stateMutability": "view",
      "type": "function",
      "constant": true
    },
    {
      "inputs": [],
      "name": "get_time",
      "outputs": [
        {
          "internalType": "uint256",
          "name": "",
          "type": "uint256"
        }
      ],
      "stateMutability": "view",
      "type": "function",
      "constant": true
    },
    {
      "inputs": [
        {
          "internalType": "uint256",
          "name": "_index",
          "type": "uint256"
        }
      ],
      "name": "nomineesUrl",
      "outputs": [
        {
          "internalType": "string",
          "name": "",
          "type": "string"
        }
      ],
      "stateMutability": "view",
      "type": "function",
      "constant": true
    },
    {
      "inputs": [],
      "name": "nomineesLength",
      "outputs": [
        {
          "internalType": "uint256",
          "name": "",
          "type": "uint256"
        }
      ],
      "stateMutability": "view",
      "type": "function",
      "constant": true
    },
    {
      "inputs": [
        {
          "internalType": "uint256",
          "name": "_index",
          "type": "uint256"
        }
      ],
      "name": "winnersWriter",
      "outputs": [
        {
          "internalType": "address",
          "name": "",
          "type": "address"
        }
      ],
      "stateMutability": "view",
      "type": "function",
      "constant": true
    },
    {
      "inputs": [
        {
          "internalType": "uint256",
          "name": "_index",
          "type": "uint256"
        }
      ],
      "name": "winnersUrl",
      "outputs": [
        {
          "internalType": "string",
          "name": "",
          "type": "string"
        }
      ],
      "stateMutability": "view",
      "type": "function",
      "constant": true
    },
    {
      "inputs": [],
      "name": "winnersLength",
      "outputs": [
        {
          "internalType": "uint256",
          "name": "",
          "type": "uint256"
        }
      ],
      "stateMutability": "view",
      "type": "function",
      "constant": true
    },
    {
      "inputs": [],
      "name": "votingEnds",
      "outputs": [
        {
          "internalType": "uint256",
          "name": "",
          "type": "uint256"
        }
      ],
      "stateMutability": "view",
      "type": "function",
      "constant": true
    },
    {
      "inputs": [
        {
          "internalType": "address",
          "name": "_voter",
          "type": "address"
        }
      ],
      "name": "votesRemaining",
      "outputs": [
        {
          "internalType": "uint16",
          "name": "",
          "type": "uint16"
        }
      ],
      "stateMutability": "view",
      "type": "function",
      "constant": true
    },
    {
      "inputs": [
        {
          "internalType": "address",
          "name": "_writer",
          "type": "address"
        },
        {
          "internalType": "string",
          "name": "_url",
          "type": "string"
        }
      ],
      "name": "submitNomination",
      "outputs": [
        {
          "internalType": "bool",
          "name": "",
          "type": "bool"
        }
      ],
      "stateMutability": "nonpayable",
      "type": "function"
    },
    {
      "inputs": [
        {
          "internalType": "uint256",
          "name": "_index",
          "type": "uint256"
        },
        {
          "internalType": "uint16",
          "name": "_value",
          "type": "uint16"
        }
      ],
      "name": "castVotes",
      "outputs": [
        {
          "internalType": "bool",
          "name": "",
          "type": "bool"
        }
      ],
      "stateMutability": "nonpayable",
      "type": "function"
    },
    {
      "inputs": [
        {
          "internalType": "address",
          "name": "_to",
          "type": "address"
        },
        {
          "internalType": "uint16",
          "name": "_value",
          "type": "uint16"
        }
      ],
      "name": "transferGoverance",
      "outputs": [
        {
          "internalType": "bool",
          "name": "",
          "type": "bool"
        }
      ],
      "stateMutability": "nonpayable",
      "type": "function"
    },
    {
      "inputs": [
        {
          "internalType": "address",
          "name": "_to",
          "type": "address"
        },
        {
          "internalType": "uint16",
          "name": "_value",
          "type": "uint16"
        }
      ],
      "name": "transferReward",
      "outputs": [
        {
          "internalType": "bool",
          "name": "",
          "type": "bool"
        }
      ],
      "stateMutability": "nonpayable",
      "type": "function"
    },
    {
      "inputs": [],
      "name": "updateWinner",
      "outputs": [
        {
          "internalType": "bool",
          "name": "",
          "type": "bool"
        }
      ],
      "stateMutability": "nonpayable",
      "type": "function"
    }
  ],
  "bytecode": "0x60806040523480156200001157600080fd5b5060405162002bd838038062002bd883398181016040528101906200003791906200019b565b33600160006101000a81548173ffffffffffffffffffffffffffffffffffffffff021916908373ffffffffffffffffffffffffffffffffffffffff16021790555081600360006101000a81548161ffff021916908361ffff16021790555081600260003373ffffffffffffffffffffffffffffffffffffffff1673ffffffffffffffffffffffffffffffffffffffff16815260200190815260200160002060006101000a81548161ffff021916908361ffff160217905550806000819055506000600560006101000a81548161ffff021916908361ffff1602179055505050620001e2565b600080fd5b600061ffff82169050919050565b6200013a8162000121565b81146200014657600080fd5b50565b6000815190506200015a816200012f565b92915050565b6000819050919050565b620001758162000160565b81146200018157600080fd5b50565b60008151905062000195816200016a565b92915050565b60008060408385031215620001b557620001b46200011c565b5b6000620001c58582860162000149565b9250506020620001d88582860162000184565b9150509250929050565b6129e680620001f26000396000f3fe608060405234801561001057600080fd5b50600436106101c45760003560e01c80637c9f512a116100f9578063a2fb117511610097578063d1fe8b8f11610071578063d1fe8b8f14610584578063d20e6df4146105b4578063df7b637b146105d2578063eec6b91e146105f0576101c4565b8063a2fb117514610505578063aebd9dd414610536578063c723035714610554576101c4565b80638da5cb5b116100d35780638da5cb5b1461047b57806394be82ba14610499578063966a1961146104c9578063a038d41c146104e7576101c4565b80637c9f512a146103eb57806384ecc4db1461041b578063885515da1461044b576101c4565b80633e0a322d1161016657806367b40cf71161014057806367b40cf71461034f5780636b0c341b1461037f57806378e979251461039d5780637b5ea02b146103bb576101c4565b80633e0a322d146102bf5780633e286cca146102ef578063527834a71461031f576101c4565b80632c3c2fd2116101a25780632c3c2fd2146102235780633376def8146102535780633b52f2be146102715780633c3a220d1461028f576101c4565b806306fdde03146101c95780631ab6a181146101e7578063280ee4ee14610205575b600080fd5b6101d1610621565b6040516101de9190611fc8565b60405180910390f35b6101ef61065a565b6040516101fc9190612003565b60405180910390f35b61020d610661565b60405161021a9190612003565b60405180910390f35b61023d60048036038101906102389190612054565b610687565b60405161024a91906120c2565b60405180910390f35b61025b6106d6565b60405161026891906120f8565b60405180910390f35b610279610a89565b6040516102869190612003565b60405180910390f35b6102a960048036038101906102a49190612054565b610a96565b6040516102b69190612130565b60405180910390f35b6102d960048036038101906102d49190612054565b610ace565b6040516102e691906120f8565b60405180910390f35b610309600480360381019061030491906121a3565b610b3a565b60405161031691906120f8565b60405180910390f35b610339600480360381019061033491906121a3565b610cea565b60405161034691906120f8565b60405180910390f35b610369600480360381019061036491906121e3565b610e9a565b6040516103769190612130565b60405180910390f35b610387610ebb565b6040516103949190612130565b60405180910390f35b6103a5610ecf565b6040516103b29190612003565b60405180910390f35b6103d560048036038101906103d09190612210565b610ed5565b6040516103e291906120f8565b60405180910390f35b61040560048036038101906104009190612054565b6111db565b6040516104129190611fc8565b60405180910390f35b610435600480360381019061043091906122b5565b611292565b60405161044291906120f8565b60405180910390f35b610465600480360381019061046091906121e3565b6116d8565b6040516104729190612130565b60405180910390f35b6104836117df565b60405161049091906120c2565b60405180910390f35b6104b360048036038101906104ae91906121e3565b611805565b6040516104c09190612130565b60405180910390f35b6104d1611826565b6040516104de9190612003565b60405180910390f35b6104ef61182f565b6040516104fc9190612003565b60405180910390f35b61051f600480360381019061051a9190612054565b61184b565b60405161052d929190612315565b60405180910390f35b61053e611927565b60405161054b9190612003565b60405180910390f35b61056e60048036038101906105699190612054565b611934565b60405161057b91906120c2565b60405180910390f35b61059e60048036038101906105999190612054565b611983565b6040516105ab9190611fc8565b60405180910390f35b6105bc611a3a565b6040516105c99190612130565b60405180910390f35b6105da611a4e565b6040516105e79190612003565b60405180910390f35b61060a60048036038101906106059190612054565b611a55565b604051610618929190612315565b60405180910390f35b6040518060400160405280600b81526020017f42656c6c696e67636f696e00000000000000000000000000000000000000000081525081565b6202a30081565b6000620697806202a3006000546106789190612374565b6106829190612374565b905090565b60006007828154811061069d5761069c6123ca565b5b906000526020600020906002020160000160009054906101000a900473ffffffffffffffffffffffffffffffffffffffff169050919050565b6000620697806202a3006000546106ed9190612374565b6106f79190612374565b421115610a815760006007805490501115610a7057600080600190505b6007805490508110156107b657600c8281548110610735576107346123ca565b5b90600052602060002090601091828204019190066002029054906101000a900461ffff1661ffff16600c8281548110610771576107706123ca565b5b90600052602060002090601091828204019190066002029054906101000a900461ffff1661ffff1611156107a3578091505b80806107ae906123f9565b915050610714565b506000600782815481106107cd576107cc6123ca565b5b90600052602060002090600202016040518060400160405290816000820160009054906101000a900473ffffffffffffffffffffffffffffffffffffffff1673ffffffffffffffffffffffffffffffffffffffff1673ffffffffffffffffffffffffffffffffffffffff16815260200160018201805461084c90612471565b80601f016020809104026020016040519081016040528092919081815260200182805461087890612471565b80156108c55780601f1061089a576101008083540402835291602001916108c5565b820191906000526020600020905b8154815290600101906020018083116108a857829003601f168201915b5050505050815250509050600681908060018154018082558091505060019003906000526020600020906002020160009091909190915060008201518160000160006101000a81548173ffffffffffffffffffffffffffffffffffffffff021916908373ffffffffffffffffffffffffffffffffffffffff160217905550602082015181600101908051906020019061095f929190611d91565b505050600160046000836000015173ffffffffffffffffffffffffffffffffffffffff1673ffffffffffffffffffffffffffffffffffffffff16815260200190815260200160002060008282829054906101000a900461ffff166109c391906124a3565b92506101000a81548161ffff021916908361ffff1602179055506001600560008282829054906101000a900461ffff166109fd91906124a3565b92506101000a81548161ffff021916908361ffff160217905550806000015173ffffffffffffffffffffffffffffffffffffffff167f45edd59c4f5dea5f690cd524f1a6ea9cba17b09235c1bfaa2cea0d80bac5daba8260200151604051610a659190611fc8565b60405180910390a250505b610a78611b31565b60019050610a86565b600090505b90565b6000600680549050905090565b600c8181548110610aa657600080fd5b9060005260206000209060109182820401919006600202915054906101000a900461ffff1681565b6000600160009054906101000a900473ffffffffffffffffffffffffffffffffffffffff1673ffffffffffffffffffffffffffffffffffffffff163373ffffffffffffffffffffffffffffffffffffffff1614610b2a57600080fd5b8160008190555060019050919050565b60008161ffff16610b4a336116d8565b61ffff161015610b8f576040517f08c379a0000000000000000000000000000000000000000000000000000000008152600401610b8690612527565b60405180910390fd5b81600460003373ffffffffffffffffffffffffffffffffffffffff1673ffffffffffffffffffffffffffffffffffffffff16815260200190815260200160002060008282829054906101000a900461ffff16610beb9190612547565b92506101000a81548161ffff021916908361ffff16021790555081600460008573ffffffffffffffffffffffffffffffffffffffff1673ffffffffffffffffffffffffffffffffffffffff16815260200190815260200160002060008282829054906101000a900461ffff16610c6191906124a3565b92506101000a81548161ffff021916908361ffff1602179055508273ffffffffffffffffffffffffffffffffffffffff163373ffffffffffffffffffffffffffffffffffffffff167fae13b1b9025e718165e591dfa0112bd25bfc4707360823943febf4a50e79e0fd84604051610cd89190612130565b60405180910390a36001905092915050565b60008161ffff16610cfa336116d8565b61ffff161015610d3f576040517f08c379a0000000000000000000000000000000000000000000000000000000008152600401610d3690612527565b60405180910390fd5b81600260003373ffffffffffffffffffffffffffffffffffffffff1673ffffffffffffffffffffffffffffffffffffffff16815260200190815260200160002060008282829054906101000a900461ffff16610d9b9190612547565b92506101000a81548161ffff021916908361ffff16021790555081600260008573ffffffffffffffffffffffffffffffffffffffff1673ffffffffffffffffffffffffffffffffffffffff16815260200190815260200160002060008282829054906101000a900461ffff16610e1191906124a3565b92506101000a81548161ffff021916908361ffff1602179055508273ffffffffffffffffffffffffffffffffffffffff163373ffffffffffffffffffffffffffffffffffffffff167f77a6867a906a43f071dd51ecb754a9611814ec6659608ac73700ef7d7f42e1b984604051610e889190612130565b60405180910390a36001905092915050565b60046020528060005260406000206000915054906101000a900461ffff1681565b600560009054906101000a900461ffff1681565b60005481565b60008161ffff16610ee5336116d8565b61ffff161015610f2a576040517f08c379a0000000000000000000000000000000000000000000000000000000008152600401610f2190612527565b60405180910390fd5b6007805490508310610f71576040517f08c379a0000000000000000000000000000000000000000000000000000000008152600401610f68906125c7565b60405180910390fd5b6202a300600054610f829190612374565b4211610fc3576040517f08c379a0000000000000000000000000000000000000000000000000000000008152600401610fba90612633565b60405180910390fd5b620697806202a300600054610fd89190612374565b610fe29190612374565b421115611024576040517f08c379a000000000000000000000000000000000000000000000000000000000815260040161101b9061269f565b60405180910390fd5b81600b60003373ffffffffffffffffffffffffffffffffffffffff1673ffffffffffffffffffffffffffffffffffffffff16815260200190815260200160002060008282829054906101000a900461ffff1661108091906124a3565b92506101000a81548161ffff021916908361ffff16021790555081600c84815481106110af576110ae6123ca565b5b90600052602060002090601091828204019190066002028282829054906101000a900461ffff166110e091906124a3565b92506101000a81548161ffff021916908361ffff160217905550600a339080600181540180825580915050600190039060005260206000200160009091909190916101000a81548173ffffffffffffffffffffffffffffffffffffffff021916908373ffffffffffffffffffffffffffffffffffffffff1602179055503373ffffffffffffffffffffffffffffffffffffffff167f1a5088a3ca5c105d23f497c6b2068517c63f032c4b02f658fcb02808fce9a511600785815481106111a9576111a86123ca565b5b9060005260206000209060020201600101846040516111c9929190612754565b60405180910390a26001905092915050565b6060600682815481106111f1576111f06123ca565b5b9060005260206000209060020201600101805461120d90612471565b80601f016020809104026020016040519081016040528092919081815260200182805461123990612471565b80156112865780601f1061125b57610100808354040283529160200191611286565b820191906000526020600020905b81548152906001019060200180831161126957829003601f168201915b50505050509050919050565b6000600260003373ffffffffffffffffffffffffffffffffffffffff1673ffffffffffffffffffffffffffffffffffffffff16815260200190815260200160002060009054906101000a900461ffff1661ffff16600960003373ffffffffffffffffffffffffffffffffffffffff1673ffffffffffffffffffffffffffffffffffffffff16815260200190815260200160002060009054906101000a900461ffff1661ffff1610611378576040517f08c379a000000000000000000000000000000000000000000000000000000000815260040161136f906127d0565b60405180910390fd5b60005442116113bc576040517f08c379a00000000000000000000000000000000000000000000000000000000081526004016113b390612633565b60405180910390fd5b6202a3006000546113cd9190612374565b42111561140f576040517f08c379a00000000000000000000000000000000000000000000000000000000081526004016114069061269f565b60405180910390fd5b6114198383611cf8565b15611459576040517f08c379a00000000000000000000000000000000000000000000000000000000081526004016114509061283c565b60405180910390fd5b6001600960003373ffffffffffffffffffffffffffffffffffffffff1673ffffffffffffffffffffffffffffffffffffffff16815260200190815260200160002060008282829054906101000a900461ffff166114b691906124a3565b92506101000a81548161ffff021916908361ffff160217905550600760405180604001604052808673ffffffffffffffffffffffffffffffffffffffff16815260200185858080601f016020809104026020016040519081016040528093929190818152602001838380828437600081840152601f19601f82011690508083019250505050505050815250908060018154018082558091505060019003906000526020600020906002020160009091909190915060008201518160000160006101000a81548173ffffffffffffffffffffffffffffffffffffffff021916908373ffffffffffffffffffffffffffffffffffffffff16021790555060208201518160010190805190602001906115cd929190611d91565b5050506008339080600181540180825580915050600190039060005260206000200160009091909190916101000a81548173ffffffffffffffffffffffffffffffffffffffff021916908373ffffffffffffffffffffffffffffffffffffffff160217905550600c6001816001815401808255809150500390600052602060002090601091828204019190066002029054906101000a9050508373ffffffffffffffffffffffffffffffffffffffff163373ffffffffffffffffffffffffffffffffffffffff167f86b9bd97bdb1aa709e139f61f71cef4092d6d19d5f94dc1ecdc98402bdc09a2585856040516116c5929190612898565b60405180910390a3600190509392505050565b6000600b60008373ffffffffffffffffffffffffffffffffffffffff1673ffffffffffffffffffffffffffffffffffffffff16815260200190815260200160002060009054906101000a900461ffff16600460008473ffffffffffffffffffffffffffffffffffffffff1673ffffffffffffffffffffffffffffffffffffffff16815260200190815260200160002060009054906101000a900461ffff16600260008573ffffffffffffffffffffffffffffffffffffffff1673ffffffffffffffffffffffffffffffffffffffff16815260200190815260200160002060009054906101000a900461ffff166117ce91906124a3565b6117d89190612547565b9050919050565b600160009054906101000a900473ffffffffffffffffffffffffffffffffffffffff1681565b60026020528060005260406000206000915054906101000a900461ffff1681565b60008054905090565b6000600560009054906101000a900461ffff1661ffff16905090565b6006818154811061185b57600080fd5b90600052602060002090600202016000915090508060000160009054906101000a900473ffffffffffffffffffffffffffffffffffffffff16908060010180546118a490612471565b80601f01602080910402602001604051908101604052809291908181526020018280546118d090612471565b801561191d5780601f106118f25761010080835404028352916020019161191d565b820191906000526020600020905b81548152906001019060200180831161190057829003601f168201915b5050505050905082565b6000600780549050905090565b60006006828154811061194a576119496123ca565b5b906000526020600020906002020160000160009054906101000a900473ffffffffffffffffffffffffffffffffffffffff169050919050565b606060078281548110611999576119986123ca565b5b906000526020600020906002020160010180546119b590612471565b80601f01602080910402602001604051908101604052809291908181526020018280546119e190612471565b8015611a2e5780601f10611a0357610100808354040283529160200191611a2e565b820191906000526020600020905b815481529060010190602001808311611a1157829003601f168201915b50505050509050919050565b600360009054906101000a900461ffff1681565b6206978081565b60078181548110611a6557600080fd5b90600052602060002090600202016000915090508060000160009054906101000a900473ffffffffffffffffffffffffffffffffffffffff1690806001018054611aae90612471565b80601f0160208091040260200160405190810160405280929190818152602001828054611ada90612471565b8015611b275780601f10611afc57610100808354040283529160200191611b27565b820191906000526020600020905b815481529060010190602001808311611b0a57829003601f168201915b5050505050905082565b60076000611b3f9190611e17565b60005b600880549050811015611bf0576009600060088381548110611b6757611b666123ca565b5b9060005260206000200160009054906101000a900473ffffffffffffffffffffffffffffffffffffffff1673ffffffffffffffffffffffffffffffffffffffff1673ffffffffffffffffffffffffffffffffffffffff16815260200190815260200160002060006101000a81549061ffff02191690558080611be8906123f9565b915050611b42565b5060086000611bff9190611e3b565b60005b600a80549050811015611cb057600b6000600a8381548110611c2757611c266123ca565b5b9060005260206000200160009054906101000a900473ffffffffffffffffffffffffffffffffffffffff1673ffffffffffffffffffffffffffffffffffffffff1673ffffffffffffffffffffffffffffffffffffffff16815260200190815260200160002060006101000a81549061ffff02191690558080611ca8906123f9565b915050611c02565b50600a6000611cbf9190611e3b565b600c6000611ccd9190611e5c565b620697806202a300611cdf9190612374565b600080828254611cef9190612374565b92505081905550565b6000808383604051611d0b9291906128ec565b6040518091039020905060005b600780549050811015611d845760078181548110611d3957611d386123ca565b5b9060005260206000209060020201600101604051611d579190612999565b6040518091039020821415611d7157600192505050611d8b565b8080611d7c906123f9565b915050611d18565b5060009150505b92915050565b828054611d9d90612471565b90600052602060002090601f016020900481019282611dbf5760008555611e06565b82601f10611dd857805160ff1916838001178555611e06565b82800160010185558215611e06579182015b82811115611e05578251825591602001919060010190611dea565b5b509050611e139190611e84565b5090565b5080546000825560020290600052602060002090810190611e389190611ea1565b50565b5080546000825590600052602060002090810190611e599190611e84565b50565b50805460008255600f016010900490600052602060002090810190611e819190611e84565b50565b5b80821115611e9d576000816000905550600101611e85565b5090565b5b80821115611eeb57600080820160006101000a81549073ffffffffffffffffffffffffffffffffffffffff0219169055600182016000611ee29190611eef565b50600201611ea2565b5090565b508054611efb90612471565b6000825580601f10611f0d5750611f2c565b601f016020900490600052602060002090810190611f2b9190611e84565b5b50565b600081519050919050565b600082825260208201905092915050565b60005b83811015611f69578082015181840152602081019050611f4e565b83811115611f78576000848401525b50505050565b6000601f19601f8301169050919050565b6000611f9a82611f2f565b611fa48185611f3a565b9350611fb4818560208601611f4b565b611fbd81611f7e565b840191505092915050565b60006020820190508181036000830152611fe28184611f8f565b905092915050565b6000819050919050565b611ffd81611fea565b82525050565b60006020820190506120186000830184611ff4565b92915050565b600080fd5b600080fd5b61203181611fea565b811461203c57600080fd5b50565b60008135905061204e81612028565b92915050565b60006020828403121561206a5761206961201e565b5b60006120788482850161203f565b91505092915050565b600073ffffffffffffffffffffffffffffffffffffffff82169050919050565b60006120ac82612081565b9050919050565b6120bc816120a1565b82525050565b60006020820190506120d760008301846120b3565b92915050565b60008115159050919050565b6120f2816120dd565b82525050565b600060208201905061210d60008301846120e9565b92915050565b600061ffff82169050919050565b61212a81612113565b82525050565b60006020820190506121456000830184612121565b92915050565b612154816120a1565b811461215f57600080fd5b50565b6000813590506121718161214b565b92915050565b61218081612113565b811461218b57600080fd5b50565b60008135905061219d81612177565b92915050565b600080604083850312156121ba576121b961201e565b5b60006121c885828601612162565b92505060206121d98582860161218e565b9150509250929050565b6000602082840312156121f9576121f861201e565b5b600061220784828501612162565b91505092915050565b600080604083850312156122275761222661201e565b5b60006122358582860161203f565b92505060206122468582860161218e565b9150509250929050565b600080fd5b600080fd5b600080fd5b60008083601f84011261227557612274612250565b5b8235905067ffffffffffffffff81111561229257612291612255565b5b6020830191508360018202830111156122ae576122ad61225a565b5b9250929050565b6000806000604084860312156122ce576122cd61201e565b5b60006122dc86828701612162565b935050602084013567ffffffffffffffff8111156122fd576122fc612023565b5b6123098682870161225f565b92509250509250925092565b600060408201905061232a60008301856120b3565b818103602083015261233c8184611f8f565b90509392505050565b7f4e487b7100000000000000000000000000000000000000000000000000000000600052601160045260246000fd5b600061237f82611fea565b915061238a83611fea565b9250827fffffffffffffffffffffffffffffffffffffffffffffffffffffffffffffffff038211156123bf576123be612345565b5b828201905092915050565b7f4e487b7100000000000000000000000000000000000000000000000000000000600052603260045260246000fd5b600061240482611fea565b91507fffffffffffffffffffffffffffffffffffffffffffffffffffffffffffffffff82141561243757612436612345565b5b600182019050919050565b7f4e487b7100000000000000000000000000000000000000000000000000000000600052602260045260246000fd5b6000600282049050600182168061248957607f821691505b6020821081141561249d5761249c612442565b5b50919050565b60006124ae82612113565b91506124b983612113565b92508261ffff038211156124d0576124cf612345565b5b828201905092915050565b7f746f6f206665772072656d61696e696e67000000000000000000000000000000600082015250565b6000612511601183611f3a565b915061251c826124db565b602082019050919050565b6000602082019050818103600083015261254081612504565b9050919050565b600061255282612113565b915061255d83612113565b9250828210156125705761256f612345565b5b828203905092915050565b7f696e76616c6964206e6f6d696e65650000000000000000000000000000000000600082015250565b60006125b1600f83611f3a565b91506125bc8261257b565b602082019050919050565b600060208201905081810360008301526125e0816125a4565b9050919050565b7f746f6f206561726c790000000000000000000000000000000000000000000000600082015250565b600061261d600983611f3a565b9150612628826125e7565b602082019050919050565b6000602082019050818103600083015261264c81612610565b9050919050565b7f746f6f206c617465000000000000000000000000000000000000000000000000600082015250565b6000612689600883611f3a565b915061269482612653565b602082019050919050565b600060208201905081810360008301526126b88161267c565b9050919050565b60008190508160005260206000209050919050565b600081546126e181612471565b6126eb8186611f3a565b9450600182166000811461270657600181146127185761274b565b60ff198316865260208601935061274b565b612721856126bf565b60005b8381101561274357815481890152600182019150602081019050612724565b808801955050505b50505092915050565b6000604082019050818103600083015261276e81856126d4565b905061277d6020830184612121565b9392505050565b7f746f6f206d616e79206e6f6d696e6174696f6e73000000000000000000000000600082015250565b60006127ba601483611f3a565b91506127c582612784565b602082019050919050565b600060208201905081810360008301526127e9816127ad565b9050919050565b7f616c7265616479206e6f6d696e61746500000000000000000000000000000000600082015250565b6000612826601083611f3a565b9150612831826127f0565b602082019050919050565b6000602082019050818103600083015261285581612819565b9050919050565b82818337600083830152505050565b60006128778385611f3a565b935061288483858461285c565b61288d83611f7e565b840190509392505050565b600060208201905081810360008301526128b381848661286b565b90509392505050565b600081905092915050565b60006128d383856128bc565b93506128e083858461285c565b82840190509392505050565b60006128f98284866128c7565b91508190509392505050565b60008190508160005260206000209050919050565b6000815461292781612471565b61293181866128bc565b9450600182166000811461294c576001811461295d57612990565b60ff19831686528186019350612990565b61296685612905565b60005b8381101561298857815481890152600182019150602081019050612969565b838801955050505b50505092915050565b60006129a5828461291a565b91508190509291505056fea2646970667358221220ea23c98a1b75f8a3fdb31eab233fcbdcb4e3296e88414ee0842e66649ec5a02d64736f6c634300080b0033",
  "immutableReferences": {},
  "source": "pragma solidity >=0.4.22 <0.9.0;\n\ncontract Token {\n\n    struct Article {\n        address writer;\n        string url;\n    }\n\n    string public constant name = \"Bellingcoin\";\n    uint public constant seconds_for_nominations = 172800;\n    uint public constant seconds_for_voting = 432000;\n    uint public startTime;\n    address public owner;\n\n    mapping(address => uint16) public goveranceBalance;\n    uint16 public goveranceSupply;\n\n    mapping(address => uint16) public rewardBalance;\n    uint16 public rewardSupply;\n\n    Article[] public winners;\n\n    Article[] public nominees;\n    // number of nominations made by each address\n    address[] nominators;\n    mapping(address => uint16) nominationsMade;\n    // number of votes cast by each address\n    address[] voters;\n    mapping(address => uint16) votesCast;\n    // cumulative votes for each nominee\n    uint16[] public voteCounts;\n\n    constructor(uint16 _supply, uint _start) public {\n        owner = msg.sender;\n        goveranceSupply = _supply;\n        goveranceBalance[msg.sender] = _supply;\n        startTime = _start;\n        rewardSupply = 0;\n    }\n\n    event Nominate(address indexed _nominator, address indexed _writer, string _url);\n    event Vote(address indexed _voter, string _url, uint16 _value);\n    event Transfer_Goverance(address indexed _from, address indexed _to, uint16 _value);\n    event Transfer_Reward(address indexed _from, address indexed _to, uint16 _value);\n    event Winner(address indexed _writer, string _url);\n\n    function setStartTime(uint _time) public returns (bool) {\n        require(msg.sender == owner);\n        startTime = _time;\n        return true;\n    }\n\n    function nomineesWriter(uint _index) public view returns (address) {\n        return nominees[_index].writer;\n    }\n\n    function get_supply() public view returns (uint) {\n        return rewardSupply;\n    }\n    \n    function get_time() public view returns (uint) {\n        return startTime;\n    }\n    function nomineesUrl(uint _index) public view returns (string memory) {\n        return nominees[_index].url;\n    }\n\n    function nomineesLength() public view returns (uint) {\n        return nominees.length;\n    }\n\n    function winnersWriter(uint _index) public view returns (address) {\n        return winners[_index].writer;\n    }\n\n    function winnersUrl(uint _index) public view returns (string memory) {\n        return winners[_index].url;\n    }\n\n    function winnersLength() public view returns (uint) {\n        return winners.length;\n    }\n\n    function votingEnds() public view returns (uint) {\n        return startTime + seconds_for_nominations + seconds_for_voting;\n    }\n\n    function votesRemaining(address _voter) public view returns (uint16) {\n        return goveranceBalance[_voter] + rewardBalance[_voter] - votesCast[_voter];\n    }\n\n    function submitNomination(address _writer, string calldata _url) public returns (bool) {\n        require(nominationsMade[msg.sender] < goveranceBalance[msg.sender], \"too many nominations\");\n        require(block.timestamp > startTime, \"too early\");\n        require(block.timestamp <= startTime + seconds_for_nominations, \"too late\");\n        require(!alreadyNominated(_url), \"already nominate\");\n\n        nominationsMade[msg.sender] += 1;\n        nominees.push(Article(_writer, _url));\n        nominators.push(msg.sender);\n        voteCounts.push();\n\n        emit Nominate(msg.sender, _writer, _url);\n        return true;\n    }\n\n    function castVotes(uint _index, uint16 _value) public returns (bool) {\n        require(votesRemaining(msg.sender) >= _value, \"too few remaining\");\n        require(_index < nominees.length, \"invalid nominee\");\n        require(block.timestamp > startTime + seconds_for_nominations, \"too early\");\n        require(block.timestamp <= startTime + seconds_for_nominations + seconds_for_voting, \"too late\");\n\n        votesCast[msg.sender] += _value;\n        voteCounts[_index] += _value;\n        voters.push(msg.sender);\n\n        emit Vote(msg.sender, nominees[_index].url, _value);\n        return true;\n    }\n\n    function transferGoverance(address _to, uint16 _value) public returns (bool) {\n        require(votesRemaining(msg.sender) >= _value, \"too few remaining\");\n\n        goveranceBalance[msg.sender] -= _value;\n        goveranceBalance[_to] += _value;\n\n        emit Transfer_Goverance(msg.sender, _to, _value);\n        return true;\n    }\n\n    function transferReward(address _to, uint16 _value) public returns (bool) {\n        require(votesRemaining(msg.sender) >= _value, \"too few remaining\");\n\n        rewardBalance[msg.sender] -= _value;\n        rewardBalance[_to] += _value;\n\n        emit Transfer_Reward(msg.sender, _to, _value);\n        return true;\n    }\n\n    function updateWinner() public returns (bool) {\n        if (block.timestamp > startTime + seconds_for_nominations + seconds_for_voting) {\n            if (nominees.length > 0) {\n                uint index = 0;\n                for (uint i = 1; i < nominees.length; i++) {\n                    if (voteCounts[i] > voteCounts[index]) {\n                        index = i;\n                    }\n                }\n                Article memory winner = nominees[index];\n\n                winners.push(winner);\n                rewardBalance[winner.writer] += 1;\n                rewardSupply += 1;\n                emit Winner(winner.writer, winner.url); \n            }\n           \n            resetVoting();\n            return true;\n        }\n        return false;\n    }\n\n    function resetVoting() private {\n        delete nominees;\n\n        for (uint i = 0; i < nominators.length; i++) {\n            delete nominationsMade[nominators[i]];\n        }\n        delete nominators;\n\n        for (uint i = 0; i < voters.length; i++) {\n            delete votesCast[voters[i]];\n        }\n        delete voters;\n\n        delete voteCounts;\n\n        startTime += seconds_for_nominations + seconds_for_voting;\n    }\n\n    function alreadyNominated(string calldata _url) private view returns (bool) {\n        bytes32 hashVal = keccak256(bytes(_url));\n        for (uint i = 0; i < nominees.length; i++) {\n            if (hashVal == keccak256(bytes(nominees[i].url))) {\n                return true;\n            }\n        }\n        return false;\n    }\n    \n}\n",
  "sourcePath": "/Users/edwardtian/Documents/Code/react/contracts/bellingcoin.sol",
  "compiler": {
    "name": "solc",
    "version": "0.8.11+commit.d7f03943.Emscripten.clang"
  },
  "schemaVersion": "3.4.7",
  "updatedAt": "2022-04-29T00:43:53.461Z",
  "networkType": "ethereum",
  "devdoc": {
    "kind": "dev",
    "methods": {},
    "version": 1
  },
  "userdoc": {
    "kind": "user",
    "methods": {},
    "version": 1
  }
}